{
  "contractName": "Ballot",
  "abi": [
    {
      "inputs": [],
      "payable": false,
      "stateMutability": "nonpayable",
      "type": "constructor"
    },
    {
      "anonymous": false,
      "inputs": [
        {
          "indexed": true,
          "internalType": "address",
          "name": "from",
          "type": "address"
        },
        {
          "indexed": false,
          "internalType": "bool",
          "name": "success",
          "type": "bool"
        },
        {
          "indexed": false,
          "internalType": "string",
          "name": "reason",
          "type": "string"
        }
      ],
      "name": "SystemStatusEvent",
      "type": "event"
    },
    {
      "anonymous": false,
      "inputs": [
        {
          "indexed": true,
          "internalType": "address",
          "name": "from",
          "type": "address"
        },
        {
          "indexed": false,
          "internalType": "bool",
          "name": "success",
          "type": "bool"
        },
        {
          "indexed": false,
          "internalType": "string",
          "name": "reason",
          "type": "string"
        }
      ],
      "name": "VoteStatusEvent",
      "type": "event"
    },
    {
      "constant": false,
      "inputs": [
        {
          "internalType": "uint256[3]",
          "name": "params",
          "type": "uint256[3]"
        }
      ],
      "name": "setParameters",
      "outputs": [],
      "payable": false,
      "stateMutability": "nonpayable",
      "type": "function"
    },
    {
      "constant": false,
      "inputs": [],
      "name": "generatePublicKey",
      "outputs": [],
      "payable": false,
      "stateMutability": "nonpayable",
      "type": "function"
    },
    {
      "constant": false,
      "inputs": [],
      "name": "createVerifiers",
      "outputs": [],
      "payable": false,
      "stateMutability": "nonpayable",
      "type": "function"
    },
    {
      "constant": false,
      "inputs": [],
      "name": "openBallot",
      "outputs": [],
      "payable": false,
      "stateMutability": "nonpayable",
      "type": "function"
    },
    {
      "constant": false,
      "inputs": [],
      "name": "closeBallot",
      "outputs": [],
      "payable": false,
      "stateMutability": "nonpayable",
      "type": "function"
    },
    {
      "constant": false,
      "inputs": [],
      "name": "combineDecryptedShares",
      "outputs": [],
      "payable": false,
      "stateMutability": "nonpayable",
      "type": "function"
    },
    {
      "constant": false,
      "inputs": [
        {
          "internalType": "uint256",
          "name": "key",
          "type": "uint256"
        },
        {
          "internalType": "uint256",
          "name": "proof_c",
          "type": "uint256"
        },
        {
          "internalType": "uint256",
          "name": "proof_d",
          "type": "uint256"
        }
      ],
      "name": "submitPublicKeyShare",
      "outputs": [
        {
          "internalType": "bool",
          "name": "",
          "type": "bool"
        },
        {
          "internalType": "string",
          "name": "",
          "type": "string"
        }
      ],
      "payable": false,
      "stateMutability": "nonpayable",
      "type": "function"
    },
    {
      "constant": false,
      "inputs": [
        {
          "internalType": "uint256",
          "name": "share",
          "type": "uint256"
        },
        {
          "internalType": "uint256",
          "name": "a",
          "type": "uint256"
        },
        {
          "internalType": "uint256",
          "name": "b",
          "type": "uint256"
        },
        {
          "internalType": "uint256",
          "name": "a1",
          "type": "uint256"
        },
        {
          "internalType": "uint256",
          "name": "b1",
          "type": "uint256"
        },
        {
          "internalType": "uint256",
          "name": "d",
          "type": "uint256"
        },
        {
          "internalType": "uint256",
          "name": "f",
          "type": "uint256"
        }
      ],
      "name": "submitDecryptedShare",
      "outputs": [
        {
          "internalType": "bool",
          "name": "",
          "type": "bool"
        },
        {
          "internalType": "string",
          "name": "",
          "type": "string"
        }
      ],
      "payable": false,
      "stateMutability": "nonpayable",
      "type": "function"
    },
    {
      "constant": false,
      "inputs": [
        {
          "internalType": "uint256[2]",
          "name": "cipher",
          "type": "uint256[2]"
        },
        {
          "internalType": "uint256[2]",
          "name": "a",
          "type": "uint256[2]"
        },
        {
          "internalType": "uint256[2]",
          "name": "b",
          "type": "uint256[2]"
        },
        {
          "internalType": "uint256[2]",
          "name": "c",
          "type": "uint256[2]"
        },
        {
          "internalType": "uint256[2]",
          "name": "f",
          "type": "uint256[2]"
        }
      ],
      "name": "vote",
      "outputs": [
        {
          "internalType": "bool",
          "name": "",
          "type": "bool"
        },
        {
          "internalType": "string",
          "name": "",
          "type": "string"
        }
      ],
      "payable": false,
      "stateMutability": "nonpayable",
      "type": "function"
    },
    {
      "constant": true,
      "inputs": [],
      "name": "getParameters",
      "outputs": [
        {
          "internalType": "uint256[3]",
          "name": "",
          "type": "uint256[3]"
        }
      ],
      "payable": false,
      "stateMutability": "view",
      "type": "function"
    },
    {
      "constant": true,
      "inputs": [],
      "name": "getPublicKey",
      "outputs": [
        {
          "internalType": "uint256",
          "name": "",
          "type": "uint256"
        }
      ],
      "payable": false,
      "stateMutability": "view",
      "type": "function"
    },
    {
      "constant": true,
      "inputs": [
        {
          "internalType": "uint256",
          "name": "idx",
          "type": "uint256"
        }
      ],
      "name": "getVote",
      "outputs": [
        {
          "internalType": "uint256",
          "name": "",
          "type": "uint256"
        },
        {
          "internalType": "uint256",
          "name": "",
          "type": "uint256"
        }
      ],
      "payable": false,
      "stateMutability": "view",
      "type": "function"
    },
    {
      "constant": true,
      "inputs": [],
      "name": "getNumberOfVotes",
      "outputs": [
        {
          "internalType": "uint256",
          "name": "",
          "type": "uint256"
        }
      ],
      "payable": false,
      "stateMutability": "view",
      "type": "function"
    },
    {
      "constant": true,
      "inputs": [],
      "name": "getBallotStatus",
      "outputs": [
        {
          "internalType": "bool",
          "name": "",
          "type": "bool"
        }
      ],
      "payable": false,
      "stateMutability": "view",
      "type": "function"
    },
    {
      "constant": true,
      "inputs": [],
      "name": "getNrOfDecryptedShares",
      "outputs": [
        {
          "internalType": "uint256",
          "name": "",
          "type": "uint256"
        }
      ],
      "payable": false,
      "stateMutability": "view",
      "type": "function"
    },
    {
      "constant": true,
      "inputs": [
        {
          "internalType": "uint256",
          "name": "idx",
          "type": "uint256"
        }
      ],
      "name": "getDecryptedShare",
      "outputs": [
        {
          "internalType": "uint256",
          "name": "",
          "type": "uint256"
        }
      ],
      "payable": false,
      "stateMutability": "view",
      "type": "function"
    },
    {
      "constant": true,
      "inputs": [],
      "name": "getVoteResult",
      "outputs": [
        {
          "internalType": "uint256",
          "name": "",
          "type": "uint256"
        }
      ],
      "payable": false,
      "stateMutability": "view",
      "type": "function"
    }
  ],
  "bytecode": "0x60806040523480156200001157600080fd5b50604051620000209062000292565b604051809103906000f0801580156200003d573d6000803e3d6000fd5b506000806101000a81548173ffffffffffffffffffffffffffffffffffffffff021916908373ffffffffffffffffffffffffffffffffffffffff1602179055506040516200008b90620002a0565b604051809103906000f080158015620000a8573d6000803e3d6000fd5b50600160006101000a81548173ffffffffffffffffffffffffffffffffffffffff021916908373ffffffffffffffffffffffffffffffffffffffff160217905550604051620000f790620002ae565b604051809103906000f08015801562000114573d6000803e3d6000fd5b50600260006101000a81548173ffffffffffffffffffffffffffffffffffffffff021916908373ffffffffffffffffffffffffffffffffffffffff1602179055506000601160006101000a81548160ff0219169083151502179055506000601160016101000a81548160ff0219169083151502179055506000601160026101000a81548160ff02191690831515021790555033601160036101000a81548173ffffffffffffffffffffffffffffffffffffffff021916908373ffffffffffffffffffffffffffffffffffffffff16021790555060006007600001819055506000600760010181620002069190620002bc565b506040518060400160405280600981526020017f5245504c4143454d4500000000000000000000000000000000000000000000008152506007600401908051906020019062000257929190620002f1565b50600060078001816200026b919062000378565b506000600760080181620002809190620003ad565b50600060076009018190555062000559565b610fff80620026c283390190565b61074080620036c183390190565b6106b28062003e0183390190565b815481835581811115620002ec57600b0281600b028360005260206000209182019101620002eb9190620003e2565b5b505050565b828054600181600116156101000203166002900490600052602060002090601f016020900481019282601f106200033457805160ff191683800117855562000365565b8280016001018555821562000365579182015b828111156200036457825182559160200191906001019062000347565b5b50905062000374919062000491565b5090565b815481835581811115620003a857600302816003028360005260206000209182019101620003a79190620004b9565b5b505050565b815481835581811115620003dd57600502816005028360005260206000209182019101620003dc9190620004fa565b5b505050565b6200048e91905b808211156200048a57600080820160006101000a81549073ffffffffffffffffffffffffffffffffffffffff0219169055600182016000808201600090556001820160009055505060038201600080820160006200044891906200054b565b6002820160006200045a91906200054b565b6004820160006200046c91906200054b565b6006820160006200047e91906200054b565b505050600b01620003e9565b5090565b90565b620004b691905b80821115620004b257600081600090555060010162000498565b5090565b90565b620004f791905b80821115620004f357600080820160009055600182016000808201600090556001820160009055505050600301620004c0565b5090565b90565b6200054891905b8082111562000544576000808201600090556001820160008082016000905560018201600090556002820160009055600382016000905550505060050162000501565b5090565b90565b506000815560010160009055565b61215980620005696000396000f3fe608060405234801561001057600080fd5b506004361061010b5760003560e01c806373e867fb116100a2578063a97b8b4d11610071578063a97b8b4d1461042f578063b23d422d14610439578063bb1f683d14610443578063cee024dc1461051e578063df2252b91461053c5761010b565b806373e867fb1461038b5780638742fc3b146103a9578063a10cfae5146103c7578063a5ea11da146103e95761010b565b80634d0013ac116100de5780634d0013ac146101845780635a55c1f01461018e5780635b71c523146101d7578063689778c3146102c55761010b565b80631f50c0ab146101105780632e33445214610152578063339f845b14610170578063345075561461017a575b600080fd5b61013c6004803603602081101561012657600080fd5b810190808035906020019092919050505061056a565b6040518082815260200191505060405180910390f35b61015a610595565b6040518082815260200191505060405180910390f35b610178610607565b005b6101826107d4565b005b61018c6109b9565b005b6101ba600480360360208110156101a457600080fd5b8101908080359060200190929190505050610a30565b604051808381526020018281526020019250505060405180910390f35b61023f600480360360e08110156101ed57600080fd5b8101908080359060200190929190803590602001909291908035906020019092919080359060200190929190803590602001909291908035906020019092919080359060200190929190505050610a86565b604051808315151515815260200180602001828103825283818151815260200191508051906020019080838360005b8381101561028957808201518184015260208101905061026e565b50505050905090810190601f1680156102b65780820380516001836020036101000a031916815260200191505b50935050505060405180910390f35b610305600480360360608110156102db57600080fd5b81019080803590602001909291908035906020019092919080359060200190929190505050610f4f565b604051808315151515815260200180602001828103825283818151815260200191508051906020019080838360005b8381101561034f578082015181840152602081019050610334565b50505050905090810190601f16801561037c5780820380516001836020036101000a031916815260200191505b50935050505060405180910390f35b6103936111f3565b6040518082815260200191505060405180910390f35b6103b1611203565b6040518082815260200191505060405180910390f35b6103cf61122a565b604051808215151515815260200191505060405180910390f35b6103f1611241565b6040518082600360200280838360005b8381101561041c578082015181840152602081019050610401565b5050505090500191505060405180910390f35b610437611291565b005b610441611308565b005b610498600480360361014081101561045a57600080fd5b81019080806040019091929192908060400190919291929080604001909192919290806040019091929192908060400190919291929050505061164a565b604051808315151515815260200180602001828103825283818151815260200191508051906020019080838360005b838110156104e25780820151818401526020810190506104c7565b50505050905090810190601f16801561050f5780820380516001836020036101000a031916815260200191505b50935050505060405180910390f35b610526611d55565b6040518082815260200191505060405180910390f35b6105686004803603606081101561055257600080fd5b8101908080606001909192919290505050611d65565b005b60006007600801828154811061057c57fe5b9060005260206000209060050201600001549050919050565b6000601160029054906101000a900460ff166105fc576040517f08c379a00000000000000000000000000000000000000000000000000000000081526004018080602001828103825260248152602001806120dd6024913960400191505060405180910390fd5b600660000154905090565b601160039054906101000a900473ffffffffffffffffffffffffffffffffffffffff1673ffffffffffffffffffffffffffffffffffffffff163373ffffffffffffffffffffffffffffffffffffffff161461066157600080fd5b6000809054906101000a900473ffffffffffffffffffffffffffffffffffffffff1673ffffffffffffffffffffffffffffffffffffffff166360a2da446003600001546003600101546003600201546006600001546040518563ffffffff1660e01b815260040180858152602001848152602001838152602001828152602001945050505050600060405180830381600087803b15801561070157600080fd5b505af1158015610715573d6000803e3d6000fd5b50505050600160009054906101000a900473ffffffffffffffffffffffffffffffffffffffff1673ffffffffffffffffffffffffffffffffffffffff166360a2da446003600001546003600101546003600201546006600001546040518563ffffffff1660e01b815260040180858152602001848152602001838152602001828152602001945050505050600060405180830381600087803b1580156107ba57600080fd5b505af11580156107ce573d6000803e3d6000fd5b50505050565b601160039054906101000a900473ffffffffffffffffffffffffffffffffffffffff1673ffffffffffffffffffffffffffffffffffffffff163373ffffffffffffffffffffffffffffffffffffffff161461082e57600080fd5b601160029054906101000a900460ff161561084857600080fd5b600060078001805490501161085c57600080fd5b600780018054905060021461087057600080fd5b60006007800160008154811061088257fe5b90600052602060002090600302016000015490506000600190505b600780018054905081101561097c578173__ModuloMathLib_________________________63e616559e90916007800184815481106108d857fe5b9060005260206000209060030201600001546003600001546040518463ffffffff1660e01b815260040180848152602001838152602001828152602001935050505060206040518083038186803b15801561093257600080fd5b505af4158015610946573d6000803e3d6000fd5b505050506040513d602081101561095c57600080fd5b81019080805190602001909291905050509150808060010191505061089d565b506040518060200160405280828152506006600082015181600001559050506001601160026101000a81548160ff02191690831515021790555050565b601160039054906101000a900473ffffffffffffffffffffffffffffffffffffffff1673ffffffffffffffffffffffffffffffffffffffff163373ffffffffffffffffffffffffffffffffffffffff1614610a1357600080fd5b6001601160016101000a81548160ff021916908315150217905550565b60008060076001018381548110610a4357fe5b90600052602060002090600b02016001016000015460076001018481548110610a6857fe5b90600052602060002090600b02016001016001015491509150915091565b60006060601160019054906101000a900460ff1615610b6c573373ffffffffffffffffffffffffffffffffffffffff167f13dd6fe92e00365cc4b5b06c43c90e02579bac92daf813dcc92257094835f9146000604051808215151515815260200180602001828103825260158152602001807f566f7465206973207374696c6c206f6e676f696e6700000000000000000000008152506020019250505060405180910390a260006040518060400160405280601581526020017f566f7465206973207374696c6c206f6e676f696e67000000000000000000000081525091509150610f43565b6000600760030160003373ffffffffffffffffffffffffffffffffffffffff1673ffffffffffffffffffffffffffffffffffffffff168152602001908152602001600020549050600160009054906101000a900473ffffffffffffffffffffffffffffffffffffffff1673ffffffffffffffffffffffffffffffffffffffff1663b6b81a268a8a8a8a8a8a33896040518963ffffffff1660e01b8152600401808981526020018881526020018781526020018681526020018581526020018481526020018373ffffffffffffffffffffffffffffffffffffffff1673ffffffffffffffffffffffffffffffffffffffff1681526020018281526020019850505050505050505060206040518083038186803b158015610c8a57600080fd5b505afa158015610c9e573d6000803e3d6000fd5b505050506040513d6020811015610cb457600080fd5b8101908080519060200190929190505050610d97573373ffffffffffffffffffffffffffffffffffffffff167f13dd6fe92e00365cc4b5b06c43c90e02579bac92daf813dcc92257094835f9146000604051808215151515815260200180602001828103825260118152602001807f50726f6f66206e6f7420636f72726563740000000000000000000000000000008152506020019250505060405180910390a260006040518060400160405280601181526020017f50726f6f66206e6f7420636f72726563740000000000000000000000000000008152509250925050610f43565b610d9f611f14565b6040518060800160405280898152602001888152602001878152602001868152509050600760080160405180604001604052808d815260200183815250908060018154018082558091505090600182039060005260206000209060050201600090919290919091506000820151816000015560208201518160010160008201518160000155602082015181600101556040820151816002015560608201518160030155505050505060405180604001604052808b81526020018a815250600760050160008201518160000155602082015181600101559050503373ffffffffffffffffffffffffffffffffffffffff167f13dd6fe92e00365cc4b5b06c43c90e02579bac92daf813dcc92257094835f91460016040518082151515158152602001806020018281038252601c8152602001807f446563727970746564536861726550726f6f66206163636570746564000000008152506020019250505060405180910390a260016040518060400160405280601181526020017f53756d70726f6f662061636365707465640000000000000000000000000000008152509350935050505b97509795505050505050565b600060606000600260009054906101000a900473ffffffffffffffffffffffffffffffffffffffff1673ffffffffffffffffffffffffffffffffffffffff1663b0caa829868689336040518563ffffffff1660e01b8152600401808581526020018481526020018381526020018273ffffffffffffffffffffffffffffffffffffffff1673ffffffffffffffffffffffffffffffffffffffff16815260200194505050505060206040518083038186803b15801561100c57600080fd5b505afa158015611020573d6000803e3d6000fd5b505050506040513d602081101561103657600080fd5b81019080805190602001909291905050509050806110e2573373ffffffffffffffffffffffffffffffffffffffff167f5e3bcf275ebed27743f1e6a7da420715dbb1cf382076b6b9edcf71ad26b8b454600060405180821515151581526020018060200182810382526024815260200180612101602491396040019250505060405180910390a260006040518060600160405280602481526020016121016024913992509250506111eb565b85600760030160003373ffffffffffffffffffffffffffffffffffffffff1673ffffffffffffffffffffffffffffffffffffffff1681526020019081526020016000208190555060078001604051806040016040528088815260200160405180604001604052808981526020018881525081525090806001815401808255809150509060018203906000526020600020906003020160009091929091909150600082015181600001556020820151816001016000820151816000015560208201518160010155505050505060016040518060400160405280601e81526020017f4b65792047656e65726174696f6e2050726f6f662069732076616c69642e000081525092509250505b935093915050565b6000600760080180549050905090565b6000601160019054906101000a900460ff161561121f57600080fd5b600760090154905090565b6000601160019054906101000a900460ff16905090565b611249611f3c565b601160009054906101000a900460ff1661126257600080fd5b604051806060016040528060036000015481526020016003600101548152602001600360020154815250905090565b601160039054906101000a900473ffffffffffffffffffffffffffffffffffffffff1673ffffffffffffffffffffffffffffffffffffffff163373ffffffffffffffffffffffffffffffffffffffff16146112eb57600080fd5b6000601160016101000a81548160ff021916908315150217905550565b60026007600801805490501461131d57600080fd5b6000600760080160008154811061133057fe5b90600052602060002090600502016000015490506000600190505b60076008018054905081101561142c578173__ModuloMathLib_________________________63e616559e90916007600801848154811061138857fe5b9060005260206000209060050201600001546003600001546040518463ffffffff1660e01b815260040180848152602001838152602001828152602001935050505060206040518083038186803b1580156113e257600080fd5b505af41580156113f6573d6000803e3d6000fd5b505050506040513d602081101561140c57600080fd5b81019080805190602001909291905050509150808060010191505061134b565b50600060076005016001015473__ModuloMathLib_________________________63e616559e90918473__ModuloMathLib_________________________63a9008ad690916003600001546040518363ffffffff1660e01b8152600401808381526020018281526020019250505060206040518083038186803b1580156114b257600080fd5b505af41580156114c6573d6000803e3d6000fd5b505050506040513d60208110156114dc57600080fd5b81019080805190602001909291905050506003600001546040518463ffffffff1660e01b815260040180848152602001838152602001828152602001935050505060206040518083038186803b15801561153557600080fd5b505af4158015611549573d6000803e3d6000fd5b505050506040513d602081101561155f57600080fd5b81019080805190602001909291905050509050600080905060006003600201549050600060036000015490505b838273__ModuloMathLib_________________________63edbe2fbd909186856040518463ffffffff1660e01b815260040180848152602001838152602001828152602001935050505060206040518083038186803b1580156115ee57600080fd5b505af4158015611602573d6000803e3d6000fd5b505050506040513d602081101561161857600080fd5b8101908080519060200190929190505050146116395760018301925061158c565b826007600901819055505050505050565b60006060601160019054906101000a900460ff1661172f573373ffffffffffffffffffffffffffffffffffffffff167f13dd6fe92e00365cc4b5b06c43c90e02579bac92daf813dcc92257094835f91460006040518082151515158152602001806020018281038252600d8152602001807f566f7465206e6f74206f70656e000000000000000000000000000000000000008152506020019250505060405180910390a260006040518060400160405280600d81526020017f566f7465206e6f74206f70656e0000000000000000000000000000000000000081525091509150611d4b565b6000809054906101000a900473ffffffffffffffffffffffffffffffffffffffff1673ffffffffffffffffffffffffffffffffffffffff16632817a98f8888888888336040518763ffffffff1660e01b81526004018087600260200280828437600081840152601f19601f82011690508083019250505086600260200280828437600081840152601f19601f82011690508083019250505085600260200280828437600081840152601f19601f82011690508083019250505084600260200280828437600081840152601f19601f82011690508083019250505083600260200280828437600081840152601f19601f8201169050808301925050508273ffffffffffffffffffffffffffffffffffffffff1673ffffffffffffffffffffffffffffffffffffffff168152602001965050505050505060206040518083038186803b15801561187c57600080fd5b505afa158015611890573d6000803e3d6000fd5b505050506040513d60208110156118a657600080fd5b8101908080519060200190929190505050611988573373ffffffffffffffffffffffffffffffffffffffff167f13dd6fe92e00365cc4b5b06c43c90e02579bac92daf813dcc92257094835f9146000604051808215151515815260200180602001828103825260118152602001807f50726f6f66206e6f7420636f72726563740000000000000000000000000000008152506020019250505060405180910390a260006040518060400160405280601181526020017f50726f6f66206e6f7420636f727265637400000000000000000000000000000081525091509150611d4b565b611990611f5e565b6040518060800160405280886002806020026040519081016040528092919082600260200280828437600081840152601f19601f8201169050808301925050505050508152602001876002806020026040519081016040528092919082600260200280828437600081840152601f19601f8201169050808301925050505050508152602001866002806020026040519081016040528092919082600260200280828437600081840152601f19601f8201169050808301925050505050508152602001856002806020026040519081016040528092919082600260200280828437600081840152601f19601f8201169050808301925050505050508152509050611a97611f9e565b60405180604001604052808a600060028110611aaf57fe5b602002013581526020018a600160028110611ac657fe5b60200201358152509050611ad8611fb8565b60405180606001604052803373ffffffffffffffffffffffffffffffffffffffff1681526020018381526020018481525090506007600101819080600181540180825580915050906001820390600052602060002090600b02016000909192909190915060008201518160000160006101000a81548173ffffffffffffffffffffffffffffffffffffffff021916908373ffffffffffffffffffffffffffffffffffffffff16021790555060208201518160010160008201518160000155602082015181600101555050604082015181600301600082015181600001906002611bc2929190611ffb565b50602082015181600201906002611bda929190611ffb565b50604082015181600401906002611bf2929190611ffb565b50606082015181600601906002611c0a929190611ffb565b50505050505060016007600001600082825401925050819055506001600760020160003373ffffffffffffffffffffffffffffffffffffffff1673ffffffffffffffffffffffffffffffffffffffff16815260200190815260200160002060006101000a81548160ff0219169083151502179055503373ffffffffffffffffffffffffffffffffffffffff167f13dd6fe92e00365cc4b5b06c43c90e02579bac92daf813dcc92257094835f9146001604051808215151515815260200180602001828103825260118152602001807f566f7465207761732061636365707465640000000000000000000000000000008152506020019250505060405180910390a260016040518060400160405280601181526020017f566f746520776173206163636570746564000000000000000000000000000000815250945094505050505b9550959350505050565b6000600760010180549050905090565b601160039054906101000a900473ffffffffffffffffffffffffffffffffffffffff1673ffffffffffffffffffffffffffffffffffffffff163373ffffffffffffffffffffffffffffffffffffffff1614611dbf57600080fd5b601160009054906101000a900460ff1615611dd957600080fd5b604051806060016040528082600060038110611df157fe5b6020020135815260200182600160038110611e0857fe5b6020020135815260200182600260038110611e1f57fe5b60200201358152506003600082015181600001556020820151816001015560408201518160020155905050600260009054906101000a900473ffffffffffffffffffffffffffffffffffffffff1673ffffffffffffffffffffffffffffffffffffffff166380d859116003600001546003600101546003600201546040518463ffffffff1660e01b8152600401808481526020018381526020018281526020019350505050600060405180830381600087803b158015611ede57600080fd5b505af1158015611ef2573d6000803e3d6000fd5b505050506001601160006101000a81548160ff02191690831515021790555050565b6040518060800160405280600081526020016000815260200160008152602001600081525090565b6040518060600160405280600390602082028038833980820191505090505090565b6040518060800160405280611f7161203b565b8152602001611f7e61203b565b8152602001611f8b61203b565b8152602001611f9861203b565b81525090565b604051806040016040528060008152602001600081525090565b6040518060600160405280600073ffffffffffffffffffffffffffffffffffffffff168152602001611fe861205d565b8152602001611ff5612077565b81525090565b826002810192821561202a579160200282015b8281111561202957825182559160200191906001019061200e565b5b50905061203791906120b7565b5090565b6040518060400160405280600290602082028038833980820191505090505090565b604051806040016040528060008152602001600081525090565b604051806080016040528061208a61203b565b815260200161209761203b565b81526020016120a461203b565b81526020016120b161203b565b81525090565b6120d991905b808211156120d55760008160009055506001016120bd565b5090565b9056fe5075626c6963204b6579206f66207468652053797374656d206e6f7420796574207365744b65792047656e65726174696f6e2050726f6f66206973206e6f7420636f72726563742ea265627a7a72315820f30af13db2b1164b92fd793d11ce07d955078541e468afcc7cb1ae479cb3a2c764736f6c634300050d0032608060405234801561001057600080fd5b50604051806080016040528060008152602001600081526020016000815260200160008152506000808201518160000155602082015181600101556040820151816002015560608201518160030155905050610f8e806100716000396000f3fe6080604052600436106100295760003560e01c80632817a98f1461002e57806360a2da44146101dd575b600080fd5b34801561003a57600080fd5b506101c3600480360361016081101561005257600080fd5b8101908080604001906002806020026040519081016040528092919082600260200280828437600081840152601f19601f820116905080830192505050505050919291929080604001906002806020026040519081016040528092919082600260200280828437600081840152601f19601f820116905080830192505050505050919291929080604001906002806020026040519081016040528092919082600260200280828437600081840152601f19601f820116905080830192505050505050919291929080604001906002806020026040519081016040528092919082600260200280828437600081840152601f19601f820116905080830192505050505050919291929080604001906002806020026040519081016040528092919082600260200280828437600081840152601f19601f8201169050808301925050505050509192919290803573ffffffffffffffffffffffffffffffffffffffff169060200190929190505050610229565b604051808215151515815260200191505060405180910390f35b610227600480360360808110156101f357600080fd5b8101908080359060200190929190803590602001909291908035906020019092919080359060200190929190505050610444565b005b6000610233610eea565b6040518060a0016040528089815260200188815260200187815260200186815260200185815250905060006102be826020015160006002811061027257fe5b6020020151836060015160006002811061028857fe5b6020020151846080015160006002811061029e57fe5b602002015185600001516000600281106102b457fe5b6020020151610471565b9050600061032283602001516001600281106102d657fe5b602002015184608001516001600281106102ec57fe5b6020020151856060015160016002811061030257fe5b6020020151866000015160006002811061031857fe5b602002015161066d565b90506000610386846040015160006002811061033a57fe5b6020020151856060015160006002811061035057fe5b6020020151866080015160006002811061036657fe5b6020020151876000015160016002811061037c57fe5b6020020151610869565b905060006103ea856040015160016002811061039e57fe5b602002015186606001516001600281106103b457fe5b602002015187608001516001600281106103ca57fe5b602002015188600001516001600281106103e057fe5b6020020151610a65565b9050600061040b86602001518760400151886060015189600001518c610d11565b90508480156104175750835b80156104205750825b80156104295750815b80156104325750805b96505050505050509695505050505050565b83600080018190555082600060010181905550816000600201819055508060006003018190555050505050565b60008060006002015473__ModuloMathLib_________________________63edbe2fbd90918660008001546040518463ffffffff1660e01b815260040180848152602001838152602001828152602001935050505060206040518083038186803b1580156104de57600080fd5b505af41580156104f2573d6000803e3d6000fd5b505050506040513d602081101561050857600080fd5b8101908080519060200190929190505050905060008673__ModuloMathLib_________________________63e616559e90918673__ModuloMathLib_________________________63edbe2fbd90918b60008001546040518463ffffffff1660e01b815260040180848152602001838152602001828152602001935050505060206040518083038186803b15801561059f57600080fd5b505af41580156105b3573d6000803e3d6000fd5b505050506040513d60208110156105c957600080fd5b810190808051906020019092919050505060008001546040518463ffffffff1660e01b815260040180848152602001838152602001828152602001935050505060206040518083038186803b15801561062157600080fd5b505af4158015610635573d6000803e3d6000fd5b505050506040513d602081101561064b57600080fd5b8101908080519060200190929190505050905080821492505050949350505050565b60008060006002015473__ModuloMathLib_________________________63edbe2fbd90918760008001546040518463ffffffff1660e01b815260040180848152602001838152602001828152602001935050505060206040518083038186803b1580156106da57600080fd5b505af41580156106ee573d6000803e3d6000fd5b505050506040513d602081101561070457600080fd5b8101908080519060200190929190505050905060008673__ModuloMathLib_________________________63e616559e90918673__ModuloMathLib_________________________63edbe2fbd90918a60008001546040518463ffffffff1660e01b815260040180848152602001838152602001828152602001935050505060206040518083038186803b15801561079b57600080fd5b505af41580156107af573d6000803e3d6000fd5b505050506040513d60208110156107c557600080fd5b810190808051906020019092919050505060008001546040518463ffffffff1660e01b815260040180848152602001838152602001828152602001935050505060206040518083038186803b15801561081d57600080fd5b505af4158015610831573d6000803e3d6000fd5b505050506040513d602081101561084757600080fd5b8101908080519060200190929190505050905080821492505050949350505050565b60008060006003015473__ModuloMathLib_________________________63edbe2fbd90918660008001546040518463ffffffff1660e01b815260040180848152602001838152602001828152602001935050505060206040518083038186803b1580156108d657600080fd5b505af41580156108ea573d6000803e3d6000fd5b505050506040513d602081101561090057600080fd5b8101908080519060200190929190505050905060008673__ModuloMathLib_________________________63e616559e90918673__ModuloMathLib_________________________63edbe2fbd90918b60008001546040518463ffffffff1660e01b815260040180848152602001838152602001828152602001935050505060206040518083038186803b15801561099757600080fd5b505af41580156109ab573d6000803e3d6000fd5b505050506040513d60208110156109c157600080fd5b810190808051906020019092919050505060008001546040518463ffffffff1660e01b815260040180848152602001838152602001828152602001935050505060206040518083038186803b158015610a1957600080fd5b505af4158015610a2d573d6000803e3d6000fd5b505050506040513d6020811015610a4357600080fd5b8101908080519060200190929190505050905080821492505050949350505050565b60008060006003015473__ModuloMathLib_________________________63edbe2fbd90918660008001546040518463ffffffff1660e01b815260040180848152602001838152602001828152602001935050505060206040518083038186803b158015610ad257600080fd5b505af4158015610ae6573d6000803e3d6000fd5b505050506040513d6020811015610afc57600080fd5b8101908080519060200190929190505050905060008373__ModuloMathLib_________________________636378bd6c909160006002015460008001546040518463ffffffff1660e01b815260040180848152602001838152602001828152602001935050505060206040518083038186803b158015610b7b57600080fd5b505af4158015610b8f573d6000803e3d6000fd5b505050506040513d6020811015610ba557600080fd5b8101908080519060200190929190505050905060008173__ModuloMathLib_________________________63edbe2fbd90918960008001546040518463ffffffff1660e01b815260040180848152602001838152602001828152602001935050505060206040518083038186803b158015610c1f57600080fd5b505af4158015610c33573d6000803e3d6000fd5b505050506040513d6020811015610c4957600080fd5b8101908080519060200190929190505050905060008873__ModuloMathLib_________________________63e616559e90918460008001546040518463ffffffff1660e01b815260040180848152602001838152602001828152602001935050505060206040518083038186803b158015610cc357600080fd5b505af4158015610cd7573d6000803e3d6000fd5b505050506040513d6020811015610ced57600080fd5b81019080805190602001909291905050509050808414945050505050949350505050565b60008084600160028110610d2157fe5b602002015173__ModuloMathLib_________________________63a2f0dc8d909187600060028110610d4f57fe5b60200201516000600101546040518463ffffffff1660e01b815260040180848152602001838152602001828152602001935050505060206040518083038186803b158015610d9c57600080fd5b505af4158015610db0573d6000803e3d6000fd5b505050506040513d6020811015610dc657600080fd5b8101908080519060200190929190505050905060008385600060028110610de957fe5b602002015186600160028110610dfb57fe5b60200201518a600060028110610e0d57fe5b60200201518a600060028110610e1f57fe5b60200201518c600160028110610e3157fe5b60200201518c600160028110610e4357fe5b6020020151604051602001808873ffffffffffffffffffffffffffffffffffffffff1673ffffffffffffffffffffffffffffffffffffffff1660601b81526014018781526020018681526020018581526020018481526020018381526020018281526020019750505050505050506040516020818303038152906040528051906020012090506000600101548160001c81610eda57fe5b0682149250505095945050505050565b6040518060a00160405280610efd610f37565b8152602001610f0a610f37565b8152602001610f17610f37565b8152602001610f24610f37565b8152602001610f31610f37565b81525090565b604051806040016040528060029060208202803883398082019150509050509056fea265627a7a72315820c91f39f4ee3a5bc8d74fe53f4b53dc195c15feb7eff252ee148c21d7650b37b764736f6c634300050d0032608060405234801561001057600080fd5b506040518060800160405280600081526020016000815260200160008152602001600081525060008082015181600001556020820151816001015560408201518160020155606082015181600301559050506106cf806100716000396000f3fe6080604052600436106100295760003560e01c806360a2da441461002e578063b6b81a261461007a575b600080fd5b6100786004803603608081101561004457600080fd5b810190808035906020019092919080359060200190929190803590602001909291908035906020019092919050505061012a565b005b34801561008657600080fd5b50610110600480360361010081101561009e57600080fd5b81019080803590602001909291908035906020019092919080359060200190929190803590602001909291908035906020019092919080359060200190929190803573ffffffffffffffffffffffffffffffffffffffff16906020019092919080359060200190929190505050610157565b604051808215151515815260200191505060405180910390f35b83600080018190555082600060010181905550816000600201819055508060006003018190555050505050565b6000610161610664565b6040518060c001604052808b81526020018a815260200189815260200188815260200187815260200186815250905060006101b58260000151836020015184604001518560600151896000600101546105cf565b90506000826000015173__ModuloMathLib_________________________63edbe2fbd90918560a0015160008001546040518463ffffffff1660e01b815260040180848152602001838152602001828152602001935050505060206040518083038186803b15801561022657600080fd5b505af415801561023a573d6000803e3d6000fd5b505050506040513d602081101561025057600080fd5b810190808051906020019092919050505090506000836040015173__ModuloMathLib_________________________63e616559e9091866080015173__ModuloMathLib_________________________63edbe2fbd90918860008001546040518463ffffffff1660e01b815260040180848152602001838152602001828152602001935050505060206040518083038186803b1580156102ef57600080fd5b505af4158015610303573d6000803e3d6000fd5b505050506040513d602081101561031957600080fd5b810190808051906020019092919050505060008001546040518463ffffffff1660e01b815260040180848152602001838152602001828152602001935050505060206040518083038186803b15801561037157600080fd5b505af4158015610385573d6000803e3d6000fd5b505050506040513d602081101561039b57600080fd5b81019080805190602001909291905050509050600081831490506000806002015473__ModuloMathLib_________________________63edbe2fbd90918860a0015160008001546040518463ffffffff1660e01b815260040180848152602001838152602001828152602001935050505060206040518083038186803b15801561042457600080fd5b505af4158015610438573d6000803e3d6000fd5b505050506040513d602081101561044e57600080fd5b810190808051906020019092919050505090506000866060015173__ModuloMathLib_________________________63e616559e90918b73__ModuloMathLib_________________________63edbe2fbd90918b60008001546040518463ffffffff1660e01b815260040180848152602001838152602001828152602001935050505060206040518083038186803b1580156104e957600080fd5b505af41580156104fd573d6000803e3d6000fd5b505050506040513d602081101561051357600080fd5b810190808051906020019092919050505060008001546040518463ffffffff1660e01b815260040180848152602001838152602001828152602001935050505060206040518083038186803b15801561056b57600080fd5b505af415801561057f573d6000803e3d6000fd5b505050506040513d602081101561059557600080fd5b81019080805190602001909291905050509050600081831490508380156105b95750805b9850505050505050505098975050505050505050565b6000808388888888604051602001808673ffffffffffffffffffffffffffffffffffffffff1673ffffffffffffffffffffffffffffffffffffffff1660601b815260140185815260200184815260200183815260200182815260200195505050505050604051602081830303815290604052805190602001209050828160001c8161065657fe5b069150509695505050505050565b6040518060c00160405280600081526020016000815260200160008152602001600081526020016000815260200160008152509056fea265627a7a723158209372b8cfc2e612e20d7584baade98faec67ab77c26a682281450ec0c246a523e64736f6c634300050d0032608060405234801561001057600080fd5b5060405180606001604052806000815260200160008152602001600081525060008082015181600001556020820151816001015560408201518160020155905050610652806100606000396000f3fe6080604052600436106100295760003560e01c806380d859111461002e578063b0caa82914610070575b600080fd5b61006e6004803603606081101561004457600080fd5b810190808035906020019092919080359060200190929190803590602001909291905050506100f7565b005b34801561007c57600080fd5b506100dd6004803603608081101561009357600080fd5b81019080803590602001909291908035906020019092919080359060200190929190803573ffffffffffffffffffffffffffffffffffffffff169060200190929190505050610119565b604051808215151515815260200191505060405180910390f35b8260008001819055508160006001018190555080600060020181905550505050565b6000806000800154905060008060010154905060008060020154905061013d610603565b60405180604001604052808a8152602001898152509050600061016b83868a85602001518660000151610390565b9050600061017b85898b85610580565b9050600081846000015114905060008573__ModuloMathLib_________________________63edbe2fbd909187602001518b6040518463ffffffff1660e01b815260040180848152602001838152602001828152602001935050505060206040518083038186803b1580156101ef57600080fd5b505af4158015610203573d6000803e3d6000fd5b505050506040513d602081101561021957600080fd5b8101908080519060200190929190505050905060008473__ModuloMathLib_________________________63e616559e90918e73__ModuloMathLib_________________________63edbe2fbd90918b600001518f6040518463ffffffff1660e01b815260040180848152602001838152602001828152602001935050505060206040518083038186803b1580156102b057600080fd5b505af41580156102c4573d6000803e3d6000fd5b505050506040513d60208110156102da57600080fd5b81019080805190602001909291905050508c6040518463ffffffff1660e01b815260040180848152602001838152602001828152602001935050505060206040518083038186803b15801561032e57600080fd5b505af4158015610342573d6000803e3d6000fd5b505050506040513d602081101561035857600080fd5b810190808051906020019092919050505090506000818314905083801561037c5750805b9a5050505050505050505050949350505050565b6000808673__ModuloMathLib_________________________63edbe2fbd909186896040518463ffffffff1660e01b815260040180848152602001838152602001828152602001935050505060206040518083038186803b1580156103f457600080fd5b505af4158015610408573d6000803e3d6000fd5b505050506040513d602081101561041e57600080fd5b8101908080519060200190929190505050905060008573__ModuloMathLib_________________________63edbe2fbd9091868a6040518463ffffffff1660e01b815260040180848152602001838152602001828152602001935050505060206040518083038186803b15801561049457600080fd5b505af41580156104a8573d6000803e3d6000fd5b505050506040513d60208110156104be57600080fd5b8101908080519060200190929190505050905060008273__ModuloMathLib_________________________636378bd6c9091848b6040518463ffffffff1660e01b815260040180848152602001838152602001828152602001935050505060206040518083038186803b15801561053457600080fd5b505af4158015610548573d6000803e3d6000fd5b505050506040513d602081101561055e57600080fd5b8101908080519060200190929190505050905080935050505095945050505050565b600080848484604051602001808473ffffffffffffffffffffffffffffffffffffffff1673ffffffffffffffffffffffffffffffffffffffff1660601b81526014018381526020018281526020019350505050604051602081830303815290604052805190602001209050858160001c816105f757fe5b06915050949350505050565b60405180604001604052806000815260200160008152509056fea265627a7a72315820d9d07f35ed1ca428cd8c44d9c46dc8dfb140cfa8f1355b6a640d8ba81241641464736f6c634300050d0032",
  "source": "pragma solidity ^0.5.13;\n\nimport './VoteProofVerifier.sol';\nimport './SumProofVerifier.sol';\nimport './KeyGenProofVerifier.sol';\nimport './ModuloMathLib.sol';\n\ncontract Ballot {\n    // /////////////////////////////////\n    // libraries\n    // /////////////////////////////////\n    using ModuloMathLib for uint256;\n\n    // /////////////////////////////////\n    // structs\n    // /////////////////////////////////\n    struct SystemParameters {\n        uint256 p; // prime\n        uint256 q; // prime factor: p = 2*q+1\n        uint256 g; // generator\n    }\n\n    struct PublicKey {\n        uint256 h;\n    }\n\n    struct PublicKeyShare {\n        uint256 share;\n        KeyShareProof keyShareProof;\n    }\n\n    struct DecryptedShare {\n        uint256 share;\n        DecryptedShareProof decryptedShareProof;\n    }\n\n    struct Election {\n        uint256 nrOfVoters;\n        Voter[] voters;\n        mapping(address => bool) hasVoted;\n        mapping(address => uint256) pubKeyShareMapping;\n        string votingQuestion;\n        Cipher sumCipher;\n        PublicKeyShare[] publicKeyShares;\n        DecryptedShare[] decryptedShares;\n        uint256 yesVotes;\n    }\n\n    struct Voter {\n        address voterAddress;\n        Cipher cipher;\n        VoteProof voteProof;\n    }\n\n    struct Cipher {\n        uint256 a;\n        uint256 b;\n    }\n\n    struct VoteProof {\n        uint256[2] a;\n        uint256[2] b;\n        uint256[2] c;\n        uint256[2] f;\n    }\n\n    struct DecryptedShareProof {\n        uint256 a1;\n        uint256 b1;\n        uint256 d;\n        uint256 f;\n    }\n\n    struct KeyShareProof {\n        uint256 c;\n        uint256 d;\n    }\n\n    // /////////////////////////////////\n    // constants\n    // /////////////////////////////////\n\n    // The number of PublicKeyShare needed to create the publicKey (# of authorities)\n    uint256 private constant NR_OF_AUTHORITY_NODES = 2;\n\n    // /////////////////////////////////\n    // events\n    // /////////////////////////////////\n    event VoteStatusEvent(address indexed from, bool success, string reason);\n    event SystemStatusEvent(address indexed from, bool success, string reason);\n\n    // /////////////////////////////////\n    // variables\n    // /////////////////////////////////\n    VoteProofVerifier private voteVerifier;\n    SumProofVerifier private sumVerifier;\n    KeyGenProofVerifier private keyGenProofVerifier;\n\n    SystemParameters private systemParameters;\n    PublicKey private publicKey;\n    Election private election;\n    bool private IS_PARAMETERS_SET;\n    bool private IS_VOTING_OPEN;\n    bool private IS_PUBKEY_SET;\n    address private _owner;\n\n    // /////////////////////////////////\n    // constructor\n    // /////////////////////////////////\n    constructor() public {\n        voteVerifier = new VoteProofVerifier();\n        sumVerifier = new SumProofVerifier();\n        keyGenProofVerifier = new KeyGenProofVerifier();\n\n        IS_PARAMETERS_SET = false;\n        IS_VOTING_OPEN = false;\n        IS_PUBKEY_SET = false;\n\n        _owner = msg.sender;\n\n        // initialize empty Election struct\n        election.nrOfVoters = 0;\n        election.voters.length = 0;\n        election.votingQuestion = 'REPLACEME';\n        election.publicKeyShares.length = 0;\n        election.decryptedShares.length = 0;\n        election.yesVotes = 0;\n    }\n\n    // /////////////////////////////////\n    // BUND core functions (owner)\n    // /////////////////////////////////\n    function setParameters(uint256[3] calldata params) external {\n        require(msg.sender == _owner);\n        require(!IS_PARAMETERS_SET);\n        systemParameters = SystemParameters(params[0], params[1], params[2]);\n        keyGenProofVerifier.initialize(systemParameters.p, systemParameters.q, systemParameters.g);\n        IS_PARAMETERS_SET = true;\n    }\n\n    function generatePublicKey() external {\n        require(msg.sender == _owner);\n        require(!IS_PUBKEY_SET);\n        require(election.publicKeyShares.length > 0);\n        require(NR_OF_AUTHORITY_NODES == election.publicKeyShares.length);\n\n        uint256 key = election.publicKeyShares[0].share;\n\n        // create the combines public key\n        for (uint256 i = 1; i < election.publicKeyShares.length; i++) {\n            key = key.modMul(election.publicKeyShares[i].share, systemParameters.p);\n        }\n\n        // set the public key\n        publicKey = PublicKey(key);\n\n        IS_PUBKEY_SET = true;\n    }\n\n    function createVerifiers() public {\n        require(msg.sender == _owner);\n        voteVerifier.initialize(systemParameters.p, systemParameters.q, systemParameters.g, publicKey.h);\n        sumVerifier.initialize(systemParameters.p, systemParameters.q, systemParameters.g, publicKey.h);\n    }\n\n    function openBallot() public {\n        require(msg.sender == _owner);\n\n        IS_VOTING_OPEN = true;\n    }\n\n    function closeBallot() public {\n        require(msg.sender == _owner);\n\n        IS_VOTING_OPEN = false;\n    }\n\n    function combineDecryptedShares() public {\n        require(election.decryptedShares.length == NR_OF_AUTHORITY_NODES);\n\n        uint256 res = election.decryptedShares[0].share;\n\n        for (uint256 i = 1; i < election.decryptedShares.length; i++) {\n            res = res.modMul(election.decryptedShares[i].share, systemParameters.p);\n        }\n\n        uint256 mh = election.sumCipher.b.modMul(res.modInv(systemParameters.p), systemParameters.p);\n\n        // decode message (** is power operator)\n        uint256 m = 0;\n        uint256 g = systemParameters.g;\n        uint256 p = systemParameters.p;\n        while ((g.modPow(m, p)) != mh) {\n            m = m + 1;\n        }\n\n        election.yesVotes = m;\n    }\n\n    // /////////////////////////////////\n    // KANTON core functions\n    // /////////////////////////////////\n    function submitPublicKeyShare(uint256 key, uint256 proof_c, uint256 proof_d)\n        external\n        returns (bool, string memory)\n    {\n        bool proofValid = keyGenProofVerifier.verifyProof(proof_c, proof_d, key, msg.sender);\n\n        if (!proofValid) {\n            emit SystemStatusEvent(msg.sender, false, 'Key Generation Proof is not correct.');\n            return (false, 'Key Generation Proof is not correct.');\n        }\n\n        election.pubKeyShareMapping[msg.sender] = key;\n        election.publicKeyShares.push(PublicKeyShare(key, KeyShareProof(proof_c, proof_d)));\n        return (true, 'Key Generation Proof is valid.');\n    }\n\n    function submitDecryptedShare(uint256 share, uint256 a, uint256 b, uint256 a1, uint256 b1, uint256 d, uint256 f)\n        external\n        returns (bool, string memory)\n    {\n        if (IS_VOTING_OPEN) {\n            emit VoteStatusEvent(msg.sender, false, 'Vote is still ongoing');\n            return (false, 'Vote is still ongoing');\n        }\n\n        uint256 publicKeyShare = election.pubKeyShareMapping[msg.sender];\n        if (!sumVerifier.verifyProof(a, b, a1, b1, d, f, msg.sender, publicKeyShare)) {\n            emit VoteStatusEvent(msg.sender, false, 'Proof not correct');\n            return (false, 'Proof not correct');\n        }\n\n        DecryptedShareProof memory proof = DecryptedShareProof(a1, b1, d, f);\n        election.decryptedShares.push(DecryptedShare(share, proof));\n\n        // TODO: figure out how to do this properly, this is needed in\n        // combineDecryptedShares, but it's not elegant if it's overwritten\n        // each time some authority submits a decrypted share\n        election.sumCipher = Cipher(a, b);\n\n        emit VoteStatusEvent(msg.sender, true, 'DecryptedShareProof accepted');\n        return (true, 'Sumproof accepted');\n    }\n\n    // /////////////////////////////////\n    // VOTER core functions\n    // /////////////////////////////////\n    function vote(\n        uint256[2] calldata cipher,\n        uint256[2] calldata a,\n        uint256[2] calldata b,\n        uint256[2] calldata c,\n        uint256[2] calldata f\n    ) external returns (bool, string memory) {\n        if (!IS_VOTING_OPEN) {\n            emit VoteStatusEvent(msg.sender, false, 'Vote not open');\n            return (false, 'Vote not open');\n        }\n\n        // TODO: Enable once system is ready\n        // if(election.hasVoted[msg.sender]) {\n        // \temit VoteStatusEvent(msg.sender, false, \"Voter already voted\");\n        // \treturn (false, \"Voter already voted\");\n        // }\n\n        if (!voteVerifier.verifyProof(cipher, a, b, c, f, msg.sender)) {\n            emit VoteStatusEvent(msg.sender, false, 'Proof not correct');\n            return (false, 'Proof not correct');\n        }\n\n        VoteProof memory voteProof = VoteProof(a, b, c, f);\n        Cipher memory _cipher = Cipher(cipher[0], cipher[1]);\n        Voter memory voter = Voter(msg.sender, _cipher, voteProof);\n\n        election.voters.push(voter);\n        election.nrOfVoters += 1;\n        election.hasVoted[msg.sender] = true;\n\n        emit VoteStatusEvent(msg.sender, true, 'Vote was accepted');\n        return (true, 'Vote was accepted');\n    }\n\n    // /////////////////////////////////\n    // getters\n    // /////////////////////////////////\n\n    // get system parameters\n    function getParameters() external view returns (uint256[3] memory) {\n        require(IS_PARAMETERS_SET);\n        return [systemParameters.p, systemParameters.q, systemParameters.g];\n    }\n\n    // get combined public key of the system\n    function getPublicKey() public view returns (uint256) {\n        require(IS_PUBKEY_SET, 'Public Key of the System not yet set');\n        return publicKey.h;\n    }\n\n    // get a vote cipher at a specific index\n    function getVote(uint256 idx) public view returns (uint256, uint256) {\n        return (election.voters[idx].cipher.a, election.voters[idx].cipher.b);\n    }\n\n    // get the total number of votes in election.voters\n    function getNumberOfVotes() public view returns (uint256) {\n        return election.voters.length;\n    }\n\n    // get the status of the ballot {open | closed}\n    function getBallotStatus() public view returns (bool) {\n        return IS_VOTING_OPEN;\n    }\n\n    // get the total number of decrypted shares\n    function getNrOfDecryptedShares() public view returns (uint256) {\n        return election.decryptedShares.length;\n    }\n\n    // get a decrypted share at a specific index\n    function getDecryptedShare(uint256 idx) public view returns (uint256) {\n        return election.decryptedShares[idx].share;\n    }\n\n    // get vote result\n    function getVoteResult() public view returns (uint256) {\n        require(!IS_VOTING_OPEN);\n\n        return election.yesVotes;\n    }\n}\n",
  "sourcePath": "/home/nik/dev/uni/map/master-project-sink/contracts/contracts/FiniteField/Ballot.sol",
  "compiler": {
    "name": "solc",
    "version": "0.5.13+commit.5b0b510c.Emscripten.clang"
  },
  "schemaVersion": "3.0.19",
  "updatedAt": "2019-11-30T23:54:25.795Z",
  "networkType": "ethereum",
  "devdoc": {
    "methods": {}
  },
  "userdoc": {
    "methods": {}
  }
}