{
  "contractName": "Ballot",
  "abi": [
    {
      "constant": true,
      "inputs": [],
      "name": "owner",
      "outputs": [
        {
          "name": "",
          "type": "address"
        }
      ],
      "payable": false,
      "stateMutability": "view",
      "type": "function"
    },
    {
      "inputs": [
        {
          "name": "votingQuestion",
          "type": "string"
        },
        {
          "name": "numberOfAuthNodes",
          "type": "uint256"
        },
        {
          "name": "addresses",
          "type": "address[]"
        }
      ],
      "payable": false,
      "stateMutability": "nonpayable",
      "type": "constructor"
    },
    {
      "anonymous": false,
      "inputs": [
        {
          "indexed": true,
          "name": "from",
          "type": "address"
        },
        {
          "indexed": false,
          "name": "success",
          "type": "bool"
        },
        {
          "indexed": false,
          "name": "reason",
          "type": "string"
        }
      ],
      "name": "VoteStatusEvent",
      "type": "event"
    },
    {
      "anonymous": false,
      "inputs": [
        {
          "indexed": true,
          "name": "from",
          "type": "address"
        },
        {
          "indexed": false,
          "name": "success",
          "type": "bool"
        },
        {
          "indexed": false,
          "name": "reason",
          "type": "string"
        }
      ],
      "name": "SystemStatusEvent",
      "type": "event"
    },
    {
      "constant": false,
      "inputs": [
        {
          "name": "params",
          "type": "uint256[3]"
        }
      ],
      "name": "setParameters",
      "outputs": [],
      "payable": false,
      "stateMutability": "nonpayable",
      "type": "function"
    },
    {
      "constant": false,
      "inputs": [],
      "name": "generatePublicKey",
      "outputs": [],
      "payable": false,
      "stateMutability": "nonpayable",
      "type": "function"
    },
    {
      "constant": false,
      "inputs": [],
      "name": "openBallot",
      "outputs": [],
      "payable": false,
      "stateMutability": "nonpayable",
      "type": "function"
    },
    {
      "constant": false,
      "inputs": [],
      "name": "closeBallot",
      "outputs": [],
      "payable": false,
      "stateMutability": "nonpayable",
      "type": "function"
    },
    {
      "constant": false,
      "inputs": [],
      "name": "combineDecryptedShares",
      "outputs": [],
      "payable": false,
      "stateMutability": "nonpayable",
      "type": "function"
    },
    {
      "constant": false,
      "inputs": [
        {
          "name": "key",
          "type": "uint256"
        },
        {
          "name": "proof_c",
          "type": "uint256"
        },
        {
          "name": "proof_d",
          "type": "uint256"
        }
      ],
      "name": "submitPublicKeyShare",
      "outputs": [
        {
          "name": "",
          "type": "bool"
        },
        {
          "name": "",
          "type": "string"
        }
      ],
      "payable": false,
      "stateMutability": "nonpayable",
      "type": "function"
    },
    {
      "constant": false,
      "inputs": [
        {
          "name": "share",
          "type": "uint256"
        },
        {
          "name": "a",
          "type": "uint256"
        },
        {
          "name": "b",
          "type": "uint256"
        },
        {
          "name": "a1",
          "type": "uint256"
        },
        {
          "name": "b1",
          "type": "uint256"
        },
        {
          "name": "d",
          "type": "uint256"
        },
        {
          "name": "f",
          "type": "uint256"
        }
      ],
      "name": "submitDecryptedShare",
      "outputs": [
        {
          "name": "",
          "type": "bool"
        },
        {
          "name": "",
          "type": "string"
        }
      ],
      "payable": false,
      "stateMutability": "nonpayable",
      "type": "function"
    },
    {
      "constant": false,
      "inputs": [
        {
          "name": "cipher",
          "type": "uint256[2]"
        },
        {
          "name": "a",
          "type": "uint256[2]"
        },
        {
          "name": "b",
          "type": "uint256[2]"
        },
        {
          "name": "c",
          "type": "uint256[2]"
        },
        {
          "name": "f",
          "type": "uint256[2]"
        }
      ],
      "name": "vote",
      "outputs": [
        {
          "name": "",
          "type": "bool"
        },
        {
          "name": "",
          "type": "string"
        }
      ],
      "payable": false,
      "stateMutability": "nonpayable",
      "type": "function"
    },
    {
      "constant": true,
      "inputs": [],
      "name": "getVotingQuestion",
      "outputs": [
        {
          "name": "",
          "type": "string"
        }
      ],
      "payable": false,
      "stateMutability": "view",
      "type": "function"
    },
    {
      "constant": true,
      "inputs": [],
      "name": "getParameters",
      "outputs": [
        {
          "name": "",
          "type": "uint256[3]"
        }
      ],
      "payable": false,
      "stateMutability": "view",
      "type": "function"
    },
    {
      "constant": true,
      "inputs": [],
      "name": "getNrOfPublicKeyShares",
      "outputs": [
        {
          "name": "",
          "type": "uint256"
        }
      ],
      "payable": false,
      "stateMutability": "view",
      "type": "function"
    },
    {
      "constant": true,
      "inputs": [],
      "name": "getPublicKey",
      "outputs": [
        {
          "name": "",
          "type": "uint256"
        }
      ],
      "payable": false,
      "stateMutability": "view",
      "type": "function"
    },
    {
      "constant": true,
      "inputs": [
        {
          "name": "idx",
          "type": "uint256"
        }
      ],
      "name": "getVote",
      "outputs": [
        {
          "name": "",
          "type": "uint256"
        },
        {
          "name": "",
          "type": "uint256"
        }
      ],
      "payable": false,
      "stateMutability": "view",
      "type": "function"
    },
    {
      "constant": true,
      "inputs": [],
      "name": "getNumberOfVotes",
      "outputs": [
        {
          "name": "",
          "type": "uint256"
        }
      ],
      "payable": false,
      "stateMutability": "view",
      "type": "function"
    },
    {
      "constant": true,
      "inputs": [],
      "name": "getBallotStatus",
      "outputs": [
        {
          "name": "",
          "type": "string"
        }
      ],
      "payable": false,
      "stateMutability": "view",
      "type": "function"
    },
    {
      "constant": true,
      "inputs": [],
      "name": "getNrOfDecryptedShares",
      "outputs": [
        {
          "name": "",
          "type": "uint256"
        }
      ],
      "payable": false,
      "stateMutability": "view",
      "type": "function"
    },
    {
      "constant": true,
      "inputs": [
        {
          "name": "idx",
          "type": "uint256"
        }
      ],
      "name": "getDecryptedShare",
      "outputs": [
        {
          "name": "",
          "type": "uint256"
        }
      ],
      "payable": false,
      "stateMutability": "view",
      "type": "function"
    },
    {
      "constant": true,
      "inputs": [],
      "name": "getVoteResult",
      "outputs": [
        {
          "name": "",
          "type": "uint256"
        }
      ],
      "payable": false,
      "stateMutability": "view",
      "type": "function"
    }
  ],
  "bytecode": "0x608060405260008060006101000a81548160ff021916908360038111156200002357fe5b021790555033601260026101000a81548173ffffffffffffffffffffffffffffffffffffffff021916908373ffffffffffffffffffffffffffffffffffffffff1602179055503480156200007657600080fd5b506040516200564238038062005642833981018060405260608110156200009c57600080fd5b810190808051640100000000811115620000b557600080fd5b82810190506020810184811115620000cc57600080fd5b8151856001820283011164010000000082111715620000ea57600080fd5b50509291906020018051906020019092919080516401000000008111156200011157600080fd5b828101905060208101848111156200012857600080fd5b81518560208202830111640100000000821117156200014657600080fd5b50509291905050506040516200015c90620002d7565b604051809103906000f08015801562000179573d6000803e3d6000fd5b50600060016101000a81548173ffffffffffffffffffffffffffffffffffffffff021916908373ffffffffffffffffffffffffffffffffffffffff160217905550604051620001c890620002e5565b604051809103906000f080158015620001e5573d6000803e3d6000fd5b50600160006101000a81548173ffffffffffffffffffffffffffffffffffffffff021916908373ffffffffffffffffffffffffffffffffffffffff1602179055506040516200023490620002f3565b604051809103906000f08015801562000251573d6000803e3d6000fd5b50600260006101000a81548173ffffffffffffffffffffffffffffffffffffffff021916908373ffffffffffffffffffffffffffffffffffffffff1602179055508260076000019080519060200190620002ad92919062000301565b508060139080519060200190620002c692919062000388565b508160148190555050505062000485565b6111de80620034d883390190565b61080e80620046b683390190565b61077e8062004ec483390190565b828054600181600116156101000203166002900490600052602060002090601f016020900481019282601f106200034457805160ff191683800117855562000375565b8280016001018555821562000375579182015b828111156200037457825182559160200191906001019062000357565b5b50905062000384919062000417565b5090565b82805482825590600052602060002090810192821562000404579160200282015b82811115620004035782518260006101000a81548173ffffffffffffffffffffffffffffffffffffffff021916908373ffffffffffffffffffffffffffffffffffffffff16021790555091602001919060010190620003a9565b5b5090506200041391906200043f565b5090565b6200043c91905b80821115620004385760008160009055506001016200041e565b5090565b90565b6200048291905b808211156200047e57600081816101000a81549073ffffffffffffffffffffffffffffffffffffffff02191690555060010162000446565b5090565b90565b61304380620004956000396000f3fe608060405234801561001057600080fd5b506004361061013e576000357c01000000000000000000000000000000000000000000000000000000009004806373e867fb116100ca578063a97b8b4d1161008e578063a97b8b4d146105a4578063b23d422d146105ae578063bb1f683d146105b8578063cee024dc14610693578063df2252b9146106b15761013e565b806373e867fb146104555780638742fc3b146104735780638da5cb5b14610491578063a10cfae5146104db578063a5ea11da1461055e5761013e565b80634d0013ac116101115780634d0013ac146101cb5780635a55c1f0146101d55780635b71c5231461021e578063689778c31461030c57806368cdfda5146103d25761013e565b80631536f616146101435780631f50c0ab146101615780632e334452146101a357806334507556146101c1575b600080fd5b61014b6106df565b6040518082815260200191505060405180910390f35b61018d6004803603602081101561017757600080fd5b81019080803590602001909291905050506106ef565b6040518082815260200191505060405180910390f35b6101ab61077e565b6040518082815260200191505060405180910390f35b6101c9610790565b005b6101d3610aa6565b005b610201600480360360208110156101eb57600080fd5b8101908080359060200190929190505050610b7f565b604051808381526020018281526020019250505060405180910390f35b610286600480360360e081101561023457600080fd5b8101908080359060200190929190803590602001909291908035906020019092919080359060200190929190803590602001909291908035906020019092919080359060200190929190505050610bd9565b604051808315151515815260200180602001828103825283818151815260200191508051906020019080838360005b838110156102d05780820151818401526020810190506102b5565b50505050905090810190601f1680156102fd5780820380516001836020036101000a031916815260200191505b50935050505060405180910390f35b61034c6004803603606081101561032257600080fd5b810190808035906020019092919080359060200190929190803590602001909291905050506110b3565b604051808315151515815260200180602001828103825283818151815260200191508051906020019080838360005b8381101561039657808201518184015260208101905061037b565b50505050905090810190601f1680156103c35780820380516001836020036101000a031916815260200191505b50935050505060405180910390f35b6103da611514565b6040518080602001828103825283818151815260200191508051906020019080838360005b8381101561041a5780820151818401526020810190506103ff565b50505050905090810190601f1680156104475780820380516001836020036101000a031916815260200191505b509250505060405180910390f35b61045d6115b9565b6040518082815260200191505060405180910390f35b61047b6115c8565b6040518082815260200191505060405180910390f35b610499611653565b604051808273ffffffffffffffffffffffffffffffffffffffff1673ffffffffffffffffffffffffffffffffffffffff16815260200191505060405180910390f35b6104e3611679565b6040518080602001828103825283818151815260200191508051906020019080838360005b83811015610523578082015181840152602081019050610508565b50505050905090810190601f1680156105505780820380516001836020036101000a031916815260200191505b509250505060405180910390f35b610566611826565b6040518082600360200280838360005b83811015610591578082015181840152602081019050610576565b5050505090500191505060405180910390f35b6105ac611866565b005b6105b661193f565b005b61060d60048036036101408110156105cf57600080fd5b810190808060400190919291929080604001909192919290806040019091929192908060400190919291929080604001909192919290505050611ee6565b604051808315151515815260200180602001828103825283818151815260200191508051906020019080838360005b8381101561065757808201518184015260208101905061063c565b50505050905090810190601f1680156106845780820380516001836020036101000a031916815260200191505b50935050505060405180910390f35b61069b6126b3565b6040518082815260200191505060405180910390f35b6106dd600480360360608110156106c757600080fd5b81019080806060019091929192905050506126c3565b005b6000600760050180549050905090565b600080600780018381548110151561070357fe5b9060005260206000200160009054906101000a900473ffffffffffffffffffffffffffffffffffffffff169050600760060160008273ffffffffffffffffffffffffffffffffffffffff1673ffffffffffffffffffffffffffffffffffffffff16815260200190815260200160002060000154915050919050565b60006107886128ae565b600654905090565b61079861293b565b601260019054906101000a900460ff1615151561081d576040517f08c379a000000000000000000000000000000000000000000000000000000000815260040180806020018281038252601e8152602001807f546865207075626c6963206b657920697320616c7265616479207365742e000081525060200191505060405180910390fd5b601454600760050180549050141515610881576040517f08c379a000000000000000000000000000000000000000000000000000000000815260040180806020018281038252602c815260200180612f9c602c913960400191505060405180910390fd5b60006007600501600081548110151561089657fe5b9060005260206000200160009054906101000a900473ffffffffffffffffffffffffffffffffffffffff1690506000600760040160008373ffffffffffffffffffffffffffffffffffffffff1673ffffffffffffffffffffffffffffffffffffffff1681526020019081526020016000206000015490506000600190505b600760050180549050811015610a7757600060076005018281548110151561093857fe5b9060005260206000200160009054906101000a900473ffffffffffffffffffffffffffffffffffffffff1690508273__ModuloMathLib_________________________63e616559e9091600760040160008573ffffffffffffffffffffffffffffffffffffffff1673ffffffffffffffffffffffffffffffffffffffff168152602001908152602001600020600001546003600001546040518463ffffffff167c010000000000000000000000000000000000000000000000000000000002815260040180848152602001838152602001828152602001935050505060206040518083038186803b158015610a2c57600080fd5b505af4158015610a40573d6000803e3d6000fd5b505050506040513d6020811015610a5657600080fd5b81019080805190602001909291905050509250508080600101915050610914565b50806006819055506001601260016101000a81548160ff021916908315150217905550610aa26129e5565b5050565b610aae61293b565b610ab66128ae565b610abe612ba3565b60006003811115610acb57fe5b6000809054906101000a900460ff166003811115610ae557fe5b141515610b5a576040517f08c379a000000000000000000000000000000000000000000000000000000000815260040180806020018281038252601a8152602001807f4e656564207374617465204b45595f47454e45524154494f4e2e00000000000081525060200191505060405180910390fd5b60016000806101000a81548160ff02191690836003811115610b7857fe5b0217905550565b600080600760020183815481101515610b9457fe5b90600052602060002090600b020160010160000154600760020184815481101515610bbb57fe5b90600052602060002090600b02016001016001015491509150915091565b6000606060026003811115610bea57fe5b6000809054906101000a900460ff166003811115610c0457fe5b141515610c5c576040517f08c379a000000000000000000000000000000000000000000000000000000000815260040180806020018281038252602c815260200180612fc8602c913960400191505060405180910390fd5b6000600760040160003373ffffffffffffffffffffffffffffffffffffffff1673ffffffffffffffffffffffffffffffffffffffff168152602001908152602001600020600001549050600160009054906101000a900473ffffffffffffffffffffffffffffffffffffffff1673ffffffffffffffffffffffffffffffffffffffff1663b6b81a268a8a8a8a8a8a33896040518963ffffffff167c0100000000000000000000000000000000000000000000000000000000028152600401808981526020018881526020018781526020018681526020018581526020018481526020018373ffffffffffffffffffffffffffffffffffffffff1673ffffffffffffffffffffffffffffffffffffffff1681526020018281526020019850505050505050505060206040518083038186803b158015610d9957600080fd5b505afa158015610dad573d6000803e3d6000fd5b505050506040513d6020811015610dc357600080fd5b81019080805190602001909291905050501515610ddf57600080fd5b600080905060005b6007800180549050811015610e77573373ffffffffffffffffffffffffffffffffffffffff166007800182815481101515610e1e57fe5b9060005260206000200160009054906101000a900473ffffffffffffffffffffffffffffffffffffffff1673ffffffffffffffffffffffffffffffffffffffff161415610e6a57600191505b8080600101915050610de7565b50610e80612cda565b60408051908101604052808d81526020016080604051908101604052808c81526020018b81526020018a8152602001898152508152509050811515610f2857600780013390806001815401808255809150509060018203906000526020600020016000909192909190916101000a81548173ffffffffffffffffffffffffffffffffffffffff021916908373ffffffffffffffffffffffffffffffffffffffff160217905550505b80600760060160003373ffffffffffffffffffffffffffffffffffffffff1673ffffffffffffffffffffffffffffffffffffffff1681526020019081526020016000206000820151816000015560208201518160010160008201518160000155602082015181600101556040820151816002015560608201518160030155505090505060408051908101604052808c81526020018b815250600760080160008201518160000155602082015181600101559050503373ffffffffffffffffffffffffffffffffffffffff167f13dd6fe92e00365cc4b5b06c43c90e02579bac92daf813dcc92257094835f91460016040518082151515158152602001806020018281038252601c8152602001807f446563727970746564536861726550726f6f66206163636570746564000000008152506020019250505060405180910390a260016040805190810160405280601181526020017f53756d70726f6f662061636365707465640000000000000000000000000000008152509450945050505097509795505050505050565b60006060600060038111156110c457fe5b6000809054906101000a900460ff1660038111156110de57fe5b141515611153576040517f08c379a000000000000000000000000000000000000000000000000000000000815260040180806020018281038252601a8152602001807f4e656564207374617465204b45595f47454e45524154494f4e2e00000000000081525060200191505060405180910390fd5b601260019054906101000a900460ff161515156111bb576040517f08c379a0000000000000000000000000000000000000000000000000000000008152600401808060200182810382526049815260200180612f076049913960600191505060405180910390fd5b600260009054906101000a900473ffffffffffffffffffffffffffffffffffffffff1673ffffffffffffffffffffffffffffffffffffffff1663b0caa829858588336040518563ffffffff167c0100000000000000000000000000000000000000000000000000000000028152600401808581526020018481526020018381526020018273ffffffffffffffffffffffffffffffffffffffff1673ffffffffffffffffffffffffffffffffffffffff16815260200194505050505060206040518083038186803b15801561128e57600080fd5b505afa1580156112a2573d6000803e3d6000fd5b505050506040513d60208110156112b857600080fd5b81019080805190602001909291905050501515611320576040517f08c379a0000000000000000000000000000000000000000000000000000000008152600401808060200182810382526024815260200180612ff46024913960400191505060405180910390fd5b600080905060005b6007600501805490508110156113ba573373ffffffffffffffffffffffffffffffffffffffff1660076005018281548110151561136157fe5b9060005260206000200160009054906101000a900473ffffffffffffffffffffffffffffffffffffffff1673ffffffffffffffffffffffffffffffffffffffff1614156113ad57600191505b8080600101915050611328565b506113c3612cfb565b6040805190810160405280888152602001604080519081016040528089815260200188815250815250905081151561145f5760076005013390806001815401808255809150509060018203906000526020600020016000909192909190916101000a81548173ffffffffffffffffffffffffffffffffffffffff021916908373ffffffffffffffffffffffffffffffffffffffff160217905550505b80600760040160003373ffffffffffffffffffffffffffffffffffffffff1673ffffffffffffffffffffffffffffffffffffffff168152602001908152602001600020600082015181600001556020820151816001016000820151816000015560208201518160010155505090505060016040805190810160405280601e81526020017f4b65792047656e65726174696f6e2050726f6f662069732076616c69642e0000815250935093505050935093915050565b606060076000018054600181600116156101000203166002900480601f0160208091040260200160405190810160405280929190818152602001828054600181600116156101000203166002900480156115af5780601f10611584576101008083540402835291602001916115af565b820191906000526020600020905b81548152906001019060200180831161159257829003601f168201915b5050505050905090565b60006007800180549050905090565b60006003808111156115d657fe5b6000809054906101000a900460ff1660038111156115f057fe5b141515611648576040517f08c379a000000000000000000000000000000000000000000000000000000000815260040180806020018281038252602a815260200180612f72602a913960400191505060405180910390fd5b6007600a0154905090565b601260029054906101000a900473ffffffffffffffffffffffffffffffffffffffff1681565b60606000600381111561168857fe5b6000809054906101000a900460ff1660038111156116a257fe5b14156116e5576040805190810160405280600e81526020017f4b45595f47454e45524154494f4e0000000000000000000000000000000000008152509050611823565b600160038111156116f257fe5b6000809054906101000a900460ff16600381111561170c57fe5b141561174f576040805190810160405280600681526020017f564f54494e4700000000000000000000000000000000000000000000000000008152509050611823565b6002600381111561175c57fe5b6000809054906101000a900460ff16600381111561177657fe5b14156117b9576040805190810160405280600881526020017f54414c4c59494e470000000000000000000000000000000000000000000000008152509050611823565b6003808111156117c557fe5b6000809054906101000a900460ff1660038111156117df57fe5b1415611822576040805190810160405280600681526020017f524553554c5400000000000000000000000000000000000000000000000000008152509050611823565b5b90565b61182e612d1c565b611836612ba3565b60606040519081016040528060036000015481526020016003600101548152602001600360020154815250905090565b61186e61293b565b6118766128ae565b61187e612ba3565b6001600381111561188b57fe5b6000809054906101000a900460ff1660038111156118a557fe5b14151561191a576040517f08c379a00000000000000000000000000000000000000000000000000000000081526004018080602001828103825260128152602001807f4e65656420737461746520564f54494e472e000000000000000000000000000081525060200191505060405180910390fd5b60026000806101000a81548160ff0219169083600381111561193857fe5b0217905550565b6002600381111561194c57fe5b6000809054906101000a900460ff16600381111561196657fe5b1415156119db576040517f08c379a00000000000000000000000000000000000000000000000000000000081526004018080602001828103825260148152602001807f4e6565642073746174652054414c4c59494e472e00000000000000000000000081525060200191505060405180910390fd5b6014546007800180549050141515611a5b576040517f08c379a000000000000000000000000000000000000000000000000000000000815260040180806020018281038252601f8152602001807f4e72206f662073686172657320213d3d206e72206f66207365616c6572732e0081525060200191505060405180910390fd5b6000600780016000815481101515611a6f57fe5b9060005260206000200160009054906101000a900473ffffffffffffffffffffffffffffffffffffffff1690506000600760060160008373ffffffffffffffffffffffffffffffffffffffff1673ffffffffffffffffffffffffffffffffffffffff1681526020019081526020016000206000015490506000600190505b6007800180549050811015611c4e5760006007800182815481101515611b0f57fe5b9060005260206000200160009054906101000a900473ffffffffffffffffffffffffffffffffffffffff1690508273__ModuloMathLib_________________________63e616559e9091600760060160008573ffffffffffffffffffffffffffffffffffffffff1673ffffffffffffffffffffffffffffffffffffffff168152602001908152602001600020600001546003600001546040518463ffffffff167c010000000000000000000000000000000000000000000000000000000002815260040180848152602001838152602001828152602001935050505060206040518083038186803b158015611c0357600080fd5b505af4158015611c17573d6000803e3d6000fd5b505050506040513d6020811015611c2d57600080fd5b81019080805190602001909291905050509250508080600101915050611aed565b50600060076008016001015473__ModuloMathLib_________________________63e616559e90918473__ModuloMathLib_________________________63a9008ad690916003600001546040518363ffffffff167c0100000000000000000000000000000000000000000000000000000000028152600401808381526020018281526020019250505060206040518083038186803b158015611cf057600080fd5b505af4158015611d04573d6000803e3d6000fd5b505050506040513d6020811015611d1a57600080fd5b81019080805190602001909291905050506003600001546040518463ffffffff167c010000000000000000000000000000000000000000000000000000000002815260040180848152602001838152602001828152602001935050505060206040518083038186803b158015611d8f57600080fd5b505af4158015611da3573d6000803e3d6000fd5b505050506040513d6020811015611db957600080fd5b81019080805190602001909291905050509050600080905060006003600201549050600060036000015490505b838273__ModuloMathLib_________________________63edbe2fbd909186856040518463ffffffff167c010000000000000000000000000000000000000000000000000000000002815260040180848152602001838152602001828152602001935050505060206040518083038186803b158015611e6457600080fd5b505af4158015611e78573d6000803e3d6000fd5b505050506040513d6020811015611e8e57600080fd5b8101908080519060200190929190505050141515611eb157600183019250611de6565b826007600a018190555060036000806101000a81548160ff02191690836003811115611ed957fe5b0217905550505050505050565b6000606060016003811115611ef757fe5b6000809054906101000a900460ff166003811115611f1157fe5b141515611f86576040517f08c379a000000000000000000000000000000000000000000000000000000000815260040180806020018281038252600e8152602001807f566f7465206e6f74206f70656e2e00000000000000000000000000000000000081525060200191505060405180910390fd5b611f8f33612c30565b1515612003576040517f08c379a000000000000000000000000000000000000000000000000000000000815260040180806020018281038252601c8152602001807f41646472657373206e6f7420616c6c6f77656420746f20766f74652e0000000081525060200191505060405180910390fd5b600760030160003373ffffffffffffffffffffffffffffffffffffffff1673ffffffffffffffffffffffffffffffffffffffff16815260200190815260200160002060009054906101000a900460ff161515156120c8576040517f08c379a00000000000000000000000000000000000000000000000000000000081526004018080602001828103825260148152602001807f566f74657220616c726561647920766f7465642e00000000000000000000000081525060200191505060405180910390fd5b600060019054906101000a900473ffffffffffffffffffffffffffffffffffffffff1673ffffffffffffffffffffffffffffffffffffffff16632817a98f8888888888336040518763ffffffff167c01000000000000000000000000000000000000000000000000000000000281526004018087600260200280828437600081840152601f19601f82011690508083019250505086600260200280828437600081840152601f19601f82011690508083019250505085600260200280828437600081840152601f19601f82011690508083019250505084600260200280828437600081840152601f19601f82011690508083019250505083600260200280828437600081840152601f19601f8201169050808301925050508273ffffffffffffffffffffffffffffffffffffffff1673ffffffffffffffffffffffffffffffffffffffff168152602001965050505050505060206040518083038186803b15801561223257600080fd5b505afa158015612246573d6000803e3d6000fd5b505050506040513d602081101561225c57600080fd5b810190808051906020019092919050505015156122e1576040517f08c379a00000000000000000000000000000000000000000000000000000000081526004018080602001828103825260188152602001807f566f74652050726f6f66206e6f742061636365707465642e000000000000000081525060200191505060405180910390fd5b6122e9612d3f565b608060405190810160405280886002806020026040519081016040528092919082600260200280828437600081840152601f19601f8201169050808301925050505050508152602001876002806020026040519081016040528092919082600260200280828437600081840152601f19601f8201169050808301925050505050508152602001866002806020026040519081016040528092919082600260200280828437600081840152601f19601f8201169050808301925050505050508152602001856002806020026040519081016040528092919082600260200280828437600081840152601f19601f82011690508083019250505050505081525090506123f1612d81565b60408051908101604052808a600060028110151561240b57fe5b602002013581526020018a600160028110151561242457fe5b60200201358152509050612436612d9b565b6060604051908101604052803373ffffffffffffffffffffffffffffffffffffffff1681526020018381526020018481525090506007600201819080600181540180825580915050906001820390600052602060002090600b02016000909192909190915060008201518160000160006101000a81548173ffffffffffffffffffffffffffffffffffffffff021916908373ffffffffffffffffffffffffffffffffffffffff16021790555060208201518160010160008201518160000155602082015181600101555050604082015181600301600082015181600001906002612521929190612de0565b50602082015181600201906002612539929190612de0565b50604082015181600401906002612551929190612de0565b50606082015181600601906002612569929190612de0565b50505050505060016007600101600082825401925050819055506001600760030160003373ffffffffffffffffffffffffffffffffffffffff1673ffffffffffffffffffffffffffffffffffffffff16815260200190815260200160002060006101000a81548160ff0219169083151502179055503373ffffffffffffffffffffffffffffffffffffffff167f13dd6fe92e00365cc4b5b06c43c90e02579bac92daf813dcc92257094835f9146001604051808215151515815260200180602001828103825260118152602001807f566f7465207761732061636365707465640000000000000000000000000000008152506020019250505060405180910390a260016040805190810160405280601181526020017f566f746520776173206163636570746564000000000000000000000000000000815250945094505050509550959350505050565b6000600760020180549050905090565b6126cb61293b565b601260009054906101000a900460ff16151515612750576040517f08c379a000000000000000000000000000000000000000000000000000000000815260040180806020018281038252601d8152602001807f53797374656d207061726d657465727320616c7265616479207365742100000081525060200191505060405180910390fd5b60606040519081016040528082600060038110151561276b57fe5b6020020135815260200182600160038110151561278457fe5b6020020135815260200182600260038110151561279d57fe5b60200201358152506003600082015181600001556020820151816001015560408201518160020155905050600260009054906101000a900473ffffffffffffffffffffffffffffffffffffffff1673ffffffffffffffffffffffffffffffffffffffff166380d859116003600001546003600101546003600201546040518463ffffffff167c0100000000000000000000000000000000000000000000000000000000028152600401808481526020018381526020018281526020019350505050600060405180830381600087803b15801561287857600080fd5b505af115801561288c573d6000803e3d6000fd5b505050506001601260006101000a81548160ff02191690831515021790555050565b60011515601260019054906101000a900460ff161515141515612939576040517f08c379a00000000000000000000000000000000000000000000000000000000081526004018080602001828103825260128152602001807f5075626c6963204b6579206e6f207365742e000000000000000000000000000081525060200191505060405180910390fd5b565b601260029054906101000a900473ffffffffffffffffffffffffffffffffffffffff1673ffffffffffffffffffffffffffffffffffffffff163373ffffffffffffffffffffffffffffffffffffffff161415156129e3576040517f08c379a0000000000000000000000000000000000000000000000000000000008152600401808060200182810382526022815260200180612f506022913960400191505060405180910390fd5b565b6129ed61293b565b6129f56128ae565b6129fd612ba3565b600060019054906101000a900473ffffffffffffffffffffffffffffffffffffffff1673ffffffffffffffffffffffffffffffffffffffff166360a2da446003600001546003600101546003600201546006546040518563ffffffff167c010000000000000000000000000000000000000000000000000000000002815260040180858152602001848152602001838152602001828152602001945050505050600060405180830381600087803b158015612ab757600080fd5b505af1158015612acb573d6000803e3d6000fd5b50505050600160009054906101000a900473ffffffffffffffffffffffffffffffffffffffff1673ffffffffffffffffffffffffffffffffffffffff166360a2da446003600001546003600101546003600201546006546040518563ffffffff167c010000000000000000000000000000000000000000000000000000000002815260040180858152602001848152602001838152602001828152602001945050505050600060405180830381600087803b158015612b8957600080fd5b505af1158015612b9d573d6000803e3d6000fd5b50505050565b60011515601260009054906101000a900460ff161515141515612c2e576040517f08c379a000000000000000000000000000000000000000000000000000000000815260040180806020018281038252601a8152602001807f53797374656d20506172616d6574657273206e6f74207365742e00000000000081525060200191505060405180910390fd5b565b600080600090505b6013805490508160ff161015612ccf578273ffffffffffffffffffffffffffffffffffffffff1660138260ff16815481101515612c7157fe5b9060005260206000200160009054906101000a900473ffffffffffffffffffffffffffffffffffffffff1673ffffffffffffffffffffffffffffffffffffffff161415612cc2576000915050612cd5565b8080600101915050612c38565b50600190505b919050565b60a06040519081016040528060008152602001612cf5612e20565b81525090565b60606040519081016040528060008152602001612d16612e49565b81525090565b606060405190810160405280600390602082028038833980820191505090505090565b61010060405190810160405280612d54612e63565b8152602001612d61612e63565b8152602001612d6e612e63565b8152602001612d7b612e63565b81525090565b604080519081016040528060008152602001600081525090565b61016060405190810160405280600073ffffffffffffffffffffffffffffffffffffffff168152602001612dcd612e85565b8152602001612dda612e9f565b81525090565b8260028101928215612e0f579160200282015b82811115612e0e578251825591602001919060010190612df3565b5b509050612e1c9190612ee1565b5090565b608060405190810160405280600081526020016000815260200160008152602001600081525090565b604080519081016040528060008152602001600081525090565b6040805190810160405280600290602082028038833980820191505090505090565b604080519081016040528060008152602001600081525090565b61010060405190810160405280612eb4612e63565b8152602001612ec1612e63565b8152602001612ece612e63565b8152602001612edb612e63565b81525090565b612f0391905b80821115612eff576000816000905550600101612ee7565b5090565b9056fe5075626c6963206b6579207368617265732063616e206f6e6c79206265207375626d697474656420696620746865207075626c6963206b6579206973206e6f7420796574207365742e4f6e6c79206f776e65722063616e2063616c6c20746869732066756e6374696f6e2e54686520636f6e7472616374206e6565647320746f20626520696e2073746174653a20524553554c542e5075626c6963206b65792073686172657320213d3d206e756d626572206f6620617574686f7269746965732e54686520636f6e7472616374206e6565647320746f20626520696e2073746174653a2054414c4c59494e472e4b65792047656e65726174696f6e2050726f6f66206973206e6f7420636f72726563742ea165627a7a72305820be2b2c23af81c840256659aec576ab423addce36c6fae3970528fa8d891a8a610029608060405234801561001057600080fd5b506080604051908101604052806000815260200160008152602001600081526020016000815250600080820151816000015560208201518160010155604082015181600201556060820151816003015590505061116c806100726000396000f3fe608060405260043610610046576000357c0100000000000000000000000000000000000000000000000000000000900480632817a98f1461004b57806360a2da44146101fa575b600080fd5b34801561005757600080fd5b506101e0600480360361016081101561006f57600080fd5b8101908080604001906002806020026040519081016040528092919082600260200280828437600081840152601f19601f820116905080830192505050505050919291929080604001906002806020026040519081016040528092919082600260200280828437600081840152601f19601f820116905080830192505050505050919291929080604001906002806020026040519081016040528092919082600260200280828437600081840152601f19601f820116905080830192505050505050919291929080604001906002806020026040519081016040528092919082600260200280828437600081840152601f19601f820116905080830192505050505050919291929080604001906002806020026040519081016040528092919082600260200280828437600081840152601f19601f8201169050808301925050505050509192919290803573ffffffffffffffffffffffffffffffffffffffff169060200190929190505050610246565b604051808215151515815260200191505060405180910390f35b6102446004803603608081101561021057600080fd5b8101908080359060200190929190803590602001909291908035906020019092919080359060200190929190505050610482565b005b60006102506110cf565b60a06040519081016040528089815260200188815260200187815260200186815260200185815250905060006102e48260200151600060028110151561029257fe5b6020020151836060015160006002811015156102aa57fe5b6020020151846080015160006002811015156102c257fe5b6020020151856000015160006002811015156102da57fe5b60200201516104af565b90506000610350836020015160016002811015156102fe57fe5b60200201518460800151600160028110151561031657fe5b60200201518560600151600160028110151561032e57fe5b60200201518660000151600060028110151561034657fe5b60200201516106ff565b905060006103bc8460400151600060028110151561036a57fe5b60200201518560600151600060028110151561038257fe5b60200201518660800151600060028110151561039a57fe5b6020020151876000015160016002811015156103b257fe5b602002015161094f565b90506000610428856040015160016002811015156103d657fe5b6020020151866060015160016002811015156103ee57fe5b60200201518760800151600160028110151561040657fe5b60200201518860000151600160028110151561041e57fe5b6020020151610b9f565b9050600061044986602001518760400151886060015189600001518c610ebb565b90508480156104555750835b801561045e5750825b80156104675750815b80156104705750805b96505050505050509695505050505050565b83600080018190555082600060010181905550816000600201819055508060006003018190555050505050565b60008060006002015473__ModuloMathLib_________________________63edbe2fbd90918660008001546040518463ffffffff167c010000000000000000000000000000000000000000000000000000000002815260040180848152602001838152602001828152602001935050505060206040518083038186803b15801561053857600080fd5b505af415801561054c573d6000803e3d6000fd5b505050506040513d602081101561056257600080fd5b8101908080519060200190929190505050905060008673__ModuloMathLib_________________________63e616559e90918673__ModuloMathLib_________________________63edbe2fbd90918b60008001546040518463ffffffff167c010000000000000000000000000000000000000000000000000000000002815260040180848152602001838152602001828152602001935050505060206040518083038186803b15801561061557600080fd5b505af4158015610629573d6000803e3d6000fd5b505050506040513d602081101561063f57600080fd5b810190808051906020019092919050505060008001546040518463ffffffff167c010000000000000000000000000000000000000000000000000000000002815260040180848152602001838152602001828152602001935050505060206040518083038186803b1580156106b357600080fd5b505af41580156106c7573d6000803e3d6000fd5b505050506040513d60208110156106dd57600080fd5b8101908080519060200190929190505050905080821492505050949350505050565b60008060006002015473__ModuloMathLib_________________________63edbe2fbd90918760008001546040518463ffffffff167c010000000000000000000000000000000000000000000000000000000002815260040180848152602001838152602001828152602001935050505060206040518083038186803b15801561078857600080fd5b505af415801561079c573d6000803e3d6000fd5b505050506040513d60208110156107b257600080fd5b8101908080519060200190929190505050905060008673__ModuloMathLib_________________________63e616559e90918673__ModuloMathLib_________________________63edbe2fbd90918a60008001546040518463ffffffff167c010000000000000000000000000000000000000000000000000000000002815260040180848152602001838152602001828152602001935050505060206040518083038186803b15801561086557600080fd5b505af4158015610879573d6000803e3d6000fd5b505050506040513d602081101561088f57600080fd5b810190808051906020019092919050505060008001546040518463ffffffff167c010000000000000000000000000000000000000000000000000000000002815260040180848152602001838152602001828152602001935050505060206040518083038186803b15801561090357600080fd5b505af4158015610917573d6000803e3d6000fd5b505050506040513d602081101561092d57600080fd5b8101908080519060200190929190505050905080821492505050949350505050565b60008060006003015473__ModuloMathLib_________________________63edbe2fbd90918660008001546040518463ffffffff167c010000000000000000000000000000000000000000000000000000000002815260040180848152602001838152602001828152602001935050505060206040518083038186803b1580156109d857600080fd5b505af41580156109ec573d6000803e3d6000fd5b505050506040513d6020811015610a0257600080fd5b8101908080519060200190929190505050905060008673__ModuloMathLib_________________________63e616559e90918673__ModuloMathLib_________________________63edbe2fbd90918b60008001546040518463ffffffff167c010000000000000000000000000000000000000000000000000000000002815260040180848152602001838152602001828152602001935050505060206040518083038186803b158015610ab557600080fd5b505af4158015610ac9573d6000803e3d6000fd5b505050506040513d6020811015610adf57600080fd5b810190808051906020019092919050505060008001546040518463ffffffff167c010000000000000000000000000000000000000000000000000000000002815260040180848152602001838152602001828152602001935050505060206040518083038186803b158015610b5357600080fd5b505af4158015610b67573d6000803e3d6000fd5b505050506040513d6020811015610b7d57600080fd5b8101908080519060200190929190505050905080821492505050949350505050565b60008060006003015473__ModuloMathLib_________________________63edbe2fbd90918660008001546040518463ffffffff167c010000000000000000000000000000000000000000000000000000000002815260040180848152602001838152602001828152602001935050505060206040518083038186803b158015610c2857600080fd5b505af4158015610c3c573d6000803e3d6000fd5b505050506040513d6020811015610c5257600080fd5b8101908080519060200190929190505050905060008373__ModuloMathLib_________________________636378bd6c909160006002015460008001546040518463ffffffff167c010000000000000000000000000000000000000000000000000000000002815260040180848152602001838152602001828152602001935050505060206040518083038186803b158015610ced57600080fd5b505af4158015610d01573d6000803e3d6000fd5b505050506040513d6020811015610d1757600080fd5b8101908080519060200190929190505050905060008173__ModuloMathLib_________________________63edbe2fbd90918960008001546040518463ffffffff167c010000000000000000000000000000000000000000000000000000000002815260040180848152602001838152602001828152602001935050505060206040518083038186803b158015610dad57600080fd5b505af4158015610dc1573d6000803e3d6000fd5b505050506040513d6020811015610dd757600080fd5b8101908080519060200190929190505050905060008873__ModuloMathLib_________________________63e616559e90918460008001546040518463ffffffff167c010000000000000000000000000000000000000000000000000000000002815260040180848152602001838152602001828152602001935050505060206040518083038186803b158015610e6d57600080fd5b505af4158015610e81573d6000803e3d6000fd5b505050506040513d6020811015610e9757600080fd5b81019080805190602001909291905050509050808414945050505050949350505050565b600080846001600281101515610ecd57fe5b602002015173__ModuloMathLib_________________________63a2f0dc8d9091876000600281101515610efd57fe5b60200201516000600101546040518463ffffffff167c010000000000000000000000000000000000000000000000000000000002815260040180848152602001838152602001828152602001935050505060206040518083038186803b158015610f6657600080fd5b505af4158015610f7a573d6000803e3d6000fd5b505050506040513d6020811015610f9057600080fd5b81019080805190602001909291905050509050600083856000600281101515610fb557fe5b6020020151866001600281101515610fc957fe5b60200201518a6000600281101515610fdd57fe5b60200201518a6000600281101515610ff157fe5b60200201518c600160028110151561100557fe5b60200201518c600160028110151561101957fe5b6020020151604051602001808873ffffffffffffffffffffffffffffffffffffffff1673ffffffffffffffffffffffffffffffffffffffff166c0100000000000000000000000002815260140187815260200186815260200185815260200184815260200183815260200182815260200197505050505050505060405160208183030381529060405280519060200120905060006001015481600190048115156110bf57fe5b0682149250505095945050505050565b610140604051908101604052806110e461111e565b81526020016110f161111e565b81526020016110fe61111e565b815260200161110b61111e565b815260200161111861111e565b81525090565b604080519081016040528060029060208202803883398082019150509050509056fea165627a7a723058201347970163d12c22a214a9011a66177489c9b38f13c25d57352dd1ceca8073630029608060405234801561001057600080fd5b506080604051908101604052806000815260200160008152602001600081526020016000815250600080820151816000015560208201518160010155604082015181600201556060820151816003015590505061079c806100726000396000f3fe608060405260043610610046576000357c01000000000000000000000000000000000000000000000000000000009004806360a2da441461004b578063b6b81a2614610097575b600080fd5b6100956004803603608081101561006157600080fd5b8101908080359060200190929190803590602001909291908035906020019092919080359060200190929190505050610147565b005b3480156100a357600080fd5b5061012d60048036036101008110156100bb57600080fd5b81019080803590602001909291908035906020019092919080359060200190929190803590602001909291908035906020019092919080359060200190929190803573ffffffffffffffffffffffffffffffffffffffff16906020019092919080359060200190929190505050610174565b604051808215151515815260200191505060405180910390f35b83600080018190555082600060010181905550816000600201819055508060006003018190555050505050565b600061017e610739565b60c0604051908101604052808b81526020018a815260200189815260200188815260200187815260200186815250905060006101d3826000015183602001518460400151856060015189600060010154610695565b90506000826000015173__ModuloMathLib_________________________63edbe2fbd90918560a0015160008001546040518463ffffffff167c010000000000000000000000000000000000000000000000000000000002815260040180848152602001838152602001828152602001935050505060206040518083038186803b15801561026057600080fd5b505af4158015610274573d6000803e3d6000fd5b505050506040513d602081101561028a57600080fd5b810190808051906020019092919050505090506000836040015173__ModuloMathLib_________________________63e616559e9091866080015173__ModuloMathLib_________________________63edbe2fbd90918860008001546040518463ffffffff167c010000000000000000000000000000000000000000000000000000000002815260040180848152602001838152602001828152602001935050505060206040518083038186803b15801561034557600080fd5b505af4158015610359573d6000803e3d6000fd5b505050506040513d602081101561036f57600080fd5b810190808051906020019092919050505060008001546040518463ffffffff167c010000000000000000000000000000000000000000000000000000000002815260040180848152602001838152602001828152602001935050505060206040518083038186803b1580156103e357600080fd5b505af41580156103f7573d6000803e3d6000fd5b505050506040513d602081101561040d57600080fd5b81019080805190602001909291905050509050600081831490506000806002015473__ModuloMathLib_________________________63edbe2fbd90918860a0015160008001546040518463ffffffff167c010000000000000000000000000000000000000000000000000000000002815260040180848152602001838152602001828152602001935050505060206040518083038186803b1580156104b257600080fd5b505af41580156104c6573d6000803e3d6000fd5b505050506040513d60208110156104dc57600080fd5b810190808051906020019092919050505090506000866060015173__ModuloMathLib_________________________63e616559e90918b73__ModuloMathLib_________________________63edbe2fbd90918b60008001546040518463ffffffff167c010000000000000000000000000000000000000000000000000000000002815260040180848152602001838152602001828152602001935050505060206040518083038186803b15801561059357600080fd5b505af41580156105a7573d6000803e3d6000fd5b505050506040513d60208110156105bd57600080fd5b810190808051906020019092919050505060008001546040518463ffffffff167c010000000000000000000000000000000000000000000000000000000002815260040180848152602001838152602001828152602001935050505060206040518083038186803b15801561063157600080fd5b505af4158015610645573d6000803e3d6000fd5b505050506040513d602081101561065b57600080fd5b810190808051906020019092919050505090506000818314905083801561067f5750805b9850505050505050505098975050505050505050565b6000808388888888604051602001808673ffffffffffffffffffffffffffffffffffffffff1673ffffffffffffffffffffffffffffffffffffffff166c010000000000000000000000000281526014018581526020018481526020018381526020018281526020019550505050505060405160208183030381529060405280519060200120905082816001900481151561072b57fe5b069150509695505050505050565b60c060405190810160405280600081526020016000815260200160008152602001600081526020016000815260200160008152509056fea165627a7a72305820c5e89155463b7a3bba86fc81fd8d39672af91906c394ef7087b506f6774e6bb40029608060405234801561001057600080fd5b50606060405190810160405280600081526020016000815260200160008152506000808201518160000155602082015181600101556040820151816002015590505061071d806100616000396000f3fe608060405260043610610046576000357c01000000000000000000000000000000000000000000000000000000009004806380d859111461004b578063b0caa8291461008d575b600080fd5b61008b6004803603606081101561006157600080fd5b81019080803590602001909291908035906020019092919080359060200190929190505050610114565b005b34801561009957600080fd5b506100fa600480360360808110156100b057600080fd5b81019080803590602001909291908035906020019092919080359060200190929190803573ffffffffffffffffffffffffffffffffffffffff169060200190929190505050610136565b604051808215151515815260200191505060405180910390f35b8260008001819055508160006001018190555080600060020181905550505050565b6000806000800154905060008060010154905060008060020154905061015a6106d7565b60408051908101604052808a8152602001898152509050600061018883868a85602001518660000151610401565b9050600061019885898b85610645565b9050600081846000015114905060008573__ModuloMathLib_________________________63edbe2fbd909187602001518b6040518463ffffffff167c010000000000000000000000000000000000000000000000000000000002815260040180848152602001838152602001828152602001935050505060206040518083038186803b15801561022857600080fd5b505af415801561023c573d6000803e3d6000fd5b505050506040513d602081101561025257600080fd5b8101908080519060200190929190505050905060008473__ModuloMathLib_________________________63e616559e90918e73__ModuloMathLib_________________________63edbe2fbd90918b600001518f6040518463ffffffff167c010000000000000000000000000000000000000000000000000000000002815260040180848152602001838152602001828152602001935050505060206040518083038186803b15801561030557600080fd5b505af4158015610319573d6000803e3d6000fd5b505050506040513d602081101561032f57600080fd5b81019080805190602001909291905050508c6040518463ffffffff167c010000000000000000000000000000000000000000000000000000000002815260040180848152602001838152602001828152602001935050505060206040518083038186803b15801561039f57600080fd5b505af41580156103b3573d6000803e3d6000fd5b505050506040513d60208110156103c957600080fd5b81019080805190602001909291905050509050600081831490508380156103ed5750805b9a5050505050505050505050949350505050565b6000808673__ModuloMathLib_________________________63edbe2fbd909186896040518463ffffffff167c010000000000000000000000000000000000000000000000000000000002815260040180848152602001838152602001828152602001935050505060206040518083038186803b15801561048157600080fd5b505af4158015610495573d6000803e3d6000fd5b505050506040513d60208110156104ab57600080fd5b8101908080519060200190929190505050905060008573__ModuloMathLib_________________________63edbe2fbd9091868a6040518463ffffffff167c010000000000000000000000000000000000000000000000000000000002815260040180848152602001838152602001828152602001935050505060206040518083038186803b15801561053d57600080fd5b505af4158015610551573d6000803e3d6000fd5b505050506040513d602081101561056757600080fd5b8101908080519060200190929190505050905060008273__ModuloMathLib_________________________636378bd6c9091848b6040518463ffffffff167c010000000000000000000000000000000000000000000000000000000002815260040180848152602001838152602001828152602001935050505060206040518083038186803b1580156105f957600080fd5b505af415801561060d573d6000803e3d6000fd5b505050506040513d602081101561062357600080fd5b8101908080519060200190929190505050905080935050505095945050505050565b600080848484604051602001808473ffffffffffffffffffffffffffffffffffffffff1673ffffffffffffffffffffffffffffffffffffffff166c0100000000000000000000000002815260140183815260200182815260200193505050506040516020818303038152906040528051906020012090508581600190048115156106cb57fe5b06915050949350505050565b60408051908101604052806000815260200160008152509056fea165627a7a723058208f8069aca1a7fc00d7c7376b758bdf62c18407a0e23b5a2bcb4ca1cddacc80560029",
  "source": "pragma solidity ^0.5.3;\n\nimport './VoteProofVerifier.sol';\nimport './SumProofVerifier.sol';\nimport './KeyGenProofVerifier.sol';\nimport './ModuloMathLib.sol';\n\ncontract Ballot {\n    // /////////////////////////////////\n    // libraries\n    // /////////////////////////////////\n    using ModuloMathLib for uint256;\n\n    // /////////////////////////////////\n    // structs\n    // /////////////////////////////////\n    enum VotingState {KEY_GENERATION, VOTING, TALLYING, RESULT}\n\n    // parameters for the elgamal crypto system\n    struct SystemParameters {\n        uint256 p; // prime\n        uint256 q; // prime factor: p = 2*q+1\n        uint256 g; // generator\n    }\n\n    // represents one part of the public key (distributed key generation)\n    // this struct also records a proof along with the public key share\n    struct PublicKeyShare {\n        uint256 share;\n        KeyShareProof keyShareProof;\n    }\n\n    // represents the decryption of all vote-ciphers done by one sealer\n    // each sealer will go through this process and submit it's share\n    // their product will then form the final sum\n    struct DecryptedShare {\n        uint256 share;\n        DecryptedShareProof decryptedShareProof;\n    }\n\n    struct Election {\n        string votingQuestion;\n        uint256 nrOfVoters;\n        Voter[] voters;\n        mapping(address => bool) hasVoted;\n        mapping(address => PublicKeyShare) pubKeyShareMapping;\n        address[] publicKeyShareWallet;\n        mapping(address => DecryptedShare) decryptedShareMapping;\n        address[] decryptedShareWallet;\n        Cipher sumCipher;\n        uint256 yesVotes;\n    }\n\n    struct Voter {\n        address voterAddress;\n        Cipher cipher;\n        VoteProof voteProof;\n    }\n\n    struct Cipher {\n        uint256 a;\n        uint256 b;\n    }\n\n    struct VoteProof {\n        uint256[2] a;\n        uint256[2] b;\n        uint256[2] c;\n        uint256[2] f;\n    }\n\n    struct DecryptedShareProof {\n        uint256 a1;\n        uint256 b1;\n        uint256 d;\n        uint256 f;\n    }\n\n    struct KeyShareProof {\n        uint256 c;\n        uint256 d;\n    }\n\n    // /////////////////////////////////\n    // events\n    // /////////////////////////////////\n    event VoteStatusEvent(address indexed from, bool success, string reason);\n    event SystemStatusEvent(address indexed from, bool success, string reason);\n\n    // /////////////////////////////////\n    // function modifiers\n    // - call internal functions\n    // - otherwise Solidity would duplicate\n    //   and inline the functions, which costs way more gas\n    // /////////////////////////////////\n    modifier onlyOwner {\n        isOwner();\n        _;\n    }\n\n    modifier onlyIfPubKeySet {\n        isPubKeySet();\n        _;\n    }\n\n    modifier onlyIfSysParamsSet {\n        isSysParamsSet();\n        _;\n    }\n\n    function isOwner() internal view {\n        require(msg.sender == owner, 'Only owner can call this function.');\n    }\n\n    function isPubKeySet() internal view {\n        require(IS_PUBKEY_SET == true, 'Public Key no set.');\n    }\n\n    function isSysParamsSet() internal view {\n        require(IS_PARAMETERS_SET == true, 'System Parameters not set.');\n    }\n\n    // /////////////////////////////////\n    // variables\n    // /////////////////////////////////\n    VotingState private votingState = VotingState.KEY_GENERATION;\n\n    VoteProofVerifier private voteVerifier;\n    SumProofVerifier private sumVerifier;\n    KeyGenProofVerifier private keyGenProofVerifier;\n\n    SystemParameters private systemParameters;\n    uint256 private publicKey;\n    Election private election;\n    bool private IS_PARAMETERS_SET;\n    bool private IS_PUBKEY_SET;\n\n    address public owner = msg.sender;\n\n    // array of addresses that are not allowed to vote (authority, sealers and access provider)\n    address[] private priviledgedAddresses;\n\n    // The number of PublicKeyShare needed to create the publicKey (# of authorities)\n    uint256 private NR_OF_AUTHORITY_NODES;\n\n    // /////////////////////////////////\n    // constructor\n    // /////////////////////////////////\n    constructor(string memory votingQuestion, uint256 numberOfAuthNodes, address[] memory addresses) public {\n        voteVerifier = new VoteProofVerifier();\n        sumVerifier = new SumProofVerifier();\n        keyGenProofVerifier = new KeyGenProofVerifier();\n        election.votingQuestion = votingQuestion;\n        priviledgedAddresses = addresses;\n        NR_OF_AUTHORITY_NODES = numberOfAuthNodes;\n    }\n\n    // /////////////////////////////////////////\n    // VOTING AUTHORITY core functions (owner)\n    // /////////////////////////////////////////\n\n    // set the parameters of the elgamal crypto system\n    // can only be done by the owner (authority) and should\n    // be set after contract deployment\n    function setParameters(uint256[3] calldata params) external onlyOwner {\n        require(!IS_PARAMETERS_SET, 'System parmeters already set!');\n        systemParameters = SystemParameters(params[0], params[1], params[2]);\n        keyGenProofVerifier.initialize(systemParameters.p, systemParameters.q, systemParameters.g);\n        IS_PARAMETERS_SET = true;\n    }\n\n    // generates the public key of the elgamal crypto system\n    // - the public key is generated from all submitted public key shares by the sealer nodes\n    // - their product forms the public key\n    function generatePublicKey() external onlyOwner {\n        // public key can only be generated once\n        require(!IS_PUBKEY_SET, 'The public key is already set.');\n\n        // every sealer needs to have published it's public key share\n        require(\n            election.publicKeyShareWallet.length == NR_OF_AUTHORITY_NODES,\n            'Public key shares !== number of authorities.'\n        );\n\n        // set an initial key (here, we take the first)\n        address firstSealerAddress = election.publicKeyShareWallet[0];\n        uint256 key = election.pubKeyShareMapping[firstSealerAddress].share;\n\n        // form the product of all public key shares\n        for (uint256 i = 1; i < election.publicKeyShareWallet.length; i++) {\n            address addr = election.publicKeyShareWallet[i];\n            key = key.modMul(election.pubKeyShareMapping[addr].share, systemParameters.p);\n        }\n\n        // set the public key\n        publicKey = key;\n\n        IS_PUBKEY_SET = true;\n\n        // trigger the creation of the verifiers (for proof verification)\n        // they depend on the system parameters and public key, that's why\n        // they are created only once the public key is set\n        createVerifiers();\n    }\n\n    // create proof verifiers\n    function createVerifiers() private onlyOwner onlyIfPubKeySet onlyIfSysParamsSet {\n        voteVerifier.initialize(systemParameters.p, systemParameters.q, systemParameters.g, publicKey);\n        sumVerifier.initialize(systemParameters.p, systemParameters.q, systemParameters.g, publicKey);\n    }\n\n    // open the Ballot and change into state VOTING\n    function openBallot() public onlyOwner onlyIfPubKeySet onlyIfSysParamsSet {\n        require(votingState == VotingState.KEY_GENERATION, 'Need state KEY_GENERATION.');\n        votingState = VotingState.VOTING;\n    }\n\n    // close the Ballot and change into state TALLYING\n    function closeBallot() public onlyOwner onlyIfPubKeySet onlyIfSysParamsSet {\n        require(votingState == VotingState.VOTING, 'Need state VOTING.');\n\n        votingState = VotingState.TALLYING;\n    }\n\n    // combine all submitted decrypted shares to find the final tally\n    // each sealer has to first submit it's decrypted share\n    // the product of all decrypted shares will form the final result (nr of yes-votes)\n    function combineDecryptedShares() public {\n        require(votingState == VotingState.TALLYING, 'Need state TALLYING.');\n        require(election.decryptedShareWallet.length == NR_OF_AUTHORITY_NODES, 'Nr of shares !== nr of sealers.');\n\n        // define starting value (here, we take the share of the first address)\n        address firstSealerAddress = election.decryptedShareWallet[0];\n        uint256 res = election.decryptedShareMapping[firstSealerAddress].share;\n\n        // calculate the product of all decrypted shares\n        for (uint256 i = 1; i < election.decryptedShareWallet.length; i++) {\n            address addr = election.decryptedShareWallet[i];\n            res = res.modMul(election.decryptedShareMapping[addr].share, systemParameters.p);\n        }\n\n        uint256 mh = election.sumCipher.b.modMul(res.modInv(systemParameters.p), systemParameters.p);\n\n        // decode message\n        uint256 m = 0;\n        uint256 g = systemParameters.g;\n        uint256 p = systemParameters.p;\n        while ((g.modPow(m, p)) != mh) {\n            // the homomorphic property will reveal how many yes-votes there are\n            m = m + 1;\n        }\n\n        // set the result\n        election.yesVotes = m;\n\n        // move into the RESULT state\n        votingState = VotingState.RESULT;\n    }\n\n    // /////////////////////////////////\n    // SEALER core functions\n    // /////////////////////////////////\n\n    // submit the public key share from the distributed key generation\n    function submitPublicKeyShare(uint256 key, uint256 proof_c, uint256 proof_d)\n        external\n        returns (bool, string memory)\n    {\n        // accept key shares only if state is KEY_GENERATION\n        // and the public key does not yet exist\n        require(votingState == VotingState.KEY_GENERATION, 'Need state KEY_GENERATION.');\n        require(!IS_PUBKEY_SET, 'Public key shares can only be submitted if the public key is not yet set.');\n        require(\n            keyGenProofVerifier.verifyProof(proof_c, proof_d, key, msg.sender),\n            'Key Generation Proof is not correct.'\n        );\n\n        // check if this address has already submitted a share\n        bool sealerAlreadySubmitted = false;\n\n        for (uint256 i; i < election.publicKeyShareWallet.length; i++) {\n            if (election.publicKeyShareWallet[i] == msg.sender) {\n                sealerAlreadySubmitted = true;\n            }\n        }\n\n        PublicKeyShare memory publicKeyShare = PublicKeyShare(key, KeyShareProof(proof_c, proof_d));\n\n        if (!sealerAlreadySubmitted) {\n            // add sealer address to array\n            election.publicKeyShareWallet.push(msg.sender);\n        }\n\n        // add or replace the share\n        election.pubKeyShareMapping[msg.sender] = publicKeyShare;\n\n        return (true, 'Key Generation Proof is valid.');\n    }\n\n    // submit the decrypted share (a decryption share of all vote-ciphers)\n    function submitDecryptedShare(uint256 share, uint256 a, uint256 b, uint256 a1, uint256 b1, uint256 d, uint256 f)\n        external\n        returns (bool, string memory)\n    {\n        // only allow submission if in state\n        require(votingState == VotingState.TALLYING, 'The contract needs to be in state: TALLYING.');\n\n        // don't accept if proof verification fails\n        uint256 publicKeyShare = election.pubKeyShareMapping[msg.sender].share;\n        require(sumVerifier.verifyProof(a, b, a1, b1, d, f, msg.sender, publicKeyShare));\n\n        // check if this address has already submitted a share\n        bool sealerAlreadySubmitted = false;\n\n        for (uint256 i; i < election.decryptedShareWallet.length; i++) {\n            if (election.decryptedShareWallet[i] == msg.sender) {\n                sealerAlreadySubmitted = true;\n            }\n        }\n\n        DecryptedShare memory decryptedShare = DecryptedShare(share, DecryptedShareProof(a1, b1, d, f));\n\n        if (!sealerAlreadySubmitted) {\n            // add sealer address to array\n            election.decryptedShareWallet.push(msg.sender);\n        }\n\n        // add or replace the share\n        election.decryptedShareMapping[msg.sender] = decryptedShare;\n\n        // store the cipher for later decryption\n        election.sumCipher = Cipher(a, b);\n\n        emit VoteStatusEvent(msg.sender, true, 'DecryptedShareProof accepted');\n        return (true, 'Sumproof accepted');\n    }\n\n    // /////////////////////////////////\n    // VOTER core functions\n    // /////////////////////////////////\n\n    // checks if the given address is allowed to vote\n    // only addresses which are not found in the priviledged addresses array can vote\n    function isVoter(address addr) private view returns (bool) {\n        for (uint8 i = 0; i < priviledgedAddresses.length; i++) {\n            if (priviledgedAddresses[i] == addr) {\n                return false;\n            }\n        }\n        return true;\n    }\n\n    function vote(\n        uint256[2] calldata cipher,\n        uint256[2] calldata a,\n        uint256[2] calldata b,\n        uint256[2] calldata c,\n        uint256[2] calldata f\n    ) external returns (bool, string memory) {\n        require(votingState == VotingState.VOTING, 'Vote not open.');\n        require(isVoter(msg.sender), 'Address not allowed to vote.');\n        require(!election.hasVoted[msg.sender], 'Voter already voted.');\n        require(voteVerifier.verifyProof(cipher, a, b, c, f, msg.sender), 'Vote Proof not accepted.');\n\n        VoteProof memory voteProof = VoteProof(a, b, c, f);\n        Cipher memory _cipher = Cipher(cipher[0], cipher[1]);\n        Voter memory voter = Voter(msg.sender, _cipher, voteProof);\n\n        // add Voter struct\n        election.voters.push(voter);\n        election.nrOfVoters += 1;\n        election.hasVoted[msg.sender] = true;\n\n        emit VoteStatusEvent(msg.sender, true, 'Vote was accepted');\n        return (true, 'Vote was accepted');\n    }\n\n    // /////////////////////////////////\n    // getters\n    // /////////////////////////////////\n\n    // get the voting question\n    function getVotingQuestion() external view returns (string memory) {\n        return election.votingQuestion;\n    }\n\n    // get system parameters\n    function getParameters() external view onlyIfSysParamsSet returns (uint256[3] memory) {\n        return [systemParameters.p, systemParameters.q, systemParameters.g];\n    }\n\n    // get the total number of public key shares\n    function getNrOfPublicKeyShares() public view returns (uint256) {\n        return election.publicKeyShareWallet.length;\n    }\n\n    // get combined public key of the system\n    function getPublicKey() public view onlyIfPubKeySet returns (uint256) {\n        return publicKey;\n    }\n\n    // get a vote cipher at a specific index\n    function getVote(uint256 idx) public view returns (uint256, uint256) {\n        return (election.voters[idx].cipher.a, election.voters[idx].cipher.b);\n    }\n\n    // get the total number of votes in election.voters\n    function getNumberOfVotes() public view returns (uint256) {\n        return election.voters.length;\n    }\n\n    // get the status of the vote\n    function getBallotStatus() public view returns (string memory) {\n        if (votingState == VotingState.KEY_GENERATION) {\n            return 'KEY_GENERATION';\n        }\n\n        if (votingState == VotingState.VOTING) {\n            return 'VOTING';\n        }\n\n        if (votingState == VotingState.TALLYING) {\n            return 'TALLYING';\n        }\n\n        if (votingState == VotingState.RESULT) {\n            return 'RESULT';\n        }\n    }\n\n    // get the total number of decrypted shares\n    function getNrOfDecryptedShares() public view returns (uint256) {\n        return election.decryptedShareWallet.length;\n    }\n\n    // get a decrypted share at a specific index\n    function getDecryptedShare(uint256 idx) public view returns (uint256) {\n        address addr = election.decryptedShareWallet[idx];\n        return election.decryptedShareMapping[addr].share;\n    }\n\n    // get vote result\n    function getVoteResult() public view returns (uint256) {\n        require(votingState == VotingState.RESULT, 'The contract needs to be in state: RESULT.');\n        return election.yesVotes;\n    }\n}\n",
  "sourcePath": "/home/alex/University/master-project-evoting/contracts/contracts/FiniteField/Ballot.sol",
  "compiler": {
    "name": "solc",
    "version": "0.5.3+commit.10d17f24.Emscripten.clang"
  },
  "schemaVersion": "3.0.19",
  "updatedAt": "2020-01-21T09:19:43.115Z",
  "devdoc": {
    "methods": {}
  },
  "userdoc": {
    "methods": {}
  }
}