{
  "abi": [
    {
      "inputs": [],
      "payable": false,
      "stateMutability": "nonpayable",
      "type": "constructor"
    },
    {
      "anonymous": false,
      "inputs": [
        {
          "indexed": true,
          "internalType": "address",
          "name": "from",
          "type": "address"
        },
        {
          "indexed": false,
          "internalType": "bool",
          "name": "success",
          "type": "bool"
        },
        {
          "indexed": false,
          "internalType": "string",
          "name": "reason",
          "type": "string"
        }
      ],
      "name": "SystemStatusEvent",
      "type": "event"
    },
    {
      "anonymous": false,
      "inputs": [
        {
          "indexed": true,
          "internalType": "address",
          "name": "from",
          "type": "address"
        },
        {
          "indexed": false,
          "internalType": "bool",
          "name": "success",
          "type": "bool"
        },
        {
          "indexed": false,
          "internalType": "string",
          "name": "reason",
          "type": "string"
        }
      ],
      "name": "VoteStatusEvent",
      "type": "event"
    },
    {
      "constant": false,
      "inputs": [],
      "name": "closeBallot",
      "outputs": [],
      "payable": false,
      "stateMutability": "nonpayable",
      "type": "function"
    },
    {
      "constant": false,
      "inputs": [],
      "name": "combineDecryptedShares",
      "outputs": [],
      "payable": false,
      "stateMutability": "nonpayable",
      "type": "function"
    },
    {
      "constant": false,
      "inputs": [],
      "name": "createVerifiers",
      "outputs": [],
      "payable": false,
      "stateMutability": "nonpayable",
      "type": "function"
    },
    {
      "constant": false,
      "inputs": [],
      "name": "generatePublicKey",
      "outputs": [],
      "payable": false,
      "stateMutability": "nonpayable",
      "type": "function"
    },
    {
      "constant": true,
      "inputs": [],
      "name": "getBallotStatus",
      "outputs": [
        {
          "internalType": "bool",
          "name": "",
          "type": "bool"
        }
      ],
      "payable": false,
      "stateMutability": "view",
      "type": "function"
    },
    {
      "constant": true,
      "inputs": [
        {
          "internalType": "uint256",
          "name": "idx",
          "type": "uint256"
        }
      ],
      "name": "getDecryptedShare",
      "outputs": [
        {
          "internalType": "uint256",
          "name": "",
          "type": "uint256"
        }
      ],
      "payable": false,
      "stateMutability": "view",
      "type": "function"
    },
    {
      "constant": true,
      "inputs": [],
      "name": "getNrOfDecryptedShares",
      "outputs": [
        {
          "internalType": "uint256",
          "name": "",
          "type": "uint256"
        }
      ],
      "payable": false,
      "stateMutability": "view",
      "type": "function"
    },
    {
      "constant": true,
      "inputs": [],
      "name": "getNumberOfVotes",
      "outputs": [
        {
          "internalType": "uint256",
          "name": "",
          "type": "uint256"
        }
      ],
      "payable": false,
      "stateMutability": "view",
      "type": "function"
    },
    {
      "constant": true,
      "inputs": [],
      "name": "getParameters",
      "outputs": [
        {
          "internalType": "uint256[3]",
          "name": "",
          "type": "uint256[3]"
        }
      ],
      "payable": false,
      "stateMutability": "view",
      "type": "function"
    },
    {
      "constant": true,
      "inputs": [],
      "name": "getPublicKey",
      "outputs": [
        {
          "internalType": "uint256",
          "name": "",
          "type": "uint256"
        }
      ],
      "payable": false,
      "stateMutability": "view",
      "type": "function"
    },
    {
      "constant": true,
      "inputs": [
        {
          "internalType": "uint256",
          "name": "idx",
          "type": "uint256"
        }
      ],
      "name": "getVote",
      "outputs": [
        {
          "internalType": "uint256",
          "name": "",
          "type": "uint256"
        },
        {
          "internalType": "uint256",
          "name": "",
          "type": "uint256"
        }
      ],
      "payable": false,
      "stateMutability": "view",
      "type": "function"
    },
    {
      "constant": true,
      "inputs": [],
      "name": "getVoteResult",
      "outputs": [
        {
          "internalType": "uint256",
          "name": "",
          "type": "uint256"
        }
      ],
      "payable": false,
      "stateMutability": "view",
      "type": "function"
    },
    {
      "constant": false,
      "inputs": [],
      "name": "openBallot",
      "outputs": [],
      "payable": false,
      "stateMutability": "nonpayable",
      "type": "function"
    },
    {
      "constant": false,
      "inputs": [
        {
          "internalType": "uint256[3]",
          "name": "params",
          "type": "uint256[3]"
        }
      ],
      "name": "setParameters",
      "outputs": [],
      "payable": false,
      "stateMutability": "nonpayable",
      "type": "function"
    },
    {
      "constant": false,
      "inputs": [
        {
          "internalType": "uint256",
          "name": "share",
          "type": "uint256"
        },
        {
          "internalType": "uint256",
          "name": "a",
          "type": "uint256"
        },
        {
          "internalType": "uint256",
          "name": "b",
          "type": "uint256"
        },
        {
          "internalType": "uint256",
          "name": "a1",
          "type": "uint256"
        },
        {
          "internalType": "uint256",
          "name": "b1",
          "type": "uint256"
        },
        {
          "internalType": "uint256",
          "name": "d",
          "type": "uint256"
        },
        {
          "internalType": "uint256",
          "name": "f",
          "type": "uint256"
        }
      ],
      "name": "submitDecryptedShare",
      "outputs": [
        {
          "internalType": "bool",
          "name": "",
          "type": "bool"
        },
        {
          "internalType": "string",
          "name": "",
          "type": "string"
        }
      ],
      "payable": false,
      "stateMutability": "nonpayable",
      "type": "function"
    },
    {
      "constant": false,
      "inputs": [
        {
          "internalType": "uint256",
          "name": "key",
          "type": "uint256"
        },
        {
          "internalType": "uint256",
          "name": "proof_c",
          "type": "uint256"
        },
        {
          "internalType": "uint256",
          "name": "proof_d",
          "type": "uint256"
        }
      ],
      "name": "submitPublicKeyShare",
      "outputs": [
        {
          "internalType": "bool",
          "name": "",
          "type": "bool"
        },
        {
          "internalType": "string",
          "name": "",
          "type": "string"
        }
      ],
      "payable": false,
      "stateMutability": "nonpayable",
      "type": "function"
    },
    {
      "constant": false,
      "inputs": [
        {
          "internalType": "uint256[2]",
          "name": "cipher",
          "type": "uint256[2]"
        },
        {
          "internalType": "uint256[2]",
          "name": "a",
          "type": "uint256[2]"
        },
        {
          "internalType": "uint256[2]",
          "name": "b",
          "type": "uint256[2]"
        },
        {
          "internalType": "uint256[2]",
          "name": "c",
          "type": "uint256[2]"
        },
        {
          "internalType": "uint256[2]",
          "name": "f",
          "type": "uint256[2]"
        }
      ],
      "name": "vote",
      "outputs": [
        {
          "internalType": "bool",
          "name": "",
          "type": "bool"
        },
        {
          "internalType": "string",
          "name": "",
          "type": "string"
        }
      ],
      "payable": false,
      "stateMutability": "nonpayable",
      "type": "function"
    }
  ],
  "evm": {
    "bytecode": {
      "linkReferences": {
        "ModuloMathLib.sol": {
          "ModuloMathLib": [
            {
              "length": 20,
              "start": 3608
            },
            {
              "length": 20,
              "start": 6343
            },
            {
              "length": 20,
              "start": 6563
            },
            {
              "length": 20,
              "start": 6592
            },
            {
              "length": 20,
              "start": 6905
            },
            {
              "length": 20,
              "start": 11183
            },
            {
              "length": 20,
              "start": 11347
            },
            {
              "length": 20,
              "start": 11376
            },
            {
              "length": 20,
              "start": 11691
            },
            {
              "length": 20,
              "start": 11855
            },
            {
              "length": 20,
              "start": 11884
            },
            {
              "length": 20,
              "start": 12199
            },
            {
              "length": 20,
              "start": 12363
            },
            {
              "length": 20,
              "start": 12392
            },
            {
              "length": 20,
              "start": 12707
            },
            {
              "length": 20,
              "start": 12871
            },
            {
              "length": 20,
              "start": 13040
            },
            {
              "length": 20,
              "start": 13204
            },
            {
              "length": 20,
              "start": 13403
            },
            {
              "length": 20,
              "start": 14578
            },
            {
              "length": 20,
              "start": 14750
            },
            {
              "length": 20,
              "start": 14783
            },
            {
              "length": 20,
              "start": 15088
            },
            {
              "length": 20,
              "start": 15260
            },
            {
              "length": 20,
              "start": 15289
            },
            {
              "length": 20,
              "start": 16366
            },
            {
              "length": 20,
              "start": 16530
            },
            {
              "length": 20,
              "start": 16559
            },
            {
              "length": 20,
              "start": 16887
            },
            {
              "length": 20,
              "start": 17047
            },
            {
              "length": 20,
              "start": 17207
            }
          ]
        }
      },
      "object": "60806040523480156200001157600080fd5b50604051620000209062000292565b604051809103906000f0801580156200003d573d6000803e3d6000fd5b506000806101000a81548173ffffffffffffffffffffffffffffffffffffffff021916908373ffffffffffffffffffffffffffffffffffffffff1602179055506040516200008b90620002a0565b604051809103906000f080158015620000a8573d6000803e3d6000fd5b50600160006101000a81548173ffffffffffffffffffffffffffffffffffffffff021916908373ffffffffffffffffffffffffffffffffffffffff160217905550604051620000f790620002ae565b604051809103906000f08015801562000114573d6000803e3d6000fd5b50600260006101000a81548173ffffffffffffffffffffffffffffffffffffffff021916908373ffffffffffffffffffffffffffffffffffffffff1602179055506000601160006101000a81548160ff0219169083151502179055506000601160016101000a81548160ff0219169083151502179055506000601160026101000a81548160ff02191690831515021790555033601160036101000a81548173ffffffffffffffffffffffffffffffffffffffff021916908373ffffffffffffffffffffffffffffffffffffffff16021790555060006007600001819055506000600760010181620002069190620002bc565b506040518060400160405280600981526020017f5245504c4143454d4500000000000000000000000000000000000000000000008152506007600401908051906020019062000257929190620002f1565b50600060078001816200026b919062000378565b506000600760080181620002809190620003ad565b50600060076009018190555062000559565b610fff80620026c283390190565b61074080620036c183390190565b6106b28062003e0183390190565b815481835581811115620002ec57600b0281600b028360005260206000209182019101620002eb9190620003e2565b5b505050565b828054600181600116156101000203166002900490600052602060002090601f016020900481019282601f106200033457805160ff191683800117855562000365565b8280016001018555821562000365579182015b828111156200036457825182559160200191906001019062000347565b5b50905062000374919062000491565b5090565b815481835581811115620003a857600302816003028360005260206000209182019101620003a79190620004b9565b5b505050565b815481835581811115620003dd57600502816005028360005260206000209182019101620003dc9190620004fa565b5b505050565b6200048e91905b808211156200048a57600080820160006101000a81549073ffffffffffffffffffffffffffffffffffffffff0219169055600182016000808201600090556001820160009055505060038201600080820160006200044891906200054b565b6002820160006200045a91906200054b565b6004820160006200046c91906200054b565b6006820160006200047e91906200054b565b505050600b01620003e9565b5090565b90565b620004b691905b80821115620004b257600081600090555060010162000498565b5090565b90565b620004f791905b80821115620004f357600080820160009055600182016000808201600090556001820160009055505050600301620004c0565b5090565b90565b6200054891905b8082111562000544576000808201600090556001820160008082016000905560018201600090556002820160009055600382016000905550505060050162000501565b5090565b90565b506000815560010160009055565b61215980620005696000396000f3fe608060405234801561001057600080fd5b506004361061010b5760003560e01c806373e867fb116100a2578063a97b8b4d11610071578063a97b8b4d1461042f578063b23d422d14610439578063bb1f683d14610443578063cee024dc1461051e578063df2252b91461053c5761010b565b806373e867fb1461038b5780638742fc3b146103a9578063a10cfae5146103c7578063a5ea11da146103e95761010b565b80634d0013ac116100de5780634d0013ac146101845780635a55c1f01461018e5780635b71c523146101d7578063689778c3146102c55761010b565b80631f50c0ab146101105780632e33445214610152578063339f845b14610170578063345075561461017a575b600080fd5b61013c6004803603602081101561012657600080fd5b810190808035906020019092919050505061056a565b6040518082815260200191505060405180910390f35b61015a610595565b6040518082815260200191505060405180910390f35b610178610607565b005b6101826107d4565b005b61018c6109b9565b005b6101ba600480360360208110156101a457600080fd5b8101908080359060200190929190505050610a30565b604051808381526020018281526020019250505060405180910390f35b61023f600480360360e08110156101ed57600080fd5b8101908080359060200190929190803590602001909291908035906020019092919080359060200190929190803590602001909291908035906020019092919080359060200190929190505050610a86565b604051808315151515815260200180602001828103825283818151815260200191508051906020019080838360005b8381101561028957808201518184015260208101905061026e565b50505050905090810190601f1680156102b65780820380516001836020036101000a031916815260200191505b50935050505060405180910390f35b610305600480360360608110156102db57600080fd5b81019080803590602001909291908035906020019092919080359060200190929190505050610f4f565b604051808315151515815260200180602001828103825283818151815260200191508051906020019080838360005b8381101561034f578082015181840152602081019050610334565b50505050905090810190601f16801561037c5780820380516001836020036101000a031916815260200191505b50935050505060405180910390f35b6103936111f3565b6040518082815260200191505060405180910390f35b6103b1611203565b6040518082815260200191505060405180910390f35b6103cf61122a565b604051808215151515815260200191505060405180910390f35b6103f1611241565b6040518082600360200280838360005b8381101561041c578082015181840152602081019050610401565b5050505090500191505060405180910390f35b610437611291565b005b610441611308565b005b610498600480360361014081101561045a57600080fd5b81019080806040019091929192908060400190919291929080604001909192919290806040019091929192908060400190919291929050505061164a565b604051808315151515815260200180602001828103825283818151815260200191508051906020019080838360005b838110156104e25780820151818401526020810190506104c7565b50505050905090810190601f16801561050f5780820380516001836020036101000a031916815260200191505b50935050505060405180910390f35b610526611d55565b6040518082815260200191505060405180910390f35b6105686004803603606081101561055257600080fd5b8101908080606001909192919290505050611d65565b005b60006007600801828154811061057c57fe5b9060005260206000209060050201600001549050919050565b6000601160029054906101000a900460ff166105fc576040517f08c379a00000000000000000000000000000000000000000000000000000000081526004018080602001828103825260248152602001806120dd6024913960400191505060405180910390fd5b600660000154905090565b601160039054906101000a900473ffffffffffffffffffffffffffffffffffffffff1673ffffffffffffffffffffffffffffffffffffffff163373ffffffffffffffffffffffffffffffffffffffff161461066157600080fd5b6000809054906101000a900473ffffffffffffffffffffffffffffffffffffffff1673ffffffffffffffffffffffffffffffffffffffff166360a2da446003600001546003600101546003600201546006600001546040518563ffffffff1660e01b815260040180858152602001848152602001838152602001828152602001945050505050600060405180830381600087803b15801561070157600080fd5b505af1158015610715573d6000803e3d6000fd5b50505050600160009054906101000a900473ffffffffffffffffffffffffffffffffffffffff1673ffffffffffffffffffffffffffffffffffffffff166360a2da446003600001546003600101546003600201546006600001546040518563ffffffff1660e01b815260040180858152602001848152602001838152602001828152602001945050505050600060405180830381600087803b1580156107ba57600080fd5b505af11580156107ce573d6000803e3d6000fd5b50505050565b601160039054906101000a900473ffffffffffffffffffffffffffffffffffffffff1673ffffffffffffffffffffffffffffffffffffffff163373ffffffffffffffffffffffffffffffffffffffff161461082e57600080fd5b601160029054906101000a900460ff161561084857600080fd5b600060078001805490501161085c57600080fd5b600780018054905060021461087057600080fd5b60006007800160008154811061088257fe5b90600052602060002090600302016000015490506000600190505b600780018054905081101561097c578173__$2b17134ab1906492f2985bd6a40d21838c$__63e616559e90916007800184815481106108d857fe5b9060005260206000209060030201600001546003600001546040518463ffffffff1660e01b815260040180848152602001838152602001828152602001935050505060206040518083038186803b15801561093257600080fd5b505af4158015610946573d6000803e3d6000fd5b505050506040513d602081101561095c57600080fd5b81019080805190602001909291905050509150808060010191505061089d565b506040518060200160405280828152506006600082015181600001559050506001601160026101000a81548160ff02191690831515021790555050565b601160039054906101000a900473ffffffffffffffffffffffffffffffffffffffff1673ffffffffffffffffffffffffffffffffffffffff163373ffffffffffffffffffffffffffffffffffffffff1614610a1357600080fd5b6001601160016101000a81548160ff021916908315150217905550565b60008060076001018381548110610a4357fe5b90600052602060002090600b02016001016000015460076001018481548110610a6857fe5b90600052602060002090600b02016001016001015491509150915091565b60006060601160019054906101000a900460ff1615610b6c573373ffffffffffffffffffffffffffffffffffffffff167f13dd6fe92e00365cc4b5b06c43c90e02579bac92daf813dcc92257094835f9146000604051808215151515815260200180602001828103825260158152602001807f566f7465206973207374696c6c206f6e676f696e6700000000000000000000008152506020019250505060405180910390a260006040518060400160405280601581526020017f566f7465206973207374696c6c206f6e676f696e67000000000000000000000081525091509150610f43565b6000600760030160003373ffffffffffffffffffffffffffffffffffffffff1673ffffffffffffffffffffffffffffffffffffffff168152602001908152602001600020549050600160009054906101000a900473ffffffffffffffffffffffffffffffffffffffff1673ffffffffffffffffffffffffffffffffffffffff1663b6b81a268a8a8a8a8a8a33896040518963ffffffff1660e01b8152600401808981526020018881526020018781526020018681526020018581526020018481526020018373ffffffffffffffffffffffffffffffffffffffff1673ffffffffffffffffffffffffffffffffffffffff1681526020018281526020019850505050505050505060206040518083038186803b158015610c8a57600080fd5b505afa158015610c9e573d6000803e3d6000fd5b505050506040513d6020811015610cb457600080fd5b8101908080519060200190929190505050610d97573373ffffffffffffffffffffffffffffffffffffffff167f13dd6fe92e00365cc4b5b06c43c90e02579bac92daf813dcc92257094835f9146000604051808215151515815260200180602001828103825260118152602001807f50726f6f66206e6f7420636f72726563740000000000000000000000000000008152506020019250505060405180910390a260006040518060400160405280601181526020017f50726f6f66206e6f7420636f72726563740000000000000000000000000000008152509250925050610f43565b610d9f611f14565b6040518060800160405280898152602001888152602001878152602001868152509050600760080160405180604001604052808d815260200183815250908060018154018082558091505090600182039060005260206000209060050201600090919290919091506000820151816000015560208201518160010160008201518160000155602082015181600101556040820151816002015560608201518160030155505050505060405180604001604052808b81526020018a815250600760050160008201518160000155602082015181600101559050503373ffffffffffffffffffffffffffffffffffffffff167f13dd6fe92e00365cc4b5b06c43c90e02579bac92daf813dcc92257094835f91460016040518082151515158152602001806020018281038252601c8152602001807f446563727970746564536861726550726f6f66206163636570746564000000008152506020019250505060405180910390a260016040518060400160405280601181526020017f53756d70726f6f662061636365707465640000000000000000000000000000008152509350935050505b97509795505050505050565b600060606000600260009054906101000a900473ffffffffffffffffffffffffffffffffffffffff1673ffffffffffffffffffffffffffffffffffffffff1663b0caa829868689336040518563ffffffff1660e01b8152600401808581526020018481526020018381526020018273ffffffffffffffffffffffffffffffffffffffff1673ffffffffffffffffffffffffffffffffffffffff16815260200194505050505060206040518083038186803b15801561100c57600080fd5b505afa158015611020573d6000803e3d6000fd5b505050506040513d602081101561103657600080fd5b81019080805190602001909291905050509050806110e2573373ffffffffffffffffffffffffffffffffffffffff167f5e3bcf275ebed27743f1e6a7da420715dbb1cf382076b6b9edcf71ad26b8b454600060405180821515151581526020018060200182810382526024815260200180612101602491396040019250505060405180910390a260006040518060600160405280602481526020016121016024913992509250506111eb565b85600760030160003373ffffffffffffffffffffffffffffffffffffffff1673ffffffffffffffffffffffffffffffffffffffff1681526020019081526020016000208190555060078001604051806040016040528088815260200160405180604001604052808981526020018881525081525090806001815401808255809150509060018203906000526020600020906003020160009091929091909150600082015181600001556020820151816001016000820151816000015560208201518160010155505050505060016040518060400160405280601e81526020017f4b65792047656e65726174696f6e2050726f6f662069732076616c69642e000081525092509250505b935093915050565b6000600760080180549050905090565b6000601160019054906101000a900460ff161561121f57600080fd5b600760090154905090565b6000601160019054906101000a900460ff16905090565b611249611f3c565b601160009054906101000a900460ff1661126257600080fd5b604051806060016040528060036000015481526020016003600101548152602001600360020154815250905090565b601160039054906101000a900473ffffffffffffffffffffffffffffffffffffffff1673ffffffffffffffffffffffffffffffffffffffff163373ffffffffffffffffffffffffffffffffffffffff16146112eb57600080fd5b6000601160016101000a81548160ff021916908315150217905550565b60026007600801805490501461131d57600080fd5b6000600760080160008154811061133057fe5b90600052602060002090600502016000015490506000600190505b60076008018054905081101561142c578173__$2b17134ab1906492f2985bd6a40d21838c$__63e616559e90916007600801848154811061138857fe5b9060005260206000209060050201600001546003600001546040518463ffffffff1660e01b815260040180848152602001838152602001828152602001935050505060206040518083038186803b1580156113e257600080fd5b505af41580156113f6573d6000803e3d6000fd5b505050506040513d602081101561140c57600080fd5b81019080805190602001909291905050509150808060010191505061134b565b50600060076005016001015473__$2b17134ab1906492f2985bd6a40d21838c$__63e616559e90918473__$2b17134ab1906492f2985bd6a40d21838c$__63a9008ad690916003600001546040518363ffffffff1660e01b8152600401808381526020018281526020019250505060206040518083038186803b1580156114b257600080fd5b505af41580156114c6573d6000803e3d6000fd5b505050506040513d60208110156114dc57600080fd5b81019080805190602001909291905050506003600001546040518463ffffffff1660e01b815260040180848152602001838152602001828152602001935050505060206040518083038186803b15801561153557600080fd5b505af4158015611549573d6000803e3d6000fd5b505050506040513d602081101561155f57600080fd5b81019080805190602001909291905050509050600080905060006003600201549050600060036000015490505b838273__$2b17134ab1906492f2985bd6a40d21838c$__63edbe2fbd909186856040518463ffffffff1660e01b815260040180848152602001838152602001828152602001935050505060206040518083038186803b1580156115ee57600080fd5b505af4158015611602573d6000803e3d6000fd5b505050506040513d602081101561161857600080fd5b8101908080519060200190929190505050146116395760018301925061158c565b826007600901819055505050505050565b60006060601160019054906101000a900460ff1661172f573373ffffffffffffffffffffffffffffffffffffffff167f13dd6fe92e00365cc4b5b06c43c90e02579bac92daf813dcc92257094835f91460006040518082151515158152602001806020018281038252600d8152602001807f566f7465206e6f74206f70656e000000000000000000000000000000000000008152506020019250505060405180910390a260006040518060400160405280600d81526020017f566f7465206e6f74206f70656e0000000000000000000000000000000000000081525091509150611d4b565b6000809054906101000a900473ffffffffffffffffffffffffffffffffffffffff1673ffffffffffffffffffffffffffffffffffffffff16632817a98f8888888888336040518763ffffffff1660e01b81526004018087600260200280828437600081840152601f19601f82011690508083019250505086600260200280828437600081840152601f19601f82011690508083019250505085600260200280828437600081840152601f19601f82011690508083019250505084600260200280828437600081840152601f19601f82011690508083019250505083600260200280828437600081840152601f19601f8201169050808301925050508273ffffffffffffffffffffffffffffffffffffffff1673ffffffffffffffffffffffffffffffffffffffff168152602001965050505050505060206040518083038186803b15801561187c57600080fd5b505afa158015611890573d6000803e3d6000fd5b505050506040513d60208110156118a657600080fd5b8101908080519060200190929190505050611988573373ffffffffffffffffffffffffffffffffffffffff167f13dd6fe92e00365cc4b5b06c43c90e02579bac92daf813dcc92257094835f9146000604051808215151515815260200180602001828103825260118152602001807f50726f6f66206e6f7420636f72726563740000000000000000000000000000008152506020019250505060405180910390a260006040518060400160405280601181526020017f50726f6f66206e6f7420636f727265637400000000000000000000000000000081525091509150611d4b565b611990611f5e565b6040518060800160405280886002806020026040519081016040528092919082600260200280828437600081840152601f19601f8201169050808301925050505050508152602001876002806020026040519081016040528092919082600260200280828437600081840152601f19601f8201169050808301925050505050508152602001866002806020026040519081016040528092919082600260200280828437600081840152601f19601f8201169050808301925050505050508152602001856002806020026040519081016040528092919082600260200280828437600081840152601f19601f8201169050808301925050505050508152509050611a97611f9e565b60405180604001604052808a600060028110611aaf57fe5b602002013581526020018a600160028110611ac657fe5b60200201358152509050611ad8611fb8565b60405180606001604052803373ffffffffffffffffffffffffffffffffffffffff1681526020018381526020018481525090506007600101819080600181540180825580915050906001820390600052602060002090600b02016000909192909190915060008201518160000160006101000a81548173ffffffffffffffffffffffffffffffffffffffff021916908373ffffffffffffffffffffffffffffffffffffffff16021790555060208201518160010160008201518160000155602082015181600101555050604082015181600301600082015181600001906002611bc2929190611ffb565b50602082015181600201906002611bda929190611ffb565b50604082015181600401906002611bf2929190611ffb565b50606082015181600601906002611c0a929190611ffb565b50505050505060016007600001600082825401925050819055506001600760020160003373ffffffffffffffffffffffffffffffffffffffff1673ffffffffffffffffffffffffffffffffffffffff16815260200190815260200160002060006101000a81548160ff0219169083151502179055503373ffffffffffffffffffffffffffffffffffffffff167f13dd6fe92e00365cc4b5b06c43c90e02579bac92daf813dcc92257094835f9146001604051808215151515815260200180602001828103825260118152602001807f566f7465207761732061636365707465640000000000000000000000000000008152506020019250505060405180910390a260016040518060400160405280601181526020017f566f746520776173206163636570746564000000000000000000000000000000815250945094505050505b9550959350505050565b6000600760010180549050905090565b601160039054906101000a900473ffffffffffffffffffffffffffffffffffffffff1673ffffffffffffffffffffffffffffffffffffffff163373ffffffffffffffffffffffffffffffffffffffff1614611dbf57600080fd5b601160009054906101000a900460ff1615611dd957600080fd5b604051806060016040528082600060038110611df157fe5b6020020135815260200182600160038110611e0857fe5b6020020135815260200182600260038110611e1f57fe5b60200201358152506003600082015181600001556020820151816001015560408201518160020155905050600260009054906101000a900473ffffffffffffffffffffffffffffffffffffffff1673ffffffffffffffffffffffffffffffffffffffff166380d859116003600001546003600101546003600201546040518463ffffffff1660e01b8152600401808481526020018381526020018281526020019350505050600060405180830381600087803b158015611ede57600080fd5b505af1158015611ef2573d6000803e3d6000fd5b505050506001601160006101000a81548160ff02191690831515021790555050565b6040518060800160405280600081526020016000815260200160008152602001600081525090565b6040518060600160405280600390602082028038833980820191505090505090565b6040518060800160405280611f7161203b565b8152602001611f7e61203b565b8152602001611f8b61203b565b8152602001611f9861203b565b81525090565b604051806040016040528060008152602001600081525090565b6040518060600160405280600073ffffffffffffffffffffffffffffffffffffffff168152602001611fe861205d565b8152602001611ff5612077565b81525090565b826002810192821561202a579160200282015b8281111561202957825182559160200191906001019061200e565b5b50905061203791906120b7565b5090565b6040518060400160405280600290602082028038833980820191505090505090565b604051806040016040528060008152602001600081525090565b604051806080016040528061208a61203b565b815260200161209761203b565b81526020016120a461203b565b81526020016120b161203b565b81525090565b6120d991905b808211156120d55760008160009055506001016120bd565b5090565b9056fe5075626c6963204b6579206f66207468652053797374656d206e6f7420796574207365744b65792047656e65726174696f6e2050726f6f66206973206e6f7420636f72726563742ea265627a7a7231582032f9202c49feb38ab6b3e407cf485d108cf069f86d05c25653562ae5e84fb1bf64736f6c634300050d0032608060405234801561001057600080fd5b50604051806080016040528060008152602001600081526020016000815260200160008152506000808201518160000155602082015181600101556040820151816002015560608201518160030155905050610f8e806100716000396000f3fe6080604052600436106100295760003560e01c80632817a98f1461002e57806360a2da44146101dd575b600080fd5b34801561003a57600080fd5b506101c3600480360361016081101561005257600080fd5b8101908080604001906002806020026040519081016040528092919082600260200280828437600081840152601f19601f820116905080830192505050505050919291929080604001906002806020026040519081016040528092919082600260200280828437600081840152601f19601f820116905080830192505050505050919291929080604001906002806020026040519081016040528092919082600260200280828437600081840152601f19601f820116905080830192505050505050919291929080604001906002806020026040519081016040528092919082600260200280828437600081840152601f19601f820116905080830192505050505050919291929080604001906002806020026040519081016040528092919082600260200280828437600081840152601f19601f8201169050808301925050505050509192919290803573ffffffffffffffffffffffffffffffffffffffff169060200190929190505050610229565b604051808215151515815260200191505060405180910390f35b610227600480360360808110156101f357600080fd5b8101908080359060200190929190803590602001909291908035906020019092919080359060200190929190505050610444565b005b6000610233610eea565b6040518060a0016040528089815260200188815260200187815260200186815260200185815250905060006102be826020015160006002811061027257fe5b6020020151836060015160006002811061028857fe5b6020020151846080015160006002811061029e57fe5b602002015185600001516000600281106102b457fe5b6020020151610471565b9050600061032283602001516001600281106102d657fe5b602002015184608001516001600281106102ec57fe5b6020020151856060015160016002811061030257fe5b6020020151866000015160006002811061031857fe5b602002015161066d565b90506000610386846040015160006002811061033a57fe5b6020020151856060015160006002811061035057fe5b6020020151866080015160006002811061036657fe5b6020020151876000015160016002811061037c57fe5b6020020151610869565b905060006103ea856040015160016002811061039e57fe5b602002015186606001516001600281106103b457fe5b602002015187608001516001600281106103ca57fe5b602002015188600001516001600281106103e057fe5b6020020151610a65565b9050600061040b86602001518760400151886060015189600001518c610d11565b90508480156104175750835b80156104205750825b80156104295750815b80156104325750805b96505050505050509695505050505050565b83600080018190555082600060010181905550816000600201819055508060006003018190555050505050565b60008060006002015473__$2b17134ab1906492f2985bd6a40d21838c$__63edbe2fbd90918660008001546040518463ffffffff1660e01b815260040180848152602001838152602001828152602001935050505060206040518083038186803b1580156104de57600080fd5b505af41580156104f2573d6000803e3d6000fd5b505050506040513d602081101561050857600080fd5b8101908080519060200190929190505050905060008673__$2b17134ab1906492f2985bd6a40d21838c$__63e616559e90918673__$2b17134ab1906492f2985bd6a40d21838c$__63edbe2fbd90918b60008001546040518463ffffffff1660e01b815260040180848152602001838152602001828152602001935050505060206040518083038186803b15801561059f57600080fd5b505af41580156105b3573d6000803e3d6000fd5b505050506040513d60208110156105c957600080fd5b810190808051906020019092919050505060008001546040518463ffffffff1660e01b815260040180848152602001838152602001828152602001935050505060206040518083038186803b15801561062157600080fd5b505af4158015610635573d6000803e3d6000fd5b505050506040513d602081101561064b57600080fd5b8101908080519060200190929190505050905080821492505050949350505050565b60008060006002015473__$2b17134ab1906492f2985bd6a40d21838c$__63edbe2fbd90918760008001546040518463ffffffff1660e01b815260040180848152602001838152602001828152602001935050505060206040518083038186803b1580156106da57600080fd5b505af41580156106ee573d6000803e3d6000fd5b505050506040513d602081101561070457600080fd5b8101908080519060200190929190505050905060008673__$2b17134ab1906492f2985bd6a40d21838c$__63e616559e90918673__$2b17134ab1906492f2985bd6a40d21838c$__63edbe2fbd90918a60008001546040518463ffffffff1660e01b815260040180848152602001838152602001828152602001935050505060206040518083038186803b15801561079b57600080fd5b505af41580156107af573d6000803e3d6000fd5b505050506040513d60208110156107c557600080fd5b810190808051906020019092919050505060008001546040518463ffffffff1660e01b815260040180848152602001838152602001828152602001935050505060206040518083038186803b15801561081d57600080fd5b505af4158015610831573d6000803e3d6000fd5b505050506040513d602081101561084757600080fd5b8101908080519060200190929190505050905080821492505050949350505050565b60008060006003015473__$2b17134ab1906492f2985bd6a40d21838c$__63edbe2fbd90918660008001546040518463ffffffff1660e01b815260040180848152602001838152602001828152602001935050505060206040518083038186803b1580156108d657600080fd5b505af41580156108ea573d6000803e3d6000fd5b505050506040513d602081101561090057600080fd5b8101908080519060200190929190505050905060008673__$2b17134ab1906492f2985bd6a40d21838c$__63e616559e90918673__$2b17134ab1906492f2985bd6a40d21838c$__63edbe2fbd90918b60008001546040518463ffffffff1660e01b815260040180848152602001838152602001828152602001935050505060206040518083038186803b15801561099757600080fd5b505af41580156109ab573d6000803e3d6000fd5b505050506040513d60208110156109c157600080fd5b810190808051906020019092919050505060008001546040518463ffffffff1660e01b815260040180848152602001838152602001828152602001935050505060206040518083038186803b158015610a1957600080fd5b505af4158015610a2d573d6000803e3d6000fd5b505050506040513d6020811015610a4357600080fd5b8101908080519060200190929190505050905080821492505050949350505050565b60008060006003015473__$2b17134ab1906492f2985bd6a40d21838c$__63edbe2fbd90918660008001546040518463ffffffff1660e01b815260040180848152602001838152602001828152602001935050505060206040518083038186803b158015610ad257600080fd5b505af4158015610ae6573d6000803e3d6000fd5b505050506040513d6020811015610afc57600080fd5b8101908080519060200190929190505050905060008373__$2b17134ab1906492f2985bd6a40d21838c$__636378bd6c909160006002015460008001546040518463ffffffff1660e01b815260040180848152602001838152602001828152602001935050505060206040518083038186803b158015610b7b57600080fd5b505af4158015610b8f573d6000803e3d6000fd5b505050506040513d6020811015610ba557600080fd5b8101908080519060200190929190505050905060008173__$2b17134ab1906492f2985bd6a40d21838c$__63edbe2fbd90918960008001546040518463ffffffff1660e01b815260040180848152602001838152602001828152602001935050505060206040518083038186803b158015610c1f57600080fd5b505af4158015610c33573d6000803e3d6000fd5b505050506040513d6020811015610c4957600080fd5b8101908080519060200190929190505050905060008873__$2b17134ab1906492f2985bd6a40d21838c$__63e616559e90918460008001546040518463ffffffff1660e01b815260040180848152602001838152602001828152602001935050505060206040518083038186803b158015610cc357600080fd5b505af4158015610cd7573d6000803e3d6000fd5b505050506040513d6020811015610ced57600080fd5b81019080805190602001909291905050509050808414945050505050949350505050565b60008084600160028110610d2157fe5b602002015173__$2b17134ab1906492f2985bd6a40d21838c$__63a2f0dc8d909187600060028110610d4f57fe5b60200201516000600101546040518463ffffffff1660e01b815260040180848152602001838152602001828152602001935050505060206040518083038186803b158015610d9c57600080fd5b505af4158015610db0573d6000803e3d6000fd5b505050506040513d6020811015610dc657600080fd5b8101908080519060200190929190505050905060008385600060028110610de957fe5b602002015186600160028110610dfb57fe5b60200201518a600060028110610e0d57fe5b60200201518a600060028110610e1f57fe5b60200201518c600160028110610e3157fe5b60200201518c600160028110610e4357fe5b6020020151604051602001808873ffffffffffffffffffffffffffffffffffffffff1673ffffffffffffffffffffffffffffffffffffffff1660601b81526014018781526020018681526020018581526020018481526020018381526020018281526020019750505050505050506040516020818303038152906040528051906020012090506000600101548160001c81610eda57fe5b0682149250505095945050505050565b6040518060a00160405280610efd610f37565b8152602001610f0a610f37565b8152602001610f17610f37565b8152602001610f24610f37565b8152602001610f31610f37565b81525090565b604051806040016040528060029060208202803883398082019150509050509056fea265627a7a723158200559989305c3cc42502f428207b84d8fd997eb07e1873797372a830e4e1be8d464736f6c634300050d0032608060405234801561001057600080fd5b506040518060800160405280600081526020016000815260200160008152602001600081525060008082015181600001556020820151816001015560408201518160020155606082015181600301559050506106cf806100716000396000f3fe6080604052600436106100295760003560e01c806360a2da441461002e578063b6b81a261461007a575b600080fd5b6100786004803603608081101561004457600080fd5b810190808035906020019092919080359060200190929190803590602001909291908035906020019092919050505061012a565b005b34801561008657600080fd5b50610110600480360361010081101561009e57600080fd5b81019080803590602001909291908035906020019092919080359060200190929190803590602001909291908035906020019092919080359060200190929190803573ffffffffffffffffffffffffffffffffffffffff16906020019092919080359060200190929190505050610157565b604051808215151515815260200191505060405180910390f35b83600080018190555082600060010181905550816000600201819055508060006003018190555050505050565b6000610161610664565b6040518060c001604052808b81526020018a815260200189815260200188815260200187815260200186815250905060006101b58260000151836020015184604001518560600151896000600101546105cf565b90506000826000015173__$2b17134ab1906492f2985bd6a40d21838c$__63edbe2fbd90918560a0015160008001546040518463ffffffff1660e01b815260040180848152602001838152602001828152602001935050505060206040518083038186803b15801561022657600080fd5b505af415801561023a573d6000803e3d6000fd5b505050506040513d602081101561025057600080fd5b810190808051906020019092919050505090506000836040015173__$2b17134ab1906492f2985bd6a40d21838c$__63e616559e9091866080015173__$2b17134ab1906492f2985bd6a40d21838c$__63edbe2fbd90918860008001546040518463ffffffff1660e01b815260040180848152602001838152602001828152602001935050505060206040518083038186803b1580156102ef57600080fd5b505af4158015610303573d6000803e3d6000fd5b505050506040513d602081101561031957600080fd5b810190808051906020019092919050505060008001546040518463ffffffff1660e01b815260040180848152602001838152602001828152602001935050505060206040518083038186803b15801561037157600080fd5b505af4158015610385573d6000803e3d6000fd5b505050506040513d602081101561039b57600080fd5b81019080805190602001909291905050509050600081831490506000806002015473__$2b17134ab1906492f2985bd6a40d21838c$__63edbe2fbd90918860a0015160008001546040518463ffffffff1660e01b815260040180848152602001838152602001828152602001935050505060206040518083038186803b15801561042457600080fd5b505af4158015610438573d6000803e3d6000fd5b505050506040513d602081101561044e57600080fd5b810190808051906020019092919050505090506000866060015173__$2b17134ab1906492f2985bd6a40d21838c$__63e616559e90918b73__$2b17134ab1906492f2985bd6a40d21838c$__63edbe2fbd90918b60008001546040518463ffffffff1660e01b815260040180848152602001838152602001828152602001935050505060206040518083038186803b1580156104e957600080fd5b505af41580156104fd573d6000803e3d6000fd5b505050506040513d602081101561051357600080fd5b810190808051906020019092919050505060008001546040518463ffffffff1660e01b815260040180848152602001838152602001828152602001935050505060206040518083038186803b15801561056b57600080fd5b505af415801561057f573d6000803e3d6000fd5b505050506040513d602081101561059557600080fd5b81019080805190602001909291905050509050600081831490508380156105b95750805b9850505050505050505098975050505050505050565b6000808388888888604051602001808673ffffffffffffffffffffffffffffffffffffffff1673ffffffffffffffffffffffffffffffffffffffff1660601b815260140185815260200184815260200183815260200182815260200195505050505050604051602081830303815290604052805190602001209050828160001c8161065657fe5b069150509695505050505050565b6040518060c00160405280600081526020016000815260200160008152602001600081526020016000815260200160008152509056fea265627a7a72315820e53bd2a6b284f12ed99f02e740b95f942b9525a7655cc41d45d210888ac5c95b64736f6c634300050d0032608060405234801561001057600080fd5b5060405180606001604052806000815260200160008152602001600081525060008082015181600001556020820151816001015560408201518160020155905050610652806100606000396000f3fe6080604052600436106100295760003560e01c806380d859111461002e578063b0caa82914610070575b600080fd5b61006e6004803603606081101561004457600080fd5b810190808035906020019092919080359060200190929190803590602001909291905050506100f7565b005b34801561007c57600080fd5b506100dd6004803603608081101561009357600080fd5b81019080803590602001909291908035906020019092919080359060200190929190803573ffffffffffffffffffffffffffffffffffffffff169060200190929190505050610119565b604051808215151515815260200191505060405180910390f35b8260008001819055508160006001018190555080600060020181905550505050565b6000806000800154905060008060010154905060008060020154905061013d610603565b60405180604001604052808a8152602001898152509050600061016b83868a85602001518660000151610390565b9050600061017b85898b85610580565b9050600081846000015114905060008573__$2b17134ab1906492f2985bd6a40d21838c$__63edbe2fbd909187602001518b6040518463ffffffff1660e01b815260040180848152602001838152602001828152602001935050505060206040518083038186803b1580156101ef57600080fd5b505af4158015610203573d6000803e3d6000fd5b505050506040513d602081101561021957600080fd5b8101908080519060200190929190505050905060008473__$2b17134ab1906492f2985bd6a40d21838c$__63e616559e90918e73__$2b17134ab1906492f2985bd6a40d21838c$__63edbe2fbd90918b600001518f6040518463ffffffff1660e01b815260040180848152602001838152602001828152602001935050505060206040518083038186803b1580156102b057600080fd5b505af41580156102c4573d6000803e3d6000fd5b505050506040513d60208110156102da57600080fd5b81019080805190602001909291905050508c6040518463ffffffff1660e01b815260040180848152602001838152602001828152602001935050505060206040518083038186803b15801561032e57600080fd5b505af4158015610342573d6000803e3d6000fd5b505050506040513d602081101561035857600080fd5b810190808051906020019092919050505090506000818314905083801561037c5750805b9a5050505050505050505050949350505050565b6000808673__$2b17134ab1906492f2985bd6a40d21838c$__63edbe2fbd909186896040518463ffffffff1660e01b815260040180848152602001838152602001828152602001935050505060206040518083038186803b1580156103f457600080fd5b505af4158015610408573d6000803e3d6000fd5b505050506040513d602081101561041e57600080fd5b8101908080519060200190929190505050905060008573__$2b17134ab1906492f2985bd6a40d21838c$__63edbe2fbd9091868a6040518463ffffffff1660e01b815260040180848152602001838152602001828152602001935050505060206040518083038186803b15801561049457600080fd5b505af41580156104a8573d6000803e3d6000fd5b505050506040513d60208110156104be57600080fd5b8101908080519060200190929190505050905060008273__$2b17134ab1906492f2985bd6a40d21838c$__636378bd6c9091848b6040518463ffffffff1660e01b815260040180848152602001838152602001828152602001935050505060206040518083038186803b15801561053457600080fd5b505af4158015610548573d6000803e3d6000fd5b505050506040513d602081101561055e57600080fd5b8101908080519060200190929190505050905080935050505095945050505050565b600080848484604051602001808473ffffffffffffffffffffffffffffffffffffffff1673ffffffffffffffffffffffffffffffffffffffff1660601b81526014018381526020018281526020019350505050604051602081830303815290604052805190602001209050858160001c816105f757fe5b06915050949350505050565b60405180604001604052806000815260200160008152509056fea265627a7a723158207e9af9cd464437545c08b2efbe6890986b0f3a93713eff52eae0844f9522a05564736f6c634300050d0032",
      "opcodes": "PUSH1 0x80 PUSH1 0x40 MSTORE CALLVALUE DUP1 ISZERO PUSH3 0x11 JUMPI PUSH1 0x0 DUP1 REVERT JUMPDEST POP PUSH1 0x40 MLOAD PUSH3 0x20 SWAP1 PUSH3 0x292 JUMP JUMPDEST PUSH1 0x40 MLOAD DUP1 SWAP2 SUB SWAP1 PUSH1 0x0 CREATE DUP1 ISZERO DUP1 ISZERO PUSH3 0x3D JUMPI RETURNDATASIZE PUSH1 0x0 DUP1 RETURNDATACOPY RETURNDATASIZE PUSH1 0x0 REVERT JUMPDEST POP PUSH1 0x0 DUP1 PUSH2 0x100 EXP DUP2 SLOAD DUP2 PUSH20 0xFFFFFFFFFFFFFFFFFFFFFFFFFFFFFFFFFFFFFFFF MUL NOT AND SWAP1 DUP4 PUSH20 0xFFFFFFFFFFFFFFFFFFFFFFFFFFFFFFFFFFFFFFFF AND MUL OR SWAP1 SSTORE POP PUSH1 0x40 MLOAD PUSH3 0x8B SWAP1 PUSH3 0x2A0 JUMP JUMPDEST PUSH1 0x40 MLOAD DUP1 SWAP2 SUB SWAP1 PUSH1 0x0 CREATE DUP1 ISZERO DUP1 ISZERO PUSH3 0xA8 JUMPI RETURNDATASIZE PUSH1 0x0 DUP1 RETURNDATACOPY RETURNDATASIZE PUSH1 0x0 REVERT JUMPDEST POP PUSH1 0x1 PUSH1 0x0 PUSH2 0x100 EXP DUP2 SLOAD DUP2 PUSH20 0xFFFFFFFFFFFFFFFFFFFFFFFFFFFFFFFFFFFFFFFF MUL NOT AND SWAP1 DUP4 PUSH20 0xFFFFFFFFFFFFFFFFFFFFFFFFFFFFFFFFFFFFFFFF AND MUL OR SWAP1 SSTORE POP PUSH1 0x40 MLOAD PUSH3 0xF7 SWAP1 PUSH3 0x2AE JUMP JUMPDEST PUSH1 0x40 MLOAD DUP1 SWAP2 SUB SWAP1 PUSH1 0x0 CREATE DUP1 ISZERO DUP1 ISZERO PUSH3 0x114 JUMPI RETURNDATASIZE PUSH1 0x0 DUP1 RETURNDATACOPY RETURNDATASIZE PUSH1 0x0 REVERT JUMPDEST POP PUSH1 0x2 PUSH1 0x0 PUSH2 0x100 EXP DUP2 SLOAD DUP2 PUSH20 0xFFFFFFFFFFFFFFFFFFFFFFFFFFFFFFFFFFFFFFFF MUL NOT AND SWAP1 DUP4 PUSH20 0xFFFFFFFFFFFFFFFFFFFFFFFFFFFFFFFFFFFFFFFF AND MUL OR SWAP1 SSTORE POP PUSH1 0x0 PUSH1 0x11 PUSH1 0x0 PUSH2 0x100 EXP DUP2 SLOAD DUP2 PUSH1 0xFF MUL NOT AND SWAP1 DUP4 ISZERO ISZERO MUL OR SWAP1 SSTORE POP PUSH1 0x0 PUSH1 0x11 PUSH1 0x1 PUSH2 0x100 EXP DUP2 SLOAD DUP2 PUSH1 0xFF MUL NOT AND SWAP1 DUP4 ISZERO ISZERO MUL OR SWAP1 SSTORE POP PUSH1 0x0 PUSH1 0x11 PUSH1 0x2 PUSH2 0x100 EXP DUP2 SLOAD DUP2 PUSH1 0xFF MUL NOT AND SWAP1 DUP4 ISZERO ISZERO MUL OR SWAP1 SSTORE POP CALLER PUSH1 0x11 PUSH1 0x3 PUSH2 0x100 EXP DUP2 SLOAD DUP2 PUSH20 0xFFFFFFFFFFFFFFFFFFFFFFFFFFFFFFFFFFFFFFFF MUL NOT AND SWAP1 DUP4 PUSH20 0xFFFFFFFFFFFFFFFFFFFFFFFFFFFFFFFFFFFFFFFF AND MUL OR SWAP1 SSTORE POP PUSH1 0x0 PUSH1 0x7 PUSH1 0x0 ADD DUP2 SWAP1 SSTORE POP PUSH1 0x0 PUSH1 0x7 PUSH1 0x1 ADD DUP2 PUSH3 0x206 SWAP2 SWAP1 PUSH3 0x2BC JUMP JUMPDEST POP PUSH1 0x40 MLOAD DUP1 PUSH1 0x40 ADD PUSH1 0x40 MSTORE DUP1 PUSH1 0x9 DUP2 MSTORE PUSH1 0x20 ADD PUSH32 0x5245504C4143454D450000000000000000000000000000000000000000000000 DUP2 MSTORE POP PUSH1 0x7 PUSH1 0x4 ADD SWAP1 DUP1 MLOAD SWAP1 PUSH1 0x20 ADD SWAP1 PUSH3 0x257 SWAP3 SWAP2 SWAP1 PUSH3 0x2F1 JUMP JUMPDEST POP PUSH1 0x0 PUSH1 0x7 DUP1 ADD DUP2 PUSH3 0x26B SWAP2 SWAP1 PUSH3 0x378 JUMP JUMPDEST POP PUSH1 0x0 PUSH1 0x7 PUSH1 0x8 ADD DUP2 PUSH3 0x280 SWAP2 SWAP1 PUSH3 0x3AD JUMP JUMPDEST POP PUSH1 0x0 PUSH1 0x7 PUSH1 0x9 ADD DUP2 SWAP1 SSTORE POP PUSH3 0x559 JUMP JUMPDEST PUSH2 0xFFF DUP1 PUSH3 0x26C2 DUP4 CODECOPY ADD SWAP1 JUMP JUMPDEST PUSH2 0x740 DUP1 PUSH3 0x36C1 DUP4 CODECOPY ADD SWAP1 JUMP JUMPDEST PUSH2 0x6B2 DUP1 PUSH3 0x3E01 DUP4 CODECOPY ADD SWAP1 JUMP JUMPDEST DUP2 SLOAD DUP2 DUP4 SSTORE DUP2 DUP2 GT ISZERO PUSH3 0x2EC JUMPI PUSH1 0xB MUL DUP2 PUSH1 0xB MUL DUP4 PUSH1 0x0 MSTORE PUSH1 0x20 PUSH1 0x0 KECCAK256 SWAP2 DUP3 ADD SWAP2 ADD PUSH3 0x2EB SWAP2 SWAP1 PUSH3 0x3E2 JUMP JUMPDEST JUMPDEST POP POP POP JUMP JUMPDEST DUP3 DUP1 SLOAD PUSH1 0x1 DUP2 PUSH1 0x1 AND ISZERO PUSH2 0x100 MUL SUB AND PUSH1 0x2 SWAP1 DIV SWAP1 PUSH1 0x0 MSTORE PUSH1 0x20 PUSH1 0x0 KECCAK256 SWAP1 PUSH1 0x1F ADD PUSH1 0x20 SWAP1 DIV DUP2 ADD SWAP3 DUP3 PUSH1 0x1F LT PUSH3 0x334 JUMPI DUP1 MLOAD PUSH1 0xFF NOT AND DUP4 DUP1 ADD OR DUP6 SSTORE PUSH3 0x365 JUMP JUMPDEST DUP3 DUP1 ADD PUSH1 0x1 ADD DUP6 SSTORE DUP3 ISZERO PUSH3 0x365 JUMPI SWAP2 DUP3 ADD JUMPDEST DUP3 DUP2 GT ISZERO PUSH3 0x364 JUMPI DUP3 MLOAD DUP3 SSTORE SWAP2 PUSH1 0x20 ADD SWAP2 SWAP1 PUSH1 0x1 ADD SWAP1 PUSH3 0x347 JUMP JUMPDEST JUMPDEST POP SWAP1 POP PUSH3 0x374 SWAP2 SWAP1 PUSH3 0x491 JUMP JUMPDEST POP SWAP1 JUMP JUMPDEST DUP2 SLOAD DUP2 DUP4 SSTORE DUP2 DUP2 GT ISZERO PUSH3 0x3A8 JUMPI PUSH1 0x3 MUL DUP2 PUSH1 0x3 MUL DUP4 PUSH1 0x0 MSTORE PUSH1 0x20 PUSH1 0x0 KECCAK256 SWAP2 DUP3 ADD SWAP2 ADD PUSH3 0x3A7 SWAP2 SWAP1 PUSH3 0x4B9 JUMP JUMPDEST JUMPDEST POP POP POP JUMP JUMPDEST DUP2 SLOAD DUP2 DUP4 SSTORE DUP2 DUP2 GT ISZERO PUSH3 0x3DD JUMPI PUSH1 0x5 MUL DUP2 PUSH1 0x5 MUL DUP4 PUSH1 0x0 MSTORE PUSH1 0x20 PUSH1 0x0 KECCAK256 SWAP2 DUP3 ADD SWAP2 ADD PUSH3 0x3DC SWAP2 SWAP1 PUSH3 0x4FA JUMP JUMPDEST JUMPDEST POP POP POP JUMP JUMPDEST PUSH3 0x48E SWAP2 SWAP1 JUMPDEST DUP1 DUP3 GT ISZERO PUSH3 0x48A JUMPI PUSH1 0x0 DUP1 DUP3 ADD PUSH1 0x0 PUSH2 0x100 EXP DUP2 SLOAD SWAP1 PUSH20 0xFFFFFFFFFFFFFFFFFFFFFFFFFFFFFFFFFFFFFFFF MUL NOT AND SWAP1 SSTORE PUSH1 0x1 DUP3 ADD PUSH1 0x0 DUP1 DUP3 ADD PUSH1 0x0 SWAP1 SSTORE PUSH1 0x1 DUP3 ADD PUSH1 0x0 SWAP1 SSTORE POP POP PUSH1 0x3 DUP3 ADD PUSH1 0x0 DUP1 DUP3 ADD PUSH1 0x0 PUSH3 0x448 SWAP2 SWAP1 PUSH3 0x54B JUMP JUMPDEST PUSH1 0x2 DUP3 ADD PUSH1 0x0 PUSH3 0x45A SWAP2 SWAP1 PUSH3 0x54B JUMP JUMPDEST PUSH1 0x4 DUP3 ADD PUSH1 0x0 PUSH3 0x46C SWAP2 SWAP1 PUSH3 0x54B JUMP JUMPDEST PUSH1 0x6 DUP3 ADD PUSH1 0x0 PUSH3 0x47E SWAP2 SWAP1 PUSH3 0x54B JUMP JUMPDEST POP POP POP PUSH1 0xB ADD PUSH3 0x3E9 JUMP JUMPDEST POP SWAP1 JUMP JUMPDEST SWAP1 JUMP JUMPDEST PUSH3 0x4B6 SWAP2 SWAP1 JUMPDEST DUP1 DUP3 GT ISZERO PUSH3 0x4B2 JUMPI PUSH1 0x0 DUP2 PUSH1 0x0 SWAP1 SSTORE POP PUSH1 0x1 ADD PUSH3 0x498 JUMP JUMPDEST POP SWAP1 JUMP JUMPDEST SWAP1 JUMP JUMPDEST PUSH3 0x4F7 SWAP2 SWAP1 JUMPDEST DUP1 DUP3 GT ISZERO PUSH3 0x4F3 JUMPI PUSH1 0x0 DUP1 DUP3 ADD PUSH1 0x0 SWAP1 SSTORE PUSH1 0x1 DUP3 ADD PUSH1 0x0 DUP1 DUP3 ADD PUSH1 0x0 SWAP1 SSTORE PUSH1 0x1 DUP3 ADD PUSH1 0x0 SWAP1 SSTORE POP POP POP PUSH1 0x3 ADD PUSH3 0x4C0 JUMP JUMPDEST POP SWAP1 JUMP JUMPDEST SWAP1 JUMP JUMPDEST PUSH3 0x548 SWAP2 SWAP1 JUMPDEST DUP1 DUP3 GT ISZERO PUSH3 0x544 JUMPI PUSH1 0x0 DUP1 DUP3 ADD PUSH1 0x0 SWAP1 SSTORE PUSH1 0x1 DUP3 ADD PUSH1 0x0 DUP1 DUP3 ADD PUSH1 0x0 SWAP1 SSTORE PUSH1 0x1 DUP3 ADD PUSH1 0x0 SWAP1 SSTORE PUSH1 0x2 DUP3 ADD PUSH1 0x0 SWAP1 SSTORE PUSH1 0x3 DUP3 ADD PUSH1 0x0 SWAP1 SSTORE POP POP POP PUSH1 0x5 ADD PUSH3 0x501 JUMP JUMPDEST POP SWAP1 JUMP JUMPDEST SWAP1 JUMP JUMPDEST POP PUSH1 0x0 DUP2 SSTORE PUSH1 0x1 ADD PUSH1 0x0 SWAP1 SSTORE JUMP JUMPDEST PUSH2 0x2159 DUP1 PUSH3 0x569 PUSH1 0x0 CODECOPY PUSH1 0x0 RETURN INVALID PUSH1 0x80 PUSH1 0x40 MSTORE CALLVALUE DUP1 ISZERO PUSH2 0x10 JUMPI PUSH1 0x0 DUP1 REVERT JUMPDEST POP PUSH1 0x4 CALLDATASIZE LT PUSH2 0x10B JUMPI PUSH1 0x0 CALLDATALOAD PUSH1 0xE0 SHR DUP1 PUSH4 0x73E867FB GT PUSH2 0xA2 JUMPI DUP1 PUSH4 0xA97B8B4D GT PUSH2 0x71 JUMPI DUP1 PUSH4 0xA97B8B4D EQ PUSH2 0x42F JUMPI DUP1 PUSH4 0xB23D422D EQ PUSH2 0x439 JUMPI DUP1 PUSH4 0xBB1F683D EQ PUSH2 0x443 JUMPI DUP1 PUSH4 0xCEE024DC EQ PUSH2 0x51E JUMPI DUP1 PUSH4 0xDF2252B9 EQ PUSH2 0x53C JUMPI PUSH2 0x10B JUMP JUMPDEST DUP1 PUSH4 0x73E867FB EQ PUSH2 0x38B JUMPI DUP1 PUSH4 0x8742FC3B EQ PUSH2 0x3A9 JUMPI DUP1 PUSH4 0xA10CFAE5 EQ PUSH2 0x3C7 JUMPI DUP1 PUSH4 0xA5EA11DA EQ PUSH2 0x3E9 JUMPI PUSH2 0x10B JUMP JUMPDEST DUP1 PUSH4 0x4D0013AC GT PUSH2 0xDE JUMPI DUP1 PUSH4 0x4D0013AC EQ PUSH2 0x184 JUMPI DUP1 PUSH4 0x5A55C1F0 EQ PUSH2 0x18E JUMPI DUP1 PUSH4 0x5B71C523 EQ PUSH2 0x1D7 JUMPI DUP1 PUSH4 0x689778C3 EQ PUSH2 0x2C5 JUMPI PUSH2 0x10B JUMP JUMPDEST DUP1 PUSH4 0x1F50C0AB EQ PUSH2 0x110 JUMPI DUP1 PUSH4 0x2E334452 EQ PUSH2 0x152 JUMPI DUP1 PUSH4 0x339F845B EQ PUSH2 0x170 JUMPI DUP1 PUSH4 0x34507556 EQ PUSH2 0x17A JUMPI JUMPDEST PUSH1 0x0 DUP1 REVERT JUMPDEST PUSH2 0x13C PUSH1 0x4 DUP1 CALLDATASIZE SUB PUSH1 0x20 DUP2 LT ISZERO PUSH2 0x126 JUMPI PUSH1 0x0 DUP1 REVERT JUMPDEST DUP2 ADD SWAP1 DUP1 DUP1 CALLDATALOAD SWAP1 PUSH1 0x20 ADD SWAP1 SWAP3 SWAP2 SWAP1 POP POP POP PUSH2 0x56A JUMP JUMPDEST PUSH1 0x40 MLOAD DUP1 DUP3 DUP2 MSTORE PUSH1 0x20 ADD SWAP2 POP POP PUSH1 0x40 MLOAD DUP1 SWAP2 SUB SWAP1 RETURN JUMPDEST PUSH2 0x15A PUSH2 0x595 JUMP JUMPDEST PUSH1 0x40 MLOAD DUP1 DUP3 DUP2 MSTORE PUSH1 0x20 ADD SWAP2 POP POP PUSH1 0x40 MLOAD DUP1 SWAP2 SUB SWAP1 RETURN JUMPDEST PUSH2 0x178 PUSH2 0x607 JUMP JUMPDEST STOP JUMPDEST PUSH2 0x182 PUSH2 0x7D4 JUMP JUMPDEST STOP JUMPDEST PUSH2 0x18C PUSH2 0x9B9 JUMP JUMPDEST STOP JUMPDEST PUSH2 0x1BA PUSH1 0x4 DUP1 CALLDATASIZE SUB PUSH1 0x20 DUP2 LT ISZERO PUSH2 0x1A4 JUMPI PUSH1 0x0 DUP1 REVERT JUMPDEST DUP2 ADD SWAP1 DUP1 DUP1 CALLDATALOAD SWAP1 PUSH1 0x20 ADD SWAP1 SWAP3 SWAP2 SWAP1 POP POP POP PUSH2 0xA30 JUMP JUMPDEST PUSH1 0x40 MLOAD DUP1 DUP4 DUP2 MSTORE PUSH1 0x20 ADD DUP3 DUP2 MSTORE PUSH1 0x20 ADD SWAP3 POP POP POP PUSH1 0x40 MLOAD DUP1 SWAP2 SUB SWAP1 RETURN JUMPDEST PUSH2 0x23F PUSH1 0x4 DUP1 CALLDATASIZE SUB PUSH1 0xE0 DUP2 LT ISZERO PUSH2 0x1ED JUMPI PUSH1 0x0 DUP1 REVERT JUMPDEST DUP2 ADD SWAP1 DUP1 DUP1 CALLDATALOAD SWAP1 PUSH1 0x20 ADD SWAP1 SWAP3 SWAP2 SWAP1 DUP1 CALLDATALOAD SWAP1 PUSH1 0x20 ADD SWAP1 SWAP3 SWAP2 SWAP1 DUP1 CALLDATALOAD SWAP1 PUSH1 0x20 ADD SWAP1 SWAP3 SWAP2 SWAP1 DUP1 CALLDATALOAD SWAP1 PUSH1 0x20 ADD SWAP1 SWAP3 SWAP2 SWAP1 DUP1 CALLDATALOAD SWAP1 PUSH1 0x20 ADD SWAP1 SWAP3 SWAP2 SWAP1 DUP1 CALLDATALOAD SWAP1 PUSH1 0x20 ADD SWAP1 SWAP3 SWAP2 SWAP1 DUP1 CALLDATALOAD SWAP1 PUSH1 0x20 ADD SWAP1 SWAP3 SWAP2 SWAP1 POP POP POP PUSH2 0xA86 JUMP JUMPDEST PUSH1 0x40 MLOAD DUP1 DUP4 ISZERO ISZERO ISZERO ISZERO DUP2 MSTORE PUSH1 0x20 ADD DUP1 PUSH1 0x20 ADD DUP3 DUP2 SUB DUP3 MSTORE DUP4 DUP2 DUP2 MLOAD DUP2 MSTORE PUSH1 0x20 ADD SWAP2 POP DUP1 MLOAD SWAP1 PUSH1 0x20 ADD SWAP1 DUP1 DUP4 DUP4 PUSH1 0x0 JUMPDEST DUP4 DUP2 LT ISZERO PUSH2 0x289 JUMPI DUP1 DUP3 ADD MLOAD DUP2 DUP5 ADD MSTORE PUSH1 0x20 DUP2 ADD SWAP1 POP PUSH2 0x26E JUMP JUMPDEST POP POP POP POP SWAP1 POP SWAP1 DUP2 ADD SWAP1 PUSH1 0x1F AND DUP1 ISZERO PUSH2 0x2B6 JUMPI DUP1 DUP3 SUB DUP1 MLOAD PUSH1 0x1 DUP4 PUSH1 0x20 SUB PUSH2 0x100 EXP SUB NOT AND DUP2 MSTORE PUSH1 0x20 ADD SWAP2 POP JUMPDEST POP SWAP4 POP POP POP POP PUSH1 0x40 MLOAD DUP1 SWAP2 SUB SWAP1 RETURN JUMPDEST PUSH2 0x305 PUSH1 0x4 DUP1 CALLDATASIZE SUB PUSH1 0x60 DUP2 LT ISZERO PUSH2 0x2DB JUMPI PUSH1 0x0 DUP1 REVERT JUMPDEST DUP2 ADD SWAP1 DUP1 DUP1 CALLDATALOAD SWAP1 PUSH1 0x20 ADD SWAP1 SWAP3 SWAP2 SWAP1 DUP1 CALLDATALOAD SWAP1 PUSH1 0x20 ADD SWAP1 SWAP3 SWAP2 SWAP1 DUP1 CALLDATALOAD SWAP1 PUSH1 0x20 ADD SWAP1 SWAP3 SWAP2 SWAP1 POP POP POP PUSH2 0xF4F JUMP JUMPDEST PUSH1 0x40 MLOAD DUP1 DUP4 ISZERO ISZERO ISZERO ISZERO DUP2 MSTORE PUSH1 0x20 ADD DUP1 PUSH1 0x20 ADD DUP3 DUP2 SUB DUP3 MSTORE DUP4 DUP2 DUP2 MLOAD DUP2 MSTORE PUSH1 0x20 ADD SWAP2 POP DUP1 MLOAD SWAP1 PUSH1 0x20 ADD SWAP1 DUP1 DUP4 DUP4 PUSH1 0x0 JUMPDEST DUP4 DUP2 LT ISZERO PUSH2 0x34F JUMPI DUP1 DUP3 ADD MLOAD DUP2 DUP5 ADD MSTORE PUSH1 0x20 DUP2 ADD SWAP1 POP PUSH2 0x334 JUMP JUMPDEST POP POP POP POP SWAP1 POP SWAP1 DUP2 ADD SWAP1 PUSH1 0x1F AND DUP1 ISZERO PUSH2 0x37C JUMPI DUP1 DUP3 SUB DUP1 MLOAD PUSH1 0x1 DUP4 PUSH1 0x20 SUB PUSH2 0x100 EXP SUB NOT AND DUP2 MSTORE PUSH1 0x20 ADD SWAP2 POP JUMPDEST POP SWAP4 POP POP POP POP PUSH1 0x40 MLOAD DUP1 SWAP2 SUB SWAP1 RETURN JUMPDEST PUSH2 0x393 PUSH2 0x11F3 JUMP JUMPDEST PUSH1 0x40 MLOAD DUP1 DUP3 DUP2 MSTORE PUSH1 0x20 ADD SWAP2 POP POP PUSH1 0x40 MLOAD DUP1 SWAP2 SUB SWAP1 RETURN JUMPDEST PUSH2 0x3B1 PUSH2 0x1203 JUMP JUMPDEST PUSH1 0x40 MLOAD DUP1 DUP3 DUP2 MSTORE PUSH1 0x20 ADD SWAP2 POP POP PUSH1 0x40 MLOAD DUP1 SWAP2 SUB SWAP1 RETURN JUMPDEST PUSH2 0x3CF PUSH2 0x122A JUMP JUMPDEST PUSH1 0x40 MLOAD DUP1 DUP3 ISZERO ISZERO ISZERO ISZERO DUP2 MSTORE PUSH1 0x20 ADD SWAP2 POP POP PUSH1 0x40 MLOAD DUP1 SWAP2 SUB SWAP1 RETURN JUMPDEST PUSH2 0x3F1 PUSH2 0x1241 JUMP JUMPDEST PUSH1 0x40 MLOAD DUP1 DUP3 PUSH1 0x3 PUSH1 0x20 MUL DUP1 DUP4 DUP4 PUSH1 0x0 JUMPDEST DUP4 DUP2 LT ISZERO PUSH2 0x41C JUMPI DUP1 DUP3 ADD MLOAD DUP2 DUP5 ADD MSTORE PUSH1 0x20 DUP2 ADD SWAP1 POP PUSH2 0x401 JUMP JUMPDEST POP POP POP POP SWAP1 POP ADD SWAP2 POP POP PUSH1 0x40 MLOAD DUP1 SWAP2 SUB SWAP1 RETURN JUMPDEST PUSH2 0x437 PUSH2 0x1291 JUMP JUMPDEST STOP JUMPDEST PUSH2 0x441 PUSH2 0x1308 JUMP JUMPDEST STOP JUMPDEST PUSH2 0x498 PUSH1 0x4 DUP1 CALLDATASIZE SUB PUSH2 0x140 DUP2 LT ISZERO PUSH2 0x45A JUMPI PUSH1 0x0 DUP1 REVERT JUMPDEST DUP2 ADD SWAP1 DUP1 DUP1 PUSH1 0x40 ADD SWAP1 SWAP2 SWAP3 SWAP2 SWAP3 SWAP1 DUP1 PUSH1 0x40 ADD SWAP1 SWAP2 SWAP3 SWAP2 SWAP3 SWAP1 DUP1 PUSH1 0x40 ADD SWAP1 SWAP2 SWAP3 SWAP2 SWAP3 SWAP1 DUP1 PUSH1 0x40 ADD SWAP1 SWAP2 SWAP3 SWAP2 SWAP3 SWAP1 DUP1 PUSH1 0x40 ADD SWAP1 SWAP2 SWAP3 SWAP2 SWAP3 SWAP1 POP POP POP PUSH2 0x164A JUMP JUMPDEST PUSH1 0x40 MLOAD DUP1 DUP4 ISZERO ISZERO ISZERO ISZERO DUP2 MSTORE PUSH1 0x20 ADD DUP1 PUSH1 0x20 ADD DUP3 DUP2 SUB DUP3 MSTORE DUP4 DUP2 DUP2 MLOAD DUP2 MSTORE PUSH1 0x20 ADD SWAP2 POP DUP1 MLOAD SWAP1 PUSH1 0x20 ADD SWAP1 DUP1 DUP4 DUP4 PUSH1 0x0 JUMPDEST DUP4 DUP2 LT ISZERO PUSH2 0x4E2 JUMPI DUP1 DUP3 ADD MLOAD DUP2 DUP5 ADD MSTORE PUSH1 0x20 DUP2 ADD SWAP1 POP PUSH2 0x4C7 JUMP JUMPDEST POP POP POP POP SWAP1 POP SWAP1 DUP2 ADD SWAP1 PUSH1 0x1F AND DUP1 ISZERO PUSH2 0x50F JUMPI DUP1 DUP3 SUB DUP1 MLOAD PUSH1 0x1 DUP4 PUSH1 0x20 SUB PUSH2 0x100 EXP SUB NOT AND DUP2 MSTORE PUSH1 0x20 ADD SWAP2 POP JUMPDEST POP SWAP4 POP POP POP POP PUSH1 0x40 MLOAD DUP1 SWAP2 SUB SWAP1 RETURN JUMPDEST PUSH2 0x526 PUSH2 0x1D55 JUMP JUMPDEST PUSH1 0x40 MLOAD DUP1 DUP3 DUP2 MSTORE PUSH1 0x20 ADD SWAP2 POP POP PUSH1 0x40 MLOAD DUP1 SWAP2 SUB SWAP1 RETURN JUMPDEST PUSH2 0x568 PUSH1 0x4 DUP1 CALLDATASIZE SUB PUSH1 0x60 DUP2 LT ISZERO PUSH2 0x552 JUMPI PUSH1 0x0 DUP1 REVERT JUMPDEST DUP2 ADD SWAP1 DUP1 DUP1 PUSH1 0x60 ADD SWAP1 SWAP2 SWAP3 SWAP2 SWAP3 SWAP1 POP POP POP PUSH2 0x1D65 JUMP JUMPDEST STOP JUMPDEST PUSH1 0x0 PUSH1 0x7 PUSH1 0x8 ADD DUP3 DUP2 SLOAD DUP2 LT PUSH2 0x57C JUMPI INVALID JUMPDEST SWAP1 PUSH1 0x0 MSTORE PUSH1 0x20 PUSH1 0x0 KECCAK256 SWAP1 PUSH1 0x5 MUL ADD PUSH1 0x0 ADD SLOAD SWAP1 POP SWAP2 SWAP1 POP JUMP JUMPDEST PUSH1 0x0 PUSH1 0x11 PUSH1 0x2 SWAP1 SLOAD SWAP1 PUSH2 0x100 EXP SWAP1 DIV PUSH1 0xFF AND PUSH2 0x5FC JUMPI PUSH1 0x40 MLOAD PUSH32 0x8C379A000000000000000000000000000000000000000000000000000000000 DUP2 MSTORE PUSH1 0x4 ADD DUP1 DUP1 PUSH1 0x20 ADD DUP3 DUP2 SUB DUP3 MSTORE PUSH1 0x24 DUP2 MSTORE PUSH1 0x20 ADD DUP1 PUSH2 0x20DD PUSH1 0x24 SWAP2 CODECOPY PUSH1 0x40 ADD SWAP2 POP POP PUSH1 0x40 MLOAD DUP1 SWAP2 SUB SWAP1 REVERT JUMPDEST PUSH1 0x6 PUSH1 0x0 ADD SLOAD SWAP1 POP SWAP1 JUMP JUMPDEST PUSH1 0x11 PUSH1 0x3 SWAP1 SLOAD SWAP1 PUSH2 0x100 EXP SWAP1 DIV PUSH20 0xFFFFFFFFFFFFFFFFFFFFFFFFFFFFFFFFFFFFFFFF AND PUSH20 0xFFFFFFFFFFFFFFFFFFFFFFFFFFFFFFFFFFFFFFFF AND CALLER PUSH20 0xFFFFFFFFFFFFFFFFFFFFFFFFFFFFFFFFFFFFFFFF AND EQ PUSH2 0x661 JUMPI PUSH1 0x0 DUP1 REVERT JUMPDEST PUSH1 0x0 DUP1 SWAP1 SLOAD SWAP1 PUSH2 0x100 EXP SWAP1 DIV PUSH20 0xFFFFFFFFFFFFFFFFFFFFFFFFFFFFFFFFFFFFFFFF AND PUSH20 0xFFFFFFFFFFFFFFFFFFFFFFFFFFFFFFFFFFFFFFFF AND PUSH4 0x60A2DA44 PUSH1 0x3 PUSH1 0x0 ADD SLOAD PUSH1 0x3 PUSH1 0x1 ADD SLOAD PUSH1 0x3 PUSH1 0x2 ADD SLOAD PUSH1 0x6 PUSH1 0x0 ADD SLOAD PUSH1 0x40 MLOAD DUP6 PUSH4 0xFFFFFFFF AND PUSH1 0xE0 SHL DUP2 MSTORE PUSH1 0x4 ADD DUP1 DUP6 DUP2 MSTORE PUSH1 0x20 ADD DUP5 DUP2 MSTORE PUSH1 0x20 ADD DUP4 DUP2 MSTORE PUSH1 0x20 ADD DUP3 DUP2 MSTORE PUSH1 0x20 ADD SWAP5 POP POP POP POP POP PUSH1 0x0 PUSH1 0x40 MLOAD DUP1 DUP4 SUB DUP2 PUSH1 0x0 DUP8 DUP1 EXTCODESIZE ISZERO DUP1 ISZERO PUSH2 0x701 JUMPI PUSH1 0x0 DUP1 REVERT JUMPDEST POP GAS CALL ISZERO DUP1 ISZERO PUSH2 0x715 JUMPI RETURNDATASIZE PUSH1 0x0 DUP1 RETURNDATACOPY RETURNDATASIZE PUSH1 0x0 REVERT JUMPDEST POP POP POP POP PUSH1 0x1 PUSH1 0x0 SWAP1 SLOAD SWAP1 PUSH2 0x100 EXP SWAP1 DIV PUSH20 0xFFFFFFFFFFFFFFFFFFFFFFFFFFFFFFFFFFFFFFFF AND PUSH20 0xFFFFFFFFFFFFFFFFFFFFFFFFFFFFFFFFFFFFFFFF AND PUSH4 0x60A2DA44 PUSH1 0x3 PUSH1 0x0 ADD SLOAD PUSH1 0x3 PUSH1 0x1 ADD SLOAD PUSH1 0x3 PUSH1 0x2 ADD SLOAD PUSH1 0x6 PUSH1 0x0 ADD SLOAD PUSH1 0x40 MLOAD DUP6 PUSH4 0xFFFFFFFF AND PUSH1 0xE0 SHL DUP2 MSTORE PUSH1 0x4 ADD DUP1 DUP6 DUP2 MSTORE PUSH1 0x20 ADD DUP5 DUP2 MSTORE PUSH1 0x20 ADD DUP4 DUP2 MSTORE PUSH1 0x20 ADD DUP3 DUP2 MSTORE PUSH1 0x20 ADD SWAP5 POP POP POP POP POP PUSH1 0x0 PUSH1 0x40 MLOAD DUP1 DUP4 SUB DUP2 PUSH1 0x0 DUP8 DUP1 EXTCODESIZE ISZERO DUP1 ISZERO PUSH2 0x7BA JUMPI PUSH1 0x0 DUP1 REVERT JUMPDEST POP GAS CALL ISZERO DUP1 ISZERO PUSH2 0x7CE JUMPI RETURNDATASIZE PUSH1 0x0 DUP1 RETURNDATACOPY RETURNDATASIZE PUSH1 0x0 REVERT JUMPDEST POP POP POP POP JUMP JUMPDEST PUSH1 0x11 PUSH1 0x3 SWAP1 SLOAD SWAP1 PUSH2 0x100 EXP SWAP1 DIV PUSH20 0xFFFFFFFFFFFFFFFFFFFFFFFFFFFFFFFFFFFFFFFF AND PUSH20 0xFFFFFFFFFFFFFFFFFFFFFFFFFFFFFFFFFFFFFFFF AND CALLER PUSH20 0xFFFFFFFFFFFFFFFFFFFFFFFFFFFFFFFFFFFFFFFF AND EQ PUSH2 0x82E JUMPI PUSH1 0x0 DUP1 REVERT JUMPDEST PUSH1 0x11 PUSH1 0x2 SWAP1 SLOAD SWAP1 PUSH2 0x100 EXP SWAP1 DIV PUSH1 0xFF AND ISZERO PUSH2 0x848 JUMPI PUSH1 0x0 DUP1 REVERT JUMPDEST PUSH1 0x0 PUSH1 0x7 DUP1 ADD DUP1 SLOAD SWAP1 POP GT PUSH2 0x85C JUMPI PUSH1 0x0 DUP1 REVERT JUMPDEST PUSH1 0x7 DUP1 ADD DUP1 SLOAD SWAP1 POP PUSH1 0x2 EQ PUSH2 0x870 JUMPI PUSH1 0x0 DUP1 REVERT JUMPDEST PUSH1 0x0 PUSH1 0x7 DUP1 ADD PUSH1 0x0 DUP2 SLOAD DUP2 LT PUSH2 0x882 JUMPI INVALID JUMPDEST SWAP1 PUSH1 0x0 MSTORE PUSH1 0x20 PUSH1 0x0 KECCAK256 SWAP1 PUSH1 0x3 MUL ADD PUSH1 0x0 ADD SLOAD SWAP1 POP PUSH1 0x0 PUSH1 0x1 SWAP1 POP JUMPDEST PUSH1 0x7 DUP1 ADD DUP1 SLOAD SWAP1 POP DUP2 LT ISZERO PUSH2 0x97C JUMPI DUP2 PUSH20 0x0 PUSH4 0xE616559E SWAP1 SWAP2 PUSH1 0x7 DUP1 ADD DUP5 DUP2 SLOAD DUP2 LT PUSH2 0x8D8 JUMPI INVALID JUMPDEST SWAP1 PUSH1 0x0 MSTORE PUSH1 0x20 PUSH1 0x0 KECCAK256 SWAP1 PUSH1 0x3 MUL ADD PUSH1 0x0 ADD SLOAD PUSH1 0x3 PUSH1 0x0 ADD SLOAD PUSH1 0x40 MLOAD DUP5 PUSH4 0xFFFFFFFF AND PUSH1 0xE0 SHL DUP2 MSTORE PUSH1 0x4 ADD DUP1 DUP5 DUP2 MSTORE PUSH1 0x20 ADD DUP4 DUP2 MSTORE PUSH1 0x20 ADD DUP3 DUP2 MSTORE PUSH1 0x20 ADD SWAP4 POP POP POP POP PUSH1 0x20 PUSH1 0x40 MLOAD DUP1 DUP4 SUB DUP2 DUP7 DUP1 EXTCODESIZE ISZERO DUP1 ISZERO PUSH2 0x932 JUMPI PUSH1 0x0 DUP1 REVERT JUMPDEST POP GAS DELEGATECALL ISZERO DUP1 ISZERO PUSH2 0x946 JUMPI RETURNDATASIZE PUSH1 0x0 DUP1 RETURNDATACOPY RETURNDATASIZE PUSH1 0x0 REVERT JUMPDEST POP POP POP POP PUSH1 0x40 MLOAD RETURNDATASIZE PUSH1 0x20 DUP2 LT ISZERO PUSH2 0x95C JUMPI PUSH1 0x0 DUP1 REVERT JUMPDEST DUP2 ADD SWAP1 DUP1 DUP1 MLOAD SWAP1 PUSH1 0x20 ADD SWAP1 SWAP3 SWAP2 SWAP1 POP POP POP SWAP2 POP DUP1 DUP1 PUSH1 0x1 ADD SWAP2 POP POP PUSH2 0x89D JUMP JUMPDEST POP PUSH1 0x40 MLOAD DUP1 PUSH1 0x20 ADD PUSH1 0x40 MSTORE DUP1 DUP3 DUP2 MSTORE POP PUSH1 0x6 PUSH1 0x0 DUP3 ADD MLOAD DUP2 PUSH1 0x0 ADD SSTORE SWAP1 POP POP PUSH1 0x1 PUSH1 0x11 PUSH1 0x2 PUSH2 0x100 EXP DUP2 SLOAD DUP2 PUSH1 0xFF MUL NOT AND SWAP1 DUP4 ISZERO ISZERO MUL OR SWAP1 SSTORE POP POP JUMP JUMPDEST PUSH1 0x11 PUSH1 0x3 SWAP1 SLOAD SWAP1 PUSH2 0x100 EXP SWAP1 DIV PUSH20 0xFFFFFFFFFFFFFFFFFFFFFFFFFFFFFFFFFFFFFFFF AND PUSH20 0xFFFFFFFFFFFFFFFFFFFFFFFFFFFFFFFFFFFFFFFF AND CALLER PUSH20 0xFFFFFFFFFFFFFFFFFFFFFFFFFFFFFFFFFFFFFFFF AND EQ PUSH2 0xA13 JUMPI PUSH1 0x0 DUP1 REVERT JUMPDEST PUSH1 0x1 PUSH1 0x11 PUSH1 0x1 PUSH2 0x100 EXP DUP2 SLOAD DUP2 PUSH1 0xFF MUL NOT AND SWAP1 DUP4 ISZERO ISZERO MUL OR SWAP1 SSTORE POP JUMP JUMPDEST PUSH1 0x0 DUP1 PUSH1 0x7 PUSH1 0x1 ADD DUP4 DUP2 SLOAD DUP2 LT PUSH2 0xA43 JUMPI INVALID JUMPDEST SWAP1 PUSH1 0x0 MSTORE PUSH1 0x20 PUSH1 0x0 KECCAK256 SWAP1 PUSH1 0xB MUL ADD PUSH1 0x1 ADD PUSH1 0x0 ADD SLOAD PUSH1 0x7 PUSH1 0x1 ADD DUP5 DUP2 SLOAD DUP2 LT PUSH2 0xA68 JUMPI INVALID JUMPDEST SWAP1 PUSH1 0x0 MSTORE PUSH1 0x20 PUSH1 0x0 KECCAK256 SWAP1 PUSH1 0xB MUL ADD PUSH1 0x1 ADD PUSH1 0x1 ADD SLOAD SWAP2 POP SWAP2 POP SWAP2 POP SWAP2 JUMP JUMPDEST PUSH1 0x0 PUSH1 0x60 PUSH1 0x11 PUSH1 0x1 SWAP1 SLOAD SWAP1 PUSH2 0x100 EXP SWAP1 DIV PUSH1 0xFF AND ISZERO PUSH2 0xB6C JUMPI CALLER PUSH20 0xFFFFFFFFFFFFFFFFFFFFFFFFFFFFFFFFFFFFFFFF AND PUSH32 0x13DD6FE92E00365CC4B5B06C43C90E02579BAC92DAF813DCC92257094835F914 PUSH1 0x0 PUSH1 0x40 MLOAD DUP1 DUP3 ISZERO ISZERO ISZERO ISZERO DUP2 MSTORE PUSH1 0x20 ADD DUP1 PUSH1 0x20 ADD DUP3 DUP2 SUB DUP3 MSTORE PUSH1 0x15 DUP2 MSTORE PUSH1 0x20 ADD DUP1 PUSH32 0x566F7465206973207374696C6C206F6E676F696E670000000000000000000000 DUP2 MSTORE POP PUSH1 0x20 ADD SWAP3 POP POP POP PUSH1 0x40 MLOAD DUP1 SWAP2 SUB SWAP1 LOG2 PUSH1 0x0 PUSH1 0x40 MLOAD DUP1 PUSH1 0x40 ADD PUSH1 0x40 MSTORE DUP1 PUSH1 0x15 DUP2 MSTORE PUSH1 0x20 ADD PUSH32 0x566F7465206973207374696C6C206F6E676F696E670000000000000000000000 DUP2 MSTORE POP SWAP2 POP SWAP2 POP PUSH2 0xF43 JUMP JUMPDEST PUSH1 0x0 PUSH1 0x7 PUSH1 0x3 ADD PUSH1 0x0 CALLER PUSH20 0xFFFFFFFFFFFFFFFFFFFFFFFFFFFFFFFFFFFFFFFF AND PUSH20 0xFFFFFFFFFFFFFFFFFFFFFFFFFFFFFFFFFFFFFFFF AND DUP2 MSTORE PUSH1 0x20 ADD SWAP1 DUP2 MSTORE PUSH1 0x20 ADD PUSH1 0x0 KECCAK256 SLOAD SWAP1 POP PUSH1 0x1 PUSH1 0x0 SWAP1 SLOAD SWAP1 PUSH2 0x100 EXP SWAP1 DIV PUSH20 0xFFFFFFFFFFFFFFFFFFFFFFFFFFFFFFFFFFFFFFFF AND PUSH20 0xFFFFFFFFFFFFFFFFFFFFFFFFFFFFFFFFFFFFFFFF AND PUSH4 0xB6B81A26 DUP11 DUP11 DUP11 DUP11 DUP11 DUP11 CALLER DUP10 PUSH1 0x40 MLOAD DUP10 PUSH4 0xFFFFFFFF AND PUSH1 0xE0 SHL DUP2 MSTORE PUSH1 0x4 ADD DUP1 DUP10 DUP2 MSTORE PUSH1 0x20 ADD DUP9 DUP2 MSTORE PUSH1 0x20 ADD DUP8 DUP2 MSTORE PUSH1 0x20 ADD DUP7 DUP2 MSTORE PUSH1 0x20 ADD DUP6 DUP2 MSTORE PUSH1 0x20 ADD DUP5 DUP2 MSTORE PUSH1 0x20 ADD DUP4 PUSH20 0xFFFFFFFFFFFFFFFFFFFFFFFFFFFFFFFFFFFFFFFF AND PUSH20 0xFFFFFFFFFFFFFFFFFFFFFFFFFFFFFFFFFFFFFFFF AND DUP2 MSTORE PUSH1 0x20 ADD DUP3 DUP2 MSTORE PUSH1 0x20 ADD SWAP9 POP POP POP POP POP POP POP POP POP PUSH1 0x20 PUSH1 0x40 MLOAD DUP1 DUP4 SUB DUP2 DUP7 DUP1 EXTCODESIZE ISZERO DUP1 ISZERO PUSH2 0xC8A JUMPI PUSH1 0x0 DUP1 REVERT JUMPDEST POP GAS STATICCALL ISZERO DUP1 ISZERO PUSH2 0xC9E JUMPI RETURNDATASIZE PUSH1 0x0 DUP1 RETURNDATACOPY RETURNDATASIZE PUSH1 0x0 REVERT JUMPDEST POP POP POP POP PUSH1 0x40 MLOAD RETURNDATASIZE PUSH1 0x20 DUP2 LT ISZERO PUSH2 0xCB4 JUMPI PUSH1 0x0 DUP1 REVERT JUMPDEST DUP2 ADD SWAP1 DUP1 DUP1 MLOAD SWAP1 PUSH1 0x20 ADD SWAP1 SWAP3 SWAP2 SWAP1 POP POP POP PUSH2 0xD97 JUMPI CALLER PUSH20 0xFFFFFFFFFFFFFFFFFFFFFFFFFFFFFFFFFFFFFFFF AND PUSH32 0x13DD6FE92E00365CC4B5B06C43C90E02579BAC92DAF813DCC92257094835F914 PUSH1 0x0 PUSH1 0x40 MLOAD DUP1 DUP3 ISZERO ISZERO ISZERO ISZERO DUP2 MSTORE PUSH1 0x20 ADD DUP1 PUSH1 0x20 ADD DUP3 DUP2 SUB DUP3 MSTORE PUSH1 0x11 DUP2 MSTORE PUSH1 0x20 ADD DUP1 PUSH32 0x50726F6F66206E6F7420636F7272656374000000000000000000000000000000 DUP2 MSTORE POP PUSH1 0x20 ADD SWAP3 POP POP POP PUSH1 0x40 MLOAD DUP1 SWAP2 SUB SWAP1 LOG2 PUSH1 0x0 PUSH1 0x40 MLOAD DUP1 PUSH1 0x40 ADD PUSH1 0x40 MSTORE DUP1 PUSH1 0x11 DUP2 MSTORE PUSH1 0x20 ADD PUSH32 0x50726F6F66206E6F7420636F7272656374000000000000000000000000000000 DUP2 MSTORE POP SWAP3 POP SWAP3 POP POP PUSH2 0xF43 JUMP JUMPDEST PUSH2 0xD9F PUSH2 0x1F14 JUMP JUMPDEST PUSH1 0x40 MLOAD DUP1 PUSH1 0x80 ADD PUSH1 0x40 MSTORE DUP1 DUP10 DUP2 MSTORE PUSH1 0x20 ADD DUP9 DUP2 MSTORE PUSH1 0x20 ADD DUP8 DUP2 MSTORE PUSH1 0x20 ADD DUP7 DUP2 MSTORE POP SWAP1 POP PUSH1 0x7 PUSH1 0x8 ADD PUSH1 0x40 MLOAD DUP1 PUSH1 0x40 ADD PUSH1 0x40 MSTORE DUP1 DUP14 DUP2 MSTORE PUSH1 0x20 ADD DUP4 DUP2 MSTORE POP SWAP1 DUP1 PUSH1 0x1 DUP2 SLOAD ADD DUP1 DUP3 SSTORE DUP1 SWAP2 POP POP SWAP1 PUSH1 0x1 DUP3 SUB SWAP1 PUSH1 0x0 MSTORE PUSH1 0x20 PUSH1 0x0 KECCAK256 SWAP1 PUSH1 0x5 MUL ADD PUSH1 0x0 SWAP1 SWAP2 SWAP3 SWAP1 SWAP2 SWAP1 SWAP2 POP PUSH1 0x0 DUP3 ADD MLOAD DUP2 PUSH1 0x0 ADD SSTORE PUSH1 0x20 DUP3 ADD MLOAD DUP2 PUSH1 0x1 ADD PUSH1 0x0 DUP3 ADD MLOAD DUP2 PUSH1 0x0 ADD SSTORE PUSH1 0x20 DUP3 ADD MLOAD DUP2 PUSH1 0x1 ADD SSTORE PUSH1 0x40 DUP3 ADD MLOAD DUP2 PUSH1 0x2 ADD SSTORE PUSH1 0x60 DUP3 ADD MLOAD DUP2 PUSH1 0x3 ADD SSTORE POP POP POP POP POP PUSH1 0x40 MLOAD DUP1 PUSH1 0x40 ADD PUSH1 0x40 MSTORE DUP1 DUP12 DUP2 MSTORE PUSH1 0x20 ADD DUP11 DUP2 MSTORE POP PUSH1 0x7 PUSH1 0x5 ADD PUSH1 0x0 DUP3 ADD MLOAD DUP2 PUSH1 0x0 ADD SSTORE PUSH1 0x20 DUP3 ADD MLOAD DUP2 PUSH1 0x1 ADD SSTORE SWAP1 POP POP CALLER PUSH20 0xFFFFFFFFFFFFFFFFFFFFFFFFFFFFFFFFFFFFFFFF AND PUSH32 0x13DD6FE92E00365CC4B5B06C43C90E02579BAC92DAF813DCC92257094835F914 PUSH1 0x1 PUSH1 0x40 MLOAD DUP1 DUP3 ISZERO ISZERO ISZERO ISZERO DUP2 MSTORE PUSH1 0x20 ADD DUP1 PUSH1 0x20 ADD DUP3 DUP2 SUB DUP3 MSTORE PUSH1 0x1C DUP2 MSTORE PUSH1 0x20 ADD DUP1 PUSH32 0x446563727970746564536861726550726F6F6620616363657074656400000000 DUP2 MSTORE POP PUSH1 0x20 ADD SWAP3 POP POP POP PUSH1 0x40 MLOAD DUP1 SWAP2 SUB SWAP1 LOG2 PUSH1 0x1 PUSH1 0x40 MLOAD DUP1 PUSH1 0x40 ADD PUSH1 0x40 MSTORE DUP1 PUSH1 0x11 DUP2 MSTORE PUSH1 0x20 ADD PUSH32 0x53756D70726F6F66206163636570746564000000000000000000000000000000 DUP2 MSTORE POP SWAP4 POP SWAP4 POP POP POP JUMPDEST SWAP8 POP SWAP8 SWAP6 POP POP POP POP POP POP JUMP JUMPDEST PUSH1 0x0 PUSH1 0x60 PUSH1 0x0 PUSH1 0x2 PUSH1 0x0 SWAP1 SLOAD SWAP1 PUSH2 0x100 EXP SWAP1 DIV PUSH20 0xFFFFFFFFFFFFFFFFFFFFFFFFFFFFFFFFFFFFFFFF AND PUSH20 0xFFFFFFFFFFFFFFFFFFFFFFFFFFFFFFFFFFFFFFFF AND PUSH4 0xB0CAA829 DUP7 DUP7 DUP10 CALLER PUSH1 0x40 MLOAD DUP6 PUSH4 0xFFFFFFFF AND PUSH1 0xE0 SHL DUP2 MSTORE PUSH1 0x4 ADD DUP1 DUP6 DUP2 MSTORE PUSH1 0x20 ADD DUP5 DUP2 MSTORE PUSH1 0x20 ADD DUP4 DUP2 MSTORE PUSH1 0x20 ADD DUP3 PUSH20 0xFFFFFFFFFFFFFFFFFFFFFFFFFFFFFFFFFFFFFFFF AND PUSH20 0xFFFFFFFFFFFFFFFFFFFFFFFFFFFFFFFFFFFFFFFF AND DUP2 MSTORE PUSH1 0x20 ADD SWAP5 POP POP POP POP POP PUSH1 0x20 PUSH1 0x40 MLOAD DUP1 DUP4 SUB DUP2 DUP7 DUP1 EXTCODESIZE ISZERO DUP1 ISZERO PUSH2 0x100C JUMPI PUSH1 0x0 DUP1 REVERT JUMPDEST POP GAS STATICCALL ISZERO DUP1 ISZERO PUSH2 0x1020 JUMPI RETURNDATASIZE PUSH1 0x0 DUP1 RETURNDATACOPY RETURNDATASIZE PUSH1 0x0 REVERT JUMPDEST POP POP POP POP PUSH1 0x40 MLOAD RETURNDATASIZE PUSH1 0x20 DUP2 LT ISZERO PUSH2 0x1036 JUMPI PUSH1 0x0 DUP1 REVERT JUMPDEST DUP2 ADD SWAP1 DUP1 DUP1 MLOAD SWAP1 PUSH1 0x20 ADD SWAP1 SWAP3 SWAP2 SWAP1 POP POP POP SWAP1 POP DUP1 PUSH2 0x10E2 JUMPI CALLER PUSH20 0xFFFFFFFFFFFFFFFFFFFFFFFFFFFFFFFFFFFFFFFF AND PUSH32 0x5E3BCF275EBED27743F1E6A7DA420715DBB1CF382076B6B9EDCF71AD26B8B454 PUSH1 0x0 PUSH1 0x40 MLOAD DUP1 DUP3 ISZERO ISZERO ISZERO ISZERO DUP2 MSTORE PUSH1 0x20 ADD DUP1 PUSH1 0x20 ADD DUP3 DUP2 SUB DUP3 MSTORE PUSH1 0x24 DUP2 MSTORE PUSH1 0x20 ADD DUP1 PUSH2 0x2101 PUSH1 0x24 SWAP2 CODECOPY PUSH1 0x40 ADD SWAP3 POP POP POP PUSH1 0x40 MLOAD DUP1 SWAP2 SUB SWAP1 LOG2 PUSH1 0x0 PUSH1 0x40 MLOAD DUP1 PUSH1 0x60 ADD PUSH1 0x40 MSTORE DUP1 PUSH1 0x24 DUP2 MSTORE PUSH1 0x20 ADD PUSH2 0x2101 PUSH1 0x24 SWAP2 CODECOPY SWAP3 POP SWAP3 POP POP PUSH2 0x11EB JUMP JUMPDEST DUP6 PUSH1 0x7 PUSH1 0x3 ADD PUSH1 0x0 CALLER PUSH20 0xFFFFFFFFFFFFFFFFFFFFFFFFFFFFFFFFFFFFFFFF AND PUSH20 0xFFFFFFFFFFFFFFFFFFFFFFFFFFFFFFFFFFFFFFFF AND DUP2 MSTORE PUSH1 0x20 ADD SWAP1 DUP2 MSTORE PUSH1 0x20 ADD PUSH1 0x0 KECCAK256 DUP2 SWAP1 SSTORE POP PUSH1 0x7 DUP1 ADD PUSH1 0x40 MLOAD DUP1 PUSH1 0x40 ADD PUSH1 0x40 MSTORE DUP1 DUP9 DUP2 MSTORE PUSH1 0x20 ADD PUSH1 0x40 MLOAD DUP1 PUSH1 0x40 ADD PUSH1 0x40 MSTORE DUP1 DUP10 DUP2 MSTORE PUSH1 0x20 ADD DUP9 DUP2 MSTORE POP DUP2 MSTORE POP SWAP1 DUP1 PUSH1 0x1 DUP2 SLOAD ADD DUP1 DUP3 SSTORE DUP1 SWAP2 POP POP SWAP1 PUSH1 0x1 DUP3 SUB SWAP1 PUSH1 0x0 MSTORE PUSH1 0x20 PUSH1 0x0 KECCAK256 SWAP1 PUSH1 0x3 MUL ADD PUSH1 0x0 SWAP1 SWAP2 SWAP3 SWAP1 SWAP2 SWAP1 SWAP2 POP PUSH1 0x0 DUP3 ADD MLOAD DUP2 PUSH1 0x0 ADD SSTORE PUSH1 0x20 DUP3 ADD MLOAD DUP2 PUSH1 0x1 ADD PUSH1 0x0 DUP3 ADD MLOAD DUP2 PUSH1 0x0 ADD SSTORE PUSH1 0x20 DUP3 ADD MLOAD DUP2 PUSH1 0x1 ADD SSTORE POP POP POP POP POP PUSH1 0x1 PUSH1 0x40 MLOAD DUP1 PUSH1 0x40 ADD PUSH1 0x40 MSTORE DUP1 PUSH1 0x1E DUP2 MSTORE PUSH1 0x20 ADD PUSH32 0x4B65792047656E65726174696F6E2050726F6F662069732076616C69642E0000 DUP2 MSTORE POP SWAP3 POP SWAP3 POP POP JUMPDEST SWAP4 POP SWAP4 SWAP2 POP POP JUMP JUMPDEST PUSH1 0x0 PUSH1 0x7 PUSH1 0x8 ADD DUP1 SLOAD SWAP1 POP SWAP1 POP SWAP1 JUMP JUMPDEST PUSH1 0x0 PUSH1 0x11 PUSH1 0x1 SWAP1 SLOAD SWAP1 PUSH2 0x100 EXP SWAP1 DIV PUSH1 0xFF AND ISZERO PUSH2 0x121F JUMPI PUSH1 0x0 DUP1 REVERT JUMPDEST PUSH1 0x7 PUSH1 0x9 ADD SLOAD SWAP1 POP SWAP1 JUMP JUMPDEST PUSH1 0x0 PUSH1 0x11 PUSH1 0x1 SWAP1 SLOAD SWAP1 PUSH2 0x100 EXP SWAP1 DIV PUSH1 0xFF AND SWAP1 POP SWAP1 JUMP JUMPDEST PUSH2 0x1249 PUSH2 0x1F3C JUMP JUMPDEST PUSH1 0x11 PUSH1 0x0 SWAP1 SLOAD SWAP1 PUSH2 0x100 EXP SWAP1 DIV PUSH1 0xFF AND PUSH2 0x1262 JUMPI PUSH1 0x0 DUP1 REVERT JUMPDEST PUSH1 0x40 MLOAD DUP1 PUSH1 0x60 ADD PUSH1 0x40 MSTORE DUP1 PUSH1 0x3 PUSH1 0x0 ADD SLOAD DUP2 MSTORE PUSH1 0x20 ADD PUSH1 0x3 PUSH1 0x1 ADD SLOAD DUP2 MSTORE PUSH1 0x20 ADD PUSH1 0x3 PUSH1 0x2 ADD SLOAD DUP2 MSTORE POP SWAP1 POP SWAP1 JUMP JUMPDEST PUSH1 0x11 PUSH1 0x3 SWAP1 SLOAD SWAP1 PUSH2 0x100 EXP SWAP1 DIV PUSH20 0xFFFFFFFFFFFFFFFFFFFFFFFFFFFFFFFFFFFFFFFF AND PUSH20 0xFFFFFFFFFFFFFFFFFFFFFFFFFFFFFFFFFFFFFFFF AND CALLER PUSH20 0xFFFFFFFFFFFFFFFFFFFFFFFFFFFFFFFFFFFFFFFF AND EQ PUSH2 0x12EB JUMPI PUSH1 0x0 DUP1 REVERT JUMPDEST PUSH1 0x0 PUSH1 0x11 PUSH1 0x1 PUSH2 0x100 EXP DUP2 SLOAD DUP2 PUSH1 0xFF MUL NOT AND SWAP1 DUP4 ISZERO ISZERO MUL OR SWAP1 SSTORE POP JUMP JUMPDEST PUSH1 0x2 PUSH1 0x7 PUSH1 0x8 ADD DUP1 SLOAD SWAP1 POP EQ PUSH2 0x131D JUMPI PUSH1 0x0 DUP1 REVERT JUMPDEST PUSH1 0x0 PUSH1 0x7 PUSH1 0x8 ADD PUSH1 0x0 DUP2 SLOAD DUP2 LT PUSH2 0x1330 JUMPI INVALID JUMPDEST SWAP1 PUSH1 0x0 MSTORE PUSH1 0x20 PUSH1 0x0 KECCAK256 SWAP1 PUSH1 0x5 MUL ADD PUSH1 0x0 ADD SLOAD SWAP1 POP PUSH1 0x0 PUSH1 0x1 SWAP1 POP JUMPDEST PUSH1 0x7 PUSH1 0x8 ADD DUP1 SLOAD SWAP1 POP DUP2 LT ISZERO PUSH2 0x142C JUMPI DUP2 PUSH20 0x0 PUSH4 0xE616559E SWAP1 SWAP2 PUSH1 0x7 PUSH1 0x8 ADD DUP5 DUP2 SLOAD DUP2 LT PUSH2 0x1388 JUMPI INVALID JUMPDEST SWAP1 PUSH1 0x0 MSTORE PUSH1 0x20 PUSH1 0x0 KECCAK256 SWAP1 PUSH1 0x5 MUL ADD PUSH1 0x0 ADD SLOAD PUSH1 0x3 PUSH1 0x0 ADD SLOAD PUSH1 0x40 MLOAD DUP5 PUSH4 0xFFFFFFFF AND PUSH1 0xE0 SHL DUP2 MSTORE PUSH1 0x4 ADD DUP1 DUP5 DUP2 MSTORE PUSH1 0x20 ADD DUP4 DUP2 MSTORE PUSH1 0x20 ADD DUP3 DUP2 MSTORE PUSH1 0x20 ADD SWAP4 POP POP POP POP PUSH1 0x20 PUSH1 0x40 MLOAD DUP1 DUP4 SUB DUP2 DUP7 DUP1 EXTCODESIZE ISZERO DUP1 ISZERO PUSH2 0x13E2 JUMPI PUSH1 0x0 DUP1 REVERT JUMPDEST POP GAS DELEGATECALL ISZERO DUP1 ISZERO PUSH2 0x13F6 JUMPI RETURNDATASIZE PUSH1 0x0 DUP1 RETURNDATACOPY RETURNDATASIZE PUSH1 0x0 REVERT JUMPDEST POP POP POP POP PUSH1 0x40 MLOAD RETURNDATASIZE PUSH1 0x20 DUP2 LT ISZERO PUSH2 0x140C JUMPI PUSH1 0x0 DUP1 REVERT JUMPDEST DUP2 ADD SWAP1 DUP1 DUP1 MLOAD SWAP1 PUSH1 0x20 ADD SWAP1 SWAP3 SWAP2 SWAP1 POP POP POP SWAP2 POP DUP1 DUP1 PUSH1 0x1 ADD SWAP2 POP POP PUSH2 0x134B JUMP JUMPDEST POP PUSH1 0x0 PUSH1 0x7 PUSH1 0x5 ADD PUSH1 0x1 ADD SLOAD PUSH20 0x0 PUSH4 0xE616559E SWAP1 SWAP2 DUP5 PUSH20 0x0 PUSH4 0xA9008AD6 SWAP1 SWAP2 PUSH1 0x3 PUSH1 0x0 ADD SLOAD PUSH1 0x40 MLOAD DUP4 PUSH4 0xFFFFFFFF AND PUSH1 0xE0 SHL DUP2 MSTORE PUSH1 0x4 ADD DUP1 DUP4 DUP2 MSTORE PUSH1 0x20 ADD DUP3 DUP2 MSTORE PUSH1 0x20 ADD SWAP3 POP POP POP PUSH1 0x20 PUSH1 0x40 MLOAD DUP1 DUP4 SUB DUP2 DUP7 DUP1 EXTCODESIZE ISZERO DUP1 ISZERO PUSH2 0x14B2 JUMPI PUSH1 0x0 DUP1 REVERT JUMPDEST POP GAS DELEGATECALL ISZERO DUP1 ISZERO PUSH2 0x14C6 JUMPI RETURNDATASIZE PUSH1 0x0 DUP1 RETURNDATACOPY RETURNDATASIZE PUSH1 0x0 REVERT JUMPDEST POP POP POP POP PUSH1 0x40 MLOAD RETURNDATASIZE PUSH1 0x20 DUP2 LT ISZERO PUSH2 0x14DC JUMPI PUSH1 0x0 DUP1 REVERT JUMPDEST DUP2 ADD SWAP1 DUP1 DUP1 MLOAD SWAP1 PUSH1 0x20 ADD SWAP1 SWAP3 SWAP2 SWAP1 POP POP POP PUSH1 0x3 PUSH1 0x0 ADD SLOAD PUSH1 0x40 MLOAD DUP5 PUSH4 0xFFFFFFFF AND PUSH1 0xE0 SHL DUP2 MSTORE PUSH1 0x4 ADD DUP1 DUP5 DUP2 MSTORE PUSH1 0x20 ADD DUP4 DUP2 MSTORE PUSH1 0x20 ADD DUP3 DUP2 MSTORE PUSH1 0x20 ADD SWAP4 POP POP POP POP PUSH1 0x20 PUSH1 0x40 MLOAD DUP1 DUP4 SUB DUP2 DUP7 DUP1 EXTCODESIZE ISZERO DUP1 ISZERO PUSH2 0x1535 JUMPI PUSH1 0x0 DUP1 REVERT JUMPDEST POP GAS DELEGATECALL ISZERO DUP1 ISZERO PUSH2 0x1549 JUMPI RETURNDATASIZE PUSH1 0x0 DUP1 RETURNDATACOPY RETURNDATASIZE PUSH1 0x0 REVERT JUMPDEST POP POP POP POP PUSH1 0x40 MLOAD RETURNDATASIZE PUSH1 0x20 DUP2 LT ISZERO PUSH2 0x155F JUMPI PUSH1 0x0 DUP1 REVERT JUMPDEST DUP2 ADD SWAP1 DUP1 DUP1 MLOAD SWAP1 PUSH1 0x20 ADD SWAP1 SWAP3 SWAP2 SWAP1 POP POP POP SWAP1 POP PUSH1 0x0 DUP1 SWAP1 POP PUSH1 0x0 PUSH1 0x3 PUSH1 0x2 ADD SLOAD SWAP1 POP PUSH1 0x0 PUSH1 0x3 PUSH1 0x0 ADD SLOAD SWAP1 POP JUMPDEST DUP4 DUP3 PUSH20 0x0 PUSH4 0xEDBE2FBD SWAP1 SWAP2 DUP7 DUP6 PUSH1 0x40 MLOAD DUP5 PUSH4 0xFFFFFFFF AND PUSH1 0xE0 SHL DUP2 MSTORE PUSH1 0x4 ADD DUP1 DUP5 DUP2 MSTORE PUSH1 0x20 ADD DUP4 DUP2 MSTORE PUSH1 0x20 ADD DUP3 DUP2 MSTORE PUSH1 0x20 ADD SWAP4 POP POP POP POP PUSH1 0x20 PUSH1 0x40 MLOAD DUP1 DUP4 SUB DUP2 DUP7 DUP1 EXTCODESIZE ISZERO DUP1 ISZERO PUSH2 0x15EE JUMPI PUSH1 0x0 DUP1 REVERT JUMPDEST POP GAS DELEGATECALL ISZERO DUP1 ISZERO PUSH2 0x1602 JUMPI RETURNDATASIZE PUSH1 0x0 DUP1 RETURNDATACOPY RETURNDATASIZE PUSH1 0x0 REVERT JUMPDEST POP POP POP POP PUSH1 0x40 MLOAD RETURNDATASIZE PUSH1 0x20 DUP2 LT ISZERO PUSH2 0x1618 JUMPI PUSH1 0x0 DUP1 REVERT JUMPDEST DUP2 ADD SWAP1 DUP1 DUP1 MLOAD SWAP1 PUSH1 0x20 ADD SWAP1 SWAP3 SWAP2 SWAP1 POP POP POP EQ PUSH2 0x1639 JUMPI PUSH1 0x1 DUP4 ADD SWAP3 POP PUSH2 0x158C JUMP JUMPDEST DUP3 PUSH1 0x7 PUSH1 0x9 ADD DUP2 SWAP1 SSTORE POP POP POP POP POP POP JUMP JUMPDEST PUSH1 0x0 PUSH1 0x60 PUSH1 0x11 PUSH1 0x1 SWAP1 SLOAD SWAP1 PUSH2 0x100 EXP SWAP1 DIV PUSH1 0xFF AND PUSH2 0x172F JUMPI CALLER PUSH20 0xFFFFFFFFFFFFFFFFFFFFFFFFFFFFFFFFFFFFFFFF AND PUSH32 0x13DD6FE92E00365CC4B5B06C43C90E02579BAC92DAF813DCC92257094835F914 PUSH1 0x0 PUSH1 0x40 MLOAD DUP1 DUP3 ISZERO ISZERO ISZERO ISZERO DUP2 MSTORE PUSH1 0x20 ADD DUP1 PUSH1 0x20 ADD DUP3 DUP2 SUB DUP3 MSTORE PUSH1 0xD DUP2 MSTORE PUSH1 0x20 ADD DUP1 PUSH32 0x566F7465206E6F74206F70656E00000000000000000000000000000000000000 DUP2 MSTORE POP PUSH1 0x20 ADD SWAP3 POP POP POP PUSH1 0x40 MLOAD DUP1 SWAP2 SUB SWAP1 LOG2 PUSH1 0x0 PUSH1 0x40 MLOAD DUP1 PUSH1 0x40 ADD PUSH1 0x40 MSTORE DUP1 PUSH1 0xD DUP2 MSTORE PUSH1 0x20 ADD PUSH32 0x566F7465206E6F74206F70656E00000000000000000000000000000000000000 DUP2 MSTORE POP SWAP2 POP SWAP2 POP PUSH2 0x1D4B JUMP JUMPDEST PUSH1 0x0 DUP1 SWAP1 SLOAD SWAP1 PUSH2 0x100 EXP SWAP1 DIV PUSH20 0xFFFFFFFFFFFFFFFFFFFFFFFFFFFFFFFFFFFFFFFF AND PUSH20 0xFFFFFFFFFFFFFFFFFFFFFFFFFFFFFFFFFFFFFFFF AND PUSH4 0x2817A98F DUP9 DUP9 DUP9 DUP9 DUP9 CALLER PUSH1 0x40 MLOAD DUP8 PUSH4 0xFFFFFFFF AND PUSH1 0xE0 SHL DUP2 MSTORE PUSH1 0x4 ADD DUP1 DUP8 PUSH1 0x2 PUSH1 0x20 MUL DUP1 DUP3 DUP5 CALLDATACOPY PUSH1 0x0 DUP2 DUP5 ADD MSTORE PUSH1 0x1F NOT PUSH1 0x1F DUP3 ADD AND SWAP1 POP DUP1 DUP4 ADD SWAP3 POP POP POP DUP7 PUSH1 0x2 PUSH1 0x20 MUL DUP1 DUP3 DUP5 CALLDATACOPY PUSH1 0x0 DUP2 DUP5 ADD MSTORE PUSH1 0x1F NOT PUSH1 0x1F DUP3 ADD AND SWAP1 POP DUP1 DUP4 ADD SWAP3 POP POP POP DUP6 PUSH1 0x2 PUSH1 0x20 MUL DUP1 DUP3 DUP5 CALLDATACOPY PUSH1 0x0 DUP2 DUP5 ADD MSTORE PUSH1 0x1F NOT PUSH1 0x1F DUP3 ADD AND SWAP1 POP DUP1 DUP4 ADD SWAP3 POP POP POP DUP5 PUSH1 0x2 PUSH1 0x20 MUL DUP1 DUP3 DUP5 CALLDATACOPY PUSH1 0x0 DUP2 DUP5 ADD MSTORE PUSH1 0x1F NOT PUSH1 0x1F DUP3 ADD AND SWAP1 POP DUP1 DUP4 ADD SWAP3 POP POP POP DUP4 PUSH1 0x2 PUSH1 0x20 MUL DUP1 DUP3 DUP5 CALLDATACOPY PUSH1 0x0 DUP2 DUP5 ADD MSTORE PUSH1 0x1F NOT PUSH1 0x1F DUP3 ADD AND SWAP1 POP DUP1 DUP4 ADD SWAP3 POP POP POP DUP3 PUSH20 0xFFFFFFFFFFFFFFFFFFFFFFFFFFFFFFFFFFFFFFFF AND PUSH20 0xFFFFFFFFFFFFFFFFFFFFFFFFFFFFFFFFFFFFFFFF AND DUP2 MSTORE PUSH1 0x20 ADD SWAP7 POP POP POP POP POP POP POP PUSH1 0x20 PUSH1 0x40 MLOAD DUP1 DUP4 SUB DUP2 DUP7 DUP1 EXTCODESIZE ISZERO DUP1 ISZERO PUSH2 0x187C JUMPI PUSH1 0x0 DUP1 REVERT JUMPDEST POP GAS STATICCALL ISZERO DUP1 ISZERO PUSH2 0x1890 JUMPI RETURNDATASIZE PUSH1 0x0 DUP1 RETURNDATACOPY RETURNDATASIZE PUSH1 0x0 REVERT JUMPDEST POP POP POP POP PUSH1 0x40 MLOAD RETURNDATASIZE PUSH1 0x20 DUP2 LT ISZERO PUSH2 0x18A6 JUMPI PUSH1 0x0 DUP1 REVERT JUMPDEST DUP2 ADD SWAP1 DUP1 DUP1 MLOAD SWAP1 PUSH1 0x20 ADD SWAP1 SWAP3 SWAP2 SWAP1 POP POP POP PUSH2 0x1988 JUMPI CALLER PUSH20 0xFFFFFFFFFFFFFFFFFFFFFFFFFFFFFFFFFFFFFFFF AND PUSH32 0x13DD6FE92E00365CC4B5B06C43C90E02579BAC92DAF813DCC92257094835F914 PUSH1 0x0 PUSH1 0x40 MLOAD DUP1 DUP3 ISZERO ISZERO ISZERO ISZERO DUP2 MSTORE PUSH1 0x20 ADD DUP1 PUSH1 0x20 ADD DUP3 DUP2 SUB DUP3 MSTORE PUSH1 0x11 DUP2 MSTORE PUSH1 0x20 ADD DUP1 PUSH32 0x50726F6F66206E6F7420636F7272656374000000000000000000000000000000 DUP2 MSTORE POP PUSH1 0x20 ADD SWAP3 POP POP POP PUSH1 0x40 MLOAD DUP1 SWAP2 SUB SWAP1 LOG2 PUSH1 0x0 PUSH1 0x40 MLOAD DUP1 PUSH1 0x40 ADD PUSH1 0x40 MSTORE DUP1 PUSH1 0x11 DUP2 MSTORE PUSH1 0x20 ADD PUSH32 0x50726F6F66206E6F7420636F7272656374000000000000000000000000000000 DUP2 MSTORE POP SWAP2 POP SWAP2 POP PUSH2 0x1D4B JUMP JUMPDEST PUSH2 0x1990 PUSH2 0x1F5E JUMP JUMPDEST PUSH1 0x40 MLOAD DUP1 PUSH1 0x80 ADD PUSH1 0x40 MSTORE DUP1 DUP9 PUSH1 0x2 DUP1 PUSH1 0x20 MUL PUSH1 0x40 MLOAD SWAP1 DUP2 ADD PUSH1 0x40 MSTORE DUP1 SWAP3 SWAP2 SWAP1 DUP3 PUSH1 0x2 PUSH1 0x20 MUL DUP1 DUP3 DUP5 CALLDATACOPY PUSH1 0x0 DUP2 DUP5 ADD MSTORE PUSH1 0x1F NOT PUSH1 0x1F DUP3 ADD AND SWAP1 POP DUP1 DUP4 ADD SWAP3 POP POP POP POP POP POP DUP2 MSTORE PUSH1 0x20 ADD DUP8 PUSH1 0x2 DUP1 PUSH1 0x20 MUL PUSH1 0x40 MLOAD SWAP1 DUP2 ADD PUSH1 0x40 MSTORE DUP1 SWAP3 SWAP2 SWAP1 DUP3 PUSH1 0x2 PUSH1 0x20 MUL DUP1 DUP3 DUP5 CALLDATACOPY PUSH1 0x0 DUP2 DUP5 ADD MSTORE PUSH1 0x1F NOT PUSH1 0x1F DUP3 ADD AND SWAP1 POP DUP1 DUP4 ADD SWAP3 POP POP POP POP POP POP DUP2 MSTORE PUSH1 0x20 ADD DUP7 PUSH1 0x2 DUP1 PUSH1 0x20 MUL PUSH1 0x40 MLOAD SWAP1 DUP2 ADD PUSH1 0x40 MSTORE DUP1 SWAP3 SWAP2 SWAP1 DUP3 PUSH1 0x2 PUSH1 0x20 MUL DUP1 DUP3 DUP5 CALLDATACOPY PUSH1 0x0 DUP2 DUP5 ADD MSTORE PUSH1 0x1F NOT PUSH1 0x1F DUP3 ADD AND SWAP1 POP DUP1 DUP4 ADD SWAP3 POP POP POP POP POP POP DUP2 MSTORE PUSH1 0x20 ADD DUP6 PUSH1 0x2 DUP1 PUSH1 0x20 MUL PUSH1 0x40 MLOAD SWAP1 DUP2 ADD PUSH1 0x40 MSTORE DUP1 SWAP3 SWAP2 SWAP1 DUP3 PUSH1 0x2 PUSH1 0x20 MUL DUP1 DUP3 DUP5 CALLDATACOPY PUSH1 0x0 DUP2 DUP5 ADD MSTORE PUSH1 0x1F NOT PUSH1 0x1F DUP3 ADD AND SWAP1 POP DUP1 DUP4 ADD SWAP3 POP POP POP POP POP POP DUP2 MSTORE POP SWAP1 POP PUSH2 0x1A97 PUSH2 0x1F9E JUMP JUMPDEST PUSH1 0x40 MLOAD DUP1 PUSH1 0x40 ADD PUSH1 0x40 MSTORE DUP1 DUP11 PUSH1 0x0 PUSH1 0x2 DUP2 LT PUSH2 0x1AAF JUMPI INVALID JUMPDEST PUSH1 0x20 MUL ADD CALLDATALOAD DUP2 MSTORE PUSH1 0x20 ADD DUP11 PUSH1 0x1 PUSH1 0x2 DUP2 LT PUSH2 0x1AC6 JUMPI INVALID JUMPDEST PUSH1 0x20 MUL ADD CALLDATALOAD DUP2 MSTORE POP SWAP1 POP PUSH2 0x1AD8 PUSH2 0x1FB8 JUMP JUMPDEST PUSH1 0x40 MLOAD DUP1 PUSH1 0x60 ADD PUSH1 0x40 MSTORE DUP1 CALLER PUSH20 0xFFFFFFFFFFFFFFFFFFFFFFFFFFFFFFFFFFFFFFFF AND DUP2 MSTORE PUSH1 0x20 ADD DUP4 DUP2 MSTORE PUSH1 0x20 ADD DUP5 DUP2 MSTORE POP SWAP1 POP PUSH1 0x7 PUSH1 0x1 ADD DUP2 SWAP1 DUP1 PUSH1 0x1 DUP2 SLOAD ADD DUP1 DUP3 SSTORE DUP1 SWAP2 POP POP SWAP1 PUSH1 0x1 DUP3 SUB SWAP1 PUSH1 0x0 MSTORE PUSH1 0x20 PUSH1 0x0 KECCAK256 SWAP1 PUSH1 0xB MUL ADD PUSH1 0x0 SWAP1 SWAP2 SWAP3 SWAP1 SWAP2 SWAP1 SWAP2 POP PUSH1 0x0 DUP3 ADD MLOAD DUP2 PUSH1 0x0 ADD PUSH1 0x0 PUSH2 0x100 EXP DUP2 SLOAD DUP2 PUSH20 0xFFFFFFFFFFFFFFFFFFFFFFFFFFFFFFFFFFFFFFFF MUL NOT AND SWAP1 DUP4 PUSH20 0xFFFFFFFFFFFFFFFFFFFFFFFFFFFFFFFFFFFFFFFF AND MUL OR SWAP1 SSTORE POP PUSH1 0x20 DUP3 ADD MLOAD DUP2 PUSH1 0x1 ADD PUSH1 0x0 DUP3 ADD MLOAD DUP2 PUSH1 0x0 ADD SSTORE PUSH1 0x20 DUP3 ADD MLOAD DUP2 PUSH1 0x1 ADD SSTORE POP POP PUSH1 0x40 DUP3 ADD MLOAD DUP2 PUSH1 0x3 ADD PUSH1 0x0 DUP3 ADD MLOAD DUP2 PUSH1 0x0 ADD SWAP1 PUSH1 0x2 PUSH2 0x1BC2 SWAP3 SWAP2 SWAP1 PUSH2 0x1FFB JUMP JUMPDEST POP PUSH1 0x20 DUP3 ADD MLOAD DUP2 PUSH1 0x2 ADD SWAP1 PUSH1 0x2 PUSH2 0x1BDA SWAP3 SWAP2 SWAP1 PUSH2 0x1FFB JUMP JUMPDEST POP PUSH1 0x40 DUP3 ADD MLOAD DUP2 PUSH1 0x4 ADD SWAP1 PUSH1 0x2 PUSH2 0x1BF2 SWAP3 SWAP2 SWAP1 PUSH2 0x1FFB JUMP JUMPDEST POP PUSH1 0x60 DUP3 ADD MLOAD DUP2 PUSH1 0x6 ADD SWAP1 PUSH1 0x2 PUSH2 0x1C0A SWAP3 SWAP2 SWAP1 PUSH2 0x1FFB JUMP JUMPDEST POP POP POP POP POP POP PUSH1 0x1 PUSH1 0x7 PUSH1 0x0 ADD PUSH1 0x0 DUP3 DUP3 SLOAD ADD SWAP3 POP POP DUP2 SWAP1 SSTORE POP PUSH1 0x1 PUSH1 0x7 PUSH1 0x2 ADD PUSH1 0x0 CALLER PUSH20 0xFFFFFFFFFFFFFFFFFFFFFFFFFFFFFFFFFFFFFFFF AND PUSH20 0xFFFFFFFFFFFFFFFFFFFFFFFFFFFFFFFFFFFFFFFF AND DUP2 MSTORE PUSH1 0x20 ADD SWAP1 DUP2 MSTORE PUSH1 0x20 ADD PUSH1 0x0 KECCAK256 PUSH1 0x0 PUSH2 0x100 EXP DUP2 SLOAD DUP2 PUSH1 0xFF MUL NOT AND SWAP1 DUP4 ISZERO ISZERO MUL OR SWAP1 SSTORE POP CALLER PUSH20 0xFFFFFFFFFFFFFFFFFFFFFFFFFFFFFFFFFFFFFFFF AND PUSH32 0x13DD6FE92E00365CC4B5B06C43C90E02579BAC92DAF813DCC92257094835F914 PUSH1 0x1 PUSH1 0x40 MLOAD DUP1 DUP3 ISZERO ISZERO ISZERO ISZERO DUP2 MSTORE PUSH1 0x20 ADD DUP1 PUSH1 0x20 ADD DUP3 DUP2 SUB DUP3 MSTORE PUSH1 0x11 DUP2 MSTORE PUSH1 0x20 ADD DUP1 PUSH32 0x566F746520776173206163636570746564000000000000000000000000000000 DUP2 MSTORE POP PUSH1 0x20 ADD SWAP3 POP POP POP PUSH1 0x40 MLOAD DUP1 SWAP2 SUB SWAP1 LOG2 PUSH1 0x1 PUSH1 0x40 MLOAD DUP1 PUSH1 0x40 ADD PUSH1 0x40 MSTORE DUP1 PUSH1 0x11 DUP2 MSTORE PUSH1 0x20 ADD PUSH32 0x566F746520776173206163636570746564000000000000000000000000000000 DUP2 MSTORE POP SWAP5 POP SWAP5 POP POP POP POP JUMPDEST SWAP6 POP SWAP6 SWAP4 POP POP POP POP JUMP JUMPDEST PUSH1 0x0 PUSH1 0x7 PUSH1 0x1 ADD DUP1 SLOAD SWAP1 POP SWAP1 POP SWAP1 JUMP JUMPDEST PUSH1 0x11 PUSH1 0x3 SWAP1 SLOAD SWAP1 PUSH2 0x100 EXP SWAP1 DIV PUSH20 0xFFFFFFFFFFFFFFFFFFFFFFFFFFFFFFFFFFFFFFFF AND PUSH20 0xFFFFFFFFFFFFFFFFFFFFFFFFFFFFFFFFFFFFFFFF AND CALLER PUSH20 0xFFFFFFFFFFFFFFFFFFFFFFFFFFFFFFFFFFFFFFFF AND EQ PUSH2 0x1DBF JUMPI PUSH1 0x0 DUP1 REVERT JUMPDEST PUSH1 0x11 PUSH1 0x0 SWAP1 SLOAD SWAP1 PUSH2 0x100 EXP SWAP1 DIV PUSH1 0xFF AND ISZERO PUSH2 0x1DD9 JUMPI PUSH1 0x0 DUP1 REVERT JUMPDEST PUSH1 0x40 MLOAD DUP1 PUSH1 0x60 ADD PUSH1 0x40 MSTORE DUP1 DUP3 PUSH1 0x0 PUSH1 0x3 DUP2 LT PUSH2 0x1DF1 JUMPI INVALID JUMPDEST PUSH1 0x20 MUL ADD CALLDATALOAD DUP2 MSTORE PUSH1 0x20 ADD DUP3 PUSH1 0x1 PUSH1 0x3 DUP2 LT PUSH2 0x1E08 JUMPI INVALID JUMPDEST PUSH1 0x20 MUL ADD CALLDATALOAD DUP2 MSTORE PUSH1 0x20 ADD DUP3 PUSH1 0x2 PUSH1 0x3 DUP2 LT PUSH2 0x1E1F JUMPI INVALID JUMPDEST PUSH1 0x20 MUL ADD CALLDATALOAD DUP2 MSTORE POP PUSH1 0x3 PUSH1 0x0 DUP3 ADD MLOAD DUP2 PUSH1 0x0 ADD SSTORE PUSH1 0x20 DUP3 ADD MLOAD DUP2 PUSH1 0x1 ADD SSTORE PUSH1 0x40 DUP3 ADD MLOAD DUP2 PUSH1 0x2 ADD SSTORE SWAP1 POP POP PUSH1 0x2 PUSH1 0x0 SWAP1 SLOAD SWAP1 PUSH2 0x100 EXP SWAP1 DIV PUSH20 0xFFFFFFFFFFFFFFFFFFFFFFFFFFFFFFFFFFFFFFFF AND PUSH20 0xFFFFFFFFFFFFFFFFFFFFFFFFFFFFFFFFFFFFFFFF AND PUSH4 0x80D85911 PUSH1 0x3 PUSH1 0x0 ADD SLOAD PUSH1 0x3 PUSH1 0x1 ADD SLOAD PUSH1 0x3 PUSH1 0x2 ADD SLOAD PUSH1 0x40 MLOAD DUP5 PUSH4 0xFFFFFFFF AND PUSH1 0xE0 SHL DUP2 MSTORE PUSH1 0x4 ADD DUP1 DUP5 DUP2 MSTORE PUSH1 0x20 ADD DUP4 DUP2 MSTORE PUSH1 0x20 ADD DUP3 DUP2 MSTORE PUSH1 0x20 ADD SWAP4 POP POP POP POP PUSH1 0x0 PUSH1 0x40 MLOAD DUP1 DUP4 SUB DUP2 PUSH1 0x0 DUP8 DUP1 EXTCODESIZE ISZERO DUP1 ISZERO PUSH2 0x1EDE JUMPI PUSH1 0x0 DUP1 REVERT JUMPDEST POP GAS CALL ISZERO DUP1 ISZERO PUSH2 0x1EF2 JUMPI RETURNDATASIZE PUSH1 0x0 DUP1 RETURNDATACOPY RETURNDATASIZE PUSH1 0x0 REVERT JUMPDEST POP POP POP POP PUSH1 0x1 PUSH1 0x11 PUSH1 0x0 PUSH2 0x100 EXP DUP2 SLOAD DUP2 PUSH1 0xFF MUL NOT AND SWAP1 DUP4 ISZERO ISZERO MUL OR SWAP1 SSTORE POP POP JUMP JUMPDEST PUSH1 0x40 MLOAD DUP1 PUSH1 0x80 ADD PUSH1 0x40 MSTORE DUP1 PUSH1 0x0 DUP2 MSTORE PUSH1 0x20 ADD PUSH1 0x0 DUP2 MSTORE PUSH1 0x20 ADD PUSH1 0x0 DUP2 MSTORE PUSH1 0x20 ADD PUSH1 0x0 DUP2 MSTORE POP SWAP1 JUMP JUMPDEST PUSH1 0x40 MLOAD DUP1 PUSH1 0x60 ADD PUSH1 0x40 MSTORE DUP1 PUSH1 0x3 SWAP1 PUSH1 0x20 DUP3 MUL DUP1 CODESIZE DUP4 CODECOPY DUP1 DUP3 ADD SWAP2 POP POP SWAP1 POP POP SWAP1 JUMP JUMPDEST PUSH1 0x40 MLOAD DUP1 PUSH1 0x80 ADD PUSH1 0x40 MSTORE DUP1 PUSH2 0x1F71 PUSH2 0x203B JUMP JUMPDEST DUP2 MSTORE PUSH1 0x20 ADD PUSH2 0x1F7E PUSH2 0x203B JUMP JUMPDEST DUP2 MSTORE PUSH1 0x20 ADD PUSH2 0x1F8B PUSH2 0x203B JUMP JUMPDEST DUP2 MSTORE PUSH1 0x20 ADD PUSH2 0x1F98 PUSH2 0x203B JUMP JUMPDEST DUP2 MSTORE POP SWAP1 JUMP JUMPDEST PUSH1 0x40 MLOAD DUP1 PUSH1 0x40 ADD PUSH1 0x40 MSTORE DUP1 PUSH1 0x0 DUP2 MSTORE PUSH1 0x20 ADD PUSH1 0x0 DUP2 MSTORE POP SWAP1 JUMP JUMPDEST PUSH1 0x40 MLOAD DUP1 PUSH1 0x60 ADD PUSH1 0x40 MSTORE DUP1 PUSH1 0x0 PUSH20 0xFFFFFFFFFFFFFFFFFFFFFFFFFFFFFFFFFFFFFFFF AND DUP2 MSTORE PUSH1 0x20 ADD PUSH2 0x1FE8 PUSH2 0x205D JUMP JUMPDEST DUP2 MSTORE PUSH1 0x20 ADD PUSH2 0x1FF5 PUSH2 0x2077 JUMP JUMPDEST DUP2 MSTORE POP SWAP1 JUMP JUMPDEST DUP3 PUSH1 0x2 DUP2 ADD SWAP3 DUP3 ISZERO PUSH2 0x202A JUMPI SWAP2 PUSH1 0x20 MUL DUP3 ADD JUMPDEST DUP3 DUP2 GT ISZERO PUSH2 0x2029 JUMPI DUP3 MLOAD DUP3 SSTORE SWAP2 PUSH1 0x20 ADD SWAP2 SWAP1 PUSH1 0x1 ADD SWAP1 PUSH2 0x200E JUMP JUMPDEST JUMPDEST POP SWAP1 POP PUSH2 0x2037 SWAP2 SWAP1 PUSH2 0x20B7 JUMP JUMPDEST POP SWAP1 JUMP JUMPDEST PUSH1 0x40 MLOAD DUP1 PUSH1 0x40 ADD PUSH1 0x40 MSTORE DUP1 PUSH1 0x2 SWAP1 PUSH1 0x20 DUP3 MUL DUP1 CODESIZE DUP4 CODECOPY DUP1 DUP3 ADD SWAP2 POP POP SWAP1 POP POP SWAP1 JUMP JUMPDEST PUSH1 0x40 MLOAD DUP1 PUSH1 0x40 ADD PUSH1 0x40 MSTORE DUP1 PUSH1 0x0 DUP2 MSTORE PUSH1 0x20 ADD PUSH1 0x0 DUP2 MSTORE POP SWAP1 JUMP JUMPDEST PUSH1 0x40 MLOAD DUP1 PUSH1 0x80 ADD PUSH1 0x40 MSTORE DUP1 PUSH2 0x208A PUSH2 0x203B JUMP JUMPDEST DUP2 MSTORE PUSH1 0x20 ADD PUSH2 0x2097 PUSH2 0x203B JUMP JUMPDEST DUP2 MSTORE PUSH1 0x20 ADD PUSH2 0x20A4 PUSH2 0x203B JUMP JUMPDEST DUP2 MSTORE PUSH1 0x20 ADD PUSH2 0x20B1 PUSH2 0x203B JUMP JUMPDEST DUP2 MSTORE POP SWAP1 JUMP JUMPDEST PUSH2 0x20D9 SWAP2 SWAP1 JUMPDEST DUP1 DUP3 GT ISZERO PUSH2 0x20D5 JUMPI PUSH1 0x0 DUP2 PUSH1 0x0 SWAP1 SSTORE POP PUSH1 0x1 ADD PUSH2 0x20BD JUMP JUMPDEST POP SWAP1 JUMP JUMPDEST SWAP1 JUMP INVALID POP PUSH22 0x626C6963204B6579206F66207468652053797374656D KECCAK256 PUSH15 0x6F7420796574207365744B65792047 PUSH6 0x6E6572617469 PUSH16 0x6E2050726F6F66206973206E6F742063 PUSH16 0x72726563742EA265627A7A7231582032 0xF9 KECCAK256 0x2C 0x49 INVALID 0xB3 DUP11 0xB6 0xB3 0xE4 SMOD 0xCF 0x48 0x5D LT DUP13 CREATE PUSH10 0xF86D05C25653562AE5E8 0x4F 0xB1 0xBF PUSH5 0x736F6C6343 STOP SDIV 0xD STOP ORIGIN PUSH1 0x80 PUSH1 0x40 MSTORE CALLVALUE DUP1 ISZERO PUSH2 0x10 JUMPI PUSH1 0x0 DUP1 REVERT JUMPDEST POP PUSH1 0x40 MLOAD DUP1 PUSH1 0x80 ADD PUSH1 0x40 MSTORE DUP1 PUSH1 0x0 DUP2 MSTORE PUSH1 0x20 ADD PUSH1 0x0 DUP2 MSTORE PUSH1 0x20 ADD PUSH1 0x0 DUP2 MSTORE PUSH1 0x20 ADD PUSH1 0x0 DUP2 MSTORE POP PUSH1 0x0 DUP1 DUP3 ADD MLOAD DUP2 PUSH1 0x0 ADD SSTORE PUSH1 0x20 DUP3 ADD MLOAD DUP2 PUSH1 0x1 ADD SSTORE PUSH1 0x40 DUP3 ADD MLOAD DUP2 PUSH1 0x2 ADD SSTORE PUSH1 0x60 DUP3 ADD MLOAD DUP2 PUSH1 0x3 ADD SSTORE SWAP1 POP POP PUSH2 0xF8E DUP1 PUSH2 0x71 PUSH1 0x0 CODECOPY PUSH1 0x0 RETURN INVALID PUSH1 0x80 PUSH1 0x40 MSTORE PUSH1 0x4 CALLDATASIZE LT PUSH2 0x29 JUMPI PUSH1 0x0 CALLDATALOAD PUSH1 0xE0 SHR DUP1 PUSH4 0x2817A98F EQ PUSH2 0x2E JUMPI DUP1 PUSH4 0x60A2DA44 EQ PUSH2 0x1DD JUMPI JUMPDEST PUSH1 0x0 DUP1 REVERT JUMPDEST CALLVALUE DUP1 ISZERO PUSH2 0x3A JUMPI PUSH1 0x0 DUP1 REVERT JUMPDEST POP PUSH2 0x1C3 PUSH1 0x4 DUP1 CALLDATASIZE SUB PUSH2 0x160 DUP2 LT ISZERO PUSH2 0x52 JUMPI PUSH1 0x0 DUP1 REVERT JUMPDEST DUP2 ADD SWAP1 DUP1 DUP1 PUSH1 0x40 ADD SWAP1 PUSH1 0x2 DUP1 PUSH1 0x20 MUL PUSH1 0x40 MLOAD SWAP1 DUP2 ADD PUSH1 0x40 MSTORE DUP1 SWAP3 SWAP2 SWAP1 DUP3 PUSH1 0x2 PUSH1 0x20 MUL DUP1 DUP3 DUP5 CALLDATACOPY PUSH1 0x0 DUP2 DUP5 ADD MSTORE PUSH1 0x1F NOT PUSH1 0x1F DUP3 ADD AND SWAP1 POP DUP1 DUP4 ADD SWAP3 POP POP POP POP POP POP SWAP2 SWAP3 SWAP2 SWAP3 SWAP1 DUP1 PUSH1 0x40 ADD SWAP1 PUSH1 0x2 DUP1 PUSH1 0x20 MUL PUSH1 0x40 MLOAD SWAP1 DUP2 ADD PUSH1 0x40 MSTORE DUP1 SWAP3 SWAP2 SWAP1 DUP3 PUSH1 0x2 PUSH1 0x20 MUL DUP1 DUP3 DUP5 CALLDATACOPY PUSH1 0x0 DUP2 DUP5 ADD MSTORE PUSH1 0x1F NOT PUSH1 0x1F DUP3 ADD AND SWAP1 POP DUP1 DUP4 ADD SWAP3 POP POP POP POP POP POP SWAP2 SWAP3 SWAP2 SWAP3 SWAP1 DUP1 PUSH1 0x40 ADD SWAP1 PUSH1 0x2 DUP1 PUSH1 0x20 MUL PUSH1 0x40 MLOAD SWAP1 DUP2 ADD PUSH1 0x40 MSTORE DUP1 SWAP3 SWAP2 SWAP1 DUP3 PUSH1 0x2 PUSH1 0x20 MUL DUP1 DUP3 DUP5 CALLDATACOPY PUSH1 0x0 DUP2 DUP5 ADD MSTORE PUSH1 0x1F NOT PUSH1 0x1F DUP3 ADD AND SWAP1 POP DUP1 DUP4 ADD SWAP3 POP POP POP POP POP POP SWAP2 SWAP3 SWAP2 SWAP3 SWAP1 DUP1 PUSH1 0x40 ADD SWAP1 PUSH1 0x2 DUP1 PUSH1 0x20 MUL PUSH1 0x40 MLOAD SWAP1 DUP2 ADD PUSH1 0x40 MSTORE DUP1 SWAP3 SWAP2 SWAP1 DUP3 PUSH1 0x2 PUSH1 0x20 MUL DUP1 DUP3 DUP5 CALLDATACOPY PUSH1 0x0 DUP2 DUP5 ADD MSTORE PUSH1 0x1F NOT PUSH1 0x1F DUP3 ADD AND SWAP1 POP DUP1 DUP4 ADD SWAP3 POP POP POP POP POP POP SWAP2 SWAP3 SWAP2 SWAP3 SWAP1 DUP1 PUSH1 0x40 ADD SWAP1 PUSH1 0x2 DUP1 PUSH1 0x20 MUL PUSH1 0x40 MLOAD SWAP1 DUP2 ADD PUSH1 0x40 MSTORE DUP1 SWAP3 SWAP2 SWAP1 DUP3 PUSH1 0x2 PUSH1 0x20 MUL DUP1 DUP3 DUP5 CALLDATACOPY PUSH1 0x0 DUP2 DUP5 ADD MSTORE PUSH1 0x1F NOT PUSH1 0x1F DUP3 ADD AND SWAP1 POP DUP1 DUP4 ADD SWAP3 POP POP POP POP POP POP SWAP2 SWAP3 SWAP2 SWAP3 SWAP1 DUP1 CALLDATALOAD PUSH20 0xFFFFFFFFFFFFFFFFFFFFFFFFFFFFFFFFFFFFFFFF AND SWAP1 PUSH1 0x20 ADD SWAP1 SWAP3 SWAP2 SWAP1 POP POP POP PUSH2 0x229 JUMP JUMPDEST PUSH1 0x40 MLOAD DUP1 DUP3 ISZERO ISZERO ISZERO ISZERO DUP2 MSTORE PUSH1 0x20 ADD SWAP2 POP POP PUSH1 0x40 MLOAD DUP1 SWAP2 SUB SWAP1 RETURN JUMPDEST PUSH2 0x227 PUSH1 0x4 DUP1 CALLDATASIZE SUB PUSH1 0x80 DUP2 LT ISZERO PUSH2 0x1F3 JUMPI PUSH1 0x0 DUP1 REVERT JUMPDEST DUP2 ADD SWAP1 DUP1 DUP1 CALLDATALOAD SWAP1 PUSH1 0x20 ADD SWAP1 SWAP3 SWAP2 SWAP1 DUP1 CALLDATALOAD SWAP1 PUSH1 0x20 ADD SWAP1 SWAP3 SWAP2 SWAP1 DUP1 CALLDATALOAD SWAP1 PUSH1 0x20 ADD SWAP1 SWAP3 SWAP2 SWAP1 DUP1 CALLDATALOAD SWAP1 PUSH1 0x20 ADD SWAP1 SWAP3 SWAP2 SWAP1 POP POP POP PUSH2 0x444 JUMP JUMPDEST STOP JUMPDEST PUSH1 0x0 PUSH2 0x233 PUSH2 0xEEA JUMP JUMPDEST PUSH1 0x40 MLOAD DUP1 PUSH1 0xA0 ADD PUSH1 0x40 MSTORE DUP1 DUP10 DUP2 MSTORE PUSH1 0x20 ADD DUP9 DUP2 MSTORE PUSH1 0x20 ADD DUP8 DUP2 MSTORE PUSH1 0x20 ADD DUP7 DUP2 MSTORE PUSH1 0x20 ADD DUP6 DUP2 MSTORE POP SWAP1 POP PUSH1 0x0 PUSH2 0x2BE DUP3 PUSH1 0x20 ADD MLOAD PUSH1 0x0 PUSH1 0x2 DUP2 LT PUSH2 0x272 JUMPI INVALID JUMPDEST PUSH1 0x20 MUL ADD MLOAD DUP4 PUSH1 0x60 ADD MLOAD PUSH1 0x0 PUSH1 0x2 DUP2 LT PUSH2 0x288 JUMPI INVALID JUMPDEST PUSH1 0x20 MUL ADD MLOAD DUP5 PUSH1 0x80 ADD MLOAD PUSH1 0x0 PUSH1 0x2 DUP2 LT PUSH2 0x29E JUMPI INVALID JUMPDEST PUSH1 0x20 MUL ADD MLOAD DUP6 PUSH1 0x0 ADD MLOAD PUSH1 0x0 PUSH1 0x2 DUP2 LT PUSH2 0x2B4 JUMPI INVALID JUMPDEST PUSH1 0x20 MUL ADD MLOAD PUSH2 0x471 JUMP JUMPDEST SWAP1 POP PUSH1 0x0 PUSH2 0x322 DUP4 PUSH1 0x20 ADD MLOAD PUSH1 0x1 PUSH1 0x2 DUP2 LT PUSH2 0x2D6 JUMPI INVALID JUMPDEST PUSH1 0x20 MUL ADD MLOAD DUP5 PUSH1 0x80 ADD MLOAD PUSH1 0x1 PUSH1 0x2 DUP2 LT PUSH2 0x2EC JUMPI INVALID JUMPDEST PUSH1 0x20 MUL ADD MLOAD DUP6 PUSH1 0x60 ADD MLOAD PUSH1 0x1 PUSH1 0x2 DUP2 LT PUSH2 0x302 JUMPI INVALID JUMPDEST PUSH1 0x20 MUL ADD MLOAD DUP7 PUSH1 0x0 ADD MLOAD PUSH1 0x0 PUSH1 0x2 DUP2 LT PUSH2 0x318 JUMPI INVALID JUMPDEST PUSH1 0x20 MUL ADD MLOAD PUSH2 0x66D JUMP JUMPDEST SWAP1 POP PUSH1 0x0 PUSH2 0x386 DUP5 PUSH1 0x40 ADD MLOAD PUSH1 0x0 PUSH1 0x2 DUP2 LT PUSH2 0x33A JUMPI INVALID JUMPDEST PUSH1 0x20 MUL ADD MLOAD DUP6 PUSH1 0x60 ADD MLOAD PUSH1 0x0 PUSH1 0x2 DUP2 LT PUSH2 0x350 JUMPI INVALID JUMPDEST PUSH1 0x20 MUL ADD MLOAD DUP7 PUSH1 0x80 ADD MLOAD PUSH1 0x0 PUSH1 0x2 DUP2 LT PUSH2 0x366 JUMPI INVALID JUMPDEST PUSH1 0x20 MUL ADD MLOAD DUP8 PUSH1 0x0 ADD MLOAD PUSH1 0x1 PUSH1 0x2 DUP2 LT PUSH2 0x37C JUMPI INVALID JUMPDEST PUSH1 0x20 MUL ADD MLOAD PUSH2 0x869 JUMP JUMPDEST SWAP1 POP PUSH1 0x0 PUSH2 0x3EA DUP6 PUSH1 0x40 ADD MLOAD PUSH1 0x1 PUSH1 0x2 DUP2 LT PUSH2 0x39E JUMPI INVALID JUMPDEST PUSH1 0x20 MUL ADD MLOAD DUP7 PUSH1 0x60 ADD MLOAD PUSH1 0x1 PUSH1 0x2 DUP2 LT PUSH2 0x3B4 JUMPI INVALID JUMPDEST PUSH1 0x20 MUL ADD MLOAD DUP8 PUSH1 0x80 ADD MLOAD PUSH1 0x1 PUSH1 0x2 DUP2 LT PUSH2 0x3CA JUMPI INVALID JUMPDEST PUSH1 0x20 MUL ADD MLOAD DUP9 PUSH1 0x0 ADD MLOAD PUSH1 0x1 PUSH1 0x2 DUP2 LT PUSH2 0x3E0 JUMPI INVALID JUMPDEST PUSH1 0x20 MUL ADD MLOAD PUSH2 0xA65 JUMP JUMPDEST SWAP1 POP PUSH1 0x0 PUSH2 0x40B DUP7 PUSH1 0x20 ADD MLOAD DUP8 PUSH1 0x40 ADD MLOAD DUP9 PUSH1 0x60 ADD MLOAD DUP10 PUSH1 0x0 ADD MLOAD DUP13 PUSH2 0xD11 JUMP JUMPDEST SWAP1 POP DUP5 DUP1 ISZERO PUSH2 0x417 JUMPI POP DUP4 JUMPDEST DUP1 ISZERO PUSH2 0x420 JUMPI POP DUP3 JUMPDEST DUP1 ISZERO PUSH2 0x429 JUMPI POP DUP2 JUMPDEST DUP1 ISZERO PUSH2 0x432 JUMPI POP DUP1 JUMPDEST SWAP7 POP POP POP POP POP POP POP SWAP7 SWAP6 POP POP POP POP POP POP JUMP JUMPDEST DUP4 PUSH1 0x0 DUP1 ADD DUP2 SWAP1 SSTORE POP DUP3 PUSH1 0x0 PUSH1 0x1 ADD DUP2 SWAP1 SSTORE POP DUP2 PUSH1 0x0 PUSH1 0x2 ADD DUP2 SWAP1 SSTORE POP DUP1 PUSH1 0x0 PUSH1 0x3 ADD DUP2 SWAP1 SSTORE POP POP POP POP POP JUMP JUMPDEST PUSH1 0x0 DUP1 PUSH1 0x0 PUSH1 0x2 ADD SLOAD PUSH20 0x0 PUSH4 0xEDBE2FBD SWAP1 SWAP2 DUP7 PUSH1 0x0 DUP1 ADD SLOAD PUSH1 0x40 MLOAD DUP5 PUSH4 0xFFFFFFFF AND PUSH1 0xE0 SHL DUP2 MSTORE PUSH1 0x4 ADD DUP1 DUP5 DUP2 MSTORE PUSH1 0x20 ADD DUP4 DUP2 MSTORE PUSH1 0x20 ADD DUP3 DUP2 MSTORE PUSH1 0x20 ADD SWAP4 POP POP POP POP PUSH1 0x20 PUSH1 0x40 MLOAD DUP1 DUP4 SUB DUP2 DUP7 DUP1 EXTCODESIZE ISZERO DUP1 ISZERO PUSH2 0x4DE JUMPI PUSH1 0x0 DUP1 REVERT JUMPDEST POP GAS DELEGATECALL ISZERO DUP1 ISZERO PUSH2 0x4F2 JUMPI RETURNDATASIZE PUSH1 0x0 DUP1 RETURNDATACOPY RETURNDATASIZE PUSH1 0x0 REVERT JUMPDEST POP POP POP POP PUSH1 0x40 MLOAD RETURNDATASIZE PUSH1 0x20 DUP2 LT ISZERO PUSH2 0x508 JUMPI PUSH1 0x0 DUP1 REVERT JUMPDEST DUP2 ADD SWAP1 DUP1 DUP1 MLOAD SWAP1 PUSH1 0x20 ADD SWAP1 SWAP3 SWAP2 SWAP1 POP POP POP SWAP1 POP PUSH1 0x0 DUP7 PUSH20 0x0 PUSH4 0xE616559E SWAP1 SWAP2 DUP7 PUSH20 0x0 PUSH4 0xEDBE2FBD SWAP1 SWAP2 DUP12 PUSH1 0x0 DUP1 ADD SLOAD PUSH1 0x40 MLOAD DUP5 PUSH4 0xFFFFFFFF AND PUSH1 0xE0 SHL DUP2 MSTORE PUSH1 0x4 ADD DUP1 DUP5 DUP2 MSTORE PUSH1 0x20 ADD DUP4 DUP2 MSTORE PUSH1 0x20 ADD DUP3 DUP2 MSTORE PUSH1 0x20 ADD SWAP4 POP POP POP POP PUSH1 0x20 PUSH1 0x40 MLOAD DUP1 DUP4 SUB DUP2 DUP7 DUP1 EXTCODESIZE ISZERO DUP1 ISZERO PUSH2 0x59F JUMPI PUSH1 0x0 DUP1 REVERT JUMPDEST POP GAS DELEGATECALL ISZERO DUP1 ISZERO PUSH2 0x5B3 JUMPI RETURNDATASIZE PUSH1 0x0 DUP1 RETURNDATACOPY RETURNDATASIZE PUSH1 0x0 REVERT JUMPDEST POP POP POP POP PUSH1 0x40 MLOAD RETURNDATASIZE PUSH1 0x20 DUP2 LT ISZERO PUSH2 0x5C9 JUMPI PUSH1 0x0 DUP1 REVERT JUMPDEST DUP2 ADD SWAP1 DUP1 DUP1 MLOAD SWAP1 PUSH1 0x20 ADD SWAP1 SWAP3 SWAP2 SWAP1 POP POP POP PUSH1 0x0 DUP1 ADD SLOAD PUSH1 0x40 MLOAD DUP5 PUSH4 0xFFFFFFFF AND PUSH1 0xE0 SHL DUP2 MSTORE PUSH1 0x4 ADD DUP1 DUP5 DUP2 MSTORE PUSH1 0x20 ADD DUP4 DUP2 MSTORE PUSH1 0x20 ADD DUP3 DUP2 MSTORE PUSH1 0x20 ADD SWAP4 POP POP POP POP PUSH1 0x20 PUSH1 0x40 MLOAD DUP1 DUP4 SUB DUP2 DUP7 DUP1 EXTCODESIZE ISZERO DUP1 ISZERO PUSH2 0x621 JUMPI PUSH1 0x0 DUP1 REVERT JUMPDEST POP GAS DELEGATECALL ISZERO DUP1 ISZERO PUSH2 0x635 JUMPI RETURNDATASIZE PUSH1 0x0 DUP1 RETURNDATACOPY RETURNDATASIZE PUSH1 0x0 REVERT JUMPDEST POP POP POP POP PUSH1 0x40 MLOAD RETURNDATASIZE PUSH1 0x20 DUP2 LT ISZERO PUSH2 0x64B JUMPI PUSH1 0x0 DUP1 REVERT JUMPDEST DUP2 ADD SWAP1 DUP1 DUP1 MLOAD SWAP1 PUSH1 0x20 ADD SWAP1 SWAP3 SWAP2 SWAP1 POP POP POP SWAP1 POP DUP1 DUP3 EQ SWAP3 POP POP POP SWAP5 SWAP4 POP POP POP POP JUMP JUMPDEST PUSH1 0x0 DUP1 PUSH1 0x0 PUSH1 0x2 ADD SLOAD PUSH20 0x0 PUSH4 0xEDBE2FBD SWAP1 SWAP2 DUP8 PUSH1 0x0 DUP1 ADD SLOAD PUSH1 0x40 MLOAD DUP5 PUSH4 0xFFFFFFFF AND PUSH1 0xE0 SHL DUP2 MSTORE PUSH1 0x4 ADD DUP1 DUP5 DUP2 MSTORE PUSH1 0x20 ADD DUP4 DUP2 MSTORE PUSH1 0x20 ADD DUP3 DUP2 MSTORE PUSH1 0x20 ADD SWAP4 POP POP POP POP PUSH1 0x20 PUSH1 0x40 MLOAD DUP1 DUP4 SUB DUP2 DUP7 DUP1 EXTCODESIZE ISZERO DUP1 ISZERO PUSH2 0x6DA JUMPI PUSH1 0x0 DUP1 REVERT JUMPDEST POP GAS DELEGATECALL ISZERO DUP1 ISZERO PUSH2 0x6EE JUMPI RETURNDATASIZE PUSH1 0x0 DUP1 RETURNDATACOPY RETURNDATASIZE PUSH1 0x0 REVERT JUMPDEST POP POP POP POP PUSH1 0x40 MLOAD RETURNDATASIZE PUSH1 0x20 DUP2 LT ISZERO PUSH2 0x704 JUMPI PUSH1 0x0 DUP1 REVERT JUMPDEST DUP2 ADD SWAP1 DUP1 DUP1 MLOAD SWAP1 PUSH1 0x20 ADD SWAP1 SWAP3 SWAP2 SWAP1 POP POP POP SWAP1 POP PUSH1 0x0 DUP7 PUSH20 0x0 PUSH4 0xE616559E SWAP1 SWAP2 DUP7 PUSH20 0x0 PUSH4 0xEDBE2FBD SWAP1 SWAP2 DUP11 PUSH1 0x0 DUP1 ADD SLOAD PUSH1 0x40 MLOAD DUP5 PUSH4 0xFFFFFFFF AND PUSH1 0xE0 SHL DUP2 MSTORE PUSH1 0x4 ADD DUP1 DUP5 DUP2 MSTORE PUSH1 0x20 ADD DUP4 DUP2 MSTORE PUSH1 0x20 ADD DUP3 DUP2 MSTORE PUSH1 0x20 ADD SWAP4 POP POP POP POP PUSH1 0x20 PUSH1 0x40 MLOAD DUP1 DUP4 SUB DUP2 DUP7 DUP1 EXTCODESIZE ISZERO DUP1 ISZERO PUSH2 0x79B JUMPI PUSH1 0x0 DUP1 REVERT JUMPDEST POP GAS DELEGATECALL ISZERO DUP1 ISZERO PUSH2 0x7AF JUMPI RETURNDATASIZE PUSH1 0x0 DUP1 RETURNDATACOPY RETURNDATASIZE PUSH1 0x0 REVERT JUMPDEST POP POP POP POP PUSH1 0x40 MLOAD RETURNDATASIZE PUSH1 0x20 DUP2 LT ISZERO PUSH2 0x7C5 JUMPI PUSH1 0x0 DUP1 REVERT JUMPDEST DUP2 ADD SWAP1 DUP1 DUP1 MLOAD SWAP1 PUSH1 0x20 ADD SWAP1 SWAP3 SWAP2 SWAP1 POP POP POP PUSH1 0x0 DUP1 ADD SLOAD PUSH1 0x40 MLOAD DUP5 PUSH4 0xFFFFFFFF AND PUSH1 0xE0 SHL DUP2 MSTORE PUSH1 0x4 ADD DUP1 DUP5 DUP2 MSTORE PUSH1 0x20 ADD DUP4 DUP2 MSTORE PUSH1 0x20 ADD DUP3 DUP2 MSTORE PUSH1 0x20 ADD SWAP4 POP POP POP POP PUSH1 0x20 PUSH1 0x40 MLOAD DUP1 DUP4 SUB DUP2 DUP7 DUP1 EXTCODESIZE ISZERO DUP1 ISZERO PUSH2 0x81D JUMPI PUSH1 0x0 DUP1 REVERT JUMPDEST POP GAS DELEGATECALL ISZERO DUP1 ISZERO PUSH2 0x831 JUMPI RETURNDATASIZE PUSH1 0x0 DUP1 RETURNDATACOPY RETURNDATASIZE PUSH1 0x0 REVERT JUMPDEST POP POP POP POP PUSH1 0x40 MLOAD RETURNDATASIZE PUSH1 0x20 DUP2 LT ISZERO PUSH2 0x847 JUMPI PUSH1 0x0 DUP1 REVERT JUMPDEST DUP2 ADD SWAP1 DUP1 DUP1 MLOAD SWAP1 PUSH1 0x20 ADD SWAP1 SWAP3 SWAP2 SWAP1 POP POP POP SWAP1 POP DUP1 DUP3 EQ SWAP3 POP POP POP SWAP5 SWAP4 POP POP POP POP JUMP JUMPDEST PUSH1 0x0 DUP1 PUSH1 0x0 PUSH1 0x3 ADD SLOAD PUSH20 0x0 PUSH4 0xEDBE2FBD SWAP1 SWAP2 DUP7 PUSH1 0x0 DUP1 ADD SLOAD PUSH1 0x40 MLOAD DUP5 PUSH4 0xFFFFFFFF AND PUSH1 0xE0 SHL DUP2 MSTORE PUSH1 0x4 ADD DUP1 DUP5 DUP2 MSTORE PUSH1 0x20 ADD DUP4 DUP2 MSTORE PUSH1 0x20 ADD DUP3 DUP2 MSTORE PUSH1 0x20 ADD SWAP4 POP POP POP POP PUSH1 0x20 PUSH1 0x40 MLOAD DUP1 DUP4 SUB DUP2 DUP7 DUP1 EXTCODESIZE ISZERO DUP1 ISZERO PUSH2 0x8D6 JUMPI PUSH1 0x0 DUP1 REVERT JUMPDEST POP GAS DELEGATECALL ISZERO DUP1 ISZERO PUSH2 0x8EA JUMPI RETURNDATASIZE PUSH1 0x0 DUP1 RETURNDATACOPY RETURNDATASIZE PUSH1 0x0 REVERT JUMPDEST POP POP POP POP PUSH1 0x40 MLOAD RETURNDATASIZE PUSH1 0x20 DUP2 LT ISZERO PUSH2 0x900 JUMPI PUSH1 0x0 DUP1 REVERT JUMPDEST DUP2 ADD SWAP1 DUP1 DUP1 MLOAD SWAP1 PUSH1 0x20 ADD SWAP1 SWAP3 SWAP2 SWAP1 POP POP POP SWAP1 POP PUSH1 0x0 DUP7 PUSH20 0x0 PUSH4 0xE616559E SWAP1 SWAP2 DUP7 PUSH20 0x0 PUSH4 0xEDBE2FBD SWAP1 SWAP2 DUP12 PUSH1 0x0 DUP1 ADD SLOAD PUSH1 0x40 MLOAD DUP5 PUSH4 0xFFFFFFFF AND PUSH1 0xE0 SHL DUP2 MSTORE PUSH1 0x4 ADD DUP1 DUP5 DUP2 MSTORE PUSH1 0x20 ADD DUP4 DUP2 MSTORE PUSH1 0x20 ADD DUP3 DUP2 MSTORE PUSH1 0x20 ADD SWAP4 POP POP POP POP PUSH1 0x20 PUSH1 0x40 MLOAD DUP1 DUP4 SUB DUP2 DUP7 DUP1 EXTCODESIZE ISZERO DUP1 ISZERO PUSH2 0x997 JUMPI PUSH1 0x0 DUP1 REVERT JUMPDEST POP GAS DELEGATECALL ISZERO DUP1 ISZERO PUSH2 0x9AB JUMPI RETURNDATASIZE PUSH1 0x0 DUP1 RETURNDATACOPY RETURNDATASIZE PUSH1 0x0 REVERT JUMPDEST POP POP POP POP PUSH1 0x40 MLOAD RETURNDATASIZE PUSH1 0x20 DUP2 LT ISZERO PUSH2 0x9C1 JUMPI PUSH1 0x0 DUP1 REVERT JUMPDEST DUP2 ADD SWAP1 DUP1 DUP1 MLOAD SWAP1 PUSH1 0x20 ADD SWAP1 SWAP3 SWAP2 SWAP1 POP POP POP PUSH1 0x0 DUP1 ADD SLOAD PUSH1 0x40 MLOAD DUP5 PUSH4 0xFFFFFFFF AND PUSH1 0xE0 SHL DUP2 MSTORE PUSH1 0x4 ADD DUP1 DUP5 DUP2 MSTORE PUSH1 0x20 ADD DUP4 DUP2 MSTORE PUSH1 0x20 ADD DUP3 DUP2 MSTORE PUSH1 0x20 ADD SWAP4 POP POP POP POP PUSH1 0x20 PUSH1 0x40 MLOAD DUP1 DUP4 SUB DUP2 DUP7 DUP1 EXTCODESIZE ISZERO DUP1 ISZERO PUSH2 0xA19 JUMPI PUSH1 0x0 DUP1 REVERT JUMPDEST POP GAS DELEGATECALL ISZERO DUP1 ISZERO PUSH2 0xA2D JUMPI RETURNDATASIZE PUSH1 0x0 DUP1 RETURNDATACOPY RETURNDATASIZE PUSH1 0x0 REVERT JUMPDEST POP POP POP POP PUSH1 0x40 MLOAD RETURNDATASIZE PUSH1 0x20 DUP2 LT ISZERO PUSH2 0xA43 JUMPI PUSH1 0x0 DUP1 REVERT JUMPDEST DUP2 ADD SWAP1 DUP1 DUP1 MLOAD SWAP1 PUSH1 0x20 ADD SWAP1 SWAP3 SWAP2 SWAP1 POP POP POP SWAP1 POP DUP1 DUP3 EQ SWAP3 POP POP POP SWAP5 SWAP4 POP POP POP POP JUMP JUMPDEST PUSH1 0x0 DUP1 PUSH1 0x0 PUSH1 0x3 ADD SLOAD PUSH20 0x0 PUSH4 0xEDBE2FBD SWAP1 SWAP2 DUP7 PUSH1 0x0 DUP1 ADD SLOAD PUSH1 0x40 MLOAD DUP5 PUSH4 0xFFFFFFFF AND PUSH1 0xE0 SHL DUP2 MSTORE PUSH1 0x4 ADD DUP1 DUP5 DUP2 MSTORE PUSH1 0x20 ADD DUP4 DUP2 MSTORE PUSH1 0x20 ADD DUP3 DUP2 MSTORE PUSH1 0x20 ADD SWAP4 POP POP POP POP PUSH1 0x20 PUSH1 0x40 MLOAD DUP1 DUP4 SUB DUP2 DUP7 DUP1 EXTCODESIZE ISZERO DUP1 ISZERO PUSH2 0xAD2 JUMPI PUSH1 0x0 DUP1 REVERT JUMPDEST POP GAS DELEGATECALL ISZERO DUP1 ISZERO PUSH2 0xAE6 JUMPI RETURNDATASIZE PUSH1 0x0 DUP1 RETURNDATACOPY RETURNDATASIZE PUSH1 0x0 REVERT JUMPDEST POP POP POP POP PUSH1 0x40 MLOAD RETURNDATASIZE PUSH1 0x20 DUP2 LT ISZERO PUSH2 0xAFC JUMPI PUSH1 0x0 DUP1 REVERT JUMPDEST DUP2 ADD SWAP1 DUP1 DUP1 MLOAD SWAP1 PUSH1 0x20 ADD SWAP1 SWAP3 SWAP2 SWAP1 POP POP POP SWAP1 POP PUSH1 0x0 DUP4 PUSH20 0x0 PUSH4 0x6378BD6C SWAP1 SWAP2 PUSH1 0x0 PUSH1 0x2 ADD SLOAD PUSH1 0x0 DUP1 ADD SLOAD PUSH1 0x40 MLOAD DUP5 PUSH4 0xFFFFFFFF AND PUSH1 0xE0 SHL DUP2 MSTORE PUSH1 0x4 ADD DUP1 DUP5 DUP2 MSTORE PUSH1 0x20 ADD DUP4 DUP2 MSTORE PUSH1 0x20 ADD DUP3 DUP2 MSTORE PUSH1 0x20 ADD SWAP4 POP POP POP POP PUSH1 0x20 PUSH1 0x40 MLOAD DUP1 DUP4 SUB DUP2 DUP7 DUP1 EXTCODESIZE ISZERO DUP1 ISZERO PUSH2 0xB7B JUMPI PUSH1 0x0 DUP1 REVERT JUMPDEST POP GAS DELEGATECALL ISZERO DUP1 ISZERO PUSH2 0xB8F JUMPI RETURNDATASIZE PUSH1 0x0 DUP1 RETURNDATACOPY RETURNDATASIZE PUSH1 0x0 REVERT JUMPDEST POP POP POP POP PUSH1 0x40 MLOAD RETURNDATASIZE PUSH1 0x20 DUP2 LT ISZERO PUSH2 0xBA5 JUMPI PUSH1 0x0 DUP1 REVERT JUMPDEST DUP2 ADD SWAP1 DUP1 DUP1 MLOAD SWAP1 PUSH1 0x20 ADD SWAP1 SWAP3 SWAP2 SWAP1 POP POP POP SWAP1 POP PUSH1 0x0 DUP2 PUSH20 0x0 PUSH4 0xEDBE2FBD SWAP1 SWAP2 DUP10 PUSH1 0x0 DUP1 ADD SLOAD PUSH1 0x40 MLOAD DUP5 PUSH4 0xFFFFFFFF AND PUSH1 0xE0 SHL DUP2 MSTORE PUSH1 0x4 ADD DUP1 DUP5 DUP2 MSTORE PUSH1 0x20 ADD DUP4 DUP2 MSTORE PUSH1 0x20 ADD DUP3 DUP2 MSTORE PUSH1 0x20 ADD SWAP4 POP POP POP POP PUSH1 0x20 PUSH1 0x40 MLOAD DUP1 DUP4 SUB DUP2 DUP7 DUP1 EXTCODESIZE ISZERO DUP1 ISZERO PUSH2 0xC1F JUMPI PUSH1 0x0 DUP1 REVERT JUMPDEST POP GAS DELEGATECALL ISZERO DUP1 ISZERO PUSH2 0xC33 JUMPI RETURNDATASIZE PUSH1 0x0 DUP1 RETURNDATACOPY RETURNDATASIZE PUSH1 0x0 REVERT JUMPDEST POP POP POP POP PUSH1 0x40 MLOAD RETURNDATASIZE PUSH1 0x20 DUP2 LT ISZERO PUSH2 0xC49 JUMPI PUSH1 0x0 DUP1 REVERT JUMPDEST DUP2 ADD SWAP1 DUP1 DUP1 MLOAD SWAP1 PUSH1 0x20 ADD SWAP1 SWAP3 SWAP2 SWAP1 POP POP POP SWAP1 POP PUSH1 0x0 DUP9 PUSH20 0x0 PUSH4 0xE616559E SWAP1 SWAP2 DUP5 PUSH1 0x0 DUP1 ADD SLOAD PUSH1 0x40 MLOAD DUP5 PUSH4 0xFFFFFFFF AND PUSH1 0xE0 SHL DUP2 MSTORE PUSH1 0x4 ADD DUP1 DUP5 DUP2 MSTORE PUSH1 0x20 ADD DUP4 DUP2 MSTORE PUSH1 0x20 ADD DUP3 DUP2 MSTORE PUSH1 0x20 ADD SWAP4 POP POP POP POP PUSH1 0x20 PUSH1 0x40 MLOAD DUP1 DUP4 SUB DUP2 DUP7 DUP1 EXTCODESIZE ISZERO DUP1 ISZERO PUSH2 0xCC3 JUMPI PUSH1 0x0 DUP1 REVERT JUMPDEST POP GAS DELEGATECALL ISZERO DUP1 ISZERO PUSH2 0xCD7 JUMPI RETURNDATASIZE PUSH1 0x0 DUP1 RETURNDATACOPY RETURNDATASIZE PUSH1 0x0 REVERT JUMPDEST POP POP POP POP PUSH1 0x40 MLOAD RETURNDATASIZE PUSH1 0x20 DUP2 LT ISZERO PUSH2 0xCED JUMPI PUSH1 0x0 DUP1 REVERT JUMPDEST DUP2 ADD SWAP1 DUP1 DUP1 MLOAD SWAP1 PUSH1 0x20 ADD SWAP1 SWAP3 SWAP2 SWAP1 POP POP POP SWAP1 POP DUP1 DUP5 EQ SWAP5 POP POP POP POP POP SWAP5 SWAP4 POP POP POP POP JUMP JUMPDEST PUSH1 0x0 DUP1 DUP5 PUSH1 0x1 PUSH1 0x2 DUP2 LT PUSH2 0xD21 JUMPI INVALID JUMPDEST PUSH1 0x20 MUL ADD MLOAD PUSH20 0x0 PUSH4 0xA2F0DC8D SWAP1 SWAP2 DUP8 PUSH1 0x0 PUSH1 0x2 DUP2 LT PUSH2 0xD4F JUMPI INVALID JUMPDEST PUSH1 0x20 MUL ADD MLOAD PUSH1 0x0 PUSH1 0x1 ADD SLOAD PUSH1 0x40 MLOAD DUP5 PUSH4 0xFFFFFFFF AND PUSH1 0xE0 SHL DUP2 MSTORE PUSH1 0x4 ADD DUP1 DUP5 DUP2 MSTORE PUSH1 0x20 ADD DUP4 DUP2 MSTORE PUSH1 0x20 ADD DUP3 DUP2 MSTORE PUSH1 0x20 ADD SWAP4 POP POP POP POP PUSH1 0x20 PUSH1 0x40 MLOAD DUP1 DUP4 SUB DUP2 DUP7 DUP1 EXTCODESIZE ISZERO DUP1 ISZERO PUSH2 0xD9C JUMPI PUSH1 0x0 DUP1 REVERT JUMPDEST POP GAS DELEGATECALL ISZERO DUP1 ISZERO PUSH2 0xDB0 JUMPI RETURNDATASIZE PUSH1 0x0 DUP1 RETURNDATACOPY RETURNDATASIZE PUSH1 0x0 REVERT JUMPDEST POP POP POP POP PUSH1 0x40 MLOAD RETURNDATASIZE PUSH1 0x20 DUP2 LT ISZERO PUSH2 0xDC6 JUMPI PUSH1 0x0 DUP1 REVERT JUMPDEST DUP2 ADD SWAP1 DUP1 DUP1 MLOAD SWAP1 PUSH1 0x20 ADD SWAP1 SWAP3 SWAP2 SWAP1 POP POP POP SWAP1 POP PUSH1 0x0 DUP4 DUP6 PUSH1 0x0 PUSH1 0x2 DUP2 LT PUSH2 0xDE9 JUMPI INVALID JUMPDEST PUSH1 0x20 MUL ADD MLOAD DUP7 PUSH1 0x1 PUSH1 0x2 DUP2 LT PUSH2 0xDFB JUMPI INVALID JUMPDEST PUSH1 0x20 MUL ADD MLOAD DUP11 PUSH1 0x0 PUSH1 0x2 DUP2 LT PUSH2 0xE0D JUMPI INVALID JUMPDEST PUSH1 0x20 MUL ADD MLOAD DUP11 PUSH1 0x0 PUSH1 0x2 DUP2 LT PUSH2 0xE1F JUMPI INVALID JUMPDEST PUSH1 0x20 MUL ADD MLOAD DUP13 PUSH1 0x1 PUSH1 0x2 DUP2 LT PUSH2 0xE31 JUMPI INVALID JUMPDEST PUSH1 0x20 MUL ADD MLOAD DUP13 PUSH1 0x1 PUSH1 0x2 DUP2 LT PUSH2 0xE43 JUMPI INVALID JUMPDEST PUSH1 0x20 MUL ADD MLOAD PUSH1 0x40 MLOAD PUSH1 0x20 ADD DUP1 DUP9 PUSH20 0xFFFFFFFFFFFFFFFFFFFFFFFFFFFFFFFFFFFFFFFF AND PUSH20 0xFFFFFFFFFFFFFFFFFFFFFFFFFFFFFFFFFFFFFFFF AND PUSH1 0x60 SHL DUP2 MSTORE PUSH1 0x14 ADD DUP8 DUP2 MSTORE PUSH1 0x20 ADD DUP7 DUP2 MSTORE PUSH1 0x20 ADD DUP6 DUP2 MSTORE PUSH1 0x20 ADD DUP5 DUP2 MSTORE PUSH1 0x20 ADD DUP4 DUP2 MSTORE PUSH1 0x20 ADD DUP3 DUP2 MSTORE PUSH1 0x20 ADD SWAP8 POP POP POP POP POP POP POP POP PUSH1 0x40 MLOAD PUSH1 0x20 DUP2 DUP4 SUB SUB DUP2 MSTORE SWAP1 PUSH1 0x40 MSTORE DUP1 MLOAD SWAP1 PUSH1 0x20 ADD KECCAK256 SWAP1 POP PUSH1 0x0 PUSH1 0x1 ADD SLOAD DUP2 PUSH1 0x0 SHR DUP2 PUSH2 0xEDA JUMPI INVALID JUMPDEST MOD DUP3 EQ SWAP3 POP POP POP SWAP6 SWAP5 POP POP POP POP POP JUMP JUMPDEST PUSH1 0x40 MLOAD DUP1 PUSH1 0xA0 ADD PUSH1 0x40 MSTORE DUP1 PUSH2 0xEFD PUSH2 0xF37 JUMP JUMPDEST DUP2 MSTORE PUSH1 0x20 ADD PUSH2 0xF0A PUSH2 0xF37 JUMP JUMPDEST DUP2 MSTORE PUSH1 0x20 ADD PUSH2 0xF17 PUSH2 0xF37 JUMP JUMPDEST DUP2 MSTORE PUSH1 0x20 ADD PUSH2 0xF24 PUSH2 0xF37 JUMP JUMPDEST DUP2 MSTORE PUSH1 0x20 ADD PUSH2 0xF31 PUSH2 0xF37 JUMP JUMPDEST DUP2 MSTORE POP SWAP1 JUMP JUMPDEST PUSH1 0x40 MLOAD DUP1 PUSH1 0x40 ADD PUSH1 0x40 MSTORE DUP1 PUSH1 0x2 SWAP1 PUSH1 0x20 DUP3 MUL DUP1 CODESIZE DUP4 CODECOPY DUP1 DUP3 ADD SWAP2 POP POP SWAP1 POP POP SWAP1 JUMP INVALID LOG2 PUSH6 0x627A7A723158 KECCAK256 SDIV MSIZE SWAP9 SWAP4 SDIV 0xC3 0xCC TIMESTAMP POP 0x2F TIMESTAMP DUP3 SMOD 0xB8 0x4D DUP16 0xD9 SWAP8 0xEB SMOD 0xE1 DUP8 CALLDATACOPY SWAP8 CALLDATACOPY 0x2A DUP4 0xE 0x4E SHL 0xE8 0xD4 PUSH5 0x736F6C6343 STOP SDIV 0xD STOP ORIGIN PUSH1 0x80 PUSH1 0x40 MSTORE CALLVALUE DUP1 ISZERO PUSH2 0x10 JUMPI PUSH1 0x0 DUP1 REVERT JUMPDEST POP PUSH1 0x40 MLOAD DUP1 PUSH1 0x80 ADD PUSH1 0x40 MSTORE DUP1 PUSH1 0x0 DUP2 MSTORE PUSH1 0x20 ADD PUSH1 0x0 DUP2 MSTORE PUSH1 0x20 ADD PUSH1 0x0 DUP2 MSTORE PUSH1 0x20 ADD PUSH1 0x0 DUP2 MSTORE POP PUSH1 0x0 DUP1 DUP3 ADD MLOAD DUP2 PUSH1 0x0 ADD SSTORE PUSH1 0x20 DUP3 ADD MLOAD DUP2 PUSH1 0x1 ADD SSTORE PUSH1 0x40 DUP3 ADD MLOAD DUP2 PUSH1 0x2 ADD SSTORE PUSH1 0x60 DUP3 ADD MLOAD DUP2 PUSH1 0x3 ADD SSTORE SWAP1 POP POP PUSH2 0x6CF DUP1 PUSH2 0x71 PUSH1 0x0 CODECOPY PUSH1 0x0 RETURN INVALID PUSH1 0x80 PUSH1 0x40 MSTORE PUSH1 0x4 CALLDATASIZE LT PUSH2 0x29 JUMPI PUSH1 0x0 CALLDATALOAD PUSH1 0xE0 SHR DUP1 PUSH4 0x60A2DA44 EQ PUSH2 0x2E JUMPI DUP1 PUSH4 0xB6B81A26 EQ PUSH2 0x7A JUMPI JUMPDEST PUSH1 0x0 DUP1 REVERT JUMPDEST PUSH2 0x78 PUSH1 0x4 DUP1 CALLDATASIZE SUB PUSH1 0x80 DUP2 LT ISZERO PUSH2 0x44 JUMPI PUSH1 0x0 DUP1 REVERT JUMPDEST DUP2 ADD SWAP1 DUP1 DUP1 CALLDATALOAD SWAP1 PUSH1 0x20 ADD SWAP1 SWAP3 SWAP2 SWAP1 DUP1 CALLDATALOAD SWAP1 PUSH1 0x20 ADD SWAP1 SWAP3 SWAP2 SWAP1 DUP1 CALLDATALOAD SWAP1 PUSH1 0x20 ADD SWAP1 SWAP3 SWAP2 SWAP1 DUP1 CALLDATALOAD SWAP1 PUSH1 0x20 ADD SWAP1 SWAP3 SWAP2 SWAP1 POP POP POP PUSH2 0x12A JUMP JUMPDEST STOP JUMPDEST CALLVALUE DUP1 ISZERO PUSH2 0x86 JUMPI PUSH1 0x0 DUP1 REVERT JUMPDEST POP PUSH2 0x110 PUSH1 0x4 DUP1 CALLDATASIZE SUB PUSH2 0x100 DUP2 LT ISZERO PUSH2 0x9E JUMPI PUSH1 0x0 DUP1 REVERT JUMPDEST DUP2 ADD SWAP1 DUP1 DUP1 CALLDATALOAD SWAP1 PUSH1 0x20 ADD SWAP1 SWAP3 SWAP2 SWAP1 DUP1 CALLDATALOAD SWAP1 PUSH1 0x20 ADD SWAP1 SWAP3 SWAP2 SWAP1 DUP1 CALLDATALOAD SWAP1 PUSH1 0x20 ADD SWAP1 SWAP3 SWAP2 SWAP1 DUP1 CALLDATALOAD SWAP1 PUSH1 0x20 ADD SWAP1 SWAP3 SWAP2 SWAP1 DUP1 CALLDATALOAD SWAP1 PUSH1 0x20 ADD SWAP1 SWAP3 SWAP2 SWAP1 DUP1 CALLDATALOAD SWAP1 PUSH1 0x20 ADD SWAP1 SWAP3 SWAP2 SWAP1 DUP1 CALLDATALOAD PUSH20 0xFFFFFFFFFFFFFFFFFFFFFFFFFFFFFFFFFFFFFFFF AND SWAP1 PUSH1 0x20 ADD SWAP1 SWAP3 SWAP2 SWAP1 DUP1 CALLDATALOAD SWAP1 PUSH1 0x20 ADD SWAP1 SWAP3 SWAP2 SWAP1 POP POP POP PUSH2 0x157 JUMP JUMPDEST PUSH1 0x40 MLOAD DUP1 DUP3 ISZERO ISZERO ISZERO ISZERO DUP2 MSTORE PUSH1 0x20 ADD SWAP2 POP POP PUSH1 0x40 MLOAD DUP1 SWAP2 SUB SWAP1 RETURN JUMPDEST DUP4 PUSH1 0x0 DUP1 ADD DUP2 SWAP1 SSTORE POP DUP3 PUSH1 0x0 PUSH1 0x1 ADD DUP2 SWAP1 SSTORE POP DUP2 PUSH1 0x0 PUSH1 0x2 ADD DUP2 SWAP1 SSTORE POP DUP1 PUSH1 0x0 PUSH1 0x3 ADD DUP2 SWAP1 SSTORE POP POP POP POP POP JUMP JUMPDEST PUSH1 0x0 PUSH2 0x161 PUSH2 0x664 JUMP JUMPDEST PUSH1 0x40 MLOAD DUP1 PUSH1 0xC0 ADD PUSH1 0x40 MSTORE DUP1 DUP12 DUP2 MSTORE PUSH1 0x20 ADD DUP11 DUP2 MSTORE PUSH1 0x20 ADD DUP10 DUP2 MSTORE PUSH1 0x20 ADD DUP9 DUP2 MSTORE PUSH1 0x20 ADD DUP8 DUP2 MSTORE PUSH1 0x20 ADD DUP7 DUP2 MSTORE POP SWAP1 POP PUSH1 0x0 PUSH2 0x1B5 DUP3 PUSH1 0x0 ADD MLOAD DUP4 PUSH1 0x20 ADD MLOAD DUP5 PUSH1 0x40 ADD MLOAD DUP6 PUSH1 0x60 ADD MLOAD DUP10 PUSH1 0x0 PUSH1 0x1 ADD SLOAD PUSH2 0x5CF JUMP JUMPDEST SWAP1 POP PUSH1 0x0 DUP3 PUSH1 0x0 ADD MLOAD PUSH20 0x0 PUSH4 0xEDBE2FBD SWAP1 SWAP2 DUP6 PUSH1 0xA0 ADD MLOAD PUSH1 0x0 DUP1 ADD SLOAD PUSH1 0x40 MLOAD DUP5 PUSH4 0xFFFFFFFF AND PUSH1 0xE0 SHL DUP2 MSTORE PUSH1 0x4 ADD DUP1 DUP5 DUP2 MSTORE PUSH1 0x20 ADD DUP4 DUP2 MSTORE PUSH1 0x20 ADD DUP3 DUP2 MSTORE PUSH1 0x20 ADD SWAP4 POP POP POP POP PUSH1 0x20 PUSH1 0x40 MLOAD DUP1 DUP4 SUB DUP2 DUP7 DUP1 EXTCODESIZE ISZERO DUP1 ISZERO PUSH2 0x226 JUMPI PUSH1 0x0 DUP1 REVERT JUMPDEST POP GAS DELEGATECALL ISZERO DUP1 ISZERO PUSH2 0x23A JUMPI RETURNDATASIZE PUSH1 0x0 DUP1 RETURNDATACOPY RETURNDATASIZE PUSH1 0x0 REVERT JUMPDEST POP POP POP POP PUSH1 0x40 MLOAD RETURNDATASIZE PUSH1 0x20 DUP2 LT ISZERO PUSH2 0x250 JUMPI PUSH1 0x0 DUP1 REVERT JUMPDEST DUP2 ADD SWAP1 DUP1 DUP1 MLOAD SWAP1 PUSH1 0x20 ADD SWAP1 SWAP3 SWAP2 SWAP1 POP POP POP SWAP1 POP PUSH1 0x0 DUP4 PUSH1 0x40 ADD MLOAD PUSH20 0x0 PUSH4 0xE616559E SWAP1 SWAP2 DUP7 PUSH1 0x80 ADD MLOAD PUSH20 0x0 PUSH4 0xEDBE2FBD SWAP1 SWAP2 DUP9 PUSH1 0x0 DUP1 ADD SLOAD PUSH1 0x40 MLOAD DUP5 PUSH4 0xFFFFFFFF AND PUSH1 0xE0 SHL DUP2 MSTORE PUSH1 0x4 ADD DUP1 DUP5 DUP2 MSTORE PUSH1 0x20 ADD DUP4 DUP2 MSTORE PUSH1 0x20 ADD DUP3 DUP2 MSTORE PUSH1 0x20 ADD SWAP4 POP POP POP POP PUSH1 0x20 PUSH1 0x40 MLOAD DUP1 DUP4 SUB DUP2 DUP7 DUP1 EXTCODESIZE ISZERO DUP1 ISZERO PUSH2 0x2EF JUMPI PUSH1 0x0 DUP1 REVERT JUMPDEST POP GAS DELEGATECALL ISZERO DUP1 ISZERO PUSH2 0x303 JUMPI RETURNDATASIZE PUSH1 0x0 DUP1 RETURNDATACOPY RETURNDATASIZE PUSH1 0x0 REVERT JUMPDEST POP POP POP POP PUSH1 0x40 MLOAD RETURNDATASIZE PUSH1 0x20 DUP2 LT ISZERO PUSH2 0x319 JUMPI PUSH1 0x0 DUP1 REVERT JUMPDEST DUP2 ADD SWAP1 DUP1 DUP1 MLOAD SWAP1 PUSH1 0x20 ADD SWAP1 SWAP3 SWAP2 SWAP1 POP POP POP PUSH1 0x0 DUP1 ADD SLOAD PUSH1 0x40 MLOAD DUP5 PUSH4 0xFFFFFFFF AND PUSH1 0xE0 SHL DUP2 MSTORE PUSH1 0x4 ADD DUP1 DUP5 DUP2 MSTORE PUSH1 0x20 ADD DUP4 DUP2 MSTORE PUSH1 0x20 ADD DUP3 DUP2 MSTORE PUSH1 0x20 ADD SWAP4 POP POP POP POP PUSH1 0x20 PUSH1 0x40 MLOAD DUP1 DUP4 SUB DUP2 DUP7 DUP1 EXTCODESIZE ISZERO DUP1 ISZERO PUSH2 0x371 JUMPI PUSH1 0x0 DUP1 REVERT JUMPDEST POP GAS DELEGATECALL ISZERO DUP1 ISZERO PUSH2 0x385 JUMPI RETURNDATASIZE PUSH1 0x0 DUP1 RETURNDATACOPY RETURNDATASIZE PUSH1 0x0 REVERT JUMPDEST POP POP POP POP PUSH1 0x40 MLOAD RETURNDATASIZE PUSH1 0x20 DUP2 LT ISZERO PUSH2 0x39B JUMPI PUSH1 0x0 DUP1 REVERT JUMPDEST DUP2 ADD SWAP1 DUP1 DUP1 MLOAD SWAP1 PUSH1 0x20 ADD SWAP1 SWAP3 SWAP2 SWAP1 POP POP POP SWAP1 POP PUSH1 0x0 DUP2 DUP4 EQ SWAP1 POP PUSH1 0x0 DUP1 PUSH1 0x2 ADD SLOAD PUSH20 0x0 PUSH4 0xEDBE2FBD SWAP1 SWAP2 DUP9 PUSH1 0xA0 ADD MLOAD PUSH1 0x0 DUP1 ADD SLOAD PUSH1 0x40 MLOAD DUP5 PUSH4 0xFFFFFFFF AND PUSH1 0xE0 SHL DUP2 MSTORE PUSH1 0x4 ADD DUP1 DUP5 DUP2 MSTORE PUSH1 0x20 ADD DUP4 DUP2 MSTORE PUSH1 0x20 ADD DUP3 DUP2 MSTORE PUSH1 0x20 ADD SWAP4 POP POP POP POP PUSH1 0x20 PUSH1 0x40 MLOAD DUP1 DUP4 SUB DUP2 DUP7 DUP1 EXTCODESIZE ISZERO DUP1 ISZERO PUSH2 0x424 JUMPI PUSH1 0x0 DUP1 REVERT JUMPDEST POP GAS DELEGATECALL ISZERO DUP1 ISZERO PUSH2 0x438 JUMPI RETURNDATASIZE PUSH1 0x0 DUP1 RETURNDATACOPY RETURNDATASIZE PUSH1 0x0 REVERT JUMPDEST POP POP POP POP PUSH1 0x40 MLOAD RETURNDATASIZE PUSH1 0x20 DUP2 LT ISZERO PUSH2 0x44E JUMPI PUSH1 0x0 DUP1 REVERT JUMPDEST DUP2 ADD SWAP1 DUP1 DUP1 MLOAD SWAP1 PUSH1 0x20 ADD SWAP1 SWAP3 SWAP2 SWAP1 POP POP POP SWAP1 POP PUSH1 0x0 DUP7 PUSH1 0x60 ADD MLOAD PUSH20 0x0 PUSH4 0xE616559E SWAP1 SWAP2 DUP12 PUSH20 0x0 PUSH4 0xEDBE2FBD SWAP1 SWAP2 DUP12 PUSH1 0x0 DUP1 ADD SLOAD PUSH1 0x40 MLOAD DUP5 PUSH4 0xFFFFFFFF AND PUSH1 0xE0 SHL DUP2 MSTORE PUSH1 0x4 ADD DUP1 DUP5 DUP2 MSTORE PUSH1 0x20 ADD DUP4 DUP2 MSTORE PUSH1 0x20 ADD DUP3 DUP2 MSTORE PUSH1 0x20 ADD SWAP4 POP POP POP POP PUSH1 0x20 PUSH1 0x40 MLOAD DUP1 DUP4 SUB DUP2 DUP7 DUP1 EXTCODESIZE ISZERO DUP1 ISZERO PUSH2 0x4E9 JUMPI PUSH1 0x0 DUP1 REVERT JUMPDEST POP GAS DELEGATECALL ISZERO DUP1 ISZERO PUSH2 0x4FD JUMPI RETURNDATASIZE PUSH1 0x0 DUP1 RETURNDATACOPY RETURNDATASIZE PUSH1 0x0 REVERT JUMPDEST POP POP POP POP PUSH1 0x40 MLOAD RETURNDATASIZE PUSH1 0x20 DUP2 LT ISZERO PUSH2 0x513 JUMPI PUSH1 0x0 DUP1 REVERT JUMPDEST DUP2 ADD SWAP1 DUP1 DUP1 MLOAD SWAP1 PUSH1 0x20 ADD SWAP1 SWAP3 SWAP2 SWAP1 POP POP POP PUSH1 0x0 DUP1 ADD SLOAD PUSH1 0x40 MLOAD DUP5 PUSH4 0xFFFFFFFF AND PUSH1 0xE0 SHL DUP2 MSTORE PUSH1 0x4 ADD DUP1 DUP5 DUP2 MSTORE PUSH1 0x20 ADD DUP4 DUP2 MSTORE PUSH1 0x20 ADD DUP3 DUP2 MSTORE PUSH1 0x20 ADD SWAP4 POP POP POP POP PUSH1 0x20 PUSH1 0x40 MLOAD DUP1 DUP4 SUB DUP2 DUP7 DUP1 EXTCODESIZE ISZERO DUP1 ISZERO PUSH2 0x56B JUMPI PUSH1 0x0 DUP1 REVERT JUMPDEST POP GAS DELEGATECALL ISZERO DUP1 ISZERO PUSH2 0x57F JUMPI RETURNDATASIZE PUSH1 0x0 DUP1 RETURNDATACOPY RETURNDATASIZE PUSH1 0x0 REVERT JUMPDEST POP POP POP POP PUSH1 0x40 MLOAD RETURNDATASIZE PUSH1 0x20 DUP2 LT ISZERO PUSH2 0x595 JUMPI PUSH1 0x0 DUP1 REVERT JUMPDEST DUP2 ADD SWAP1 DUP1 DUP1 MLOAD SWAP1 PUSH1 0x20 ADD SWAP1 SWAP3 SWAP2 SWAP1 POP POP POP SWAP1 POP PUSH1 0x0 DUP2 DUP4 EQ SWAP1 POP DUP4 DUP1 ISZERO PUSH2 0x5B9 JUMPI POP DUP1 JUMPDEST SWAP9 POP POP POP POP POP POP POP POP POP SWAP9 SWAP8 POP POP POP POP POP POP POP POP JUMP JUMPDEST PUSH1 0x0 DUP1 DUP4 DUP9 DUP9 DUP9 DUP9 PUSH1 0x40 MLOAD PUSH1 0x20 ADD DUP1 DUP7 PUSH20 0xFFFFFFFFFFFFFFFFFFFFFFFFFFFFFFFFFFFFFFFF AND PUSH20 0xFFFFFFFFFFFFFFFFFFFFFFFFFFFFFFFFFFFFFFFF AND PUSH1 0x60 SHL DUP2 MSTORE PUSH1 0x14 ADD DUP6 DUP2 MSTORE PUSH1 0x20 ADD DUP5 DUP2 MSTORE PUSH1 0x20 ADD DUP4 DUP2 MSTORE PUSH1 0x20 ADD DUP3 DUP2 MSTORE PUSH1 0x20 ADD SWAP6 POP POP POP POP POP POP PUSH1 0x40 MLOAD PUSH1 0x20 DUP2 DUP4 SUB SUB DUP2 MSTORE SWAP1 PUSH1 0x40 MSTORE DUP1 MLOAD SWAP1 PUSH1 0x20 ADD KECCAK256 SWAP1 POP DUP3 DUP2 PUSH1 0x0 SHR DUP2 PUSH2 0x656 JUMPI INVALID JUMPDEST MOD SWAP2 POP POP SWAP7 SWAP6 POP POP POP POP POP POP JUMP JUMPDEST PUSH1 0x40 MLOAD DUP1 PUSH1 0xC0 ADD PUSH1 0x40 MSTORE DUP1 PUSH1 0x0 DUP2 MSTORE PUSH1 0x20 ADD PUSH1 0x0 DUP2 MSTORE PUSH1 0x20 ADD PUSH1 0x0 DUP2 MSTORE PUSH1 0x20 ADD PUSH1 0x0 DUP2 MSTORE PUSH1 0x20 ADD PUSH1 0x0 DUP2 MSTORE PUSH1 0x20 ADD PUSH1 0x0 DUP2 MSTORE POP SWAP1 JUMP INVALID LOG2 PUSH6 0x627A7A723158 KECCAK256 0xE5 EXTCODESIZE 0xD2 0xA6 0xB2 DUP5 CALL 0x2E 0xD9 SWAP16 MUL 0xE7 BLOCKHASH 0xB9 0x5F SWAP5 0x2B SWAP6 0x25 0xA7 PUSH6 0x5CC41D45D210 DUP9 DUP11 0xC5 0xC9 JUMPDEST PUSH5 0x736F6C6343 STOP SDIV 0xD STOP ORIGIN PUSH1 0x80 PUSH1 0x40 MSTORE CALLVALUE DUP1 ISZERO PUSH2 0x10 JUMPI PUSH1 0x0 DUP1 REVERT JUMPDEST POP PUSH1 0x40 MLOAD DUP1 PUSH1 0x60 ADD PUSH1 0x40 MSTORE DUP1 PUSH1 0x0 DUP2 MSTORE PUSH1 0x20 ADD PUSH1 0x0 DUP2 MSTORE PUSH1 0x20 ADD PUSH1 0x0 DUP2 MSTORE POP PUSH1 0x0 DUP1 DUP3 ADD MLOAD DUP2 PUSH1 0x0 ADD SSTORE PUSH1 0x20 DUP3 ADD MLOAD DUP2 PUSH1 0x1 ADD SSTORE PUSH1 0x40 DUP3 ADD MLOAD DUP2 PUSH1 0x2 ADD SSTORE SWAP1 POP POP PUSH2 0x652 DUP1 PUSH2 0x60 PUSH1 0x0 CODECOPY PUSH1 0x0 RETURN INVALID PUSH1 0x80 PUSH1 0x40 MSTORE PUSH1 0x4 CALLDATASIZE LT PUSH2 0x29 JUMPI PUSH1 0x0 CALLDATALOAD PUSH1 0xE0 SHR DUP1 PUSH4 0x80D85911 EQ PUSH2 0x2E JUMPI DUP1 PUSH4 0xB0CAA829 EQ PUSH2 0x70 JUMPI JUMPDEST PUSH1 0x0 DUP1 REVERT JUMPDEST PUSH2 0x6E PUSH1 0x4 DUP1 CALLDATASIZE SUB PUSH1 0x60 DUP2 LT ISZERO PUSH2 0x44 JUMPI PUSH1 0x0 DUP1 REVERT JUMPDEST DUP2 ADD SWAP1 DUP1 DUP1 CALLDATALOAD SWAP1 PUSH1 0x20 ADD SWAP1 SWAP3 SWAP2 SWAP1 DUP1 CALLDATALOAD SWAP1 PUSH1 0x20 ADD SWAP1 SWAP3 SWAP2 SWAP1 DUP1 CALLDATALOAD SWAP1 PUSH1 0x20 ADD SWAP1 SWAP3 SWAP2 SWAP1 POP POP POP PUSH2 0xF7 JUMP JUMPDEST STOP JUMPDEST CALLVALUE DUP1 ISZERO PUSH2 0x7C JUMPI PUSH1 0x0 DUP1 REVERT JUMPDEST POP PUSH2 0xDD PUSH1 0x4 DUP1 CALLDATASIZE SUB PUSH1 0x80 DUP2 LT ISZERO PUSH2 0x93 JUMPI PUSH1 0x0 DUP1 REVERT JUMPDEST DUP2 ADD SWAP1 DUP1 DUP1 CALLDATALOAD SWAP1 PUSH1 0x20 ADD SWAP1 SWAP3 SWAP2 SWAP1 DUP1 CALLDATALOAD SWAP1 PUSH1 0x20 ADD SWAP1 SWAP3 SWAP2 SWAP1 DUP1 CALLDATALOAD SWAP1 PUSH1 0x20 ADD SWAP1 SWAP3 SWAP2 SWAP1 DUP1 CALLDATALOAD PUSH20 0xFFFFFFFFFFFFFFFFFFFFFFFFFFFFFFFFFFFFFFFF AND SWAP1 PUSH1 0x20 ADD SWAP1 SWAP3 SWAP2 SWAP1 POP POP POP PUSH2 0x119 JUMP JUMPDEST PUSH1 0x40 MLOAD DUP1 DUP3 ISZERO ISZERO ISZERO ISZERO DUP2 MSTORE PUSH1 0x20 ADD SWAP2 POP POP PUSH1 0x40 MLOAD DUP1 SWAP2 SUB SWAP1 RETURN JUMPDEST DUP3 PUSH1 0x0 DUP1 ADD DUP2 SWAP1 SSTORE POP DUP2 PUSH1 0x0 PUSH1 0x1 ADD DUP2 SWAP1 SSTORE POP DUP1 PUSH1 0x0 PUSH1 0x2 ADD DUP2 SWAP1 SSTORE POP POP POP POP JUMP JUMPDEST PUSH1 0x0 DUP1 PUSH1 0x0 DUP1 ADD SLOAD SWAP1 POP PUSH1 0x0 DUP1 PUSH1 0x1 ADD SLOAD SWAP1 POP PUSH1 0x0 DUP1 PUSH1 0x2 ADD SLOAD SWAP1 POP PUSH2 0x13D PUSH2 0x603 JUMP JUMPDEST PUSH1 0x40 MLOAD DUP1 PUSH1 0x40 ADD PUSH1 0x40 MSTORE DUP1 DUP11 DUP2 MSTORE PUSH1 0x20 ADD DUP10 DUP2 MSTORE POP SWAP1 POP PUSH1 0x0 PUSH2 0x16B DUP4 DUP7 DUP11 DUP6 PUSH1 0x20 ADD MLOAD DUP7 PUSH1 0x0 ADD MLOAD PUSH2 0x390 JUMP JUMPDEST SWAP1 POP PUSH1 0x0 PUSH2 0x17B DUP6 DUP10 DUP12 DUP6 PUSH2 0x580 JUMP JUMPDEST SWAP1 POP PUSH1 0x0 DUP2 DUP5 PUSH1 0x0 ADD MLOAD EQ SWAP1 POP PUSH1 0x0 DUP6 PUSH20 0x0 PUSH4 0xEDBE2FBD SWAP1 SWAP2 DUP8 PUSH1 0x20 ADD MLOAD DUP12 PUSH1 0x40 MLOAD DUP5 PUSH4 0xFFFFFFFF AND PUSH1 0xE0 SHL DUP2 MSTORE PUSH1 0x4 ADD DUP1 DUP5 DUP2 MSTORE PUSH1 0x20 ADD DUP4 DUP2 MSTORE PUSH1 0x20 ADD DUP3 DUP2 MSTORE PUSH1 0x20 ADD SWAP4 POP POP POP POP PUSH1 0x20 PUSH1 0x40 MLOAD DUP1 DUP4 SUB DUP2 DUP7 DUP1 EXTCODESIZE ISZERO DUP1 ISZERO PUSH2 0x1EF JUMPI PUSH1 0x0 DUP1 REVERT JUMPDEST POP GAS DELEGATECALL ISZERO DUP1 ISZERO PUSH2 0x203 JUMPI RETURNDATASIZE PUSH1 0x0 DUP1 RETURNDATACOPY RETURNDATASIZE PUSH1 0x0 REVERT JUMPDEST POP POP POP POP PUSH1 0x40 MLOAD RETURNDATASIZE PUSH1 0x20 DUP2 LT ISZERO PUSH2 0x219 JUMPI PUSH1 0x0 DUP1 REVERT JUMPDEST DUP2 ADD SWAP1 DUP1 DUP1 MLOAD SWAP1 PUSH1 0x20 ADD SWAP1 SWAP3 SWAP2 SWAP1 POP POP POP SWAP1 POP PUSH1 0x0 DUP5 PUSH20 0x0 PUSH4 0xE616559E SWAP1 SWAP2 DUP15 PUSH20 0x0 PUSH4 0xEDBE2FBD SWAP1 SWAP2 DUP12 PUSH1 0x0 ADD MLOAD DUP16 PUSH1 0x40 MLOAD DUP5 PUSH4 0xFFFFFFFF AND PUSH1 0xE0 SHL DUP2 MSTORE PUSH1 0x4 ADD DUP1 DUP5 DUP2 MSTORE PUSH1 0x20 ADD DUP4 DUP2 MSTORE PUSH1 0x20 ADD DUP3 DUP2 MSTORE PUSH1 0x20 ADD SWAP4 POP POP POP POP PUSH1 0x20 PUSH1 0x40 MLOAD DUP1 DUP4 SUB DUP2 DUP7 DUP1 EXTCODESIZE ISZERO DUP1 ISZERO PUSH2 0x2B0 JUMPI PUSH1 0x0 DUP1 REVERT JUMPDEST POP GAS DELEGATECALL ISZERO DUP1 ISZERO PUSH2 0x2C4 JUMPI RETURNDATASIZE PUSH1 0x0 DUP1 RETURNDATACOPY RETURNDATASIZE PUSH1 0x0 REVERT JUMPDEST POP POP POP POP PUSH1 0x40 MLOAD RETURNDATASIZE PUSH1 0x20 DUP2 LT ISZERO PUSH2 0x2DA JUMPI PUSH1 0x0 DUP1 REVERT JUMPDEST DUP2 ADD SWAP1 DUP1 DUP1 MLOAD SWAP1 PUSH1 0x20 ADD SWAP1 SWAP3 SWAP2 SWAP1 POP POP POP DUP13 PUSH1 0x40 MLOAD DUP5 PUSH4 0xFFFFFFFF AND PUSH1 0xE0 SHL DUP2 MSTORE PUSH1 0x4 ADD DUP1 DUP5 DUP2 MSTORE PUSH1 0x20 ADD DUP4 DUP2 MSTORE PUSH1 0x20 ADD DUP3 DUP2 MSTORE PUSH1 0x20 ADD SWAP4 POP POP POP POP PUSH1 0x20 PUSH1 0x40 MLOAD DUP1 DUP4 SUB DUP2 DUP7 DUP1 EXTCODESIZE ISZERO DUP1 ISZERO PUSH2 0x32E JUMPI PUSH1 0x0 DUP1 REVERT JUMPDEST POP GAS DELEGATECALL ISZERO DUP1 ISZERO PUSH2 0x342 JUMPI RETURNDATASIZE PUSH1 0x0 DUP1 RETURNDATACOPY RETURNDATASIZE PUSH1 0x0 REVERT JUMPDEST POP POP POP POP PUSH1 0x40 MLOAD RETURNDATASIZE PUSH1 0x20 DUP2 LT ISZERO PUSH2 0x358 JUMPI PUSH1 0x0 DUP1 REVERT JUMPDEST DUP2 ADD SWAP1 DUP1 DUP1 MLOAD SWAP1 PUSH1 0x20 ADD SWAP1 SWAP3 SWAP2 SWAP1 POP POP POP SWAP1 POP PUSH1 0x0 DUP2 DUP4 EQ SWAP1 POP DUP4 DUP1 ISZERO PUSH2 0x37C JUMPI POP DUP1 JUMPDEST SWAP11 POP POP POP POP POP POP POP POP POP POP POP SWAP5 SWAP4 POP POP POP POP JUMP JUMPDEST PUSH1 0x0 DUP1 DUP7 PUSH20 0x0 PUSH4 0xEDBE2FBD SWAP1 SWAP2 DUP7 DUP10 PUSH1 0x40 MLOAD DUP5 PUSH4 0xFFFFFFFF AND PUSH1 0xE0 SHL DUP2 MSTORE PUSH1 0x4 ADD DUP1 DUP5 DUP2 MSTORE PUSH1 0x20 ADD DUP4 DUP2 MSTORE PUSH1 0x20 ADD DUP3 DUP2 MSTORE PUSH1 0x20 ADD SWAP4 POP POP POP POP PUSH1 0x20 PUSH1 0x40 MLOAD DUP1 DUP4 SUB DUP2 DUP7 DUP1 EXTCODESIZE ISZERO DUP1 ISZERO PUSH2 0x3F4 JUMPI PUSH1 0x0 DUP1 REVERT JUMPDEST POP GAS DELEGATECALL ISZERO DUP1 ISZERO PUSH2 0x408 JUMPI RETURNDATASIZE PUSH1 0x0 DUP1 RETURNDATACOPY RETURNDATASIZE PUSH1 0x0 REVERT JUMPDEST POP POP POP POP PUSH1 0x40 MLOAD RETURNDATASIZE PUSH1 0x20 DUP2 LT ISZERO PUSH2 0x41E JUMPI PUSH1 0x0 DUP1 REVERT JUMPDEST DUP2 ADD SWAP1 DUP1 DUP1 MLOAD SWAP1 PUSH1 0x20 ADD SWAP1 SWAP3 SWAP2 SWAP1 POP POP POP SWAP1 POP PUSH1 0x0 DUP6 PUSH20 0x0 PUSH4 0xEDBE2FBD SWAP1 SWAP2 DUP7 DUP11 PUSH1 0x40 MLOAD DUP5 PUSH4 0xFFFFFFFF AND PUSH1 0xE0 SHL DUP2 MSTORE PUSH1 0x4 ADD DUP1 DUP5 DUP2 MSTORE PUSH1 0x20 ADD DUP4 DUP2 MSTORE PUSH1 0x20 ADD DUP3 DUP2 MSTORE PUSH1 0x20 ADD SWAP4 POP POP POP POP PUSH1 0x20 PUSH1 0x40 MLOAD DUP1 DUP4 SUB DUP2 DUP7 DUP1 EXTCODESIZE ISZERO DUP1 ISZERO PUSH2 0x494 JUMPI PUSH1 0x0 DUP1 REVERT JUMPDEST POP GAS DELEGATECALL ISZERO DUP1 ISZERO PUSH2 0x4A8 JUMPI RETURNDATASIZE PUSH1 0x0 DUP1 RETURNDATACOPY RETURNDATASIZE PUSH1 0x0 REVERT JUMPDEST POP POP POP POP PUSH1 0x40 MLOAD RETURNDATASIZE PUSH1 0x20 DUP2 LT ISZERO PUSH2 0x4BE JUMPI PUSH1 0x0 DUP1 REVERT JUMPDEST DUP2 ADD SWAP1 DUP1 DUP1 MLOAD SWAP1 PUSH1 0x20 ADD SWAP1 SWAP3 SWAP2 SWAP1 POP POP POP SWAP1 POP PUSH1 0x0 DUP3 PUSH20 0x0 PUSH4 0x6378BD6C SWAP1 SWAP2 DUP5 DUP12 PUSH1 0x40 MLOAD DUP5 PUSH4 0xFFFFFFFF AND PUSH1 0xE0 SHL DUP2 MSTORE PUSH1 0x4 ADD DUP1 DUP5 DUP2 MSTORE PUSH1 0x20 ADD DUP4 DUP2 MSTORE PUSH1 0x20 ADD DUP3 DUP2 MSTORE PUSH1 0x20 ADD SWAP4 POP POP POP POP PUSH1 0x20 PUSH1 0x40 MLOAD DUP1 DUP4 SUB DUP2 DUP7 DUP1 EXTCODESIZE ISZERO DUP1 ISZERO PUSH2 0x534 JUMPI PUSH1 0x0 DUP1 REVERT JUMPDEST POP GAS DELEGATECALL ISZERO DUP1 ISZERO PUSH2 0x548 JUMPI RETURNDATASIZE PUSH1 0x0 DUP1 RETURNDATACOPY RETURNDATASIZE PUSH1 0x0 REVERT JUMPDEST POP POP POP POP PUSH1 0x40 MLOAD RETURNDATASIZE PUSH1 0x20 DUP2 LT ISZERO PUSH2 0x55E JUMPI PUSH1 0x0 DUP1 REVERT JUMPDEST DUP2 ADD SWAP1 DUP1 DUP1 MLOAD SWAP1 PUSH1 0x20 ADD SWAP1 SWAP3 SWAP2 SWAP1 POP POP POP SWAP1 POP DUP1 SWAP4 POP POP POP POP SWAP6 SWAP5 POP POP POP POP POP JUMP JUMPDEST PUSH1 0x0 DUP1 DUP5 DUP5 DUP5 PUSH1 0x40 MLOAD PUSH1 0x20 ADD DUP1 DUP5 PUSH20 0xFFFFFFFFFFFFFFFFFFFFFFFFFFFFFFFFFFFFFFFF AND PUSH20 0xFFFFFFFFFFFFFFFFFFFFFFFFFFFFFFFFFFFFFFFF AND PUSH1 0x60 SHL DUP2 MSTORE PUSH1 0x14 ADD DUP4 DUP2 MSTORE PUSH1 0x20 ADD DUP3 DUP2 MSTORE PUSH1 0x20 ADD SWAP4 POP POP POP POP PUSH1 0x40 MLOAD PUSH1 0x20 DUP2 DUP4 SUB SUB DUP2 MSTORE SWAP1 PUSH1 0x40 MSTORE DUP1 MLOAD SWAP1 PUSH1 0x20 ADD KECCAK256 SWAP1 POP DUP6 DUP2 PUSH1 0x0 SHR DUP2 PUSH2 0x5F7 JUMPI INVALID JUMPDEST MOD SWAP2 POP POP SWAP5 SWAP4 POP POP POP POP JUMP JUMPDEST PUSH1 0x40 MLOAD DUP1 PUSH1 0x40 ADD PUSH1 0x40 MSTORE DUP1 PUSH1 0x0 DUP2 MSTORE PUSH1 0x20 ADD PUSH1 0x0 DUP2 MSTORE POP SWAP1 JUMP INVALID LOG2 PUSH6 0x627A7A723158 KECCAK256 PUSH31 0x9AF9CD464437545C08B2EFBE6890986B0F3A93713EFF52EAE0844F9522A055 PUSH5 0x736F6C6343 STOP SDIV 0xD STOP ORIGIN "
    }
  }
}