{
  "contractName": "Ballot",
  "abi": [
    {
      "inputs": [
        {
          "name": "votingQuestion",
          "type": "string"
        }
      ],
      "payable": false,
      "stateMutability": "nonpayable",
      "type": "constructor"
    },
    {
      "anonymous": false,
      "inputs": [
        {
          "indexed": true,
          "name": "from",
          "type": "address"
        },
        {
          "indexed": false,
          "name": "success",
          "type": "bool"
        },
        {
          "indexed": false,
          "name": "reason",
          "type": "string"
        }
      ],
      "name": "VoteStatusEvent",
      "type": "event"
    },
    {
      "anonymous": false,
      "inputs": [
        {
          "indexed": true,
          "name": "from",
          "type": "address"
        },
        {
          "indexed": false,
          "name": "success",
          "type": "bool"
        },
        {
          "indexed": false,
          "name": "reason",
          "type": "string"
        }
      ],
      "name": "SystemStatusEvent",
      "type": "event"
    },
    {
      "constant": false,
      "inputs": [
        {
          "name": "params",
          "type": "uint256[3]"
        }
      ],
      "name": "setParameters",
      "outputs": [],
      "payable": false,
      "stateMutability": "nonpayable",
      "type": "function"
    },
    {
      "constant": false,
      "inputs": [],
      "name": "generatePublicKey",
      "outputs": [],
      "payable": false,
      "stateMutability": "nonpayable",
      "type": "function"
    },
    {
      "constant": false,
      "inputs": [],
      "name": "createVerifiers",
      "outputs": [],
      "payable": false,
      "stateMutability": "nonpayable",
      "type": "function"
    },
    {
      "constant": false,
      "inputs": [],
      "name": "openBallot",
      "outputs": [],
      "payable": false,
      "stateMutability": "nonpayable",
      "type": "function"
    },
    {
      "constant": false,
      "inputs": [],
      "name": "closeBallot",
      "outputs": [],
      "payable": false,
      "stateMutability": "nonpayable",
      "type": "function"
    },
    {
      "constant": false,
      "inputs": [],
      "name": "combineDecryptedShares",
      "outputs": [],
      "payable": false,
      "stateMutability": "nonpayable",
      "type": "function"
    },
    {
      "constant": false,
      "inputs": [
        {
          "name": "key",
          "type": "uint256"
        },
        {
          "name": "proof_c",
          "type": "uint256"
        },
        {
          "name": "proof_d",
          "type": "uint256"
        }
      ],
      "name": "submitPublicKeyShare",
      "outputs": [
        {
          "name": "",
          "type": "bool"
        },
        {
          "name": "",
          "type": "string"
        }
      ],
      "payable": false,
      "stateMutability": "nonpayable",
      "type": "function"
    },
    {
      "constant": false,
      "inputs": [
        {
          "name": "share",
          "type": "uint256"
        },
        {
          "name": "a",
          "type": "uint256"
        },
        {
          "name": "b",
          "type": "uint256"
        },
        {
          "name": "a1",
          "type": "uint256"
        },
        {
          "name": "b1",
          "type": "uint256"
        },
        {
          "name": "d",
          "type": "uint256"
        },
        {
          "name": "f",
          "type": "uint256"
        }
      ],
      "name": "submitDecryptedShare",
      "outputs": [
        {
          "name": "",
          "type": "bool"
        },
        {
          "name": "",
          "type": "string"
        }
      ],
      "payable": false,
      "stateMutability": "nonpayable",
      "type": "function"
    },
    {
      "constant": false,
      "inputs": [
        {
          "name": "cipher",
          "type": "uint256[2]"
        },
        {
          "name": "a",
          "type": "uint256[2]"
        },
        {
          "name": "b",
          "type": "uint256[2]"
        },
        {
          "name": "c",
          "type": "uint256[2]"
        },
        {
          "name": "f",
          "type": "uint256[2]"
        }
      ],
      "name": "vote",
      "outputs": [
        {
          "name": "",
          "type": "bool"
        },
        {
          "name": "",
          "type": "string"
        }
      ],
      "payable": false,
      "stateMutability": "nonpayable",
      "type": "function"
    },
    {
      "constant": true,
      "inputs": [],
      "name": "getVotingQuestion",
      "outputs": [
        {
          "name": "",
          "type": "string"
        }
      ],
      "payable": false,
      "stateMutability": "view",
      "type": "function"
    },
    {
      "constant": true,
      "inputs": [],
      "name": "getParameters",
      "outputs": [
        {
          "name": "",
          "type": "uint256[3]"
        }
      ],
      "payable": false,
      "stateMutability": "view",
      "type": "function"
    },
    {
      "constant": true,
      "inputs": [],
      "name": "getPublicKey",
      "outputs": [
        {
          "name": "",
          "type": "uint256"
        }
      ],
      "payable": false,
      "stateMutability": "view",
      "type": "function"
    },
    {
      "constant": true,
      "inputs": [
        {
          "name": "idx",
          "type": "uint256"
        }
      ],
      "name": "getVote",
      "outputs": [
        {
          "name": "",
          "type": "uint256"
        },
        {
          "name": "",
          "type": "uint256"
        }
      ],
      "payable": false,
      "stateMutability": "view",
      "type": "function"
    },
    {
      "constant": true,
      "inputs": [],
      "name": "getNumberOfVotes",
      "outputs": [
        {
          "name": "",
          "type": "uint256"
        }
      ],
      "payable": false,
      "stateMutability": "view",
      "type": "function"
    },
    {
      "constant": true,
      "inputs": [],
      "name": "getBallotStatus",
      "outputs": [
        {
          "name": "",
          "type": "bool"
        }
      ],
      "payable": false,
      "stateMutability": "view",
      "type": "function"
    },
    {
      "constant": true,
      "inputs": [],
      "name": "getNrOfDecryptedShares",
      "outputs": [
        {
          "name": "",
          "type": "uint256"
        }
      ],
      "payable": false,
      "stateMutability": "view",
      "type": "function"
    },
    {
      "constant": true,
      "inputs": [
        {
          "name": "idx",
          "type": "uint256"
        }
      ],
      "name": "getDecryptedShare",
      "outputs": [
        {
          "name": "",
          "type": "uint256"
        }
      ],
      "payable": false,
      "stateMutability": "view",
      "type": "function"
    },
    {
      "constant": true,
      "inputs": [],
      "name": "getVoteResult",
      "outputs": [
        {
          "name": "",
          "type": "uint256"
        }
      ],
      "payable": false,
      "stateMutability": "view",
      "type": "function"
    }
  ],
  "bytecode": "0x60806040523480156200001157600080fd5b5060405162004b3938038062004b39833981018060405260208110156200003757600080fd5b8101908080516401000000008111156200005057600080fd5b828101905060208101848111156200006757600080fd5b81518560018202830111640100000000821117156200008557600080fd5b50509291905050506040516200009b90620002d9565b604051809103906000f080158015620000b8573d6000803e3d6000fd5b506000806101000a81548173ffffffffffffffffffffffffffffffffffffffff021916908373ffffffffffffffffffffffffffffffffffffffff1602179055506040516200010690620002e7565b604051809103906000f08015801562000123573d6000803e3d6000fd5b50600160006101000a81548173ffffffffffffffffffffffffffffffffffffffff021916908373ffffffffffffffffffffffffffffffffffffffff1602179055506040516200017290620002f5565b604051809103906000f0801580156200018f573d6000803e3d6000fd5b50600260006101000a81548173ffffffffffffffffffffffffffffffffffffffff021916908373ffffffffffffffffffffffffffffffffffffffff1602179055506000601160006101000a81548160ff0219169083151502179055506000601160016101000a81548160ff0219169083151502179055506000601160026101000a81548160ff02191690831515021790555033601160036101000a81548173ffffffffffffffffffffffffffffffffffffffff021916908373ffffffffffffffffffffffffffffffffffffffff1602179055506000600760000181905550600060076001018162000281919062000303565b5080600760040190805190602001906200029d92919062000338565b5060006007800181620002b19190620003bf565b506000600760080181620002c69190620003f4565b50600060076009018190555050620005a0565b6111de80620029cf83390190565b61080e8062003bad83390190565b61077e80620043bb83390190565b8154818355818111156200033357600b0281600b02836000526020600020918201910162000332919062000429565b5b505050565b828054600181600116156101000203166002900490600052602060002090601f016020900481019282601f106200037b57805160ff1916838001178555620003ac565b82800160010185558215620003ac579182015b82811115620003ab5782518255916020019190600101906200038e565b5b509050620003bb9190620004d8565b5090565b815481835581811115620003ef57600302816003028360005260206000209182019101620003ee919062000500565b5b505050565b815481835581811115620004245760050281600502836000526020600020918201910162000423919062000541565b5b505050565b620004d591905b80821115620004d157600080820160006101000a81549073ffffffffffffffffffffffffffffffffffffffff0219169055600182016000808201600090556001820160009055505060038201600080820160006200048f919062000592565b600282016000620004a1919062000592565b600482016000620004b3919062000592565b600682016000620004c5919062000592565b505050600b0162000430565b5090565b90565b620004fd91905b80821115620004f9576000816000905550600101620004df565b5090565b90565b6200053e91905b808211156200053a5760008082016000905560018201600080820160009055600182016000905550505060030162000507565b5090565b90565b6200058f91905b808211156200058b576000808201600090556001820160008082016000905560018201600090556002820160009055600382016000905550505060050162000548565b5090565b90565b506000815560010160009055565b61241f80620005b06000396000f3fe608060405234801561001057600080fd5b5060043610610133576000357c01000000000000000000000000000000000000000000000000000000009004806373e867fb116100bf578063a97b8b4d1161008e578063a97b8b4d146104da578063b23d422d146104e4578063bb1f683d146104ee578063cee024dc146105c9578063df2252b9146105e757610133565b806373e867fb146104365780638742fc3b14610454578063a10cfae514610472578063a5ea11da1461049457610133565b80634d0013ac116101065780634d0013ac146101ac5780635a55c1f0146101b65780635b71c523146101ff578063689778c3146102ed57806368cdfda5146103b357610133565b80631f50c0ab146101385780632e3344521461017a578063339f845b1461019857806334507556146101a2575b600080fd5b6101646004803603602081101561014e57600080fd5b8101908080359060200190929190505050610615565b6040518082815260200191505060405180910390f35b610182610642565b6040518082815260200191505060405180910390f35b6101a06106b6565b005b6101aa6108bd565b005b6101b4610acb565b005b6101e2600480360360208110156101cc57600080fd5b8101908080359060200190929190505050610b44565b604051808381526020018281526020019250505060405180910390f35b610267600480360360e081101561021557600080fd5b8101908080359060200190929190803590602001909291908035906020019092919080359060200190929190803590602001909291908035906020019092919080359060200190929190505050610b9e565b604051808315151515815260200180602001828103825283818151815260200191508051906020019080838360005b838110156102b1578082015181840152602081019050610296565b50505050905090810190601f1680156102de5780820380516001836020036101000a031916815260200191505b50935050505060405180910390f35b61032d6004803603606081101561030357600080fd5b81019080803590602001909291908035906020019092919080359060200190929190505050611086565b604051808315151515815260200180602001828103825283818151815260200191508051906020019080838360005b8381101561037757808201518184015260208101905061035c565b50505050905090810190601f1680156103a45780820380516001836020036101000a031916815260200191505b50935050505060405180910390f35b6103bb611349565b6040518080602001828103825283818151815260200191508051906020019080838360005b838110156103fb5780820151818401526020810190506103e0565b50505050905090810190601f1680156104285780820380516001836020036101000a031916815260200191505b509250505060405180910390f35b61043e6113ee565b6040518082815260200191505060405180910390f35b61045c6113fe565b6040518082815260200191505060405180910390f35b61047a611427565b604051808215151515815260200191505060405180910390f35b61049c61143e565b6040518082600360200280838360005b838110156104c75780820151818401526020810190506104ac565b5050505090500191505060405180910390f35b6104e2611491565b005b6104ec61150a565b005b610543600480360361014081101561050557600080fd5b8101908080604001909192919290806040019091929192908060400190919291929080604001909192919290806040019091929192905050506118c4565b604051808315151515815260200180602001828103825283818151815260200191508051906020019080838360005b8381101561058d578082015181840152602081019050610572565b50505050905090810190601f1680156105ba5780820380516001836020036101000a031916815260200191505b50935050505060405180910390f35b6105d1611ff5565b6040518082815260200191505060405180910390f35b610613600480360360608110156105fd57600080fd5b8101908080606001909192919290505050612005565b005b600060076008018281548110151561062957fe5b9060005260206000209060050201600001549050919050565b6000601160029054906101000a900460ff1615156106ab576040517f08c379a00000000000000000000000000000000000000000000000000000000081526004018080602001828103825260248152602001806123ac6024913960400191505060405180910390fd5b600660000154905090565b601160039054906101000a900473ffffffffffffffffffffffffffffffffffffffff1673ffffffffffffffffffffffffffffffffffffffff163373ffffffffffffffffffffffffffffffffffffffff1614151561071257600080fd5b6000809054906101000a900473ffffffffffffffffffffffffffffffffffffffff1673ffffffffffffffffffffffffffffffffffffffff166360a2da446003600001546003600101546003600201546006600001546040518563ffffffff167c010000000000000000000000000000000000000000000000000000000002815260040180858152602001848152602001838152602001828152602001945050505050600060405180830381600087803b1580156107ce57600080fd5b505af11580156107e2573d6000803e3d6000fd5b50505050600160009054906101000a900473ffffffffffffffffffffffffffffffffffffffff1673ffffffffffffffffffffffffffffffffffffffff166360a2da446003600001546003600101546003600201546006600001546040518563ffffffff167c010000000000000000000000000000000000000000000000000000000002815260040180858152602001848152602001838152602001828152602001945050505050600060405180830381600087803b1580156108a357600080fd5b505af11580156108b7573d6000803e3d6000fd5b50505050565b601160039054906101000a900473ffffffffffffffffffffffffffffffffffffffff1673ffffffffffffffffffffffffffffffffffffffff163373ffffffffffffffffffffffffffffffffffffffff1614151561091957600080fd5b601160029054906101000a900460ff1615151561093557600080fd5b6000600780018054905011151561094b57600080fd5b6007800180549050600214151561096157600080fd5b600060078001600081548110151561097557fe5b90600052602060002090600302016000015490506000600190505b6007800180549050811015610a8d578173__ModuloMathLib_________________________63e616559e909160078001848154811015156109cd57fe5b9060005260206000209060030201600001546003600001546040518463ffffffff167c010000000000000000000000000000000000000000000000000000000002815260040180848152602001838152602001828152602001935050505060206040518083038186803b158015610a4357600080fd5b505af4158015610a57573d6000803e3d6000fd5b505050506040513d6020811015610a6d57600080fd5b810190808051906020019092919050505091508080600101915050610990565b50602060405190810160405280828152506006600082015181600001559050506001601160026101000a81548160ff02191690831515021790555050565b601160039054906101000a900473ffffffffffffffffffffffffffffffffffffffff1673ffffffffffffffffffffffffffffffffffffffff163373ffffffffffffffffffffffffffffffffffffffff16141515610b2757600080fd5b6001601160016101000a81548160ff021916908315150217905550565b600080600760010183815481101515610b5957fe5b90600052602060002090600b020160010160000154600760010184815481101515610b8057fe5b90600052602060002090600b02016001016001015491509150915091565b60006060601160019054906101000a900460ff1615610c84573373ffffffffffffffffffffffffffffffffffffffff167f13dd6fe92e00365cc4b5b06c43c90e02579bac92daf813dcc92257094835f9146000604051808215151515815260200180602001828103825260158152602001807f566f7465206973207374696c6c206f6e676f696e6700000000000000000000008152506020019250505060405180910390a260006040805190810160405280601581526020017f566f7465206973207374696c6c206f6e676f696e6700000000000000000000008152509150915061107a565b6000600760030160003373ffffffffffffffffffffffffffffffffffffffff1673ffffffffffffffffffffffffffffffffffffffff168152602001908152602001600020549050600160009054906101000a900473ffffffffffffffffffffffffffffffffffffffff1673ffffffffffffffffffffffffffffffffffffffff1663b6b81a268a8a8a8a8a8a33896040518963ffffffff167c0100000000000000000000000000000000000000000000000000000000028152600401808981526020018881526020018781526020018681526020018581526020018481526020018373ffffffffffffffffffffffffffffffffffffffff1673ffffffffffffffffffffffffffffffffffffffff1681526020018281526020019850505050505050505060206040518083038186803b158015610dbe57600080fd5b505afa158015610dd2573d6000803e3d6000fd5b505050506040513d6020811015610de857600080fd5b81019080805190602001909291905050501515610ecd573373ffffffffffffffffffffffffffffffffffffffff167f13dd6fe92e00365cc4b5b06c43c90e02579bac92daf813dcc92257094835f9146000604051808215151515815260200180602001828103825260118152602001807f50726f6f66206e6f7420636f72726563740000000000000000000000000000008152506020019250505060405180910390a260006040805190810160405280601181526020017f50726f6f66206e6f7420636f7272656374000000000000000000000000000000815250925092505061107a565b610ed56121db565b608060405190810160405280898152602001888152602001878152602001868152509050600760080160408051908101604052808d815260200183815250908060018154018082558091505090600182039060005260206000209060050201600090919290919091506000820151816000015560208201518160010160008201518160000155602082015181600101556040820151816002015560608201518160030155505050505060408051908101604052808b81526020018a815250600760050160008201518160000155602082015181600101559050503373ffffffffffffffffffffffffffffffffffffffff167f13dd6fe92e00365cc4b5b06c43c90e02579bac92daf813dcc92257094835f91460016040518082151515158152602001806020018281038252601c8152602001807f446563727970746564536861726550726f6f66206163636570746564000000008152506020019250505060405180910390a260016040805190810160405280601181526020017f53756d70726f6f662061636365707465640000000000000000000000000000008152509350935050505b97509795505050505050565b600060606000600260009054906101000a900473ffffffffffffffffffffffffffffffffffffffff1673ffffffffffffffffffffffffffffffffffffffff1663b0caa829868689336040518563ffffffff167c0100000000000000000000000000000000000000000000000000000000028152600401808581526020018481526020018381526020018273ffffffffffffffffffffffffffffffffffffffff1673ffffffffffffffffffffffffffffffffffffffff16815260200194505050505060206040518083038186803b15801561115f57600080fd5b505afa158015611173573d6000803e3d6000fd5b505050506040513d602081101561118957600080fd5b81019080805190602001909291905050509050801515611238573373ffffffffffffffffffffffffffffffffffffffff167f5e3bcf275ebed27743f1e6a7da420715dbb1cf382076b6b9edcf71ad26b8b4546000604051808215151515815260200180602001828103825260248152602001806123d0602491396040019250505060405180910390a26000606060405190810160405280602481526020016123d0602491399250925050611341565b85600760030160003373ffffffffffffffffffffffffffffffffffffffff1673ffffffffffffffffffffffffffffffffffffffff1681526020019081526020016000208190555060078001604080519081016040528088815260200160408051908101604052808981526020018881525081525090806001815401808255809150509060018203906000526020600020906003020160009091929091909150600082015181600001556020820151816001016000820151816000015560208201518160010155505050505060016040805190810160405280601e81526020017f4b65792047656e65726174696f6e2050726f6f662069732076616c69642e000081525092509250505b935093915050565b606060076004018054600181600116156101000203166002900480601f0160208091040260200160405190810160405280929190818152602001828054600181600116156101000203166002900480156113e45780601f106113b9576101008083540402835291602001916113e4565b820191906000526020600020905b8154815290600101906020018083116113c757829003601f168201915b5050505050905090565b6000600760080180549050905090565b6000601160019054906101000a900460ff1615151561141c57600080fd5b600760090154905090565b6000601160019054906101000a900460ff16905090565b611446612204565b601160009054906101000a900460ff16151561146157600080fd5b60606040519081016040528060036000015481526020016003600101548152602001600360020154815250905090565b601160039054906101000a900473ffffffffffffffffffffffffffffffffffffffff1673ffffffffffffffffffffffffffffffffffffffff163373ffffffffffffffffffffffffffffffffffffffff161415156114ed57600080fd5b6000601160016101000a81548160ff021916908315150217905550565b600260076008018054905014151561152157600080fd5b60006007600801600081548110151561153657fe5b90600052602060002090600502016000015490506000600190505b600760080180549050811015611650578173__ModuloMathLib_________________________63e616559e909160076008018481548110151561159057fe5b9060005260206000209060050201600001546003600001546040518463ffffffff167c010000000000000000000000000000000000000000000000000000000002815260040180848152602001838152602001828152602001935050505060206040518083038186803b15801561160657600080fd5b505af415801561161a573d6000803e3d6000fd5b505050506040513d602081101561163057600080fd5b810190808051906020019092919050505091508080600101915050611551565b50600060076005016001015473__ModuloMathLib_________________________63e616559e90918473__ModuloMathLib_________________________63a9008ad690916003600001546040518363ffffffff167c0100000000000000000000000000000000000000000000000000000000028152600401808381526020018281526020019250505060206040518083038186803b1580156116f257600080fd5b505af4158015611706573d6000803e3d6000fd5b505050506040513d602081101561171c57600080fd5b81019080805190602001909291905050506003600001546040518463ffffffff167c010000000000000000000000000000000000000000000000000000000002815260040180848152602001838152602001828152602001935050505060206040518083038186803b15801561179157600080fd5b505af41580156117a5573d6000803e3d6000fd5b505050506040513d60208110156117bb57600080fd5b81019080805190602001909291905050509050600080905060006003600201549050600060036000015490505b838273__ModuloMathLib_________________________63edbe2fbd909186856040518463ffffffff167c010000000000000000000000000000000000000000000000000000000002815260040180848152602001838152602001828152602001935050505060206040518083038186803b15801561186657600080fd5b505af415801561187a573d6000803e3d6000fd5b505050506040513d602081101561189057600080fd5b81019080805190602001909291905050501415156118b3576001830192506117e8565b826007600901819055505050505050565b60006060601160019054906101000a900460ff1615156119ab573373ffffffffffffffffffffffffffffffffffffffff167f13dd6fe92e00365cc4b5b06c43c90e02579bac92daf813dcc92257094835f91460006040518082151515158152602001806020018281038252600d8152602001807f566f7465206e6f74206f70656e000000000000000000000000000000000000008152506020019250505060405180910390a260006040805190810160405280600d81526020017f566f7465206e6f74206f70656e0000000000000000000000000000000000000081525091509150611feb565b6000809054906101000a900473ffffffffffffffffffffffffffffffffffffffff1673ffffffffffffffffffffffffffffffffffffffff16632817a98f8888888888336040518763ffffffff167c01000000000000000000000000000000000000000000000000000000000281526004018087600260200280828437600081840152601f19601f82011690508083019250505086600260200280828437600081840152601f19601f82011690508083019250505085600260200280828437600081840152601f19601f82011690508083019250505084600260200280828437600081840152601f19601f82011690508083019250505083600260200280828437600081840152601f19601f8201169050808301925050508273ffffffffffffffffffffffffffffffffffffffff1673ffffffffffffffffffffffffffffffffffffffff168152602001965050505050505060206040518083038186803b158015611b1457600080fd5b505afa158015611b28573d6000803e3d6000fd5b505050506040513d6020811015611b3e57600080fd5b81019080805190602001909291905050501515611c22573373ffffffffffffffffffffffffffffffffffffffff167f13dd6fe92e00365cc4b5b06c43c90e02579bac92daf813dcc92257094835f9146000604051808215151515815260200180602001828103825260118152602001807f50726f6f66206e6f7420636f72726563740000000000000000000000000000008152506020019250505060405180910390a260006040805190810160405280601181526020017f50726f6f66206e6f7420636f727265637400000000000000000000000000000081525091509150611feb565b611c2a612227565b608060405190810160405280886002806020026040519081016040528092919082600260200280828437600081840152601f19601f8201169050808301925050505050508152602001876002806020026040519081016040528092919082600260200280828437600081840152601f19601f8201169050808301925050505050508152602001866002806020026040519081016040528092919082600260200280828437600081840152601f19601f8201169050808301925050505050508152602001856002806020026040519081016040528092919082600260200280828437600081840152601f19601f8201169050808301925050505050508152509050611d32612269565b60408051908101604052808a6000600281101515611d4c57fe5b602002013581526020018a6001600281101515611d6557fe5b60200201358152509050611d77612283565b6060604051908101604052803373ffffffffffffffffffffffffffffffffffffffff1681526020018381526020018481525090506007600101819080600181540180825580915050906001820390600052602060002090600b02016000909192909190915060008201518160000160006101000a81548173ffffffffffffffffffffffffffffffffffffffff021916908373ffffffffffffffffffffffffffffffffffffffff16021790555060208201518160010160008201518160000155602082015181600101555050604082015181600301600082015181600001906002611e629291906122c8565b50602082015181600201906002611e7a9291906122c8565b50604082015181600401906002611e929291906122c8565b50606082015181600601906002611eaa9291906122c8565b50505050505060016007600001600082825401925050819055506001600760020160003373ffffffffffffffffffffffffffffffffffffffff1673ffffffffffffffffffffffffffffffffffffffff16815260200190815260200160002060006101000a81548160ff0219169083151502179055503373ffffffffffffffffffffffffffffffffffffffff167f13dd6fe92e00365cc4b5b06c43c90e02579bac92daf813dcc92257094835f9146001604051808215151515815260200180602001828103825260118152602001807f566f7465207761732061636365707465640000000000000000000000000000008152506020019250505060405180910390a260016040805190810160405280601181526020017f566f746520776173206163636570746564000000000000000000000000000000815250945094505050505b9550959350505050565b6000600760010180549050905090565b601160039054906101000a900473ffffffffffffffffffffffffffffffffffffffff1673ffffffffffffffffffffffffffffffffffffffff163373ffffffffffffffffffffffffffffffffffffffff1614151561206157600080fd5b601160009054906101000a900460ff1615151561207d57600080fd5b60606040519081016040528082600060038110151561209857fe5b602002013581526020018260016003811015156120b157fe5b602002013581526020018260026003811015156120ca57fe5b60200201358152506003600082015181600001556020820151816001015560408201518160020155905050600260009054906101000a900473ffffffffffffffffffffffffffffffffffffffff1673ffffffffffffffffffffffffffffffffffffffff166380d859116003600001546003600101546003600201546040518463ffffffff167c0100000000000000000000000000000000000000000000000000000000028152600401808481526020018381526020018281526020019350505050600060405180830381600087803b1580156121a557600080fd5b505af11580156121b9573d6000803e3d6000fd5b505050506001601160006101000a81548160ff02191690831515021790555050565b608060405190810160405280600081526020016000815260200160008152602001600081525090565b606060405190810160405280600390602082028038833980820191505090505090565b6101006040519081016040528061223c612308565b8152602001612249612308565b8152602001612256612308565b8152602001612263612308565b81525090565b604080519081016040528060008152602001600081525090565b61016060405190810160405280600073ffffffffffffffffffffffffffffffffffffffff1681526020016122b561232a565b81526020016122c2612344565b81525090565b82600281019282156122f7579160200282015b828111156122f65782518255916020019190600101906122db565b5b5090506123049190612386565b5090565b6040805190810160405280600290602082028038833980820191505090505090565b604080519081016040528060008152602001600081525090565b61010060405190810160405280612359612308565b8152602001612366612308565b8152602001612373612308565b8152602001612380612308565b81525090565b6123a891905b808211156123a457600081600090555060010161238c565b5090565b9056fe5075626c6963204b6579206f66207468652053797374656d206e6f7420796574207365744b65792047656e65726174696f6e2050726f6f66206973206e6f7420636f72726563742ea165627a7a72305820f003db1c14bd478fa9960f49f85481b0c73cacd05b0a771cedb8e44dd5a120630029608060405234801561001057600080fd5b506080604051908101604052806000815260200160008152602001600081526020016000815250600080820151816000015560208201518160010155604082015181600201556060820151816003015590505061116c806100726000396000f3fe608060405260043610610046576000357c0100000000000000000000000000000000000000000000000000000000900480632817a98f1461004b57806360a2da44146101fa575b600080fd5b34801561005757600080fd5b506101e0600480360361016081101561006f57600080fd5b8101908080604001906002806020026040519081016040528092919082600260200280828437600081840152601f19601f820116905080830192505050505050919291929080604001906002806020026040519081016040528092919082600260200280828437600081840152601f19601f820116905080830192505050505050919291929080604001906002806020026040519081016040528092919082600260200280828437600081840152601f19601f820116905080830192505050505050919291929080604001906002806020026040519081016040528092919082600260200280828437600081840152601f19601f820116905080830192505050505050919291929080604001906002806020026040519081016040528092919082600260200280828437600081840152601f19601f8201169050808301925050505050509192919290803573ffffffffffffffffffffffffffffffffffffffff169060200190929190505050610246565b604051808215151515815260200191505060405180910390f35b6102446004803603608081101561021057600080fd5b8101908080359060200190929190803590602001909291908035906020019092919080359060200190929190505050610482565b005b60006102506110cf565b60a06040519081016040528089815260200188815260200187815260200186815260200185815250905060006102e48260200151600060028110151561029257fe5b6020020151836060015160006002811015156102aa57fe5b6020020151846080015160006002811015156102c257fe5b6020020151856000015160006002811015156102da57fe5b60200201516104af565b90506000610350836020015160016002811015156102fe57fe5b60200201518460800151600160028110151561031657fe5b60200201518560600151600160028110151561032e57fe5b60200201518660000151600060028110151561034657fe5b60200201516106ff565b905060006103bc8460400151600060028110151561036a57fe5b60200201518560600151600060028110151561038257fe5b60200201518660800151600060028110151561039a57fe5b6020020151876000015160016002811015156103b257fe5b602002015161094f565b90506000610428856040015160016002811015156103d657fe5b6020020151866060015160016002811015156103ee57fe5b60200201518760800151600160028110151561040657fe5b60200201518860000151600160028110151561041e57fe5b6020020151610b9f565b9050600061044986602001518760400151886060015189600001518c610ebb565b90508480156104555750835b801561045e5750825b80156104675750815b80156104705750805b96505050505050509695505050505050565b83600080018190555082600060010181905550816000600201819055508060006003018190555050505050565b60008060006002015473__ModuloMathLib_________________________63edbe2fbd90918660008001546040518463ffffffff167c010000000000000000000000000000000000000000000000000000000002815260040180848152602001838152602001828152602001935050505060206040518083038186803b15801561053857600080fd5b505af415801561054c573d6000803e3d6000fd5b505050506040513d602081101561056257600080fd5b8101908080519060200190929190505050905060008673__ModuloMathLib_________________________63e616559e90918673__ModuloMathLib_________________________63edbe2fbd90918b60008001546040518463ffffffff167c010000000000000000000000000000000000000000000000000000000002815260040180848152602001838152602001828152602001935050505060206040518083038186803b15801561061557600080fd5b505af4158015610629573d6000803e3d6000fd5b505050506040513d602081101561063f57600080fd5b810190808051906020019092919050505060008001546040518463ffffffff167c010000000000000000000000000000000000000000000000000000000002815260040180848152602001838152602001828152602001935050505060206040518083038186803b1580156106b357600080fd5b505af41580156106c7573d6000803e3d6000fd5b505050506040513d60208110156106dd57600080fd5b8101908080519060200190929190505050905080821492505050949350505050565b60008060006002015473__ModuloMathLib_________________________63edbe2fbd90918760008001546040518463ffffffff167c010000000000000000000000000000000000000000000000000000000002815260040180848152602001838152602001828152602001935050505060206040518083038186803b15801561078857600080fd5b505af415801561079c573d6000803e3d6000fd5b505050506040513d60208110156107b257600080fd5b8101908080519060200190929190505050905060008673__ModuloMathLib_________________________63e616559e90918673__ModuloMathLib_________________________63edbe2fbd90918a60008001546040518463ffffffff167c010000000000000000000000000000000000000000000000000000000002815260040180848152602001838152602001828152602001935050505060206040518083038186803b15801561086557600080fd5b505af4158015610879573d6000803e3d6000fd5b505050506040513d602081101561088f57600080fd5b810190808051906020019092919050505060008001546040518463ffffffff167c010000000000000000000000000000000000000000000000000000000002815260040180848152602001838152602001828152602001935050505060206040518083038186803b15801561090357600080fd5b505af4158015610917573d6000803e3d6000fd5b505050506040513d602081101561092d57600080fd5b8101908080519060200190929190505050905080821492505050949350505050565b60008060006003015473__ModuloMathLib_________________________63edbe2fbd90918660008001546040518463ffffffff167c010000000000000000000000000000000000000000000000000000000002815260040180848152602001838152602001828152602001935050505060206040518083038186803b1580156109d857600080fd5b505af41580156109ec573d6000803e3d6000fd5b505050506040513d6020811015610a0257600080fd5b8101908080519060200190929190505050905060008673__ModuloMathLib_________________________63e616559e90918673__ModuloMathLib_________________________63edbe2fbd90918b60008001546040518463ffffffff167c010000000000000000000000000000000000000000000000000000000002815260040180848152602001838152602001828152602001935050505060206040518083038186803b158015610ab557600080fd5b505af4158015610ac9573d6000803e3d6000fd5b505050506040513d6020811015610adf57600080fd5b810190808051906020019092919050505060008001546040518463ffffffff167c010000000000000000000000000000000000000000000000000000000002815260040180848152602001838152602001828152602001935050505060206040518083038186803b158015610b5357600080fd5b505af4158015610b67573d6000803e3d6000fd5b505050506040513d6020811015610b7d57600080fd5b8101908080519060200190929190505050905080821492505050949350505050565b60008060006003015473__ModuloMathLib_________________________63edbe2fbd90918660008001546040518463ffffffff167c010000000000000000000000000000000000000000000000000000000002815260040180848152602001838152602001828152602001935050505060206040518083038186803b158015610c2857600080fd5b505af4158015610c3c573d6000803e3d6000fd5b505050506040513d6020811015610c5257600080fd5b8101908080519060200190929190505050905060008373__ModuloMathLib_________________________636378bd6c909160006002015460008001546040518463ffffffff167c010000000000000000000000000000000000000000000000000000000002815260040180848152602001838152602001828152602001935050505060206040518083038186803b158015610ced57600080fd5b505af4158015610d01573d6000803e3d6000fd5b505050506040513d6020811015610d1757600080fd5b8101908080519060200190929190505050905060008173__ModuloMathLib_________________________63edbe2fbd90918960008001546040518463ffffffff167c010000000000000000000000000000000000000000000000000000000002815260040180848152602001838152602001828152602001935050505060206040518083038186803b158015610dad57600080fd5b505af4158015610dc1573d6000803e3d6000fd5b505050506040513d6020811015610dd757600080fd5b8101908080519060200190929190505050905060008873__ModuloMathLib_________________________63e616559e90918460008001546040518463ffffffff167c010000000000000000000000000000000000000000000000000000000002815260040180848152602001838152602001828152602001935050505060206040518083038186803b158015610e6d57600080fd5b505af4158015610e81573d6000803e3d6000fd5b505050506040513d6020811015610e9757600080fd5b81019080805190602001909291905050509050808414945050505050949350505050565b600080846001600281101515610ecd57fe5b602002015173__ModuloMathLib_________________________63a2f0dc8d9091876000600281101515610efd57fe5b60200201516000600101546040518463ffffffff167c010000000000000000000000000000000000000000000000000000000002815260040180848152602001838152602001828152602001935050505060206040518083038186803b158015610f6657600080fd5b505af4158015610f7a573d6000803e3d6000fd5b505050506040513d6020811015610f9057600080fd5b81019080805190602001909291905050509050600083856000600281101515610fb557fe5b6020020151866001600281101515610fc957fe5b60200201518a6000600281101515610fdd57fe5b60200201518a6000600281101515610ff157fe5b60200201518c600160028110151561100557fe5b60200201518c600160028110151561101957fe5b6020020151604051602001808873ffffffffffffffffffffffffffffffffffffffff1673ffffffffffffffffffffffffffffffffffffffff166c0100000000000000000000000002815260140187815260200186815260200185815260200184815260200183815260200182815260200197505050505050505060405160208183030381529060405280519060200120905060006001015481600190048115156110bf57fe5b0682149250505095945050505050565b610140604051908101604052806110e461111e565b81526020016110f161111e565b81526020016110fe61111e565b815260200161110b61111e565b815260200161111861111e565b81525090565b604080519081016040528060029060208202803883398082019150509050509056fea165627a7a723058207eea973ec4dcd7eecc476cffe17a0a8387654510bc80c93e575e258ee40d00440029608060405234801561001057600080fd5b506080604051908101604052806000815260200160008152602001600081526020016000815250600080820151816000015560208201518160010155604082015181600201556060820151816003015590505061079c806100726000396000f3fe608060405260043610610046576000357c01000000000000000000000000000000000000000000000000000000009004806360a2da441461004b578063b6b81a2614610097575b600080fd5b6100956004803603608081101561006157600080fd5b8101908080359060200190929190803590602001909291908035906020019092919080359060200190929190505050610147565b005b3480156100a357600080fd5b5061012d60048036036101008110156100bb57600080fd5b81019080803590602001909291908035906020019092919080359060200190929190803590602001909291908035906020019092919080359060200190929190803573ffffffffffffffffffffffffffffffffffffffff16906020019092919080359060200190929190505050610174565b604051808215151515815260200191505060405180910390f35b83600080018190555082600060010181905550816000600201819055508060006003018190555050505050565b600061017e610739565b60c0604051908101604052808b81526020018a815260200189815260200188815260200187815260200186815250905060006101d3826000015183602001518460400151856060015189600060010154610695565b90506000826000015173__ModuloMathLib_________________________63edbe2fbd90918560a0015160008001546040518463ffffffff167c010000000000000000000000000000000000000000000000000000000002815260040180848152602001838152602001828152602001935050505060206040518083038186803b15801561026057600080fd5b505af4158015610274573d6000803e3d6000fd5b505050506040513d602081101561028a57600080fd5b810190808051906020019092919050505090506000836040015173__ModuloMathLib_________________________63e616559e9091866080015173__ModuloMathLib_________________________63edbe2fbd90918860008001546040518463ffffffff167c010000000000000000000000000000000000000000000000000000000002815260040180848152602001838152602001828152602001935050505060206040518083038186803b15801561034557600080fd5b505af4158015610359573d6000803e3d6000fd5b505050506040513d602081101561036f57600080fd5b810190808051906020019092919050505060008001546040518463ffffffff167c010000000000000000000000000000000000000000000000000000000002815260040180848152602001838152602001828152602001935050505060206040518083038186803b1580156103e357600080fd5b505af41580156103f7573d6000803e3d6000fd5b505050506040513d602081101561040d57600080fd5b81019080805190602001909291905050509050600081831490506000806002015473__ModuloMathLib_________________________63edbe2fbd90918860a0015160008001546040518463ffffffff167c010000000000000000000000000000000000000000000000000000000002815260040180848152602001838152602001828152602001935050505060206040518083038186803b1580156104b257600080fd5b505af41580156104c6573d6000803e3d6000fd5b505050506040513d60208110156104dc57600080fd5b810190808051906020019092919050505090506000866060015173__ModuloMathLib_________________________63e616559e90918b73__ModuloMathLib_________________________63edbe2fbd90918b60008001546040518463ffffffff167c010000000000000000000000000000000000000000000000000000000002815260040180848152602001838152602001828152602001935050505060206040518083038186803b15801561059357600080fd5b505af41580156105a7573d6000803e3d6000fd5b505050506040513d60208110156105bd57600080fd5b810190808051906020019092919050505060008001546040518463ffffffff167c010000000000000000000000000000000000000000000000000000000002815260040180848152602001838152602001828152602001935050505060206040518083038186803b15801561063157600080fd5b505af4158015610645573d6000803e3d6000fd5b505050506040513d602081101561065b57600080fd5b810190808051906020019092919050505090506000818314905083801561067f5750805b9850505050505050505098975050505050505050565b6000808388888888604051602001808673ffffffffffffffffffffffffffffffffffffffff1673ffffffffffffffffffffffffffffffffffffffff166c010000000000000000000000000281526014018581526020018481526020018381526020018281526020019550505050505060405160208183030381529060405280519060200120905082816001900481151561072b57fe5b069150509695505050505050565b60c060405190810160405280600081526020016000815260200160008152602001600081526020016000815260200160008152509056fea165627a7a72305820f1766d2cfc281960a2c3376739d6d0c2ee371c625691f28dca427c29a7ea45c30029608060405234801561001057600080fd5b50606060405190810160405280600081526020016000815260200160008152506000808201518160000155602082015181600101556040820151816002015590505061071d806100616000396000f3fe608060405260043610610046576000357c01000000000000000000000000000000000000000000000000000000009004806380d859111461004b578063b0caa8291461008d575b600080fd5b61008b6004803603606081101561006157600080fd5b81019080803590602001909291908035906020019092919080359060200190929190505050610114565b005b34801561009957600080fd5b506100fa600480360360808110156100b057600080fd5b81019080803590602001909291908035906020019092919080359060200190929190803573ffffffffffffffffffffffffffffffffffffffff169060200190929190505050610136565b604051808215151515815260200191505060405180910390f35b8260008001819055508160006001018190555080600060020181905550505050565b6000806000800154905060008060010154905060008060020154905061015a6106d7565b60408051908101604052808a8152602001898152509050600061018883868a85602001518660000151610401565b9050600061019885898b85610645565b9050600081846000015114905060008573__ModuloMathLib_________________________63edbe2fbd909187602001518b6040518463ffffffff167c010000000000000000000000000000000000000000000000000000000002815260040180848152602001838152602001828152602001935050505060206040518083038186803b15801561022857600080fd5b505af415801561023c573d6000803e3d6000fd5b505050506040513d602081101561025257600080fd5b8101908080519060200190929190505050905060008473__ModuloMathLib_________________________63e616559e90918e73__ModuloMathLib_________________________63edbe2fbd90918b600001518f6040518463ffffffff167c010000000000000000000000000000000000000000000000000000000002815260040180848152602001838152602001828152602001935050505060206040518083038186803b15801561030557600080fd5b505af4158015610319573d6000803e3d6000fd5b505050506040513d602081101561032f57600080fd5b81019080805190602001909291905050508c6040518463ffffffff167c010000000000000000000000000000000000000000000000000000000002815260040180848152602001838152602001828152602001935050505060206040518083038186803b15801561039f57600080fd5b505af41580156103b3573d6000803e3d6000fd5b505050506040513d60208110156103c957600080fd5b81019080805190602001909291905050509050600081831490508380156103ed5750805b9a5050505050505050505050949350505050565b6000808673__ModuloMathLib_________________________63edbe2fbd909186896040518463ffffffff167c010000000000000000000000000000000000000000000000000000000002815260040180848152602001838152602001828152602001935050505060206040518083038186803b15801561048157600080fd5b505af4158015610495573d6000803e3d6000fd5b505050506040513d60208110156104ab57600080fd5b8101908080519060200190929190505050905060008573__ModuloMathLib_________________________63edbe2fbd9091868a6040518463ffffffff167c010000000000000000000000000000000000000000000000000000000002815260040180848152602001838152602001828152602001935050505060206040518083038186803b15801561053d57600080fd5b505af4158015610551573d6000803e3d6000fd5b505050506040513d602081101561056757600080fd5b8101908080519060200190929190505050905060008273__ModuloMathLib_________________________636378bd6c9091848b6040518463ffffffff167c010000000000000000000000000000000000000000000000000000000002815260040180848152602001838152602001828152602001935050505060206040518083038186803b1580156105f957600080fd5b505af415801561060d573d6000803e3d6000fd5b505050506040513d602081101561062357600080fd5b8101908080519060200190929190505050905080935050505095945050505050565b600080848484604051602001808473ffffffffffffffffffffffffffffffffffffffff1673ffffffffffffffffffffffffffffffffffffffff166c0100000000000000000000000002815260140183815260200182815260200193505050506040516020818303038152906040528051906020012090508581600190048115156106cb57fe5b06915050949350505050565b60408051908101604052806000815260200160008152509056fea165627a7a72305820accd17d378fce4139ce04eeea90f6b6af8b4f8c5063c25bc5ede29ef1a30c0450029",
  "source": "pragma solidity ^0.5.3;\n\nimport './VoteProofVerifier.sol';\nimport './SumProofVerifier.sol';\nimport './KeyGenProofVerifier.sol';\nimport './ModuloMathLib.sol';\n\ncontract Ballot {\n    // /////////////////////////////////\n    // libraries\n    // /////////////////////////////////\n    using ModuloMathLib for uint256;\n\n    // /////////////////////////////////\n    // structs\n    // /////////////////////////////////\n    struct SystemParameters {\n        uint256 p; // prime\n        uint256 q; // prime factor: p = 2*q+1\n        uint256 g; // generator\n    }\n\n    struct PublicKey {\n        uint256 h;\n    }\n\n    struct PublicKeyShare {\n        uint256 share;\n        KeyShareProof keyShareProof;\n    }\n\n    struct DecryptedShare {\n        uint256 share;\n        DecryptedShareProof decryptedShareProof;\n    }\n\n    struct Election {\n        uint256 nrOfVoters;\n        Voter[] voters;\n        mapping(address => bool) hasVoted;\n        mapping(address => uint256) pubKeyShareMapping;\n        string votingQuestion;\n        Cipher sumCipher;\n        PublicKeyShare[] publicKeyShares;\n        DecryptedShare[] decryptedShares;\n        uint256 yesVotes;\n    }\n\n    struct Voter {\n        address voterAddress;\n        Cipher cipher;\n        VoteProof voteProof;\n    }\n\n    struct Cipher {\n        uint256 a;\n        uint256 b;\n    }\n\n    struct VoteProof {\n        uint256[2] a;\n        uint256[2] b;\n        uint256[2] c;\n        uint256[2] f;\n    }\n\n    struct DecryptedShareProof {\n        uint256 a1;\n        uint256 b1;\n        uint256 d;\n        uint256 f;\n    }\n\n    struct KeyShareProof {\n        uint256 c;\n        uint256 d;\n    }\n\n    // /////////////////////////////////\n    // constants\n    // /////////////////////////////////\n\n    // The number of PublicKeyShare needed to create the publicKey (# of authorities)\n    uint256 private constant NR_OF_AUTHORITY_NODES = 2;\n\n    // /////////////////////////////////\n    // events\n    // /////////////////////////////////\n    event VoteStatusEvent(address indexed from, bool success, string reason);\n    event SystemStatusEvent(address indexed from, bool success, string reason);\n\n    // /////////////////////////////////\n    // variables\n    // /////////////////////////////////\n    VoteProofVerifier private voteVerifier;\n    SumProofVerifier private sumVerifier;\n    KeyGenProofVerifier private keyGenProofVerifier;\n\n    SystemParameters private systemParameters;\n    PublicKey private publicKey;\n    Election private election;\n    bool private IS_PARAMETERS_SET;\n    bool private IS_VOTING_OPEN;\n    bool private IS_PUBKEY_SET;\n    address private _owner;\n\n    // /////////////////////////////////\n    // constructor\n    // /////////////////////////////////\n    constructor(string memory votingQuestion) public {\n        voteVerifier = new VoteProofVerifier();\n        sumVerifier = new SumProofVerifier();\n        keyGenProofVerifier = new KeyGenProofVerifier();\n\n        IS_PARAMETERS_SET = false;\n        IS_VOTING_OPEN = false;\n        IS_PUBKEY_SET = false;\n\n        _owner = msg.sender;\n\n        // initialize empty Election struct\n        election.nrOfVoters = 0;\n        election.voters.length = 0;\n        election.votingQuestion = votingQuestion;\n        election.publicKeyShares.length = 0;\n        election.decryptedShares.length = 0;\n        election.yesVotes = 0;\n    }\n\n    // /////////////////////////////////\n    // BUND core functions (owner)\n    // /////////////////////////////////\n    function setParameters(uint256[3] calldata params) external {\n        require(msg.sender == _owner);\n        require(!IS_PARAMETERS_SET);\n        systemParameters = SystemParameters(params[0], params[1], params[2]);\n        keyGenProofVerifier.initialize(systemParameters.p, systemParameters.q, systemParameters.g);\n        IS_PARAMETERS_SET = true;\n    }\n\n    function generatePublicKey() external {\n        require(msg.sender == _owner);\n        require(!IS_PUBKEY_SET);\n        require(election.publicKeyShares.length > 0);\n        require(NR_OF_AUTHORITY_NODES == election.publicKeyShares.length);\n\n        uint256 key = election.publicKeyShares[0].share;\n\n        // create the combines public key\n        for (uint256 i = 1; i < election.publicKeyShares.length; i++) {\n            key = key.modMul(election.publicKeyShares[i].share, systemParameters.p);\n        }\n\n        // set the public key\n        publicKey = PublicKey(key);\n\n        IS_PUBKEY_SET = true;\n    }\n\n    function createVerifiers() public {\n        require(msg.sender == _owner);\n        voteVerifier.initialize(systemParameters.p, systemParameters.q, systemParameters.g, publicKey.h);\n        sumVerifier.initialize(systemParameters.p, systemParameters.q, systemParameters.g, publicKey.h);\n    }\n\n    function openBallot() public {\n        require(msg.sender == _owner);\n\n        IS_VOTING_OPEN = true;\n    }\n\n    function closeBallot() public {\n        require(msg.sender == _owner);\n\n        IS_VOTING_OPEN = false;\n    }\n\n    function combineDecryptedShares() public {\n        require(election.decryptedShares.length == NR_OF_AUTHORITY_NODES);\n\n        uint256 res = election.decryptedShares[0].share;\n\n        for (uint256 i = 1; i < election.decryptedShares.length; i++) {\n            res = res.modMul(election.decryptedShares[i].share, systemParameters.p);\n        }\n\n        uint256 mh = election.sumCipher.b.modMul(res.modInv(systemParameters.p), systemParameters.p);\n\n        // decode message (** is power operator)\n        uint256 m = 0;\n        uint256 g = systemParameters.g;\n        uint256 p = systemParameters.p;\n        while ((g.modPow(m, p)) != mh) {\n            m = m + 1;\n        }\n\n        election.yesVotes = m;\n    }\n\n    // /////////////////////////////////\n    // KANTON core functions\n    // /////////////////////////////////\n    function submitPublicKeyShare(uint256 key, uint256 proof_c, uint256 proof_d)\n        external\n        returns (bool, string memory)\n    {\n        bool proofValid = keyGenProofVerifier.verifyProof(proof_c, proof_d, key, msg.sender);\n\n        if (!proofValid) {\n            emit SystemStatusEvent(msg.sender, false, 'Key Generation Proof is not correct.');\n            return (false, 'Key Generation Proof is not correct.');\n        }\n\n        election.pubKeyShareMapping[msg.sender] = key;\n        election.publicKeyShares.push(PublicKeyShare(key, KeyShareProof(proof_c, proof_d)));\n        return (true, 'Key Generation Proof is valid.');\n    }\n\n    function submitDecryptedShare(uint256 share, uint256 a, uint256 b, uint256 a1, uint256 b1, uint256 d, uint256 f)\n        external\n        returns (bool, string memory)\n    {\n        if (IS_VOTING_OPEN) {\n            emit VoteStatusEvent(msg.sender, false, 'Vote is still ongoing');\n            return (false, 'Vote is still ongoing');\n        }\n\n        uint256 publicKeyShare = election.pubKeyShareMapping[msg.sender];\n        if (!sumVerifier.verifyProof(a, b, a1, b1, d, f, msg.sender, publicKeyShare)) {\n            emit VoteStatusEvent(msg.sender, false, 'Proof not correct');\n            return (false, 'Proof not correct');\n        }\n\n        DecryptedShareProof memory proof = DecryptedShareProof(a1, b1, d, f);\n        election.decryptedShares.push(DecryptedShare(share, proof));\n\n        // TODO: figure out how to do this properly, this is needed in\n        // combineDecryptedShares, but it's not elegant if it's overwritten\n        // each time some authority submits a decrypted share\n        election.sumCipher = Cipher(a, b);\n\n        emit VoteStatusEvent(msg.sender, true, 'DecryptedShareProof accepted');\n        return (true, 'Sumproof accepted');\n    }\n\n    // /////////////////////////////////\n    // VOTER core functions\n    // /////////////////////////////////\n    function vote(\n        uint256[2] calldata cipher,\n        uint256[2] calldata a,\n        uint256[2] calldata b,\n        uint256[2] calldata c,\n        uint256[2] calldata f\n    ) external returns (bool, string memory) {\n        if (!IS_VOTING_OPEN) {\n            emit VoteStatusEvent(msg.sender, false, 'Vote not open');\n            return (false, 'Vote not open');\n        }\n\n        // TODO: Enable once system is ready\n        // if(election.hasVoted[msg.sender]) {\n        // \temit VoteStatusEvent(msg.sender, false, \"Voter already voted\");\n        // \treturn (false, \"Voter already voted\");\n        // }\n\n        if (!voteVerifier.verifyProof(cipher, a, b, c, f, msg.sender)) {\n            emit VoteStatusEvent(msg.sender, false, 'Proof not correct');\n            return (false, 'Proof not correct');\n        }\n\n        VoteProof memory voteProof = VoteProof(a, b, c, f);\n        Cipher memory _cipher = Cipher(cipher[0], cipher[1]);\n        Voter memory voter = Voter(msg.sender, _cipher, voteProof);\n\n        election.voters.push(voter);\n        election.nrOfVoters += 1;\n        election.hasVoted[msg.sender] = true;\n\n        emit VoteStatusEvent(msg.sender, true, 'Vote was accepted');\n        return (true, 'Vote was accepted');\n    }\n\n    // /////////////////////////////////\n    // getters\n    // /////////////////////////////////\n\n    function getVotingQuestion() external view returns (string memory) {\n        return election.votingQuestion;\n    }\n\n    // get system parameters\n    function getParameters() external view returns (uint256[3] memory) {\n        require(IS_PARAMETERS_SET);\n        return [systemParameters.p, systemParameters.q, systemParameters.g];\n    }\n\n    // get combined public key of the system\n    function getPublicKey() public view returns (uint256) {\n        require(IS_PUBKEY_SET, 'Public Key of the System not yet set');\n        return publicKey.h;\n    }\n\n    // get a vote cipher at a specific index\n    function getVote(uint256 idx) public view returns (uint256, uint256) {\n        return (election.voters[idx].cipher.a, election.voters[idx].cipher.b);\n    }\n\n    // get the total number of votes in election.voters\n    function getNumberOfVotes() public view returns (uint256) {\n        return election.voters.length;\n    }\n\n    // get the status of the ballot {open | closed}\n    function getBallotStatus() public view returns (bool) {\n        return IS_VOTING_OPEN;\n    }\n\n    // get the total number of decrypted shares\n    function getNrOfDecryptedShares() public view returns (uint256) {\n        return election.decryptedShares.length;\n    }\n\n    // get a decrypted share at a specific index\n    function getDecryptedShare(uint256 idx) public view returns (uint256) {\n        return election.decryptedShares[idx].share;\n    }\n\n    // get vote result\n    function getVoteResult() public view returns (uint256) {\n        require(!IS_VOTING_OPEN);\n\n        return election.yesVotes;\n    }\n}\n",
  "sourcePath": "/home/alex/University/eVoting/master-project-evoting/contracts/contracts/FiniteField/Ballot.sol",
  "compiler": {
    "name": "solc",
    "version": "0.5.3+commit.10d17f24.Emscripten.clang"
  },
  "schemaVersion": "3.0.19",
  "updatedAt": "2019-12-04T13:40:14.844Z",
  "devdoc": {
    "methods": {}
  },
  "userdoc": {
    "methods": {}
  }
}