{
  "contractName": "ModuloMathLib",
  "abi": [
    {
      "constant": true,
      "inputs": [
        {
          "internalType": "uint256",
          "name": "a",
          "type": "uint256"
        },
        {
          "internalType": "uint256",
          "name": "b",
          "type": "uint256"
        },
        {
          "internalType": "uint256",
          "name": "modulus",
          "type": "uint256"
        }
      ],
      "name": "modAdd",
      "outputs": [
        {
          "internalType": "uint256",
          "name": "res",
          "type": "uint256"
        }
      ],
      "payable": false,
      "stateMutability": "view",
      "type": "function"
    },
    {
      "constant": true,
      "inputs": [
        {
          "internalType": "uint256",
          "name": "a",
          "type": "uint256"
        },
        {
          "internalType": "uint256",
          "name": "b",
          "type": "uint256"
        },
        {
          "internalType": "uint256",
          "name": "modulus",
          "type": "uint256"
        }
      ],
      "name": "modSub",
      "outputs": [
        {
          "internalType": "uint256",
          "name": "res",
          "type": "uint256"
        }
      ],
      "payable": false,
      "stateMutability": "view",
      "type": "function"
    },
    {
      "constant": true,
      "inputs": [
        {
          "internalType": "uint256",
          "name": "a",
          "type": "uint256"
        },
        {
          "internalType": "uint256",
          "name": "b",
          "type": "uint256"
        },
        {
          "internalType": "uint256",
          "name": "modulus",
          "type": "uint256"
        }
      ],
      "name": "modMul",
      "outputs": [
        {
          "internalType": "uint256",
          "name": "res",
          "type": "uint256"
        }
      ],
      "payable": false,
      "stateMutability": "view",
      "type": "function"
    },
    {
      "constant": true,
      "inputs": [
        {
          "internalType": "uint256",
          "name": "a",
          "type": "uint256"
        },
        {
          "internalType": "uint256",
          "name": "b",
          "type": "uint256"
        },
        {
          "internalType": "uint256",
          "name": "modulus",
          "type": "uint256"
        }
      ],
      "name": "modDiv",
      "outputs": [
        {
          "internalType": "uint256",
          "name": "res",
          "type": "uint256"
        }
      ],
      "payable": false,
      "stateMutability": "view",
      "type": "function"
    },
    {
      "constant": true,
      "inputs": [
        {
          "internalType": "uint256",
          "name": "a",
          "type": "uint256"
        },
        {
          "internalType": "uint256",
          "name": "b",
          "type": "uint256"
        },
        {
          "internalType": "uint256",
          "name": "modulus",
          "type": "uint256"
        }
      ],
      "name": "modPow",
      "outputs": [
        {
          "internalType": "uint256",
          "name": "res",
          "type": "uint256"
        }
      ],
      "payable": false,
      "stateMutability": "view",
      "type": "function"
    },
    {
      "constant": true,
      "inputs": [
        {
          "internalType": "uint256",
          "name": "a",
          "type": "uint256"
        },
        {
          "internalType": "uint256",
          "name": "p",
          "type": "uint256"
        }
      ],
      "name": "modInv",
      "outputs": [
        {
          "internalType": "uint256",
          "name": "res",
          "type": "uint256"
        }
      ],
      "payable": false,
      "stateMutability": "pure",
      "type": "function"
    }
  ],
  "bytecode": "0x6103c7610026600b82828239805160001a60731461001957fe5b30600052607381538281f3fe730000000000000000000000000000000000000000301460806040526004361061006c5760003560e01c80633e7657dd146100715780636378bd6c146100c7578063a2f0dc8d1461011d578063a9008ad614610173578063e616559e146101bf578063edbe2fbd14610215575b600080fd5b6100b16004803603606081101561008757600080fd5b8101908080359060200190929190803590602001909291908035906020019092919050505061026b565b6040518082815260200191505060405180910390f35b610107600480360360608110156100dd57600080fd5b81019080803590602001909291908035906020019092919080359060200190929190505050610282565b6040518082815260200191505060405180910390f35b61015d6004803603606081101561013357600080fd5b810190808035906020019092919080359060200190929190803590602001909291905050506102a1565b6040518082815260200191505060405180910390f35b6101a96004803603604081101561018957600080fd5b8101908080359060200190929190803590602001909291905050506102b8565b6040518082815260200191505060405180910390f35b6101ff600480360360608110156101d557600080fd5b81019080803590602001909291908035906020019092919080359060200190929190505050610364565b6040518082815260200191505060405180910390f35b6102556004803603606081101561022b57600080fd5b8101908080359060200190929190803590602001909291908035906020019092919050505061037b565b6040518082815260200191505060405180910390f35b6000818385038161027857fe5b0690509392505050565b60006102988461029285856102b8565b84610364565b90509392505050565b600081838501816102ae57fe5b0690509392505050565b6000808314806102c757508183145b806102d25750600082145b156102dc57600080fd5b818311156102f1578183816102ed57fe5b0692505b600080600190506000849050600086905060005b6000821461033a5781838161031657fe5b04905083848202860383848402860380955081965082975083985050505050610305565b6000851215610355578460000387039550505050505061035e565b84955050505050505b92915050565b6000818385028161037157fe5b0690509392505050565b60008183850a8161038857fe5b069050939250505056fea265627a7a72315820ea21f463be7fdfd121e632696351cd14ef7ff358644d5e29eb950478b47e5d2064736f6c634300050d0032",
  "source": "pragma solidity ^0.5.13;\n\n// Modulo math function used by the contracts in the eVoting system\nlibrary ModuloMathLib {\n    function modAdd(uint256 a, uint256 b, uint256 modulus) public view returns (uint256 res) {\n        return (a + b) % modulus;\n    }\n\n    function modSub(uint256 a, uint256 b, uint256 modulus) public view returns (uint256 res) {\n        return (a - b) % modulus;\n    }\n\n    function modMul(uint256 a, uint256 b, uint256 modulus) public view returns (uint256 res) {\n        return (a * b) % modulus;\n    }\n\n    function modDiv(uint256 a, uint256 b, uint256 modulus) public view returns (uint256 res) {\n        return modMul(a, modInv(b, modulus), modulus);\n    }\n\n    function modPow(uint256 a, uint256 b, uint256 modulus) public view returns (uint256 res) {\n        return (a**b) % modulus;\n    }\n\n    /// @dev Modular inverse of a (mod p) using euclid.\n    /// \"a\" and \"p\" must be co-prime.\n    /// @param a The number.\n    /// @param p The modulus.\n    /// @return x such that ax = 1 (mod p)\n    // inspired by: https://github.com/stonecoldpat/anonymousvoting/blob/master/LocalCrypto.sol\n    function modInv(uint256 a, uint256 p) public pure returns (uint256 res) {\n        if (a == 0 || a == p || p == 0) revert();\n        if (a > p) a = a % p;\n        int256 t1;\n        int256 t2 = 1;\n        uint256 r1 = p;\n        uint256 r2 = a;\n        uint256 q;\n        while (r2 != 0) {\n            q = r1 / r2;\n            (t1, t2, r1, r2) = (t2, t1 - int256(q) * t2, r2, r1 - q * r2);\n        }\n        if (t1 < 0) return (p - uint256(-t1));\n        return uint256(t1);\n    }\n}\n",
  "sourcePath": "/home/nik/dev/uni/map/master-project-sink/contracts/contracts/FiniteField/ModuloMathLib.sol",
  "compiler": {
    "name": "solc",
    "version": "0.5.13+commit.5b0b510c.Emscripten.clang"
  },
  "schemaVersion": "3.0.19",
  "updatedAt": "2019-12-02T06:54:50.331Z",
  "devdoc": {
    "methods": {
      "modInv(uint256,uint256)": {
        "details": "Modular inverse of a (mod p) using euclid. \"a\" and \"p\" must be co-prime.",
        "params": {
          "a": "The number.",
          "p": "The modulus."
        },
        "return": "x such that ax = 1 (mod p)"
      }
    }
  },
  "userdoc": {
    "methods": {}
  }
}