{
  "contractName": "Ballot",
  "abi": [
    {
      "inputs": [],
      "payable": false,
      "stateMutability": "nonpayable",
      "type": "constructor"
    },
    {
      "constant": false,
      "inputs": [
        {
          "name": "params",
          "type": "uint256[3]"
        }
      ],
      "name": "setParameters",
      "outputs": [],
      "payable": false,
      "stateMutability": "nonpayable",
      "type": "function"
    },
    {
      "constant": true,
      "inputs": [],
      "name": "getParameters",
      "outputs": [
        {
          "name": "",
          "type": "uint256[3]"
        }
      ],
      "payable": false,
      "stateMutability": "view",
      "type": "function"
    },
    {
      "constant": false,
      "inputs": [
        {
          "name": "key",
          "type": "uint256"
        }
      ],
      "name": "setPublicKey",
      "outputs": [],
      "payable": false,
      "stateMutability": "nonpayable",
      "type": "function"
    },
    {
      "constant": true,
      "inputs": [],
      "name": "getPublicKey",
      "outputs": [
        {
          "name": "",
          "type": "uint256"
        }
      ],
      "payable": false,
      "stateMutability": "view",
      "type": "function"
    },
    {
      "constant": false,
      "inputs": [],
      "name": "createVerifiers",
      "outputs": [],
      "payable": false,
      "stateMutability": "nonpayable",
      "type": "function"
    },
    {
      "constant": true,
      "inputs": [
        {
          "name": "cipher",
          "type": "uint256[2]"
        },
        {
          "name": "a",
          "type": "uint256[2]"
        },
        {
          "name": "b",
          "type": "uint256[2]"
        },
        {
          "name": "c",
          "type": "uint256[2]"
        },
        {
          "name": "f",
          "type": "uint256[2]"
        },
        {
          "name": "id",
          "type": "address"
        }
      ],
      "name": "verifyVote",
      "outputs": [
        {
          "name": "",
          "type": "bool"
        }
      ],
      "payable": false,
      "stateMutability": "view",
      "type": "function"
    }
  ],
  "bytecode": "0x608060405234801561001057600080fd5b5061001961007a565b604051809103906000f080158015610035573d6000803e3d6000fd5b506000806101000a81548173ffffffffffffffffffffffffffffffffffffffff021916908373ffffffffffffffffffffffffffffffffffffffff16021790555061008a565b604051610f37806107ff83390190565b610766806100996000396000f3fe608060405260043610610078576000357c0100000000000000000000000000000000000000000000000000000000900463ffffffff16806317639a7c1461007d578063255b8d9c146100b85780632e33445214610267578063339f845b14610292578063a5ea11da146102a9578063df2252b9146102fc575b600080fd5b34801561008957600080fd5b506100b6600480360360208110156100a057600080fd5b810190808035906020019092919050505061036e565b005b3480156100c457600080fd5b5061024d60048036036101608110156100dc57600080fd5b8101908080604001906002806020026040519081016040528092919082600260200280828437600081840152601f19601f820116905080830192505050505050919291929080604001906002806020026040519081016040528092919082600260200280828437600081840152601f19601f820116905080830192505050505050919291929080604001906002806020026040519081016040528092919082600260200280828437600081840152601f19601f820116905080830192505050505050919291929080604001906002806020026040519081016040528092919082600260200280828437600081840152601f19601f820116905080830192505050505050919291929080604001906002806020026040519081016040528092919082600260200280828437600081840152601f19601f8201169050808301925050505050509192919290803573ffffffffffffffffffffffffffffffffffffffff169060200190929190505050610390565b604051808215151515815260200191505060405180910390f35b34801561027357600080fd5b5061027c610583565b6040518082815260200191505060405180910390f35b34801561029e57600080fd5b506102a7610590565b005b3480156102b557600080fd5b506102be610665565b6040518082600360200280838360005b838110156102e95780820151818401526020810190506102ce565b5050505090500191505060405180910390f35b34801561030857600080fd5b5061036c6004803603606081101561031f57600080fd5b8101908080606001906003806020026040519081016040528092919082600360200280828437600081840152601f19601f820116905080830192505050505050919291929050505061069c565b005b6020604051908101604052808281525060046000820151816000015590505050565b60008060009054906101000a900473ffffffffffffffffffffffffffffffffffffffff1673ffffffffffffffffffffffffffffffffffffffff16632817a98f8888888888886040518763ffffffff167c01000000000000000000000000000000000000000000000000000000000281526004018087600260200280838360005b8381101561042b578082015181840152602081019050610410565b5050505090500186600260200280838360005b8381101561045957808201518184015260208101905061043e565b5050505090500185600260200280838360005b8381101561048757808201518184015260208101905061046c565b5050505090500184600260200280838360005b838110156104b557808201518184015260208101905061049a565b5050505090500183600260200280838360005b838110156104e35780820151818401526020810190506104c8565b505050509050018273ffffffffffffffffffffffffffffffffffffffff1673ffffffffffffffffffffffffffffffffffffffff168152602001965050505050505060206040518083038186803b15801561053c57600080fd5b505afa158015610550573d6000803e3d6000fd5b505050506040513d602081101561056657600080fd5b810190808051906020019092919050505090509695505050505050565b6000600460000154905090565b6000809054906101000a900473ffffffffffffffffffffffffffffffffffffffff1673ffffffffffffffffffffffffffffffffffffffff166360a2da4460016000015460018001546001600201546004600001546040518563ffffffff167c010000000000000000000000000000000000000000000000000000000002815260040180858152602001848152602001838152602001828152602001945050505050600060405180830381600087803b15801561064b57600080fd5b505af115801561065f573d6000803e3d6000fd5b50505050565b61066d610717565b606060405190810160405280600160000154815260200160018001548152602001600160020154815250905090565b6060604051908101604052808260006003811015156106b757fe5b602002015181526020018260016003811015156106d057fe5b602002015181526020018260026003811015156106e957fe5b6020020151815250600160008201518160000155602082015181600101556040820151816002015590505050565b60606040519081016040528060039060208202803883398082019150509050509056fea165627a7a723058201d5fb3c0b832390707a7e1616abc271afe46061b1dcdb7bcfe4681f4d12b507b0029608060405234801561001057600080fd5b5060806040519081016040528060008152602001600081526020016000815260200160008152506000808201518160000155602082015181600101556040820151816002015560608201518160030155905050610ec5806100726000396000f3fe6080604052600436106100c5576000357c0100000000000000000000000000000000000000000000000000000000900463ffffffff1680632817a98f146100ca5780632e4c697f146102795780634d59eb95146102d25780635bf82b18146104405780635e3dc188146104b157806360a2da4414610522578063771602f71461056e5780639ea91168146105c75780639ee957ac14610638578063a391c15b146106a9578063b67d77c514610702578063bf5b29331461075b578063c8a4ac9c146107b4575b600080fd5b3480156100d657600080fd5b5061025f60048036036101608110156100ee57600080fd5b8101908080604001906002806020026040519081016040528092919082600260200280828437600081840152601f19601f820116905080830192505050505050919291929080604001906002806020026040519081016040528092919082600260200280828437600081840152601f19601f820116905080830192505050505050919291929080604001906002806020026040519081016040528092919082600260200280828437600081840152601f19601f820116905080830192505050505050919291929080604001906002806020026040519081016040528092919082600260200280828437600081840152601f19601f820116905080830192505050505050919291929080604001906002806020026040519081016040528092919082600260200280828437600081840152601f19601f8201169050808301925050505050509192919290803573ffffffffffffffffffffffffffffffffffffffff16906020019092919050505061080d565b604051808215151515815260200191505060405180910390f35b34801561028557600080fd5b506102bc6004803603604081101561029c57600080fd5b810190808035906020019092919080359060200190929190505050610a49565b6040518082815260200191505060405180910390f35b3480156102de57600080fd5b5061042660048036036101208110156102f657600080fd5b8101908080604001906002806020026040519081016040528092919082600260200280828437600081840152601f19601f820116905080830192505050505050919291929080604001906002806020026040519081016040528092919082600260200280828437600081840152601f19601f820116905080830192505050505050919291929080604001906002806020026040519081016040528092919082600260200280828437600081840152601f19601f820116905080830192505050505050919291929080604001906002806020026040519081016040528092919082600260200280828437600081840152601f19601f8201169050808301925050505050509192919290803573ffffffffffffffffffffffffffffffffffffffff169060200190929190505050610a65565b604051808215151515815260200191505060405180910390f35b34801561044c57600080fd5b506104976004803603608081101561046357600080fd5b8101908080359060200190929190803590602001909291908035906020019092919080359060200190929190505050610bcf565b604051808215151515815260200191505060405180910390f35b3480156104bd57600080fd5b50610508600480360360808110156104d457600080fd5b8101908080359060200190929190803590602001909291908035906020019092919080359060200190929190505050610c17565b604051808215151515815260200191505060405180910390f35b61056c6004803603608081101561053857600080fd5b8101908080359060200190929190803590602001909291908035906020019092919080359060200190929190505050610c51565b005b34801561057a57600080fd5b506105b16004803603604081101561059157600080fd5b810190808035906020019092919080359060200190929190505050610c7e565b6040518082815260200191505060405180910390f35b3480156105d357600080fd5b5061061e600480360360808110156105ea57600080fd5b8101908080359060200190929190803590602001909291908035906020019092919080359060200190929190505050610c9a565b604051808215151515815260200191505060405180910390f35b34801561064457600080fd5b5061068f6004803603608081101561065b57600080fd5b8101908080359060200190929190803590602001909291908035906020019092919080359060200190929190505050610cd4565b604051808215151515815260200191505060405180910390f35b3480156106b557600080fd5b506106ec600480360360408110156106cc57600080fd5b810190808035906020019092919080359060200190929190505050610d0e565b6040518082815260200191505060405180910390f35b34801561070e57600080fd5b506107456004803603604081101561072557600080fd5b810190808035906020019092919080359060200190929190505050610d3e565b6040518082815260200191505060405180910390f35b34801561076757600080fd5b5061079e6004803603604081101561077e57600080fd5b810190808035906020019092919080359060200190929190505050610d5a565b6040518082815260200191505060405180910390f35b3480156107c057600080fd5b506107f7600480360360408110156107d757600080fd5b810190808035906020019092919080359060200190929190505050610e0c565b6040518082815260200191505060405180910390f35b6000610817610e28565b60a06040519081016040528089815260200188815260200187815260200186815260200185815250905060006108ab8260200151600060028110151561085957fe5b60200201518360600151600060028110151561087157fe5b60200201518460800151600060028110151561088957fe5b6020020151856000015160006002811015156108a157fe5b6020020151610c17565b90506000610917836020015160016002811015156108c557fe5b6020020151846080015160016002811015156108dd57fe5b6020020151856060015160016002811015156108f557fe5b60200201518660000151600060028110151561090d57fe5b6020020151610cd4565b905060006109838460400151600060028110151561093157fe5b60200201518560600151600060028110151561094957fe5b60200201518660800151600060028110151561096157fe5b60200201518760000151600160028110151561097957fe5b6020020151610c9a565b905060006109ef8560400151600160028110151561099d57fe5b6020020151866060015160016002811015156109b557fe5b6020020151876080015160016002811015156109cd57fe5b6020020151886000015160016002811015156109e557fe5b6020020151610bcf565b90506000610a1086602001518760400151886060015189600001518c610a65565b9050848015610a1c5750835b8015610a255750825b8015610a2e5750815b8015610a375750805b96505050505050509695505050505050565b6000806000015482840a811515610a5c57fe5b06905092915050565b600080600060010154856000600281101515610a7d57fe5b6020020151866001600281101515610a9157fe5b602002015101811515610aa057fe5b069050600083856000600281101515610ab557fe5b6020020151866001600281101515610ac957fe5b60200201518a6000600281101515610add57fe5b60200201518a6000600281101515610af157fe5b60200201518c6001600281101515610b0557fe5b60200201518c6001600281101515610b1957fe5b6020020151604051602001808873ffffffffffffffffffffffffffffffffffffffff1673ffffffffffffffffffffffffffffffffffffffff166c010000000000000000000000000281526014018781526020018681526020018581526020018481526020018381526020018281526020019750505050505050506040516020818303038152906040528051906020012090506000600101548160019004811515610bbf57fe5b0682149250505095945050505050565b600080610be160006003015485610a49565b90506000610c0687610c01610bfb87600060020154610d0e565b89610a49565b610e0c565b905080821492505050949350505050565b600080610c2960006002015485610a49565b90506000610c4087610c3b8689610a49565b610e0c565b905080821492505050949350505050565b83600080018190555082600060010181905550816000600201819055508060006003018190555050505050565b60008060010154828401811515610c9157fe5b06905092915050565b600080610cac60006003015485610a49565b90506000610cc387610cbe8689610a49565b610e0c565b905080821492505050949350505050565b600080610ce660006002015486610a49565b90506000610cfd87610cf88688610a49565b610e0c565b905080821492505050949350505050565b60008060000154610d2c84610d27856000800154610d5a565b610e0c565b811515610d3557fe5b06905092915050565b60008060010154828403811515610d5157fe5b06905092915050565b600080831480610d6957508183145b80610d745750600082145b15610d7e57600080fd5b81831115610d95578183811515610d9157fe5b0692505b600080600190506000849050600086905060005b600082141515610de2578183811515610dbe57fe5b04905083848202860383848402860380955081965082975083985050505050610da9565b6000851215610dfd5784600003870395505050505050610e06565b84955050505050505b92915050565b60008060000154828402811515610e1f57fe5b06905092915050565b61014060405190810160405280610e3d610e77565b8152602001610e4a610e77565b8152602001610e57610e77565b8152602001610e64610e77565b8152602001610e71610e77565b81525090565b604080519081016040528060029060208202803883398082019150509050509056fea165627a7a72305820d4411304e4d926319c42bb471eb19d7eca7c5d65512d7939ebe8c819da19031b0029",
  "source": "pragma solidity ^0.5.0;\n\nimport './VoteProofVerifier.sol';\n\ncontract Ballot {\n\n\tstruct SystemParameters {\n    uint p; // prime\n    uint q; // prime factor: p = 2*q+1\n    uint g; // generator\n  }\n\n\tstruct PublicKey {\n\t\tuint h;\n\t}\n\n\tVoteProofVerifier voteVerifier;\n\tSystemParameters systemParameters;\n\tPublicKey publicKey;\n\n\tconstructor() public{\n\t\tvoteVerifier = new VoteProofVerifier();\n\t}\n\n  function setParameters(uint[3] memory params) public {\n      systemParameters = SystemParameters(params[0], params[1], params[2]);\n  }\n\n  function getParameters() public view returns (uint[3] memory) {\n      return [systemParameters.p, systemParameters.q, systemParameters.g];\n  }\n\n\tfunction setPublicKey(uint key) public {\n\t\t\tpublicKey = PublicKey(key);\n\t}\n\n\tfunction getPublicKey() public view returns (uint) {\n\t\treturn publicKey.h;\n\t}\n\n\tfunction createVerifiers() public {\n\t\tvoteVerifier.initialize(systemParameters.p, systemParameters.q, systemParameters.g, publicKey.h);\n\t}\n\n\tfunction verifyVote(\n\t\tuint[2] memory cipher, // a, b\n    uint[2] memory a,\n    uint[2] memory b,\n    uint[2] memory c,\n    uint[2] memory f,\n\t\taddress id\n\t) public view returns(bool) {\n\t\treturn voteVerifier.verifyProof(cipher, a, b, c, f, id);\n\t}\n}\n",
  "sourcePath": "/home/meck/code/master-project-sink/voter-frontend/contracts/Ballot.sol",
  "compiler": {
    "name": "solc",
    "version": "0.5.0+commit.1d4f565a.Emscripten.clang"
  },
  "schemaVersion": "3.0.17",
  "updatedAt": "2019-11-14T11:23:29.220Z",
  "devdoc": {
    "methods": {}
  },
  "userdoc": {
    "methods": {}
  }
}