{
  "contractName": "BigNumberVerifier",
  "abi": [
    {
      "constant": true,
      "inputs": [
        {
          "name": "a_val",
          "type": "bytes"
        },
        {
          "name": "a_bitlen",
          "type": "uint256"
        },
        {
          "name": "b_val",
          "type": "bytes"
        },
        {
          "name": "b_bitlen",
          "type": "uint256"
        }
      ],
      "name": "testAddition",
      "outputs": [
        {
          "name": "",
          "type": "bytes"
        },
        {
          "name": "",
          "type": "bool"
        },
        {
          "name": "",
          "type": "uint256"
        }
      ],
      "payable": false,
      "stateMutability": "view",
      "type": "function"
    }
  ],
  "bytecode": "0x608060405234801561001057600080fd5b50610c38806100206000396000f3fe608060405260043610610041576000357c0100000000000000000000000000000000000000000000000000000000900463ffffffff1680631b30088414610046575b600080fd5b34801561005257600080fd5b506101b76004803603608081101561006957600080fd5b810190808035906020019064010000000081111561008657600080fd5b82018360208201111561009857600080fd5b803590602001918460018302840111640100000000831117156100ba57600080fd5b91908080601f016020809104026020016040519081016040528093929190818152602001838380828437600081840152601f19601f820116905080830192505050505050509192919290803590602001909291908035906020019064010000000081111561012757600080fd5b82018360208201111561013957600080fd5b8035906020019184600183028401116401000000008311171561015b57600080fd5b91908080601f016020809104026020016040519081016040528093929190818152602001838380828437600081840152601f19601f82011690508083019250505050505050919291929080359060200190929190505050610244565b604051808060200184151515158152602001838152602001828103825285818151815260200191508051906020019080838360005b838110156102075780820151818401526020810190506101ec565b50505050905090810190601f1680156102345780820380516001836020036101000a031916815260200191505b5094505050505060405180910390f35b6060600080610251610be8565b60606040519081016040528089815260200160001515815260200188815250905061027a610be8565b6060604051908101604052808881526020016000151581526020018781525090506102a3610be8565b6102b682846102dd90919063ffffffff16565b90508060000151816020015182604001518292509550955095505050509450945094915050565b6102e5610be8565b6102ed610be8565b60606040519081016040528060408051908101604052806020815260200160008152508152602001600015158152602001600081525090506000846040015114801561033d575060008360400151145b1561034b578091505061053e565b600084604001511415610361578291505061053e565b600083604001511415610377578391505061053e565b606060008061038887876000610544565b905086602001518061039b575085602001515b156104c657866020015180156103b2575085602001515b1561041b576000811215156103e5576103d887600001518760000151896040015161070f565b8093508194505050610405565b6103fc86600001518860000151886040015161070f565b80935081945050505b60018560200190151590811515815250506104c1565b60018114156104575761043687600001518760000151610862565b809350819450505086602001518560200190151590811515815250506104c0565b7fffffffffffffffffffffffffffffffffffffffffffffffffffffffffffffffff8114156104b35761049186600001518860000151610862565b80935081945050508660200151158560200190151590811515815250506104bf565b8394505050505061053e565b5b5b610526565b6000811215156104f4576104e787600001518760000151896040015161070f565b8093508194505050610514565b61050b86600001518860000151886040015161070f565b80935081945050505b60008560200190151590811515815250505b82856000018190525081856040018181525050505050505b92915050565b60008060019050821561060f5784602001518015610563575083602001515b15610590577fffffffffffffffffffffffffffffffffffffffffffffffffffffffffffffffff905061060e565b60001515856020015115151480156105b057506001151584602001511515145b156105bf576001915050610708565b60011515856020015115151480156105df57506000151584602001511515145b1561060d577fffffffffffffffffffffffffffffffffffffffffffffffffffffffffffffffff915050610708565b5b5b83604001518560400151111561062b5780600102915050610708565b84604001518460400151111561066657807fffffffffffffffffffffffffffffffffffffffffffffffffffffffffffffffff02915050610708565b6000806000806000896000015151905060208a510194506020895101935060008090505b818110156106fc57808601519350808501519250828411156106b85786600102975050505050505050610708565b838311156106f157867fffffffffffffffffffffffffffffffffffffffffffffffffffffffffffffffff02975050505050505050610708565b60208101905061068a565b50600096505050505050505b9392505050565b606060006060596001600003600088518901885189018a5160208601018b515b600080821414156107dc5783518c518e5103821160018114610774578682018452600187148289141660018114610769576000975061076e565b600197505b506107c3565b84518781840101855287810389038311600181146107b5576000821160008a11178a851416600181146107aa57600099506107af565b600199505b506107ba565b600198505b50602086039550505b506020830392506020850394505060208103905061072f565b5060008414600181146107f257600182526107f9565b6020870196505b50859650836020028c510187526020875101870160405250505050505060006020820151905060016101008681151561082e57fe5b0682908060020a820491505014806108465750600181145b15610852578460010194505b8185935093505050935093915050565b606060006060600080905059600160000387518751808203828b01828b0184870160208101865b6000808214141561091a578451868211600181146108cb578c8203855260018d146000831416600181146108c05760009d506108c5565b60019d505b50610901565b85518d81840303865260018e148c8214168e8201841017600181146108f35760009e506108f8565b60019e505b50602087039650505b5060208403935060208603955050602081039050610889565b506020820191505b60008251141561094357602089019850602087039650602082019150610922565b889a50868b5280604052505050505050505050600061096183610973565b90508281945094505050509250929050565b60008060208301519050600860208451030261098e82610997565b01915050919050565b60008082905060018303925060028304831792506004830483179250601083048317925061010083048317925062010000830483179250640100000000830483179250680100000000000000008304831792507001000000000000000000000000000000008304831792506001830192506040517ff8f9cbfae6cc78fbefe7cdc3a1793dfcf4f0e8bbd8cec470b6a28a7a5a3e1efd81527ff5ecf1b3e9debc68e1d9cfabc5997135bfb7a7a3938b7b606b5b4b3f2f1f0ffe60208201527ff6e4ed9ff2d6b458eadcdf97bd91692de2d4da8fd2d0ac50c6ae9a827252361660408201527fc8c0b887b0a8a4489c948c7f847c6125746c645c544c444038302820181008ff60608201527ff7cae577eec2a03cf3bad76fb589591debb2dd67e0aa9834bea6925f6a4a2e0e60808201527fe39ed557db96902cd38ed14fad815115c786af479b7e8324736353433727170760a08201527fc976c13bb96e881cb166a933a55e490d9d56952b8d4e801485467d236242260660c08201527f753a6d1b65325d0c552a4d1345224105391a310b29122104190a11030902010060e082015261010081016040527e818283848586878898a8b8c8d8e8f929395969799a9b9d9e9faaeb6bedeeff7f01000000000000000000000000000000000000000000000000000000000000008082870204818160ff038501510495507f800000000000000000000000000000000000000000000000000000000000000085116101000286019550505050506000600182038216148015610bd6575060008314155b15610be2578160010191505b50919050565b6060604051908101604052806060815260200160001515815260200160008152509056fea165627a7a723058203e0b084e2358b9610049875443e5c50efcefacc48e009e08ed0f7739046939c80029",
  "source": "pragma solidity ^0.5.0;\n\nimport \"./BigNumber.sol\";\n\ncontract BigNumberVerifier {\n  using BigNumber for *;\n\n  function testAddition(bytes memory a_val, uint a_bitlen, bytes memory b_val, uint b_bitlen) public view returns (bytes memory, bool, uint) {\n    BigNumber.instance memory a = BigNumber.instance(a_val, false, a_bitlen);\n    BigNumber.instance memory b = BigNumber.instance(b_val, false, b_bitlen);\n    BigNumber.instance memory res = a.prepare_add(b);\n\n    return (res.val, res.neg, res.bitlen);\n  }\n\n  // // calls prepare_add, and by extension bn_add and bn_sub\n  // function mock_bn_add(bytes memory a_val, bool a_neg, uint a_bitlen,  bytes memory b_val, bool b_neg, uint b_bitlen) public pure returns (bytes memory, bool, uint) {\n  //   BigNumber.instance memory a = BigNumber.instance(a_val, a_neg, a_bitlen);\n  //   BigNumber.instance memory b = BigNumber.instance(b_val, b_neg, b_bitlen);\n  //   BigNumber.instance memory res = a.prepare_add(b);\n\n  //   return (res.val, res.neg, res.bitlen);\n  // }\n}",
  "sourcePath": "/home/meck/code/master-project-sink/voter-frontend/contracts/BigNumberVerifier.sol",
  "compiler": {
    "name": "solc",
    "version": "0.5.0+commit.1d4f565a.Emscripten.clang"
  },
  "schemaVersion": "3.0.17",
  "updatedAt": "2019-11-14T11:23:29.255Z",
  "devdoc": {
    "methods": {}
  },
  "userdoc": {
    "methods": {}
  }
}