{
  "contractName": "EllipticCurve",
  "abi": [
    {
      "constant": true,
      "inputs": [
        {
          "name": "_x",
          "type": "uint256"
        },
        {
          "name": "_pp",
          "type": "uint256"
        }
      ],
      "name": "invMod",
      "outputs": [
        {
          "name": "",
          "type": "uint256"
        }
      ],
      "payable": false,
      "stateMutability": "pure",
      "type": "function"
    },
    {
      "constant": true,
      "inputs": [
        {
          "name": "_base",
          "type": "uint256"
        },
        {
          "name": "_exp",
          "type": "uint256"
        },
        {
          "name": "_pp",
          "type": "uint256"
        }
      ],
      "name": "expMod",
      "outputs": [
        {
          "name": "",
          "type": "uint256"
        }
      ],
      "payable": false,
      "stateMutability": "pure",
      "type": "function"
    },
    {
      "constant": true,
      "inputs": [
        {
          "name": "_x",
          "type": "uint256"
        },
        {
          "name": "_y",
          "type": "uint256"
        },
        {
          "name": "_z",
          "type": "uint256"
        },
        {
          "name": "_pp",
          "type": "uint256"
        }
      ],
      "name": "toAffine",
      "outputs": [
        {
          "name": "",
          "type": "uint256"
        },
        {
          "name": "",
          "type": "uint256"
        }
      ],
      "payable": false,
      "stateMutability": "pure",
      "type": "function"
    },
    {
      "constant": true,
      "inputs": [
        {
          "name": "_prefix",
          "type": "uint8"
        },
        {
          "name": "_x",
          "type": "uint256"
        },
        {
          "name": "_aa",
          "type": "uint256"
        },
        {
          "name": "_bb",
          "type": "uint256"
        },
        {
          "name": "_pp",
          "type": "uint256"
        }
      ],
      "name": "deriveY",
      "outputs": [
        {
          "name": "",
          "type": "uint256"
        }
      ],
      "payable": false,
      "stateMutability": "pure",
      "type": "function"
    },
    {
      "constant": true,
      "inputs": [
        {
          "name": "_x",
          "type": "uint256"
        },
        {
          "name": "_y",
          "type": "uint256"
        },
        {
          "name": "_aa",
          "type": "uint256"
        },
        {
          "name": "_bb",
          "type": "uint256"
        },
        {
          "name": "_pp",
          "type": "uint256"
        }
      ],
      "name": "isOnCurve",
      "outputs": [
        {
          "name": "",
          "type": "bool"
        }
      ],
      "payable": false,
      "stateMutability": "pure",
      "type": "function"
    },
    {
      "constant": true,
      "inputs": [
        {
          "name": "_x",
          "type": "uint256"
        },
        {
          "name": "_y",
          "type": "uint256"
        },
        {
          "name": "_pp",
          "type": "uint256"
        }
      ],
      "name": "ecInv",
      "outputs": [
        {
          "name": "",
          "type": "uint256"
        },
        {
          "name": "",
          "type": "uint256"
        }
      ],
      "payable": false,
      "stateMutability": "pure",
      "type": "function"
    },
    {
      "constant": true,
      "inputs": [
        {
          "name": "_x1",
          "type": "uint256"
        },
        {
          "name": "_y1",
          "type": "uint256"
        },
        {
          "name": "_x2",
          "type": "uint256"
        },
        {
          "name": "_y2",
          "type": "uint256"
        },
        {
          "name": "_aa",
          "type": "uint256"
        },
        {
          "name": "_pp",
          "type": "uint256"
        }
      ],
      "name": "ecAdd",
      "outputs": [
        {
          "name": "",
          "type": "uint256"
        },
        {
          "name": "",
          "type": "uint256"
        }
      ],
      "payable": false,
      "stateMutability": "pure",
      "type": "function"
    },
    {
      "constant": true,
      "inputs": [
        {
          "name": "_x1",
          "type": "uint256"
        },
        {
          "name": "_y1",
          "type": "uint256"
        },
        {
          "name": "_x2",
          "type": "uint256"
        },
        {
          "name": "_y2",
          "type": "uint256"
        },
        {
          "name": "_aa",
          "type": "uint256"
        },
        {
          "name": "_pp",
          "type": "uint256"
        }
      ],
      "name": "ecSub",
      "outputs": [
        {
          "name": "",
          "type": "uint256"
        },
        {
          "name": "",
          "type": "uint256"
        }
      ],
      "payable": false,
      "stateMutability": "pure",
      "type": "function"
    },
    {
      "constant": true,
      "inputs": [
        {
          "name": "_k",
          "type": "uint256"
        },
        {
          "name": "_x",
          "type": "uint256"
        },
        {
          "name": "_y",
          "type": "uint256"
        },
        {
          "name": "_aa",
          "type": "uint256"
        },
        {
          "name": "_pp",
          "type": "uint256"
        }
      ],
      "name": "ecMul",
      "outputs": [
        {
          "name": "",
          "type": "uint256"
        },
        {
          "name": "",
          "type": "uint256"
        }
      ],
      "payable": false,
      "stateMutability": "pure",
      "type": "function"
    }
  ],
  "bytecode": "0x608060405234801561001057600080fd5b50611371806100206000396000f3fe608060405260043610610099576000357c0100000000000000000000000000000000000000000000000000000000900463ffffffff1680631b54f8241461009e578063364b62d5146100f757806337103a67146101755780635bf11ed3146101f05780637559d550146102785780638ba5ceeb146102e2578063ad69caa51461035c578063c4371a1c146103bf578063c5e45aa414610433575b600080fd5b3480156100aa57600080fd5b506100e1600480360360408110156100c157600080fd5b8101908080359060200190929190803590602001909291905050506104bb565b6040518082815260200191505060405180910390f35b34801561010357600080fd5b50610158600480360360a081101561011a57600080fd5b8101908080359060200190929190803590602001909291908035906020019092919080359060200190929190803590602001909291905050506105bd565b604051808381526020018281526020019250505060405180910390f35b34801561018157600080fd5b506101d6600480360360a081101561019857600080fd5b8101908080359060200190929190803590602001909291908035906020019092919080359060200190929190803590602001909291905050506105f7565b604051808215151515815260200191505060405180910390f35b3480156101fc57600080fd5b5061025b600480360360c081101561021357600080fd5b810190808035906020019092919080359060200190929190803590602001909291908035906020019092919080359060200190929190803590602001909291905050506106a9565b604051808381526020018281526020019250505060405180910390f35b34801561028457600080fd5b506102c56004803603606081101561029b57600080fd5b810190808035906020019092919080359060200190929190803590602001909291905050506106dd565b604051808381526020018281526020019250505060405180910390f35b3480156102ee57600080fd5b50610346600480360360a081101561030557600080fd5b81019080803560ff169060200190929190803590602001909291908035906020019092919080359060200190929190803590602001909291905050506106fb565b6040518082815260200191505060405180910390f35b34801561036857600080fd5b506103a96004803603606081101561037f57600080fd5b8101908080359060200190929190803590602001909291908035906020019092919050505061078d565b6040518082815260200191505060405180910390f35b3480156103cb57600080fd5b50610416600480360360808110156103e257600080fd5b81019080803590602001909291908035906020019092919080359060200190929190803590602001909291905050506108bb565b604051808381526020018281526020019250505060405180910390f35b34801561043f57600080fd5b5061049e600480360360c081101561045657600080fd5b8101908080359060200190929190803590602001909291908035906020019092919080359060200190929190803590602001909291908035906020019092919050505061091e565b604051808381526020018281526020019250505060405180910390f35b6000808314806104ca57508183145b806104d55750600082145b15610548576040517f08c379a000000000000000000000000000000000000000000000000000000000815260040180806020018281038252600e8152602001807f496e76616c6964206e756d62657200000000000000000000000000000000000081525060200191505060405180910390fd5b60008090506000600190506000849050600086905060005b6000821415156105af57818381151561057557fe5b049050838780151561058357fe5b8880151561058d57fe5b8684098903870880955081965050508182820284038093508194505050610560565b849550505050505092915050565b60008060008060006105d48a8a8a60018b8b610993565b9250925092506105e6838383896108bb565b945094505050509550959350505050565b6000856000148061060757508186145b806106125750846000145b8061061c57508185145b1561062a57600090506106a0565b60008280151561063657fe5b868709905060008380151561064757fe5b888580151561065257fe5b8a8b0909905060008614151561067e578380151561066c57fe5b8480151561067657fe5b878a09820890505b600085141515610698578380151561069257fe5b85820890505b808214925050505b95945050505050565b6000806000806106ba8888876106dd565b915091506106cc8a8a84848a8a61091e565b935093505050965096945050505050565b60008084838585038115156106ee57fe5b0691509150935093915050565b6000808280151561070857fe5b8380151561071257fe5b858580151561071d57fe5b888a09088480151561072b57fe5b8580151561073557fe5b898a0989090890506107578160046001860181151561075057fe5b048561078d565b905060008060028960ff16840181151561076d57fe5b061461077b5781840361077d565b815b9050809250505095945050505050565b6000808414156107a057600090506108b4565b60008314156107b257600190506108b4565b6000821415610829576040517f08c379a000000000000000000000000000000000000000000000000000000000815260040180806020018281038252600f8152602001807f4d6f64756c7573206973207a65726f000000000000000000000000000000000081525060200191505060405180910390fd5b60006001905060007f800000000000000000000000000000000000000000000000000000000000000090505b60008111156108ae57838186161515870a85848509099150836002820486161515870a85848509099150836004820486161515870a85848509099150836008820486161515870a85848509099150601081049050610855565b81925050505b9392505050565b60008060006108ca85856104bb565b90506000848015156108d857fe5b82830990506000858015156108e957fe5b828a0990506000868015156108fa57fe5b8780151561090457fe5b8486098a0990508181955095505050505094509492505050565b600080600080905060008090506000809050888b1415610957576109468b8b60018a8a610b45565b809350819450829550505050610975565b6109688b8b60018c8c60018c610d47565b8093508194508295505050505b610981838383896108bb565b94509450505050965096945050505050565b6000806000808990506109a46112ff565b898160006003811015156109b457fe5b602002018181525050888160016003811015156109cd57fe5b602002018181525050878160026003811015156109e657fe5b6020020181815250506000809050600080905060006001905060008e1415610a1b578282829750975097505050505050610b39565b5b600085141515610b2a57600060018616141515610a8857610a7b838383876000600381101515610a4857fe5b6020020151886001600381101515610a5c57fe5b6020020151896002600381101515610a7057fe5b60200201518f610d47565b8093508194508295505050505b600285811515610a9457fe5b049450610add846000600381101515610aa957fe5b6020020151856001600381101515610abd57fe5b6020020151866002600381101515610ad157fe5b60200201518d8d610b45565b866000600381101515610aec57fe5b60200201876001600381101515610aff57fe5b60200201886002600381101515610b1257fe5b60200201838152508381525083815250505050610a1c565b82828297509750975050505050505b96509650969350505050565b600080600080861415610b6057878787925092509250610d3c565b610b686112ff565b84801515610b7257fe5b898a09816000600381101515610b8457fe5b60200201818152505084801515610b9757fe5b888909816001600381101515610ba957fe5b60200201818152505084801515610bbc57fe5b878809816002600381101515610bce57fe5b602002018181525050600085801515610be357fe5b86801515610bed57fe5b836001600381101515610bfc57fe5b60200201518c096004099050600086801515610c1457fe5b87801515610c1e57fe5b88801515610c2857fe5b856002600381101515610c3757fe5b6020020151866002600381101515610c4b57fe5b6020020151098a0988801515610c5d57fe5b856000600381101515610c6c57fe5b6020020151600309089050600087801515610c8357fe5b88801515610c8d57fe5b848508890389801515610c9c57fe5b848509089050600088801515610cae57fe5b89801515610cb857fe5b8a801515610cc257fe5b876001600381101515610cd157fe5b6020020151886001600381101515610ce557fe5b6020020151096008098a038a801515610cfa57fe5b8b801515610d0457fe5b858d0388088609089050600089801515610d1a57fe5b8a801515610d2457fe5b8d8f0960020990508282829850985098505050505050505b955095509592505050565b6000806000808a148015610d5b5750600089145b15610d6e578686869250925092506112f2565b600087148015610d7e5750600086145b15610d91578989899250925092506112f2565b610d99611322565b84801515610da357fe5b898a09816000600481101515610db557fe5b60200201818152505084801515610dc857fe5b816000600481101515610dd757fe5b60200201518a09816001600481101515610ded57fe5b60200201818152505084801515610e0057fe5b868709816002600481101515610e1257fe5b60200201818152505084801515610e2557fe5b816002600481101515610e3457fe5b60200201518709816003600481101515610e4a57fe5b60200201818152505060806040519081016040528086801515610e6957fe5b836002600481101515610e7857fe5b60200201518e09815260200186801515610e8e57fe5b836003600481101515610e9d57fe5b60200201518d09815260200186801515610eb357fe5b836000600481101515610ec257fe5b60200201518b09815260200186801515610ed857fe5b836001600481101515610ee757fe5b60200201518a098152509050806002600481101515610f0257fe5b6020020151816000600481101515610f1657fe5b6020020151141561102c57806003600481101515610f3057fe5b6020020151816001600481101515610f4457fe5b6020020151141515610fbe576040517f08c379a000000000000000000000000000000000000000000000000000000000815260040180806020018281038252600a8152602001807f57726f6e6720646174610000000000000000000000000000000000000000000081525060200191505060405180910390fd5b6040517f08c379a00000000000000000000000000000000000000000000000000000000081526004018080602001828103825260128152602001807f55736520646f75626c6520696e7374656164000000000000000000000000000081525060200191505060405180910390fd5b611034611322565b8580151561103e57fe5b82600060048110151561104d57fe5b6020020151870383600260048110151561106357fe5b60200201510881600060048110151561107857fe5b6020020181815250508580151561108b57fe5b82600160048110151561109a57fe5b602002015187038360036004811015156110b057fe5b6020020151088160016004811015156110c557fe5b602002018181525050858015156110d857fe5b8160006004811015156110e757fe5b60200201518260006004811015156110fb57fe5b60200201510981600260048110151561111057fe5b6020020181815250508580151561112357fe5b81600060048110151561113257fe5b602002015182600260048110151561114657fe5b60200201510981600360048110151561115b57fe5b60200201818152505060008680151561117057fe5b82600360048110151561117f57fe5b602002015188038880151561119057fe5b84600160048110151561119f57fe5b60200201518560016004811015156111b357fe5b602002015109089050868015156111c657fe5b878015156111d057fe5b888015156111da57fe5b8460026004811015156111e957fe5b60200201518660006004811015156111fd57fe5b60200201510960020988038208905060008780151561121857fe5b8880151561122257fe5b838a038a80151561122f57fe5b86600260048110151561123e57fe5b602002015188600060048110151561125257fe5b6020020151090884600160048110151561126857fe5b60200201510990508780151561127a57fe5b8880151561128457fe5b84600360048110151561129357fe5b60200201518660016004811015156112a757fe5b6020020151098903820890506000888015156112bf57fe5b898015156112c957fe5b8b8f098560006004811015156112db57fe5b602002015109905082828297509750975050505050505b9750975097945050505050565b606060405190810160405280600390602082028038833980820191505090505090565b60806040519081016040528060049060208202803883398082019150509050509056fea165627a7a72305820fd9e5df901d2f0361d6ed21253438c76a9fa4fd2a7be40389a18555a86a6d4430029",
  "source": "pragma solidity ^0.5.0;\n\n\n/**\n * @title Elliptic Curve Library\n * @dev Library providing arithmetic operations over elliptic curves.\n * @author Witnet Foundation\n * based on contracts found here: https://github.com/witnet/elliptic-curve-solidity\n */\ncontract EllipticCurve {\n\n  /// @dev Modular euclidean inverse of a number (mod p).\n  /// @param _x The number\n  /// @param _pp The modulus\n  /// @return q such that x*q = 1 (mod _pp)\n  function invMod(uint256 _x, uint256 _pp) public pure returns (uint256) {\n    if (_x == 0 || _x == _pp || _pp == 0) {\n      revert(\"Invalid number\");\n    }\n    uint256 q = 0;\n    uint256 newT = 1;\n    uint256 r = _pp;\n    uint256 newR = _x;\n    uint256 t;\n    while (newR != 0) {\n      t = r / newR;\n      (q, newT) = (newT, addmod(q, (_pp - mulmod(t, newT, _pp)), _pp));\n      (r, newR) = (newR, r - t * newR );\n    }\n\n    return q;\n  }\n\n  /// @dev Modular exponentiation, b^e % _pp.\n  /// Source: https://github.com/androlo/standard-contracts/blob/master/contracts/src/crypto/ECCMath.sol\n  /// @param _base base\n  /// @param _exp exponent\n  /// @param _pp modulus\n  /// @return r such that r = b**e (mod _pp)\n  function expMod(uint256 _base, uint256 _exp, uint256 _pp) public pure returns (uint256) {\n    if (_base == 0)\n      return 0;\n    if (_exp == 0)\n      return 1;\n    if (_pp == 0)\n      revert(\"Modulus is zero\");\n    uint256 r = 1;\n    uint256 bit = 2 ** 255;\n\n    assembly {\n      for { } gt(bit, 0) { }{\n        r := mulmod(mulmod(r, r, _pp), exp(_base, iszero(iszero(and(_exp, bit)))), _pp)\n        r := mulmod(mulmod(r, r, _pp), exp(_base, iszero(iszero(and(_exp, div(bit, 2))))), _pp)\n        r := mulmod(mulmod(r, r, _pp), exp(_base, iszero(iszero(and(_exp, div(bit, 4))))), _pp)\n        r := mulmod(mulmod(r, r, _pp), exp(_base, iszero(iszero(and(_exp, div(bit, 8))))), _pp)\n        bit := div(bit, 16)\n      }\n    }\n\n    return r;\n  }\n\n  /// @dev Converts a point (x, y, z) expressed in Jacobian coordinates to affine coordinates (x', y', 1).\n  /// @param _x coordinate x\n  /// @param _y coordinate y\n  /// @param _z coordinate z\n  /// @param _pp the modulus\n  /// @return (x', y') affine coordinates\n  function toAffine(\n    uint256 _x,\n    uint256 _y,\n    uint256 _z,\n    uint256 _pp)\n  public pure returns (uint256, uint256)\n  {\n    uint256 zInv = invMod(_z, _pp);\n    uint256 zInv2 = mulmod(zInv, zInv, _pp);\n    uint256 x2 = mulmod(_x, zInv2, _pp);\n    uint256 y2 = mulmod(_y, mulmod(zInv, zInv2, _pp), _pp);\n\n    return (x2, y2);\n  }\n\n  /// @dev Derives the y coordinate from a compressed-format point x.\n  /// @param _prefix parity byte (0x02 even, 0x03 odd)\n  /// @param _x coordinate x\n  /// @param _aa constant of curve\n  /// @param _bb constant of curve\n  /// @param _pp the modulus\n  /// @return y coordinate y\n  function deriveY(\n    uint8 _prefix,\n    uint256 _x,\n    uint256 _aa,\n    uint256 _bb,\n    uint256 _pp)\n  public pure returns (uint256)\n  {\n    // x^3 + ax + b\n    uint256 y2 = addmod(mulmod(_x, mulmod(_x, _x, _pp), _pp), addmod(mulmod(_x, _aa, _pp), _bb, _pp), _pp);\n    y2 = expMod(y2, (_pp + 1) / 4, _pp);\n    // uint256 cmp = yBit ^ y_ & 1;\n    uint256 y = (y2 + _prefix) % 2 == 0 ? y2 : _pp - y2;\n\n    return y;\n  }\n\n  /// @dev Check whether point (x,y) is on curve defined by a, b, and _pp.\n  /// @param _x coordinate x of P1\n  /// @param _y coordinate y of P1\n  /// @param _aa constant of curve\n  /// @param _bb constant of curve\n  /// @param _pp the modulus\n  /// @return true if x,y in the curve, false else\n  function isOnCurve(\n    uint _x,\n    uint _y,\n    uint _aa,\n    uint _bb,\n    uint _pp)\n  public pure returns (bool)\n  {\n    if (0 == _x || _x == _pp || 0 == _y || _y == _pp) {\n      return false;\n    }\n    // y^2\n    uint lhs = mulmod(_y, _y, _pp);\n    // x^3\n    uint rhs = mulmod(mulmod(_x, _x, _pp), _x, _pp);\n    if (_aa != 0) {\n      // x^3 + a*x\n      rhs = addmod(rhs, mulmod(_x, _aa, _pp), _pp);\n    }\n    if (_bb != 0) {\n      // x^3 + a*x + b\n      rhs = addmod(rhs, _bb, _pp);\n    }\n\n    return lhs == rhs;\n  }\n\n  /// @dev Calculate inverse (x, -y) of point (x, y).\n  /// @param _x coordinate x of P1\n  /// @param _y coordinate y of P1\n  /// @param _pp the modulus\n  /// @return (x, -y)\n  function ecInv(\n    uint256 _x,\n    uint256 _y,\n    uint256 _pp)\n  public pure returns (uint256, uint256)\n  {\n    return (_x, (_pp - _y) % _pp);\n  }\n\n  /// @dev Add two points (x1, y1) and (x2, y2) in affine coordinates.\n  /// @param _x1 coordinate x of P1\n  /// @param _y1 coordinate y of P1\n  /// @param _x2 coordinate x of P2\n  /// @param _y2 coordinate y of P2\n  /// @param _aa constant of the curve\n  /// @param _pp the modulus\n  /// @return (qx, qy) = P1+P2 in affine coordinates\n  function ecAdd(\n    uint256 _x1,\n    uint256 _y1,\n    uint256 _x2,\n    uint256 _y2,\n    uint256 _aa,\n    uint256 _pp)\n    public pure returns(uint256, uint256)\n  {\n    uint x = 0;\n    uint y = 0;\n    uint z = 0;\n    // Double if x1==x2 else add\n    if (_x1==_x2) {\n      (x, y, z) = jacDouble(\n        _x1,\n        _y1,\n        1,\n        _aa,\n        _pp);\n    } else {\n      (x, y, z) = jacAdd(\n        _x1,\n        _y1,\n        1,\n        _x2,\n        _y2,\n        1,\n        _pp);\n    }\n    // Get back to affine\n    return toAffine(\n      x,\n      y,\n      z,\n      _pp);\n  }\n\n  /// @dev Substract two points (x1, y1) and (x2, y2) in affine coordinates.\n  /// @param _x1 coordinate x of P1\n  /// @param _y1 coordinate y of P1\n  /// @param _x2 coordinate x of P2\n  /// @param _y2 coordinate y of P2\n  /// @param _aa constant of the curve\n  /// @param _pp the modulus\n  /// @return (qx, qy) = P1-P2 in affine coordinates\n  function ecSub(\n    uint256 _x1,\n    uint256 _y1,\n    uint256 _x2,\n    uint256 _y2,\n    uint256 _aa,\n    uint256 _pp)\n  public pure returns(uint256, uint256)\n  {\n    // invert square\n    (uint256 x, uint256 y) = ecInv(_x2, _y2, _pp);\n    // P1-square\n    return ecAdd(\n      _x1,\n      _y1,\n      x,\n      y,\n      _aa,\n      _pp);\n  }\n\n  /// @dev Multiply point (x1, y1, z1) times d in affine coordinates.\n  /// @param _k scalar to multiply\n  /// @param _x coordinate x of P1\n  /// @param _y coordinate y of P1\n  /// @param _aa constant of the curve\n  /// @param _pp the modulus\n  /// @return (qx, qy) = d*P in affine coordinates\n  function ecMul(\n    uint256 _k,\n    uint256 _x,\n    uint256 _y,\n    uint256 _aa,\n    uint256 _pp)\n  public pure returns(uint256, uint256)\n  {\n    // Jacobian multiplication\n    (uint256 x1, uint256 y1, uint256 z1) = jacMul(\n      _k,\n      _x,\n      _y,\n      1,\n      _aa,\n      _pp);\n    // Get back to affine\n    return toAffine(\n      x1,\n      y1,\n      z1,\n      _pp);\n  }\n\n  /// @dev Adds two points (x1, y1, z1) and (x2 y2, z2).\n  /// @param _x1 coordinate x of P1\n  /// @param _y1 coordinate y of P1\n  /// @param _z1 coordinate z of P1\n  /// @param _x2 coordinate x of square\n  /// @param _y2 coordinate y of square\n  /// @param _z2 coordinate z of square\n  /// @param _pp the modulus\n  /// @return (qx, qy, qz) P1+square in Jacobian\n  function jacAdd(\n    uint256 _x1,\n    uint256 _y1,\n    uint256 _z1,\n    uint256 _x2,\n    uint256 _y2,\n    uint256 _z2,\n    uint256 _pp)\n  internal pure returns (uint256, uint256, uint256)\n  {\n    if ((_x1==0)&&(_y1==0))\n      return (_x2, _y2, _z2);\n    if ((_x2==0)&&(_y2==0))\n      return (_x1, _y1, _z1);\n    // We follow the equations described in https://pdfs.semanticscholar.org/5c64/29952e08025a9649c2b0ba32518e9a7fb5c2.pdf Section 5\n\n    uint[4] memory zs; // z1^2, z1^3, z2^2, z2^3\n    zs[0] = mulmod(_z1, _z1, _pp);\n    zs[1] = mulmod(_z1, zs[0], _pp);\n    zs[2] = mulmod(_z2, _z2, _pp);\n    zs[3] = mulmod(_z2, zs[2], _pp);\n\n    // u1, s1, u2, s2\n    zs = [\n      mulmod(_x1, zs[2], _pp),\n      mulmod(_y1, zs[3], _pp),\n      mulmod(_x2, zs[0], _pp),\n      mulmod(_y2, zs[1], _pp)\n    ];\n    if (zs[0] == zs[2]) {\n      if (zs[1] != zs[3])\n        revert(\"Wrong data\");\n      else {\n        revert(\"Use double instead\");\n      }\n    }\n    uint[4] memory hr;\n    //h\n    hr[0] = addmod(zs[2], _pp - zs[0], _pp);\n    //r\n    hr[1] = addmod(zs[3], _pp - zs[1], _pp);\n    //h^2\n    hr[2] = mulmod(hr[0], hr[0], _pp);\n    // h^3\n    hr[3] = mulmod(hr[2], hr[0], _pp);\n    // qx = -h^3  -2u1h^2+r^2\n    uint256 qx = addmod(mulmod(hr[1], hr[1], _pp), _pp - hr[3], _pp);\n    qx = addmod(qx, _pp - mulmod(2, mulmod(zs[0], hr[2], _pp), _pp), _pp);\n    // qy = -s1*z1*h^3+r(u1*h^2 -x^3)\n    uint256 qy = mulmod(hr[1], addmod(mulmod(zs[0], hr[2], _pp), _pp - qx, _pp), _pp);\n    qy = addmod(qy, _pp - mulmod(zs[1], hr[3], _pp), _pp);\n    // qz = h*z1*z2\n    uint256 qz = mulmod(hr[0], mulmod(_z1, _z2, _pp), _pp);\n    return(qx, qy, qz);\n  }\n\n  /// @dev Doubles a points (x, y, z).\n  /// @param _x coordinate x of P1\n  /// @param _y coordinate y of P1\n  /// @param _z coordinate z of P1\n  /// @param _pp the modulus\n  /// @param _aa the a scalar in the curve equation\n  /// @return (qx, qy, qz) 2P in Jacobian\n  function jacDouble(\n    uint256 _x,\n    uint256 _y,\n    uint256 _z,\n    uint256 _aa,\n    uint256 _pp)\n  internal pure returns (uint256, uint256, uint256)\n  {\n    if (_z == 0)\n      return (_x, _y, _z);\n    uint256[3] memory square;\n    // We follow the equations described in https://pdfs.semanticscholar.org/5c64/29952e08025a9649c2b0ba32518e9a7fb5c2.pdf Section 5\n    // Note: there is a bug in the paper regarding the m parameter, M=3*(x1^2)+a*(z1^4)\n    square[0] = mulmod(_x, _x, _pp); //x1^2\n    square[1] = mulmod(_y, _y, _pp); //y1^2\n    square[2] = mulmod(_z, _z, _pp); //z1^2\n\n    // s\n    uint s = mulmod(4, mulmod(_x, square[1], _pp), _pp);\n    // m\n    uint m = addmod(mulmod(3, square[0], _pp), mulmod(_aa, mulmod(square[2], square[2], _pp), _pp), _pp);\n    // qx\n    uint256 qx = addmod(mulmod(m, m, _pp), _pp - addmod(s, s, _pp), _pp);\n    // qy = -8*y1^4 + M(S-T)\n    uint256 qy = addmod(mulmod(m, addmod(s, _pp - qx, _pp), _pp), _pp - mulmod(8, mulmod(square[1], square[1], _pp), _pp), _pp);\n    // qz = 2*y1*z1\n    uint256 qz = mulmod(2, mulmod(_y, _z, _pp), _pp);\n\n    return (qx, qy, qz);\n  }\n\n  /// @dev Multiply point (x, y, z) times d.\n  /// @param _d scalar to multiply\n  /// @param _x coordinate x of P1\n  /// @param _y coordinate y of P1\n  /// @param _z coordinate z of P1\n  /// @param _aa constant of curve\n  /// @param _pp the modulus\n  /// @return (qx, qy, qz) d*P1 in Jacobian\n  function jacMul(\n    uint256 _d,\n    uint256 _x,\n    uint256 _y,\n    uint256 _z,\n    uint256 _aa,\n    uint256 _pp)\n  internal pure returns (uint256, uint256, uint256)\n  {\n    uint256 remaining = _d;\n    uint256[3] memory point;\n    point[0] = _x;\n    point[1] = _y;\n    point[2] = _z;\n    uint256 qx = 0;\n    uint256 qy = 0;\n    uint256 qz = 1;\n\n    if (_d == 0) {\n      return (qx, qy, qz);\n    }\n    // Double and add algorithm\n    while (remaining != 0) {\n      if ((remaining & 1) != 0) {\n        (qx, qy, qz) = jacAdd(\n          qx,\n          qy,\n          qz,\n          point[0],\n          point[1],\n          point[2],\n          _pp);\n      }\n      remaining = remaining / 2;\n      (point[0], point[1], point[2]) = jacDouble(\n        point[0],\n        point[1],\n        point[2],\n        _aa,\n        _pp);\n    }\n    return (qx, qy, qz);\n  }\n}",
  "sourcePath": "/home/meck/code/master-project-sink/voter-frontend/contracts/EllipticCurve.sol",
  "compiler": {
    "name": "solc",
    "version": "0.5.0+commit.1d4f565a.Emscripten.clang"
  },
  "schemaVersion": "3.0.17",
  "updatedAt": "2019-11-14T11:23:29.256Z",
  "devdoc": {
    "author": "Witnet Foundation based on contracts found here: https://github.com/witnet/elliptic-curve-solidity",
    "details": "Library providing arithmetic operations over elliptic curves.",
    "methods": {
      "deriveY(uint8,uint256,uint256,uint256,uint256)": {
        "details": "Derives the y coordinate from a compressed-format point x.",
        "params": {
          "_aa": "constant of curve",
          "_bb": "constant of curve",
          "_pp": "the modulus",
          "_prefix": "parity byte (0x02 even, 0x03 odd)",
          "_x": "coordinate x"
        },
        "return": "y coordinate y"
      },
      "ecAdd(uint256,uint256,uint256,uint256,uint256,uint256)": {
        "details": "Add two points (x1, y1) and (x2, y2) in affine coordinates.",
        "params": {
          "_aa": "constant of the curve",
          "_pp": "the modulus",
          "_x1": "coordinate x of P1",
          "_x2": "coordinate x of P2",
          "_y1": "coordinate y of P1",
          "_y2": "coordinate y of P2"
        },
        "return": "(qx, qy) = P1+P2 in affine coordinates"
      },
      "ecInv(uint256,uint256,uint256)": {
        "details": "Calculate inverse (x, -y) of point (x, y).",
        "params": {
          "_pp": "the modulus",
          "_x": "coordinate x of P1",
          "_y": "coordinate y of P1"
        },
        "return": "(x, -y)"
      },
      "ecMul(uint256,uint256,uint256,uint256,uint256)": {
        "details": "Multiply point (x1, y1, z1) times d in affine coordinates.",
        "params": {
          "_aa": "constant of the curve",
          "_k": "scalar to multiply",
          "_pp": "the modulus",
          "_x": "coordinate x of P1",
          "_y": "coordinate y of P1"
        },
        "return": "(qx, qy) = d*P in affine coordinates"
      },
      "ecSub(uint256,uint256,uint256,uint256,uint256,uint256)": {
        "details": "Substract two points (x1, y1) and (x2, y2) in affine coordinates.",
        "params": {
          "_aa": "constant of the curve",
          "_pp": "the modulus",
          "_x1": "coordinate x of P1",
          "_x2": "coordinate x of P2",
          "_y1": "coordinate y of P1",
          "_y2": "coordinate y of P2"
        },
        "return": "(qx, qy) = P1-P2 in affine coordinates"
      },
      "expMod(uint256,uint256,uint256)": {
        "details": "Modular exponentiation, b^e % _pp. Source: https://github.com/androlo/standard-contracts/blob/master/contracts/src/crypto/ECCMath.sol",
        "params": {
          "_base": "base",
          "_exp": "exponent",
          "_pp": "modulus"
        },
        "return": "r such that r = b**e (mod _pp)"
      },
      "invMod(uint256,uint256)": {
        "details": "Modular euclidean inverse of a number (mod p).",
        "params": {
          "_pp": "The modulus",
          "_x": "The number"
        },
        "return": "q such that x*q = 1 (mod _pp)"
      },
      "isOnCurve(uint256,uint256,uint256,uint256,uint256)": {
        "details": "Check whether point (x,y) is on curve defined by a, b, and _pp.",
        "params": {
          "_aa": "constant of curve",
          "_bb": "constant of curve",
          "_pp": "the modulus",
          "_x": "coordinate x of P1",
          "_y": "coordinate y of P1"
        },
        "return": "true if x,y in the curve, false else"
      },
      "toAffine(uint256,uint256,uint256,uint256)": {
        "details": "Converts a point (x, y, z) expressed in Jacobian coordinates to affine coordinates (x', y', 1).",
        "params": {
          "_pp": "the modulus",
          "_x": "coordinate x",
          "_y": "coordinate y",
          "_z": "coordinate z"
        },
        "return": "(x', y') affine coordinates"
      }
    },
    "title": "Elliptic Curve Library"
  },
  "userdoc": {
    "methods": {}
  }
}