{
  "contractName": "SumProofVerifier",
  "abi": [
    {
      "inputs": [
        {
          "name": "p",
          "type": "uint256"
        },
        {
          "name": "q",
          "type": "uint256"
        },
        {
          "name": "g",
          "type": "uint256"
        },
        {
          "name": "h",
          "type": "uint256"
        }
      ],
      "payable": false,
      "stateMutability": "nonpayable",
      "type": "constructor"
    },
    {
      "constant": true,
      "inputs": [
        {
          "name": "a",
          "type": "uint256"
        },
        {
          "name": "b",
          "type": "uint256"
        },
        {
          "name": "a1",
          "type": "uint256"
        },
        {
          "name": "b1",
          "type": "uint256"
        },
        {
          "name": "d",
          "type": "uint256"
        },
        {
          "name": "f",
          "type": "uint256"
        }
      ],
      "name": "verifyProof",
      "outputs": [
        {
          "name": "",
          "type": "bool"
        }
      ],
      "payable": false,
      "stateMutability": "view",
      "type": "function"
    },
    {
      "constant": true,
      "inputs": [
        {
          "name": "a",
          "type": "uint256"
        },
        {
          "name": "b",
          "type": "uint256"
        }
      ],
      "name": "add",
      "outputs": [
        {
          "name": "res",
          "type": "uint256"
        }
      ],
      "payable": false,
      "stateMutability": "view",
      "type": "function"
    },
    {
      "constant": true,
      "inputs": [
        {
          "name": "a",
          "type": "uint256"
        },
        {
          "name": "b",
          "type": "uint256"
        }
      ],
      "name": "mul",
      "outputs": [
        {
          "name": "res",
          "type": "uint256"
        }
      ],
      "payable": false,
      "stateMutability": "view",
      "type": "function"
    },
    {
      "constant": true,
      "inputs": [
        {
          "name": "a",
          "type": "uint256"
        },
        {
          "name": "b",
          "type": "uint256"
        }
      ],
      "name": "pow",
      "outputs": [
        {
          "name": "res",
          "type": "uint256"
        }
      ],
      "payable": false,
      "stateMutability": "view",
      "type": "function"
    }
  ],
  "bytecode": "0x608060405234801561001057600080fd5b506040516080806105218339810180604052608081101561003057600080fd5b810190808051906020019092919080519060200190929190805190602001909291908051906020019092919050505060806040519081016040528085815260200184815260200183815260200182815250600080820151816000015560208201518160010155604082015181600201556060820151816003015590505050505050610461806100c06000396000f3fe608060405260043610610062576000357c0100000000000000000000000000000000000000000000000000000000900463ffffffff168063115f3d1b146100675780632e4c697f146100ec578063771602f714610145578063c8a4ac9c1461019e575b600080fd5b34801561007357600080fd5b506100d2600480360360c081101561008a57600080fd5b810190808035906020019092919080359060200190929190803590602001909291908035906020019092919080359060200190929190803590602001909291905050506101f7565b604051808215151515815260200191505060405180910390f35b3480156100f857600080fd5b5061012f6004803603604081101561010f57600080fd5b8101908080359060200190929190803590602001909291905050506102e9565b6040518082815260200191505060405180910390f35b34801561015157600080fd5b506101886004803603604081101561016857600080fd5b810190808035906020019092919080359060200190929190505050610305565b6040518082815260200191505060405180910390f35b3480156101aa57600080fd5b506101e1600480360360408110156101c157600080fd5b810190808035906020019092919080359060200190929190505050610321565b6040518082815260200191505060405180910390f35b60006102016103fe565b60c060405190810160405280898152602001888152602001878152602001868152602001858152602001848152509050600061024f826000015183602001518460400151856060015161033d565b9050600061026583600001518460a001516102e9565b90506000610284846040015161027f8660800151866102e9565b610321565b90506000818314905060006102a26000600201548760a001516102e9565b905060006102c287606001516102bd600060030154896102e9565b610321565b9050600081831490508380156102d55750805b985050505050505050509695505050505050565b6000806000015482840a8115156102fc57fe5b06905092915050565b6000806001015482840181151561031857fe5b06905092915050565b6000806000015482840281151561033457fe5b06905092915050565b6000807371c7656ec7ab88b098defb751b7401b5f6d8976f905060008187878787604051602001808673ffffffffffffffffffffffffffffffffffffffff1673ffffffffffffffffffffffffffffffffffffffff166c010000000000000000000000000281526014018581526020018481526020018381526020018281526020019550505050505060405160208183030381529060405280519060200120905060006001015481600190048115156103f157fe5b0692505050949350505050565b60c060405190810160405280600081526020016000815260200160008152602001600081526020016000815260200160008152509056fea165627a7a72305820194d91a7c85613d43b832855791338a28e8a2303e8452f49947fde6b5d9c1b320029",
  "source": "pragma solidity ^0.5.0;\n\ncontract SumProofVerifier {\n\n  struct Proof {\n    uint a; // cipher\n    uint b; // cipher\n    uint a1;\n    uint b1;\n    uint d;\n    uint f;\n  }\n\n  struct PublicKey {\n    uint p; // prime\n    uint q; // prime factor: p = 2*q+1\n    uint g; // generator\n    uint h;\n  }\n\n  PublicKey publicKey;\n\n  address constant UNIQUEID = 0x71C7656EC7ab88b098defB751B7401B5f6d8976F;\n\n  constructor(uint p, uint q, uint g, uint h) public {\n    publicKey = PublicKey(p, q, g, h);\n  }\n\n  function verifyProof(\n      uint a,\n      uint b, // a, b\n      uint a1,\n      uint b1,\n      uint d,\n      uint f\n      ) public view returns(bool) {\n\n    // create a proof object\n    // mostly needed because otherwise would throw compilation error that\n    // stack depth is reached\n    Proof memory proof = Proof(a, b, a1, b1, d, f);\n\n    // recompute the challenge\n    uint c = generateChallenge(proof.a, proof.b, proof.a1, proof.b1);\n\n    // verification a^f == a1 * d^c\n    uint l1 = pow(proof.a, proof.f);\n    uint r1 = mul(proof.a1, pow(proof.d, c));\n    bool v1 = l1 == r1;\n\n    // verification g^f == b1 * h^c\n    uint l2 = pow(publicKey.g, proof.f);\n    uint r2 = mul(proof.b1, pow(publicKey.h, c));\n    bool v2 = l2 == r2;\n\n    return v1 && v2;\n  }\n\n  //////////////////////////////////////\n  // HELPER FUNCTIONS\n  //////////////////////////////////////\n  function generateChallenge(uint a, uint b, uint a1, uint b1) internal view returns(uint) {\n    address uniqueID = UNIQUEID;\n    bytes32 h = keccak256(abi.encodePacked(uniqueID, a, b, a1, b1));\n    return uint(h) % publicKey.q;\n  }\n\n  //////////////////////////////////////\n  // MODULO HELPER FUNCTIONS\n  //////////////////////////////////////\n  function add(uint a, uint b) public view returns (uint res){\n    return (a + b) % publicKey.q;\n  }\n\n  function mul(uint a, uint b) public view returns (uint res){\n    return (a * b) % publicKey.p;\n  }\n\n  function pow(uint a, uint b) public view returns (uint res){\n    return (a**b) % publicKey.p;\n  }\n}",
  "sourcePath": "/home/meck/code/master-project-sink/voter-frontend/contracts/SumProofVerifier.sol",
  "compiler": {
    "name": "solc",
    "version": "0.5.0+commit.1d4f565a.Emscripten.clang"
  },
  "schemaVersion": "3.0.17",
  "updatedAt": "2019-11-14T11:23:29.276Z",
  "devdoc": {
    "methods": {}
  },
  "userdoc": {
    "methods": {
      "add(uint256,uint256)": {
        "notice": "///////////////////////////////////"
      }
    }
  }
}