{
  "contractName": "Verifier",
  "abi": [
    {
      "constant": true,
      "inputs": [
        {
          "name": "_x",
          "type": "uint256"
        },
        {
          "name": "_pp",
          "type": "uint256"
        }
      ],
      "name": "invMod",
      "outputs": [
        {
          "name": "",
          "type": "uint256"
        }
      ],
      "payable": false,
      "stateMutability": "pure",
      "type": "function"
    },
    {
      "constant": true,
      "inputs": [
        {
          "name": "_k",
          "type": "uint256"
        },
        {
          "name": "_x",
          "type": "uint256"
        },
        {
          "name": "_y",
          "type": "uint256"
        },
        {
          "name": "_aa",
          "type": "uint256"
        },
        {
          "name": "_pp",
          "type": "uint256"
        }
      ],
      "name": "ecMul",
      "outputs": [
        {
          "name": "",
          "type": "uint256"
        },
        {
          "name": "",
          "type": "uint256"
        }
      ],
      "payable": false,
      "stateMutability": "pure",
      "type": "function"
    },
    {
      "constant": true,
      "inputs": [
        {
          "name": "_x",
          "type": "uint256"
        },
        {
          "name": "_y",
          "type": "uint256"
        },
        {
          "name": "_aa",
          "type": "uint256"
        },
        {
          "name": "_bb",
          "type": "uint256"
        },
        {
          "name": "_pp",
          "type": "uint256"
        }
      ],
      "name": "isOnCurve",
      "outputs": [
        {
          "name": "",
          "type": "bool"
        }
      ],
      "payable": false,
      "stateMutability": "pure",
      "type": "function"
    },
    {
      "constant": true,
      "inputs": [
        {
          "name": "_x1",
          "type": "uint256"
        },
        {
          "name": "_y1",
          "type": "uint256"
        },
        {
          "name": "_x2",
          "type": "uint256"
        },
        {
          "name": "_y2",
          "type": "uint256"
        },
        {
          "name": "_aa",
          "type": "uint256"
        },
        {
          "name": "_pp",
          "type": "uint256"
        }
      ],
      "name": "ecSub",
      "outputs": [
        {
          "name": "",
          "type": "uint256"
        },
        {
          "name": "",
          "type": "uint256"
        }
      ],
      "payable": false,
      "stateMutability": "pure",
      "type": "function"
    },
    {
      "constant": true,
      "inputs": [
        {
          "name": "_x",
          "type": "uint256"
        },
        {
          "name": "_y",
          "type": "uint256"
        },
        {
          "name": "_pp",
          "type": "uint256"
        }
      ],
      "name": "ecInv",
      "outputs": [
        {
          "name": "",
          "type": "uint256"
        },
        {
          "name": "",
          "type": "uint256"
        }
      ],
      "payable": false,
      "stateMutability": "pure",
      "type": "function"
    },
    {
      "constant": true,
      "inputs": [
        {
          "name": "_prefix",
          "type": "uint8"
        },
        {
          "name": "_x",
          "type": "uint256"
        },
        {
          "name": "_aa",
          "type": "uint256"
        },
        {
          "name": "_bb",
          "type": "uint256"
        },
        {
          "name": "_pp",
          "type": "uint256"
        }
      ],
      "name": "deriveY",
      "outputs": [
        {
          "name": "",
          "type": "uint256"
        }
      ],
      "payable": false,
      "stateMutability": "pure",
      "type": "function"
    },
    {
      "constant": true,
      "inputs": [
        {
          "name": "_base",
          "type": "uint256"
        },
        {
          "name": "_exp",
          "type": "uint256"
        },
        {
          "name": "_pp",
          "type": "uint256"
        }
      ],
      "name": "expMod",
      "outputs": [
        {
          "name": "",
          "type": "uint256"
        }
      ],
      "payable": false,
      "stateMutability": "pure",
      "type": "function"
    },
    {
      "constant": true,
      "inputs": [
        {
          "name": "_x",
          "type": "uint256"
        },
        {
          "name": "_y",
          "type": "uint256"
        },
        {
          "name": "_z",
          "type": "uint256"
        },
        {
          "name": "_pp",
          "type": "uint256"
        }
      ],
      "name": "toAffine",
      "outputs": [
        {
          "name": "",
          "type": "uint256"
        },
        {
          "name": "",
          "type": "uint256"
        }
      ],
      "payable": false,
      "stateMutability": "pure",
      "type": "function"
    },
    {
      "constant": true,
      "inputs": [
        {
          "name": "_x1",
          "type": "uint256"
        },
        {
          "name": "_y1",
          "type": "uint256"
        },
        {
          "name": "_x2",
          "type": "uint256"
        },
        {
          "name": "_y2",
          "type": "uint256"
        },
        {
          "name": "_aa",
          "type": "uint256"
        },
        {
          "name": "_pp",
          "type": "uint256"
        }
      ],
      "name": "ecAdd",
      "outputs": [
        {
          "name": "",
          "type": "uint256"
        },
        {
          "name": "",
          "type": "uint256"
        }
      ],
      "payable": false,
      "stateMutability": "pure",
      "type": "function"
    },
    {
      "constant": true,
      "inputs": [
        {
          "name": "_x",
          "type": "uint256[2]"
        },
        {
          "name": "_y",
          "type": "uint256[2]"
        },
        {
          "name": "_a1",
          "type": "uint256[2]"
        },
        {
          "name": "_a2",
          "type": "uint256[2]"
        },
        {
          "name": "_b1",
          "type": "uint256[2]"
        },
        {
          "name": "_b2",
          "type": "uint256[2]"
        },
        {
          "name": "_d1",
          "type": "uint256"
        },
        {
          "name": "_d2",
          "type": "uint256"
        },
        {
          "name": "_r1",
          "type": "uint256"
        },
        {
          "name": "_r2",
          "type": "uint256"
        },
        {
          "name": "_challenge",
          "type": "uint256"
        }
      ],
      "name": "verifyProof",
      "outputs": [
        {
          "name": "b",
          "type": "bool"
        }
      ],
      "payable": false,
      "stateMutability": "pure",
      "type": "function"
    },
    {
      "constant": true,
      "inputs": [
        {
          "name": "d1",
          "type": "uint256"
        },
        {
          "name": "d2",
          "type": "uint256"
        },
        {
          "name": "challenge",
          "type": "uint256"
        }
      ],
      "name": "verifyChallenge",
      "outputs": [
        {
          "name": "b",
          "type": "bool"
        }
      ],
      "payable": false,
      "stateMutability": "pure",
      "type": "function"
    },
    {
      "constant": true,
      "inputs": [
        {
          "name": "r1",
          "type": "uint256"
        },
        {
          "name": "d1",
          "type": "uint256"
        },
        {
          "name": "a1",
          "type": "uint256[2]"
        },
        {
          "name": "x",
          "type": "uint256[2]"
        }
      ],
      "name": "verifyA1",
      "outputs": [
        {
          "name": "b",
          "type": "bool"
        }
      ],
      "payable": false,
      "stateMutability": "pure",
      "type": "function"
    },
    {
      "constant": true,
      "inputs": [
        {
          "name": "r1",
          "type": "uint256"
        },
        {
          "name": "d1",
          "type": "uint256"
        },
        {
          "name": "b1",
          "type": "uint256[2]"
        },
        {
          "name": "y",
          "type": "uint256[2]"
        }
      ],
      "name": "verifyB1",
      "outputs": [
        {
          "name": "b",
          "type": "bool"
        }
      ],
      "payable": false,
      "stateMutability": "pure",
      "type": "function"
    },
    {
      "constant": true,
      "inputs": [
        {
          "name": "r2",
          "type": "uint256"
        },
        {
          "name": "d2",
          "type": "uint256"
        },
        {
          "name": "a2",
          "type": "uint256[2]"
        },
        {
          "name": "x",
          "type": "uint256[2]"
        }
      ],
      "name": "verifyA2",
      "outputs": [
        {
          "name": "b",
          "type": "bool"
        }
      ],
      "payable": false,
      "stateMutability": "pure",
      "type": "function"
    },
    {
      "constant": true,
      "inputs": [
        {
          "name": "r2",
          "type": "uint256"
        },
        {
          "name": "d2",
          "type": "uint256"
        },
        {
          "name": "b2",
          "type": "uint256[2]"
        },
        {
          "name": "y",
          "type": "uint256[2]"
        }
      ],
      "name": "verifyB2",
      "outputs": [
        {
          "name": "b",
          "type": "bool"
        }
      ],
      "payable": false,
      "stateMutability": "pure",
      "type": "function"
    }
  ],
  "bytecode": "0x608060405234801561001057600080fd5b50612080806100206000396000f3fe6080604052600436106100db576000357c0100000000000000000000000000000000000000000000000000000000900463ffffffff168063071260cd146100e05780631b54f824146101bf578063364b62d51461021857806337103a671461029657806347d3386d146103115780635bf11ed3146103f05780637559d550146104785780638ba5ceeb146104e2578063ad69caa51461055c578063c2797382146105bf578063c4371a1c1461069e578063c5e45aa414610712578063d77a38621461079a578063ddba782014610801578063e15a7da614610a03575b600080fd5b3480156100ec57600080fd5b506101a5600480360360c081101561010357600080fd5b81019080803590602001909291908035906020019092919080604001906002806020026040519081016040528092919082600260200280828437600081840152601f19601f820116905080830192505050505050919291929080604001906002806020026040519081016040528092919082600260200280828437600081840152601f19601f8201169050808301925050505050509192919290505050610ae2565b604051808215151515815260200191505060405180910390f35b3480156101cb57600080fd5b50610202600480360360408110156101e257600080fd5b810190808035906020019092919080359060200190929190505050610c20565b6040518082815260200191505060405180910390f35b34801561022457600080fd5b50610279600480360360a081101561023b57600080fd5b810190808035906020019092919080359060200190929190803590602001909291908035906020019092919080359060200190929190505050610d22565b604051808381526020018281526020019250505060405180910390f35b3480156102a257600080fd5b506102f7600480360360a08110156102b957600080fd5b810190808035906020019092919080359060200190929190803590602001909291908035906020019092919080359060200190929190505050610d5c565b604051808215151515815260200191505060405180910390f35b34801561031d57600080fd5b506103d6600480360360c081101561033457600080fd5b81019080803590602001909291908035906020019092919080604001906002806020026040519081016040528092919082600260200280828437600081840152601f19601f820116905080830192505050505050919291929080604001906002806020026040519081016040528092919082600260200280828437600081840152601f19601f8201169050808301925050505050509192919290505050610e0e565b604051808215151515815260200191505060405180910390f35b3480156103fc57600080fd5b5061045b600480360360c081101561041357600080fd5b81019080803590602001909291908035906020019092919080359060200190929190803590602001909291908035906020019092919080359060200190929190505050610f60565b604051808381526020018281526020019250505060405180910390f35b34801561048457600080fd5b506104c56004803603606081101561049b57600080fd5b81019080803590602001909291908035906020019092919080359060200190929190505050610f94565b604051808381526020018281526020019250505060405180910390f35b3480156104ee57600080fd5b50610546600480360360a081101561050557600080fd5b81019080803560ff16906020019092919080359060200190929190803590602001909291908035906020019092919080359060200190929190505050610fb2565b6040518082815260200191505060405180910390f35b34801561056857600080fd5b506105a96004803603606081101561057f57600080fd5b81019080803590602001909291908035906020019092919080359060200190929190505050611044565b6040518082815260200191505060405180910390f35b3480156105cb57600080fd5b50610684600480360360c08110156105e257600080fd5b81019080803590602001909291908035906020019092919080604001906002806020026040519081016040528092919082600260200280828437600081840152601f19601f820116905080830192505050505050919291929080604001906002806020026040519081016040528092919082600260200280828437600081840152601f19601f8201169050808301925050505050509192919290505050611172565b604051808215151515815260200191505060405180910390f35b3480156106aa57600080fd5b506106f5600480360360808110156106c157600080fd5b810190808035906020019092919080359060200190929190803590602001909291908035906020019092919050505061125b565b604051808381526020018281526020019250505060405180910390f35b34801561071e57600080fd5b5061077d600480360360c081101561073557600080fd5b810190808035906020019092919080359060200190929190803590602001909291908035906020019092919080359060200190929190803590602001909291905050506112be565b604051808381526020018281526020019250505060405180910390f35b3480156107a657600080fd5b506107e7600480360360608110156107bd57600080fd5b81019080803590602001909291908035906020019092919080359060200190929190505050611333565b604051808215151515815260200191505060405180910390f35b34801561080d57600080fd5b506109e9600480360361022081101561082557600080fd5b8101908080604001906002806020026040519081016040528092919082600260200280828437600081840152601f19601f820116905080830192505050505050919291929080604001906002806020026040519081016040528092919082600260200280828437600081840152601f19601f820116905080830192505050505050919291929080604001906002806020026040519081016040528092919082600260200280828437600081840152601f19601f820116905080830192505050505050919291929080604001906002806020026040519081016040528092919082600260200280828437600081840152601f19601f820116905080830192505050505050919291929080604001906002806020026040519081016040528092919082600260200280828437600081840152601f19601f820116905080830192505050505050919291929080604001906002806020026040519081016040528092919082600260200280828437600081840152601f19601f82011690508083019250505050505091929192908035906020019092919080359060200190929190803590602001909291908035906020019092919080359060200190929190505050611373565b604051808215151515815260200191505060405180910390f35b348015610a0f57600080fd5b50610ac8600480360360c0811015610a2657600080fd5b81019080803590602001909291908035906020019092919080604001906002806020026040519081016040528092919082600260200280828437600081840152601f19601f820116905080830192505050505050919291929080604001906002806020026040519081016040528092919082600260200280828437600081840152601f19601f820116905080830192505050505050919291929050505061149c565b604051808215151515815260200191505060405180910390f35b6000806000610b32877f8e81a4b79ebab6d063730feba5bb4d943bb33185fd6d29a25a322a797757fd237f50e9734783787d55abe859dbe32049aea0854a7434fc1e093aed90800adda40c611585565b91509150600080610bab866000600281101515610b4b57fe5b6020020151876001600281101515610b5f57fe5b60200201517f79be667ef9dcbbac55a06295ce870b07029bfcdb2dce28d959f2815b16f817987f483ada7726a3c4655da4fbfc0e1108a8fd17b448a68554199c47d08ffb10d4b86115c2565b91509150600080610bbd8a8585611585565b91509150600080610bd0888886866115c2565b9150915060008b6000600281101515610be557fe5b602002015183148015610c0a57508b6001600281101515610c0257fe5b602002015182145b9050809950505050505050505050949350505050565b600080831480610c2f57508183145b80610c3a5750600082145b15610cad576040517f08c379a000000000000000000000000000000000000000000000000000000000815260040180806020018281038252600e8152602001807f496e76616c6964206e756d62657200000000000000000000000000000000000081525060200191505060405180910390fd5b60008090506000600190506000849050600086905060005b600082141515610d14578183811515610cda57fe5b0490508387801515610ce857fe5b88801515610cf257fe5b8684098903870880955081965050508182820284038093508194505050610cc5565b849550505050505092915050565b6000806000806000610d398a8a8a60018b8b611601565b925092509250610d4b8383838961125b565b945094505050509550959350505050565b60008560001480610d6c57508186145b80610d775750846000145b80610d8157508185145b15610d8f5760009050610e05565b600082801515610d9b57fe5b8687099050600083801515610dac57fe5b8885801515610db757fe5b8a8b09099050600086141515610de35783801515610dd157fe5b84801515610ddb57fe5b878a09820890505b600085141515610dfd5783801515610df757fe5b85820890505b808214925050505b95945050505050565b6000806000610e3e877f8e81a4b79ebab6d063730feba5bb4d943bb33185fd6d29a25a322a797757fd2380611585565b91509150600080610eb07f79be667ef9dcbbac55a06295ce870b07029bfcdb2dce28d959f2815b16f817987f483ada7726a3c4655da4fbfc0e1108a8fd17b448a68554199c47d08ffb10d4b87ffffffffffffffffffffffffffffffffffffffffffffffffffffffffefffffc2f610f94565b91509150600080610ee9886000600281101515610ec957fe5b6020020151896001600281101515610edd57fe5b602002015186866115c2565b91509150600080610efb8c8585611585565b91509150600080610f0e8a8a86866115c2565b9150915060008d6000600281101515610f2357fe5b602002015183148015610f4857508d6001600281101515610f4057fe5b602002015182145b9050809b505050505050505050505050949350505050565b600080600080610f71888887610f94565b91509150610f838a8a84848a8a6112be565b935093505050965096945050505050565b6000808483858503811515610fa557fe5b0691509150935093915050565b60008082801515610fbf57fe5b83801515610fc957fe5b8585801515610fd457fe5b888a090884801515610fe257fe5b85801515610fec57fe5b898a09890908905061100e8160046001860181151561100757fe5b0485611044565b905060008060028960ff16840181151561102457fe5b061461103257818403611034565b815b9050809250505095945050505050565b600080841415611057576000905061116b565b6000831415611069576001905061116b565b60008214156110e0576040517f08c379a000000000000000000000000000000000000000000000000000000000815260040180806020018281038252600f8152602001807f4d6f64756c7573206973207a65726f000000000000000000000000000000000081525060200191505060405180910390fd5b60006001905060007f800000000000000000000000000000000000000000000000000000000000000090505b600081111561116557838186161515870a85848509099150836002820486161515870a85848509099150836004820486161515870a85848509099150836008820486161515870a8584850909915060108104905061110c565b81925050505b9392505050565b60008060006111c2877f79be667ef9dcbbac55a06295ce870b07029bfcdb2dce28d959f2815b16f817987f483ada7726a3c4655da4fbfc0e1108a8fd17b448a68554199c47d08ffb10d4b8611585565b915091506000806111fa888760006002811015156111dc57fe5b60200201518860016002811015156111f057fe5b6020020151611585565b9150915060008061120d868686866115c2565b91509150600089600060028110151561122257fe5b602002015183148015611247575089600160028110151561123f57fe5b602002015182145b905080975050505050505050949350505050565b600080600061126a8585610c20565b905060008480151561127857fe5b828309905060008580151561128957fe5b828a09905060008680151561129a57fe5b878015156112a457fe5b8486098a0990508181955095505050505094509492505050565b600080600080905060008090506000809050888b14156112f7576112e68b8b60018a8a6117b3565b809350819450829550505050611315565b6113088b8b60018c8c60018c6119b5565b8093508194508295505050505b6113218383838961125b565b94509450505050965096945050505050565b6000807ffffffffffffffffffffffffffffffffffffffffffffffffffffffffefffffc2f84860181151561136357fe5b0690508281149150509392505050565b600061137d611f6d565b610160604051908101604052808e81526020018d81526020018c81526020018b81526020018a815260200189815260200188815260200187815260200186815260200185815260200184815250905060006113e68260c001518360e00151846101400151611333565b905060006114078361010001518460c001518560400151866000015161149c565b905060006114288461010001518560c0015186608001518760200151610ae2565b905060006114498561012001518660e0015187606001518860000151611172565b9050600061146a8661012001518760e001518860a001518960200151610e0e565b905060008580156114785750845b80156114815750835b9050809750505050505050509b9a5050505050505050505050565b60008060006114ec877f79be667ef9dcbbac55a06295ce870b07029bfcdb2dce28d959f2815b16f817987f483ada7726a3c4655da4fbfc0e1108a8fd17b448a68554199c47d08ffb10d4b8611585565b915091506000806115248887600060028110151561150657fe5b602002015188600160028110151561151a57fe5b6020020151611585565b91509150600080611537868686866115c2565b91509150600089600060028110151561154c57fe5b602002015183148015611571575089600160028110151561156957fe5b602002015182145b905080975050505050505050949350505050565b6000806115b685858560007ffffffffffffffffffffffffffffffffffffffffffffffffffffffffefffffc2f610d22565b91509150935093915050565b6000806115f48686868660007ffffffffffffffffffffffffffffffffffffffffffffffffffffffffefffffc2f6112be565b9150915094509492505050565b600080600080899050611612611fec565b8981600060038110151561162257fe5b6020020181815250508881600160038110151561163b57fe5b6020020181815250508781600260038110151561165457fe5b6020020181815250506000809050600080905060006001905060008e14156116895782828297509750975050505050506117a7565b5b600085141515611798576000600186161415156116f6576116e98383838760006003811015156116b657fe5b60200201518860016003811015156116ca57fe5b60200201518960026003811015156116de57fe5b60200201518f6119b5565b8093508194508295505050505b60028581151561170257fe5b04945061174b84600060038110151561171757fe5b602002015185600160038110151561172b57fe5b602002015186600260038110151561173f57fe5b60200201518d8d6117b3565b86600060038110151561175a57fe5b6020020187600160038110151561176d57fe5b6020020188600260038110151561178057fe5b6020020183815250838152508381525050505061168a565b82828297509750975050505050505b96509650969350505050565b6000806000808614156117ce578787879250925092506119aa565b6117d6611fec565b848015156117e057fe5b898a098160006003811015156117f257fe5b6020020181815250508480151561180557fe5b88890981600160038110151561181757fe5b6020020181815250508480151561182a57fe5b87880981600260038110151561183c57fe5b60200201818152505060008580151561185157fe5b8680151561185b57fe5b83600160038110151561186a57fe5b60200201518c09600409905060008680151561188257fe5b8780151561188c57fe5b8880151561189657fe5b8560026003811015156118a557fe5b60200201518660026003811015156118b957fe5b6020020151098a09888015156118cb57fe5b8560006003811015156118da57fe5b60200201516003090890506000878015156118f157fe5b888015156118fb57fe5b84850889038980151561190a57fe5b84850908905060008880151561191c57fe5b8980151561192657fe5b8a80151561193057fe5b87600160038110151561193f57fe5b602002015188600160038110151561195357fe5b6020020151096008098a038a80151561196857fe5b8b80151561197257fe5b858d038808860908905060008980151561198857fe5b8a80151561199257fe5b8d8f0960020990508282829850985098505050505050505b955095509592505050565b6000806000808a1480156119c95750600089145b156119dc57868686925092509250611f60565b6000871480156119ec5750600086145b156119ff57898989925092509250611f60565b611a0761200f565b84801515611a1157fe5b898a09816000600481101515611a2357fe5b60200201818152505084801515611a3657fe5b816000600481101515611a4557fe5b60200201518a09816001600481101515611a5b57fe5b60200201818152505084801515611a6e57fe5b868709816002600481101515611a8057fe5b60200201818152505084801515611a9357fe5b816002600481101515611aa257fe5b60200201518709816003600481101515611ab857fe5b60200201818152505060806040519081016040528086801515611ad757fe5b836002600481101515611ae657fe5b60200201518e09815260200186801515611afc57fe5b836003600481101515611b0b57fe5b60200201518d09815260200186801515611b2157fe5b836000600481101515611b3057fe5b60200201518b09815260200186801515611b4657fe5b836001600481101515611b5557fe5b60200201518a098152509050806002600481101515611b7057fe5b6020020151816000600481101515611b8457fe5b60200201511415611c9a57806003600481101515611b9e57fe5b6020020151816001600481101515611bb257fe5b6020020151141515611c2c576040517f08c379a000000000000000000000000000000000000000000000000000000000815260040180806020018281038252600a8152602001807f57726f6e6720646174610000000000000000000000000000000000000000000081525060200191505060405180910390fd5b6040517f08c379a00000000000000000000000000000000000000000000000000000000081526004018080602001828103825260128152602001807f55736520646f75626c6520696e7374656164000000000000000000000000000081525060200191505060405180910390fd5b611ca261200f565b85801515611cac57fe5b826000600481101515611cbb57fe5b60200201518703836002600481101515611cd157fe5b602002015108816000600481101515611ce657fe5b60200201818152505085801515611cf957fe5b826001600481101515611d0857fe5b60200201518703836003600481101515611d1e57fe5b602002015108816001600481101515611d3357fe5b60200201818152505085801515611d4657fe5b816000600481101515611d5557fe5b6020020151826000600481101515611d6957fe5b602002015109816002600481101515611d7e57fe5b60200201818152505085801515611d9157fe5b816000600481101515611da057fe5b6020020151826002600481101515611db457fe5b602002015109816003600481101515611dc957fe5b602002018181525050600086801515611dde57fe5b826003600481101515611ded57fe5b6020020151880388801515611dfe57fe5b846001600481101515611e0d57fe5b6020020151856001600481101515611e2157fe5b60200201510908905086801515611e3457fe5b87801515611e3e57fe5b88801515611e4857fe5b846002600481101515611e5757fe5b6020020151866000600481101515611e6b57fe5b602002015109600209880382089050600087801515611e8657fe5b88801515611e9057fe5b838a038a801515611e9d57fe5b866002600481101515611eac57fe5b6020020151886000600481101515611ec057fe5b60200201510908846001600481101515611ed657fe5b602002015109905087801515611ee857fe5b88801515611ef257fe5b846003600481101515611f0157fe5b6020020151866001600481101515611f1557fe5b602002015109890382089050600088801515611f2d57fe5b89801515611f3757fe5b8b8f09856000600481101515611f4957fe5b602002015109905082828297509750975050505050505b9750975097945050505050565b61022060405190810160405280611f82612032565b8152602001611f8f612032565b8152602001611f9c612032565b8152602001611fa9612032565b8152602001611fb6612032565b8152602001611fc3612032565b815260200160008152602001600081526020016000815260200160008152602001600081525090565b606060405190810160405280600390602082028038833980820191505090505090565b608060405190810160405280600490602082028038833980820191505090505090565b604080519081016040528060029060208202803883398082019150509050509056fea165627a7a723058205e6f1900ba6d0e996e1ad6ac41567ed8fb995e37693ecfcd4f19b3d605e517320029",
  "source": "pragma solidity ^0.5.0;\n\nimport \"./EllipticCurve.sol\";\n\ncontract Verifier is EllipticCurve {\n\n    // Public Key of the elGamal System, in the future, this should probably be set in a contructor\n    // or passed as additional function argument to the verifyProof()\n    uint256 constant pkX = 0x8e81a4b79ebab6d063730feba5bb4d943bb33185fd6d29a25a322a797757fd23;\n    uint256 constant pkY = 0x50e9734783787d55abe859dbe32049aea0854a7434fc1e093aed90800adda40c;\n\n    uint256 constant GX = 0x79BE667EF9DCBBAC55A06295CE870B07029BFCDB2DCE28D959F2815B16F81798; // generator\n    uint256 constant GY = 0x483ADA7726A3C4655DA4FBFC0E1108A8FD17B448A68554199C47D08FFB10D4B8; // generator\n    uint256 constant PP = 0xFFFFFFFFFFFFFFFFFFFFFFFFFFFFFFFFFFFFFFFFFFFFFFFFFFFFFFFEFFFFFC2F; // modulus of curve\n    uint256 constant AA = 0;\n    uint256 constant BB = 7; // constant of curve\n\n    ///////////////////////////////////////////////////////////////////////////////////\n    // Structs\n    ///////////////////////////////////////////////////////////////////////////////////\n    struct Proof {\n        uint[2] x;\n        uint[2] y;\n        uint[2] a1;\n        uint[2] a2;\n        uint[2] b1;\n        uint[2] b2;\n        uint256 d1;\n        uint256 d2;\n        uint256 r1;\n        uint256 r2;\n        uint256 challenge;\n    }\n\n    ///////////////////////////////////////////////////////////////////////////////////\n    // UTIL FUNCTIONS\n    // - abstracts the elliptic library\n    // - such that the constants of the curve don't have to be passed with every call.\n    ///////////////////////////////////////////////////////////////////////////////////\n    function isPointOnCurve(uint256 x_1, uint256 y_1)private pure returns (bool) {\n        return isOnCurve(x_1, y_1, AA, BB, PP);\n    }\n\n    function addTwoPoints(uint256 x_1, uint256 y_1, uint256 x_2, uint256 y_2) private pure returns(uint256, uint256) {\n        return ecAdd(x_1, y_1, x_2, y_2, AA, PP);\n    }\n\n    function multiplyPointWithScalar(uint256 scalar, uint256 x_1, uint256 y_1)private pure returns(uint256, uint256)  {\n        return ecMul(scalar, x_1, y_1, AA, PP);\n    }\n    ///////////////////////////////\n\n    ///////////////////////////////////////////////////////////////////////////////////\n    // VERIFIER CORE FUNCTIONS\n    ///////////////////////////////////////////////////////////////////////////////////\n    function verifyProof(\n        uint[2] memory _x,\n        uint[2] memory _y,\n        uint[2] memory _a1,\n        uint[2] memory _a2,\n        uint[2] memory _b1,\n        uint[2] memory _b2,\n        uint256 _d1,\n        uint256 _d2,\n        uint256 _r1,\n        uint256 _r2,\n        uint256 _challenge\n        ) public pure returns (bool b) {\n\n        // create a proof object\n        Proof memory proof = Proof(_x,_y,_a1,_a2,_b1,_b2,_d1,_d2,_r1,_r2,_challenge);\n\n        // 1. Step: validate hash (c)\n        bool challenge_verified = verifyChallenge(proof.d1, proof.d2, proof.challenge);\n\n        // 2. Step: validate (a1)\n        bool a1_verified = verifyA1(proof.r1, proof.d1, proof.a1, proof.x);\n\n        // 3. Step: validate (b1)\n        bool b1_verified = verifyB1(proof.r1, proof.d1, proof.b1, proof.y);\n\n        // 4. Step: validate (a2)\n        // FIXME: this does not work, always false, wait until fixed in crypto library\n        bool a2_verified = verifyA2(proof.r2, proof.d2, proof.a2, proof.x);\n\n        // 5. Step: validate (b2)\n        // FIXME: this does not work, always false, wait until fixed in crypto library\n        bool b2_verified = verifyB2(proof.r2, proof.d2, proof.b2, proof.y);\n\n        bool proofVerified = challenge_verified && a1_verified && b1_verified;\n\n        return proofVerified;\n\n    }\n\n    function verifyChallenge(uint256 d1, uint256 d2, uint256 challenge) public pure returns(bool b) {\n        uint256 d1d2 = (d1 + d2) % PP;\n        return d1d2 == challenge;\n    }\n\n    function verifyA1(uint256 r1, uint256 d1, uint256[2] memory a1, uint256[2] memory x) public pure returns(bool b) {\n        // const gTr1 = ec.curve.g.mul(r1)\n        (uint256 gTr1_1, uint256 gTr1_2) = multiplyPointWithScalar(r1, GX, GY);\n\n        // const xTd1 = x.mul(d1)\n        (uint256 xTd1_1, uint256 xTd1_2) = multiplyPointWithScalar(d1, x[0], x[1]);\n\n        // const gTr1xTd1 = gTr1.add(xTd1)\n        (uint256 gTr1xTd1_1, uint256 gTr1xTd1_2) = addTwoPoints(gTr1_1, gTr1_2,xTd1_1, xTd1_2);\n\n        bool verified = (gTr1xTd1_1 == a1[0]) && (gTr1xTd1_2 == a1[1]);\n\n        return verified;\n    }\n\n    function verifyB1(uint256 r1, uint256 d1, uint256[2] memory b1, uint256[2] memory y) public pure returns(bool b) {\n        // const pubKTr1 = pubK.mul(r1)\n        (uint256 pubKTr1_1, uint256 pubKTr1_2) = multiplyPointWithScalar(r1, pkX, pkY);\n\n        // const yG = y.add(ec.curve.g)\n        (uint256 yG_1, uint256 yG_2) = addTwoPoints(y[0], y[1], GX, GY);\n\n        // const yGTd1 = yG.mul(d1)\n        (uint256 yGTd1_1, uint256 yGTd1_2) = multiplyPointWithScalar(d1, yG_1, yG_2);\n\n        // const pubKTr1yGTd1 = pubKTr1.add(yGTd1)\n        (uint256 pubKTr1yGTd1_1, uint256 pubKTr1yGTd1_2) = addTwoPoints(pubKTr1_1, pubKTr1_2, yGTd1_1, yGTd1_2);\n\n        bool verified = (pubKTr1yGTd1_1 == b1[0]) && (pubKTr1yGTd1_2 == b1[1]);\n\n        return verified;\n    }\n\n    function verifyA2(uint256 r2, uint256 d2, uint256[2] memory a2, uint256[2] memory x) public pure returns(bool b) {\n        // const gTr2 = ec.curve.g.mul(r2)\n        (uint256 gTr2_1, uint256 gTr2_2) = multiplyPointWithScalar(r2, GX, GY);\n\n        // const xTd2 = x.mul(d2)\n        (uint256 xTd2_1, uint256 xTd2_2) = multiplyPointWithScalar(d2, x[0], x[1]);\n\n        // const gTr2xTd2 = gTr2.add(xTd2)\n        (uint256 gTr2xTd2_1, uint256 gTr2xTd2_2) = addTwoPoints(gTr2_1, gTr2_2, xTd2_1, xTd2_2);\n\n        bool verified = (gTr2xTd2_1 == a2[0]) && (gTr2xTd2_2 == a2[1]);\n\n        return verified;\n    }\n\n    function verifyB2(uint256 r2, uint256 d2, uint256[2] memory b2, uint256[2] memory y) public pure returns(bool b) {\n        // const pubKTr2 = pubK.mul(r2)\n        (uint256 pubKTr2_1, uint256 pubKTr2_2) = multiplyPointWithScalar(r2, pkX, pkX);\n\n        // const generator_inverted = ec.curve.g.neg()\n        (uint256 ginv_x, uint256 ginv_y) = ecInv(GX, GY, PP);\n\n        // const yMinusG = y.add(generator_inverted)\n        (uint256 yMinusG_1, uint256 yMinusG_2) = addTwoPoints(y[0], y[1], ginv_x, ginv_y);\n\n        // const yMinusGTd2 = yMinusG.mul(d2)\n        (uint256 yMinusGTd2_1, uint256 yMinusGTd2_2) = multiplyPointWithScalar(d2, yMinusG_1, yMinusG_2);\n\n        // const pubKTr2yMinusGTd2 = pubKTr2.add(yMinusGTd2)\n        (uint256 pubKTr2yMinusGTd2_1, uint256 pubKTr2yMinusGTd2_2) = addTwoPoints(pubKTr2_1, pubKTr2_2, yMinusGTd2_1, yMinusGTd2_2);\n\n        bool verified = (pubKTr2yMinusGTd2_1 == b2[0]) && (pubKTr2yMinusGTd2_2 == b2[1]);\n\n        return verified;\n    }\n}",
  "sourcePath": "/home/meck/code/master-project-sink/voter-frontend/contracts/Verifier.sol",
  "compiler": {
    "name": "solc",
    "version": "0.5.0+commit.1d4f565a.Emscripten.clang"
  },
  "schemaVersion": "3.0.17",
  "updatedAt": "2019-11-14T11:23:29.280Z",
  "devdoc": {
    "methods": {
      "deriveY(uint8,uint256,uint256,uint256,uint256)": {
        "details": "Derives the y coordinate from a compressed-format point x.",
        "params": {
          "_aa": "constant of curve",
          "_bb": "constant of curve",
          "_pp": "the modulus",
          "_prefix": "parity byte (0x02 even, 0x03 odd)",
          "_x": "coordinate x"
        },
        "return": "y coordinate y"
      },
      "ecAdd(uint256,uint256,uint256,uint256,uint256,uint256)": {
        "details": "Add two points (x1, y1) and (x2, y2) in affine coordinates.",
        "params": {
          "_aa": "constant of the curve",
          "_pp": "the modulus",
          "_x1": "coordinate x of P1",
          "_x2": "coordinate x of P2",
          "_y1": "coordinate y of P1",
          "_y2": "coordinate y of P2"
        },
        "return": "(qx, qy) = P1+P2 in affine coordinates"
      },
      "ecInv(uint256,uint256,uint256)": {
        "details": "Calculate inverse (x, -y) of point (x, y).",
        "params": {
          "_pp": "the modulus",
          "_x": "coordinate x of P1",
          "_y": "coordinate y of P1"
        },
        "return": "(x, -y)"
      },
      "ecMul(uint256,uint256,uint256,uint256,uint256)": {
        "details": "Multiply point (x1, y1, z1) times d in affine coordinates.",
        "params": {
          "_aa": "constant of the curve",
          "_k": "scalar to multiply",
          "_pp": "the modulus",
          "_x": "coordinate x of P1",
          "_y": "coordinate y of P1"
        },
        "return": "(qx, qy) = d*P in affine coordinates"
      },
      "ecSub(uint256,uint256,uint256,uint256,uint256,uint256)": {
        "details": "Substract two points (x1, y1) and (x2, y2) in affine coordinates.",
        "params": {
          "_aa": "constant of the curve",
          "_pp": "the modulus",
          "_x1": "coordinate x of P1",
          "_x2": "coordinate x of P2",
          "_y1": "coordinate y of P1",
          "_y2": "coordinate y of P2"
        },
        "return": "(qx, qy) = P1-P2 in affine coordinates"
      },
      "expMod(uint256,uint256,uint256)": {
        "details": "Modular exponentiation, b^e % _pp. Source: https://github.com/androlo/standard-contracts/blob/master/contracts/src/crypto/ECCMath.sol",
        "params": {
          "_base": "base",
          "_exp": "exponent",
          "_pp": "modulus"
        },
        "return": "r such that r = b**e (mod _pp)"
      },
      "invMod(uint256,uint256)": {
        "details": "Modular euclidean inverse of a number (mod p).",
        "params": {
          "_pp": "The modulus",
          "_x": "The number"
        },
        "return": "q such that x*q = 1 (mod _pp)"
      },
      "isOnCurve(uint256,uint256,uint256,uint256,uint256)": {
        "details": "Check whether point (x,y) is on curve defined by a, b, and _pp.",
        "params": {
          "_aa": "constant of curve",
          "_bb": "constant of curve",
          "_pp": "the modulus",
          "_x": "coordinate x of P1",
          "_y": "coordinate y of P1"
        },
        "return": "true if x,y in the curve, false else"
      },
      "toAffine(uint256,uint256,uint256,uint256)": {
        "details": "Converts a point (x, y, z) expressed in Jacobian coordinates to affine coordinates (x', y', 1).",
        "params": {
          "_pp": "the modulus",
          "_x": "coordinate x",
          "_y": "coordinate y",
          "_z": "coordinate z"
        },
        "return": "(x', y') affine coordinates"
      }
    }
  },
  "userdoc": {
    "methods": {
      "verifyProof(uint256[2],uint256[2],uint256[2],uint256[2],uint256[2],uint256[2],uint256,uint256,uint256,uint256,uint256)": {
        "notice": "////////////////////////////////////////////////////////////////////////////////"
      }
    }
  }
}