{
  "contractName": "VoteProofVerifier",
  "abi": [
    {
      "inputs": [],
      "payable": false,
      "stateMutability": "nonpayable",
      "type": "constructor"
    },
    {
      "constant": false,
      "inputs": [
        {
          "name": "p",
          "type": "uint256"
        },
        {
          "name": "q",
          "type": "uint256"
        },
        {
          "name": "g",
          "type": "uint256"
        },
        {
          "name": "h",
          "type": "uint256"
        }
      ],
      "name": "initialize",
      "outputs": [],
      "payable": true,
      "stateMutability": "payable",
      "type": "function"
    },
    {
      "constant": true,
      "inputs": [
        {
          "name": "cipher",
          "type": "uint256[2]"
        },
        {
          "name": "a",
          "type": "uint256[2]"
        },
        {
          "name": "b",
          "type": "uint256[2]"
        },
        {
          "name": "c",
          "type": "uint256[2]"
        },
        {
          "name": "f",
          "type": "uint256[2]"
        },
        {
          "name": "id",
          "type": "address"
        }
      ],
      "name": "verifyProof",
      "outputs": [
        {
          "name": "",
          "type": "bool"
        }
      ],
      "payable": false,
      "stateMutability": "view",
      "type": "function"
    },
    {
      "constant": true,
      "inputs": [
        {
          "name": "a0",
          "type": "uint256"
        },
        {
          "name": "c0",
          "type": "uint256"
        },
        {
          "name": "f0",
          "type": "uint256"
        },
        {
          "name": "cipher0",
          "type": "uint256"
        }
      ],
      "name": "verifyV1",
      "outputs": [
        {
          "name": "",
          "type": "bool"
        }
      ],
      "payable": false,
      "stateMutability": "view",
      "type": "function"
    },
    {
      "constant": true,
      "inputs": [
        {
          "name": "a1",
          "type": "uint256"
        },
        {
          "name": "f1",
          "type": "uint256"
        },
        {
          "name": "c1",
          "type": "uint256"
        },
        {
          "name": "cipher0",
          "type": "uint256"
        }
      ],
      "name": "verifyV2",
      "outputs": [
        {
          "name": "",
          "type": "bool"
        }
      ],
      "payable": false,
      "stateMutability": "view",
      "type": "function"
    },
    {
      "constant": true,
      "inputs": [
        {
          "name": "b0",
          "type": "uint256"
        },
        {
          "name": "c0",
          "type": "uint256"
        },
        {
          "name": "f0",
          "type": "uint256"
        },
        {
          "name": "cipher1",
          "type": "uint256"
        }
      ],
      "name": "verifyV3",
      "outputs": [
        {
          "name": "",
          "type": "bool"
        }
      ],
      "payable": false,
      "stateMutability": "view",
      "type": "function"
    },
    {
      "constant": true,
      "inputs": [
        {
          "name": "b1",
          "type": "uint256"
        },
        {
          "name": "c1",
          "type": "uint256"
        },
        {
          "name": "f1",
          "type": "uint256"
        },
        {
          "name": "cipher1",
          "type": "uint256"
        }
      ],
      "name": "verifyV4",
      "outputs": [
        {
          "name": "",
          "type": "bool"
        }
      ],
      "payable": false,
      "stateMutability": "view",
      "type": "function"
    },
    {
      "constant": true,
      "inputs": [
        {
          "name": "a",
          "type": "uint256[2]"
        },
        {
          "name": "b",
          "type": "uint256[2]"
        },
        {
          "name": "c",
          "type": "uint256[2]"
        },
        {
          "name": "cipher",
          "type": "uint256[2]"
        },
        {
          "name": "uniqueID",
          "type": "address"
        }
      ],
      "name": "verifyV5",
      "outputs": [
        {
          "name": "",
          "type": "bool"
        }
      ],
      "payable": false,
      "stateMutability": "view",
      "type": "function"
    },
    {
      "constant": true,
      "inputs": [
        {
          "name": "a",
          "type": "uint256"
        },
        {
          "name": "b",
          "type": "uint256"
        }
      ],
      "name": "add",
      "outputs": [
        {
          "name": "res",
          "type": "uint256"
        }
      ],
      "payable": false,
      "stateMutability": "view",
      "type": "function"
    },
    {
      "constant": true,
      "inputs": [
        {
          "name": "a",
          "type": "uint256"
        },
        {
          "name": "b",
          "type": "uint256"
        }
      ],
      "name": "sub",
      "outputs": [
        {
          "name": "res",
          "type": "uint256"
        }
      ],
      "payable": false,
      "stateMutability": "view",
      "type": "function"
    },
    {
      "constant": true,
      "inputs": [
        {
          "name": "a",
          "type": "uint256"
        },
        {
          "name": "b",
          "type": "uint256"
        }
      ],
      "name": "mul",
      "outputs": [
        {
          "name": "res",
          "type": "uint256"
        }
      ],
      "payable": false,
      "stateMutability": "view",
      "type": "function"
    },
    {
      "constant": true,
      "inputs": [
        {
          "name": "a",
          "type": "uint256"
        },
        {
          "name": "b",
          "type": "uint256"
        }
      ],
      "name": "div",
      "outputs": [
        {
          "name": "res",
          "type": "uint256"
        }
      ],
      "payable": false,
      "stateMutability": "view",
      "type": "function"
    },
    {
      "constant": true,
      "inputs": [
        {
          "name": "a",
          "type": "uint256"
        },
        {
          "name": "b",
          "type": "uint256"
        }
      ],
      "name": "pow",
      "outputs": [
        {
          "name": "res",
          "type": "uint256"
        }
      ],
      "payable": false,
      "stateMutability": "view",
      "type": "function"
    },
    {
      "constant": true,
      "inputs": [
        {
          "name": "a",
          "type": "uint256"
        },
        {
          "name": "p",
          "type": "uint256"
        }
      ],
      "name": "invm",
      "outputs": [
        {
          "name": "res",
          "type": "uint256"
        }
      ],
      "payable": false,
      "stateMutability": "pure",
      "type": "function"
    }
  ],
  "bytecode": "0x608060405234801561001057600080fd5b5060806040519081016040528060008152602001600081526020016000815260200160008152506000808201518160000155602082015181600101556040820151816002015560608201518160030155905050610ec5806100726000396000f3fe6080604052600436106100c5576000357c0100000000000000000000000000000000000000000000000000000000900463ffffffff1680632817a98f146100ca5780632e4c697f146102795780634d59eb95146102d25780635bf82b18146104405780635e3dc188146104b157806360a2da4414610522578063771602f71461056e5780639ea91168146105c75780639ee957ac14610638578063a391c15b146106a9578063b67d77c514610702578063bf5b29331461075b578063c8a4ac9c146107b4575b600080fd5b3480156100d657600080fd5b5061025f60048036036101608110156100ee57600080fd5b8101908080604001906002806020026040519081016040528092919082600260200280828437600081840152601f19601f820116905080830192505050505050919291929080604001906002806020026040519081016040528092919082600260200280828437600081840152601f19601f820116905080830192505050505050919291929080604001906002806020026040519081016040528092919082600260200280828437600081840152601f19601f820116905080830192505050505050919291929080604001906002806020026040519081016040528092919082600260200280828437600081840152601f19601f820116905080830192505050505050919291929080604001906002806020026040519081016040528092919082600260200280828437600081840152601f19601f8201169050808301925050505050509192919290803573ffffffffffffffffffffffffffffffffffffffff16906020019092919050505061080d565b604051808215151515815260200191505060405180910390f35b34801561028557600080fd5b506102bc6004803603604081101561029c57600080fd5b810190808035906020019092919080359060200190929190505050610a49565b6040518082815260200191505060405180910390f35b3480156102de57600080fd5b5061042660048036036101208110156102f657600080fd5b8101908080604001906002806020026040519081016040528092919082600260200280828437600081840152601f19601f820116905080830192505050505050919291929080604001906002806020026040519081016040528092919082600260200280828437600081840152601f19601f820116905080830192505050505050919291929080604001906002806020026040519081016040528092919082600260200280828437600081840152601f19601f820116905080830192505050505050919291929080604001906002806020026040519081016040528092919082600260200280828437600081840152601f19601f8201169050808301925050505050509192919290803573ffffffffffffffffffffffffffffffffffffffff169060200190929190505050610a65565b604051808215151515815260200191505060405180910390f35b34801561044c57600080fd5b506104976004803603608081101561046357600080fd5b8101908080359060200190929190803590602001909291908035906020019092919080359060200190929190505050610bcf565b604051808215151515815260200191505060405180910390f35b3480156104bd57600080fd5b50610508600480360360808110156104d457600080fd5b8101908080359060200190929190803590602001909291908035906020019092919080359060200190929190505050610c17565b604051808215151515815260200191505060405180910390f35b61056c6004803603608081101561053857600080fd5b8101908080359060200190929190803590602001909291908035906020019092919080359060200190929190505050610c51565b005b34801561057a57600080fd5b506105b16004803603604081101561059157600080fd5b810190808035906020019092919080359060200190929190505050610c7e565b6040518082815260200191505060405180910390f35b3480156105d357600080fd5b5061061e600480360360808110156105ea57600080fd5b8101908080359060200190929190803590602001909291908035906020019092919080359060200190929190505050610c9a565b604051808215151515815260200191505060405180910390f35b34801561064457600080fd5b5061068f6004803603608081101561065b57600080fd5b8101908080359060200190929190803590602001909291908035906020019092919080359060200190929190505050610cd4565b604051808215151515815260200191505060405180910390f35b3480156106b557600080fd5b506106ec600480360360408110156106cc57600080fd5b810190808035906020019092919080359060200190929190505050610d0e565b6040518082815260200191505060405180910390f35b34801561070e57600080fd5b506107456004803603604081101561072557600080fd5b810190808035906020019092919080359060200190929190505050610d3e565b6040518082815260200191505060405180910390f35b34801561076757600080fd5b5061079e6004803603604081101561077e57600080fd5b810190808035906020019092919080359060200190929190505050610d5a565b6040518082815260200191505060405180910390f35b3480156107c057600080fd5b506107f7600480360360408110156107d757600080fd5b810190808035906020019092919080359060200190929190505050610e0c565b6040518082815260200191505060405180910390f35b6000610817610e28565b60a06040519081016040528089815260200188815260200187815260200186815260200185815250905060006108ab8260200151600060028110151561085957fe5b60200201518360600151600060028110151561087157fe5b60200201518460800151600060028110151561088957fe5b6020020151856000015160006002811015156108a157fe5b6020020151610c17565b90506000610917836020015160016002811015156108c557fe5b6020020151846080015160016002811015156108dd57fe5b6020020151856060015160016002811015156108f557fe5b60200201518660000151600060028110151561090d57fe5b6020020151610cd4565b905060006109838460400151600060028110151561093157fe5b60200201518560600151600060028110151561094957fe5b60200201518660800151600060028110151561096157fe5b60200201518760000151600160028110151561097957fe5b6020020151610c9a565b905060006109ef8560400151600160028110151561099d57fe5b6020020151866060015160016002811015156109b557fe5b6020020151876080015160016002811015156109cd57fe5b6020020151886000015160016002811015156109e557fe5b6020020151610bcf565b90506000610a1086602001518760400151886060015189600001518c610a65565b9050848015610a1c5750835b8015610a255750825b8015610a2e5750815b8015610a375750805b96505050505050509695505050505050565b6000806000015482840a811515610a5c57fe5b06905092915050565b600080600060010154856000600281101515610a7d57fe5b6020020151866001600281101515610a9157fe5b602002015101811515610aa057fe5b069050600083856000600281101515610ab557fe5b6020020151866001600281101515610ac957fe5b60200201518a6000600281101515610add57fe5b60200201518a6000600281101515610af157fe5b60200201518c6001600281101515610b0557fe5b60200201518c6001600281101515610b1957fe5b6020020151604051602001808873ffffffffffffffffffffffffffffffffffffffff1673ffffffffffffffffffffffffffffffffffffffff166c010000000000000000000000000281526014018781526020018681526020018581526020018481526020018381526020018281526020019750505050505050506040516020818303038152906040528051906020012090506000600101548160019004811515610bbf57fe5b0682149250505095945050505050565b600080610be160006003015485610a49565b90506000610c0687610c01610bfb87600060020154610d0e565b89610a49565b610e0c565b905080821492505050949350505050565b600080610c2960006002015485610a49565b90506000610c4087610c3b8689610a49565b610e0c565b905080821492505050949350505050565b83600080018190555082600060010181905550816000600201819055508060006003018190555050505050565b60008060010154828401811515610c9157fe5b06905092915050565b600080610cac60006003015485610a49565b90506000610cc387610cbe8689610a49565b610e0c565b905080821492505050949350505050565b600080610ce660006002015486610a49565b90506000610cfd87610cf88688610a49565b610e0c565b905080821492505050949350505050565b60008060000154610d2c84610d27856000800154610d5a565b610e0c565b811515610d3557fe5b06905092915050565b60008060010154828403811515610d5157fe5b06905092915050565b600080831480610d6957508183145b80610d745750600082145b15610d7e57600080fd5b81831115610d95578183811515610d9157fe5b0692505b600080600190506000849050600086905060005b600082141515610de2578183811515610dbe57fe5b04905083848202860383848402860380955081965082975083985050505050610da9565b6000851215610dfd5784600003870395505050505050610e06565b84955050505050505b92915050565b60008060000154828402811515610e1f57fe5b06905092915050565b61014060405190810160405280610e3d610e77565b8152602001610e4a610e77565b8152602001610e57610e77565b8152602001610e64610e77565b8152602001610e71610e77565b81525090565b604080519081016040528060029060208202803883398082019150509050509056fea165627a7a72305820d4411304e4d926319c42bb471eb19d7eca7c5d65512d7939ebe8c819da19031b0029",
  "source": "pragma solidity ^0.5.0;\n\ncontract VoteProofVerifier {\n\n  struct Proof {\n    uint[2] cipher; // a, b\n    uint[2] a;\n    uint[2] b;\n    uint[2] c;\n    uint[2] f;\n  }\n\n  struct PublicKey {\n    uint p; // prime\n    uint q; // prime factor: p = 2*q+1\n    uint g; // generator\n    uint h;\n  }\n\n  PublicKey publicKey;\n\n  constructor() public {\n    publicKey = PublicKey(0,0,0,0);\n  }\n\n  function initialize(uint p, uint q, uint g, uint h) public payable {\n    publicKey.p = p;\n    publicKey.q = q;\n    publicKey.g = g;\n    publicKey.h = h;\n  }\n\n  function verifyProof(\n    uint[2] memory cipher, // a, b\n    uint[2] memory a,\n    uint[2] memory b,\n    uint[2] memory c,\n    uint[2] memory f,\n    address id\n    ) public view returns(bool) {\n\n    // create a proof object\n    // mostly needed because otherwise would throw compilation error that\n    // stack depth is reached\n    Proof memory proof = Proof(cipher, a, b, c, f);\n\n    // verification g^f0 == a0*a^c0\n    bool v1 = verifyV1(proof.a[0], proof.c[0], proof.f[0], proof.cipher[0]);\n\n    // verification g^f1 == a1*a^c1\n    bool v2 = verifyV2(proof.a[1], proof.f[1], proof.c[1], proof.cipher[0]);\n\n    // verification h^f0 == b0 * b^c0\n    bool v3 = verifyV3(proof.b[0], proof.c[0], proof.f[0], proof.cipher[1]);\n\n    // verification h^f1 == b1 * (b/g)^c1\n    bool v4 = verifyV4(proof.b[1], proof.c[1], proof.f[1], proof.cipher[1]);\n\n    // recompute the hash and verify\n    bool v5 = verifyV5(proof.a, proof.b, proof.c, proof.cipher, id);\n\n    return v1 && v2 && v3 && v4 && v5;\n  }\n\n  function verifyV1(uint a0, uint c0, uint f0, uint cipher0) public view returns (bool) {\n    uint l1 = pow(publicKey.g, f0);\n    uint r1 = mul(a0, pow(cipher0, c0));\n    return l1 == r1;\n  }\n\n  function verifyV2(uint a1, uint f1, uint c1, uint cipher0) public view returns (bool) {\n    uint l2 = pow(publicKey.g, f1);\n    uint r2 = mul(a1, pow(cipher0, c1));\n    return l2 == r2;\n  }\n\n  function verifyV3(uint b0, uint c0, uint f0, uint cipher1) public view returns (bool) {\n    uint l3 = pow(publicKey.h, f0);\n    uint r3 = mul(b0, pow(cipher1, c0));\n    return l3 == r3;\n  }\n\n  function verifyV4(uint b1, uint c1, uint f1, uint cipher1) public view returns (bool) {\n    uint l4 = pow(publicKey.h, f1);\n    uint r4 = mul(b1, pow(div(cipher1, publicKey.g), c1));\n    return l4 == r4;\n  }\n\n  // verifies the challenge/hash\n  function verifyV5(uint[2] memory a, uint[2] memory b, uint[2] memory c, uint[2] memory cipher, address uniqueID) public view returns (bool) {\n    // use the address of the sender once the verification call comes from the frontend\n    // address of the caller provides a unique nonce for the hash\n    uint256 lc = (c[1] + c[0]) % publicKey.q;\n    bytes32 rc = keccak256(abi.encodePacked(uniqueID, cipher[0], cipher[1], a[0], b[0], a[1], b[1]));\n    return lc == (uint(rc) % publicKey.q);\n  }\n\n  //////////////////////////////////////\n  // HELPER FUNCTIONS\n  //////////////////////////////////////\n  // modulo operations\n  function add(uint a, uint b) public view returns (uint res){\n    return (a + b) % publicKey.q;\n  }\n\n  function sub(uint a, uint b) public view returns (uint res){\n    return (a - b) % publicKey.q;\n  }\n\n  function mul(uint a, uint b) public view returns (uint res){\n    return (a * b) % publicKey.p;\n  }\n\n  function div(uint a, uint b) public view returns (uint res){\n    return mul(a, invm(b, publicKey.p)) % publicKey.p;\n  }\n\n  function pow(uint a, uint b) public view returns (uint res){\n    return (a**b) % publicKey.p;\n  }\n\n  /// @dev Modular inverse of a (mod p) using euclid.\n  /// \"a\" and \"p\" must be co-prime.\n  /// @param a The number.\n  /// @param p The mmodulus.\n  /// @return x such that ax = 1 (mod p)\n  // inspired by: https://github.com/stonecoldpat/anonymousvoting/blob/master/LocalCrypto.sol\n  function invm(uint a, uint p) public pure returns (uint res){\n      if (a == 0 || a == p || p == 0)\n          revert();\n      if (a > p)\n          a = a % p;\n      int t1;\n      int t2 = 1;\n      uint r1 = p;\n      uint r2 = a;\n      uint q;\n      while (r2 != 0) {\n          q = r1 / r2;\n          (t1, t2, r1, r2) = (t2, t1 - int(q) * t2, r2, r1 - q * r2);\n      }\n      if (t1 < 0)\n          return (p - uint(-t1));\n      return uint(t1);\n  }\n}",
  "sourcePath": "/home/meck/code/master-project-sink/voter-frontend/contracts/VoteProofVerifier.sol",
  "compiler": {
    "name": "solc",
    "version": "0.5.0+commit.1d4f565a.Emscripten.clang"
  },
  "schemaVersion": "3.0.17",
  "updatedAt": "2019-11-14T11:23:29.290Z",
  "devdoc": {
    "methods": {
      "invm(uint256,uint256)": {
        "details": "Modular inverse of a (mod p) using euclid. \"a\" and \"p\" must be co-prime.",
        "params": {
          "a": "The number.",
          "p": "The mmodulus."
        },
        "return": "x such that ax = 1 (mod p)"
      }
    }
  },
  "userdoc": {
    "methods": {
      "add(uint256,uint256)": {
        "notice": "///////////////////////////////////"
      }
    }
  }
}