{
  "contractName": "Ballot",
  "abi": [
    {
      "inputs": [
        {
          "name": "votingQuestion",
          "type": "string"
        },
        {
          "name": "numberOfAuthNodes",
          "type": "uint256"
        }
      ],
      "payable": false,
      "stateMutability": "nonpayable",
      "type": "constructor"
    },
    {
      "anonymous": false,
      "inputs": [
        {
          "indexed": true,
          "name": "from",
          "type": "address"
        },
        {
          "indexed": false,
          "name": "success",
          "type": "bool"
        },
        {
          "indexed": false,
          "name": "reason",
          "type": "string"
        }
      ],
      "name": "VoteStatusEvent",
      "type": "event"
    },
    {
      "anonymous": false,
      "inputs": [
        {
          "indexed": true,
          "name": "from",
          "type": "address"
        },
        {
          "indexed": false,
          "name": "success",
          "type": "bool"
        },
        {
          "indexed": false,
          "name": "reason",
          "type": "string"
        }
      ],
      "name": "SystemStatusEvent",
      "type": "event"
    },
    {
      "constant": false,
      "inputs": [
        {
          "name": "params",
          "type": "uint256[3]"
        }
      ],
      "name": "setParameters",
      "outputs": [],
      "payable": false,
      "stateMutability": "nonpayable",
      "type": "function"
    },
    {
      "constant": false,
      "inputs": [],
      "name": "generatePublicKey",
      "outputs": [],
      "payable": false,
      "stateMutability": "nonpayable",
      "type": "function"
    },
    {
      "constant": false,
      "inputs": [],
      "name": "openBallot",
      "outputs": [],
      "payable": false,
      "stateMutability": "nonpayable",
      "type": "function"
    },
    {
      "constant": false,
      "inputs": [],
      "name": "closeBallot",
      "outputs": [],
      "payable": false,
      "stateMutability": "nonpayable",
      "type": "function"
    },
    {
      "constant": false,
      "inputs": [],
      "name": "combineDecryptedShares",
      "outputs": [],
      "payable": false,
      "stateMutability": "nonpayable",
      "type": "function"
    },
    {
      "constant": false,
      "inputs": [
        {
          "name": "key",
          "type": "uint256"
        },
        {
          "name": "proof_c",
          "type": "uint256"
        },
        {
          "name": "proof_d",
          "type": "uint256"
        }
      ],
      "name": "submitPublicKeyShare",
      "outputs": [
        {
          "name": "",
          "type": "bool"
        },
        {
          "name": "",
          "type": "string"
        }
      ],
      "payable": false,
      "stateMutability": "nonpayable",
      "type": "function"
    },
    {
      "constant": false,
      "inputs": [
        {
          "name": "share",
          "type": "uint256"
        },
        {
          "name": "a",
          "type": "uint256"
        },
        {
          "name": "b",
          "type": "uint256"
        },
        {
          "name": "a1",
          "type": "uint256"
        },
        {
          "name": "b1",
          "type": "uint256"
        },
        {
          "name": "d",
          "type": "uint256"
        },
        {
          "name": "f",
          "type": "uint256"
        }
      ],
      "name": "submitDecryptedShare",
      "outputs": [
        {
          "name": "",
          "type": "bool"
        },
        {
          "name": "",
          "type": "string"
        }
      ],
      "payable": false,
      "stateMutability": "nonpayable",
      "type": "function"
    },
    {
      "constant": false,
      "inputs": [
        {
          "name": "cipher",
          "type": "uint256[2]"
        },
        {
          "name": "a",
          "type": "uint256[2]"
        },
        {
          "name": "b",
          "type": "uint256[2]"
        },
        {
          "name": "c",
          "type": "uint256[2]"
        },
        {
          "name": "f",
          "type": "uint256[2]"
        }
      ],
      "name": "vote",
      "outputs": [
        {
          "name": "",
          "type": "bool"
        },
        {
          "name": "",
          "type": "string"
        }
      ],
      "payable": false,
      "stateMutability": "nonpayable",
      "type": "function"
    },
    {
      "constant": true,
      "inputs": [],
      "name": "getVotingQuestion",
      "outputs": [
        {
          "name": "",
          "type": "string"
        }
      ],
      "payable": false,
      "stateMutability": "view",
      "type": "function"
    },
    {
      "constant": true,
      "inputs": [],
      "name": "getParameters",
      "outputs": [
        {
          "name": "",
          "type": "uint256[3]"
        }
      ],
      "payable": false,
      "stateMutability": "view",
      "type": "function"
    },
    {
      "constant": true,
      "inputs": [],
      "name": "getNrOfPublicKeyShares",
      "outputs": [
        {
          "name": "",
          "type": "uint256"
        }
      ],
      "payable": false,
      "stateMutability": "view",
      "type": "function"
    },
    {
      "constant": true,
      "inputs": [],
      "name": "getPublicKey",
      "outputs": [
        {
          "name": "",
          "type": "uint256"
        }
      ],
      "payable": false,
      "stateMutability": "view",
      "type": "function"
    },
    {
      "constant": true,
      "inputs": [
        {
          "name": "idx",
          "type": "uint256"
        }
      ],
      "name": "getVote",
      "outputs": [
        {
          "name": "",
          "type": "uint256"
        },
        {
          "name": "",
          "type": "uint256"
        }
      ],
      "payable": false,
      "stateMutability": "view",
      "type": "function"
    },
    {
      "constant": true,
      "inputs": [],
      "name": "getNumberOfVotes",
      "outputs": [
        {
          "name": "",
          "type": "uint256"
        }
      ],
      "payable": false,
      "stateMutability": "view",
      "type": "function"
    },
    {
      "constant": true,
      "inputs": [],
      "name": "getBallotStatus",
      "outputs": [
        {
          "name": "",
          "type": "string"
        }
      ],
      "payable": false,
      "stateMutability": "view",
      "type": "function"
    },
    {
      "constant": true,
      "inputs": [],
      "name": "getNrOfDecryptedShares",
      "outputs": [
        {
          "name": "",
          "type": "uint256"
        }
      ],
      "payable": false,
      "stateMutability": "view",
      "type": "function"
    },
    {
      "constant": true,
      "inputs": [
        {
          "name": "idx",
          "type": "uint256"
        }
      ],
      "name": "getDecryptedShare",
      "outputs": [
        {
          "name": "",
          "type": "uint256"
        }
      ],
      "payable": false,
      "stateMutability": "view",
      "type": "function"
    },
    {
      "constant": true,
      "inputs": [],
      "name": "getVoteResult",
      "outputs": [
        {
          "name": "",
          "type": "uint256"
        }
      ],
      "payable": false,
      "stateMutability": "view",
      "type": "function"
    }
  ],
  "bytecode": "0x608060405260008060006101000a81548160ff021916908360038111156200002357fe5b02179055503480156200003557600080fd5b506040516200532338038062005323833981018060405260408110156200005b57600080fd5b8101908080516401000000008111156200007457600080fd5b828101905060208101848111156200008b57600080fd5b8151856001820283011164010000000082111715620000a957600080fd5b505092919060200180519060200190929190505050604051620000cc90620002cf565b604051809103906000f080158015620000e9573d6000803e3d6000fd5b50600060016101000a81548173ffffffffffffffffffffffffffffffffffffffff021916908373ffffffffffffffffffffffffffffffffffffffff1602179055506040516200013890620002dd565b604051809103906000f08015801562000155573d6000803e3d6000fd5b50600160006101000a81548173ffffffffffffffffffffffffffffffffffffffff021916908373ffffffffffffffffffffffffffffffffffffffff160217905550604051620001a490620002eb565b604051809103906000f080158015620001c1573d6000803e3d6000fd5b50600260006101000a81548173ffffffffffffffffffffffffffffffffffffffff021916908373ffffffffffffffffffffffffffffffffffffffff1602179055506000601260006101000a81548160ff0219169083151502179055506000601260016101000a81548160ff02191690831515021790555033601260026101000a81548173ffffffffffffffffffffffffffffffffffffffff021916908373ffffffffffffffffffffffffffffffffffffffff16021790555060006007600101819055506000600760020181620002989190620002f9565b508160076000019080519060200190620002b49291906200032e565b5060006007600a01819055508060138190555050506200049a565b6111de80620031b983390190565b61080e806200439783390190565b61077e8062004ba583390190565b8154818355818111156200032957600b0281600b028360005260206000209182019101620003289190620003b5565b5b505050565b828054600181600116156101000203166002900490600052602060002090601f016020900481019282601f106200037157805160ff1916838001178555620003a2565b82800160010185558215620003a2579182015b82811115620003a157825182559160200191906001019062000384565b5b509050620003b1919062000464565b5090565b6200046191905b808211156200045d57600080820160006101000a81549073ffffffffffffffffffffffffffffffffffffffff0219169055600182016000808201600090556001820160009055505060038201600080820160006200041b91906200048c565b6002820160006200042d91906200048c565b6004820160006200043f91906200048c565b6006820160006200045191906200048c565b505050600b01620003bc565b5090565b90565b6200048991905b80821115620004855760008160009055506001016200046b565b5090565b90565b506000815560010160009055565b612d0f80620004aa6000396000f3fe608060405234801561001057600080fd5b5060043610610133576000357c01000000000000000000000000000000000000000000000000000000009004806373e867fb116100bf578063a97b8b4d1161008e578063a97b8b4d1461054f578063b23d422d14610559578063bb1f683d14610563578063cee024dc1461063e578063df2252b91461065c57610133565b806373e867fb1461044a5780638742fc3b14610468578063a10cfae514610486578063a5ea11da1461050957610133565b80634d0013ac116101065780634d0013ac146101c05780635a55c1f0146101ca5780635b71c52314610213578063689778c31461030157806368cdfda5146103c757610133565b80631536f616146101385780631f50c0ab146101565780632e3344521461019857806334507556146101b6575b600080fd5b61014061068a565b6040518082815260200191505060405180910390f35b6101826004803603602081101561016c57600080fd5b810190808035906020019092919050505061069a565b6040518082815260200191505060405180910390f35b6101a0610729565b6040518082815260200191505060405180910390f35b6101be61079d565b005b6101c8610a6a565b005b6101f6600480360360208110156101e057600080fd5b8101908080359060200190929190505050610b62565b604051808381526020018281526020019250505060405180910390f35b61027b600480360360e081101561022957600080fd5b8101908080359060200190929190803590602001909291908035906020019092919080359060200190929190803590602001909291908035906020019092919080359060200190929190505050610bbc565b604051808315151515815260200180602001828103825283818151815260200191508051906020019080838360005b838110156102c55780820151818401526020810190506102aa565b50505050905090810190601f1680156102f25780820380516001836020036101000a031916815260200191505b50935050505060405180910390f35b6103416004803603606081101561031757600080fd5b81019080803590602001909291908035906020019092919080359060200190929190505050611114565b604051808315151515815260200180602001828103825283818151815260200191508051906020019080838360005b8381101561038b578082015181840152602081019050610370565b50505050905090810190601f1680156103b85780820380516001836020036101000a031916815260200191505b50935050505060405180910390f35b6103cf611511565b6040518080602001828103825283818151815260200191508051906020019080838360005b8381101561040f5780820151818401526020810190506103f4565b50505050905090810190601f16801561043c5780820380516001836020036101000a031916815260200191505b509250505060405180910390f35b6104526115b6565b6040518082815260200191505060405180910390f35b6104706115c5565b6040518082815260200191505060405180910390f35b61048e611604565b6040518080602001828103825283818151815260200191508051906020019080838360005b838110156104ce5780820151818401526020810190506104b3565b50505050905090810190601f1680156104fb5780820380516001836020036101000a031916815260200191505b509250505060405180910390f35b6105116117b1565b6040518082600360200280838360005b8381101561053c578082015181840152602081019050610521565b5050505090500191505060405180910390f35b610557611804565b005b6105616118fc565b005b6105b8600480360361014081101561057a57600080fd5b810190808060400190919291929080604001909192919290806040019091929192908060400190919291929080604001909192919290505050611dd1565b604051808315151515815260200180602001828103825283818151815260200191508051906020019080838360005b838110156106025780820151818401526020810190506105e7565b50505050905090810190601f16801561062f5780820380516001836020036101000a031916815260200191505b50935050505060405180910390f35b61064661263d565b6040518082815260200191505060405180910390f35b6106886004803603606081101561067257600080fd5b810190808060600190919291929050505061264d565b005b6000600760050180549050905090565b60008060078001838154811015156106ae57fe5b9060005260206000200160009054906101000a900473ffffffffffffffffffffffffffffffffffffffff169050600760060160008273ffffffffffffffffffffffffffffffffffffffff1673ffffffffffffffffffffffffffffffffffffffff16815260200190815260200160002060000154915050919050565b6000601260019054906101000a900460ff161515610792576040517f08c379a0000000000000000000000000000000000000000000000000000000008152600401808060200182810382526024815260200180612c9c6024913960400191505060405180910390fd5b600660000154905090565b601260029054906101000a900473ffffffffffffffffffffffffffffffffffffffff1673ffffffffffffffffffffffffffffffffffffffff163373ffffffffffffffffffffffffffffffffffffffff161415156107f957600080fd5b601260019054906101000a900460ff1615151561081557600080fd5b60135460076005018054905014151561082d57600080fd5b60006007600501600081548110151561084257fe5b9060005260206000200160009054906101000a900473ffffffffffffffffffffffffffffffffffffffff1690506000600760040160008373ffffffffffffffffffffffffffffffffffffffff1673ffffffffffffffffffffffffffffffffffffffff1681526020019081526020016000206000015490506000600190505b600760050180549050811015610a235760006007600501828154811015156108e457fe5b9060005260206000200160009054906101000a900473ffffffffffffffffffffffffffffffffffffffff1690508273__ModuloMathLib_________________________63e616559e9091600760040160008573ffffffffffffffffffffffffffffffffffffffff1673ffffffffffffffffffffffffffffffffffffffff168152602001908152602001600020600001546003600001546040518463ffffffff167c010000000000000000000000000000000000000000000000000000000002815260040180848152602001838152602001828152602001935050505060206040518083038186803b1580156109d857600080fd5b505af41580156109ec573d6000803e3d6000fd5b505050506040513d6020811015610a0257600080fd5b810190808051906020019092919050505092505080806001019150506108c0565b50602060405190810160405280828152506006600082015181600001559050506001601260016101000a81548160ff021916908315150217905550610a66612823565b5050565b601260029054906101000a900473ffffffffffffffffffffffffffffffffffffffff1673ffffffffffffffffffffffffffffffffffffffff163373ffffffffffffffffffffffffffffffffffffffff16141515610ac657600080fd5b60011515601260019054906101000a900460ff161515141515610ae857600080fd5b60011515601260009054906101000a900460ff161515141515610b0a57600080fd5b60006003811115610b1757fe5b6000809054906101000a900460ff166003811115610b3157fe5b141515610b3d57600080fd5b60016000806101000a81548160ff02191690836003811115610b5b57fe5b0217905550565b600080600760020183815481101515610b7757fe5b90600052602060002090600b020160010160000154600760020184815481101515610b9e57fe5b90600052602060002090600b02016001016001015491509150915091565b6000606060026003811115610bcd57fe5b6000809054906101000a900460ff166003811115610be757fe5b141515610bf357600080fd5b6000600760040160003373ffffffffffffffffffffffffffffffffffffffff1673ffffffffffffffffffffffffffffffffffffffff168152602001908152602001600020600001549050600160009054906101000a900473ffffffffffffffffffffffffffffffffffffffff1673ffffffffffffffffffffffffffffffffffffffff1663b6b81a268a8a8a8a8a8a33896040518963ffffffff167c0100000000000000000000000000000000000000000000000000000000028152600401808981526020018881526020018781526020018681526020018581526020018481526020018373ffffffffffffffffffffffffffffffffffffffff1673ffffffffffffffffffffffffffffffffffffffff1681526020018281526020019850505050505050505060206040518083038186803b158015610d3057600080fd5b505afa158015610d44573d6000803e3d6000fd5b505050506040513d6020811015610d5a57600080fd5b81019080805190602001909291905050501515610e3f573373ffffffffffffffffffffffffffffffffffffffff167f13dd6fe92e00365cc4b5b06c43c90e02579bac92daf813dcc92257094835f9146000604051808215151515815260200180602001828103825260118152602001807f50726f6f66206e6f7420636f72726563740000000000000000000000000000008152506020019250505060405180910390a260006040805190810160405280601181526020017f50726f6f66206e6f7420636f72726563740000000000000000000000000000008152509250925050611108565b600080905060005b6007800180549050811015610ed7573373ffffffffffffffffffffffffffffffffffffffff166007800182815481101515610e7e57fe5b9060005260206000200160009054906101000a900473ffffffffffffffffffffffffffffffffffffffff1673ffffffffffffffffffffffffffffffffffffffff161415610eca57600191505b8080600101915050610e47565b50610ee0612a6f565b60408051908101604052808d81526020016080604051908101604052808c81526020018b81526020018a8152602001898152508152509050811515610f8857600780013390806001815401808255809150509060018203906000526020600020016000909192909190916101000a81548173ffffffffffffffffffffffffffffffffffffffff021916908373ffffffffffffffffffffffffffffffffffffffff160217905550505b80600760060160003373ffffffffffffffffffffffffffffffffffffffff1673ffffffffffffffffffffffffffffffffffffffff1681526020019081526020016000206000820151816000015560208201518160010160008201518160000155602082015181600101556040820151816002015560608201518160030155505090505060408051908101604052808c81526020018b815250600760080160008201518160000155602082015181600101559050503373ffffffffffffffffffffffffffffffffffffffff167f13dd6fe92e00365cc4b5b06c43c90e02579bac92daf813dcc92257094835f91460016040518082151515158152602001806020018281038252601c8152602001807f446563727970746564536861726550726f6f66206163636570746564000000008152506020019250505060405180910390a260016040805190810160405280601181526020017f53756d70726f6f66206163636570746564000000000000000000000000000000815250945094505050505b97509795505050505050565b600060606000600381111561112557fe5b6000809054906101000a900460ff16600381111561113f57fe5b14151561114b57600080fd5b60001515601260019054906101000a900460ff16151514151561116d57600080fd5b6000600260009054906101000a900473ffffffffffffffffffffffffffffffffffffffff1673ffffffffffffffffffffffffffffffffffffffff1663b0caa829868689336040518563ffffffff167c0100000000000000000000000000000000000000000000000000000000028152600401808581526020018481526020018381526020018273ffffffffffffffffffffffffffffffffffffffff1673ffffffffffffffffffffffffffffffffffffffff16815260200194505050505060206040518083038186803b15801561124257600080fd5b505afa158015611256573d6000803e3d6000fd5b505050506040513d602081101561126c57600080fd5b8101908080519060200190929190505050905080151561131b573373ffffffffffffffffffffffffffffffffffffffff167f5e3bcf275ebed27743f1e6a7da420715dbb1cf382076b6b9edcf71ad26b8b454600060405180821515151581526020018060200182810382526024815260200180612cc0602491396040019250505060405180910390a2600060606040519081016040528060248152602001612cc0602491399250925050611509565b600080905060005b6007600501805490508110156113b5573373ffffffffffffffffffffffffffffffffffffffff1660076005018281548110151561135c57fe5b9060005260206000200160009054906101000a900473ffffffffffffffffffffffffffffffffffffffff1673ffffffffffffffffffffffffffffffffffffffff1614156113a857600191505b8080600101915050611323565b506113be612a90565b604080519081016040528089815260200160408051908101604052808a815260200189815250815250905081151561145a5760076005013390806001815401808255809150509060018203906000526020600020016000909192909190916101000a81548173ffffffffffffffffffffffffffffffffffffffff021916908373ffffffffffffffffffffffffffffffffffffffff160217905550505b80600760040160003373ffffffffffffffffffffffffffffffffffffffff1673ffffffffffffffffffffffffffffffffffffffff168152602001908152602001600020600082015181600001556020820151816001016000820151816000015560208201518160010155505090505060016040805190810160405280601e81526020017f4b65792047656e65726174696f6e2050726f6f662069732076616c69642e0000815250945094505050505b935093915050565b606060076000018054600181600116156101000203166002900480601f0160208091040260200160405190810160405280929190818152602001828054600181600116156101000203166002900480156115ac5780601f10611581576101008083540402835291602001916115ac565b820191906000526020600020905b81548152906001019060200180831161158f57829003601f168201915b5050505050905090565b60006007800180549050905090565b60006003808111156115d357fe5b6000809054906101000a900460ff1660038111156115ed57fe5b1415156115f957600080fd5b6007600a0154905090565b60606000600381111561161357fe5b6000809054906101000a900460ff16600381111561162d57fe5b1415611670576040805190810160405280600681526020017f434f4e464947000000000000000000000000000000000000000000000000000081525090506117ae565b6001600381111561167d57fe5b6000809054906101000a900460ff16600381111561169757fe5b14156116da576040805190810160405280600681526020017f564f54494e47000000000000000000000000000000000000000000000000000081525090506117ae565b600260038111156116e757fe5b6000809054906101000a900460ff16600381111561170157fe5b1415611744576040805190810160405280600581526020017f54414c4c5900000000000000000000000000000000000000000000000000000081525090506117ae565b60038081111561175057fe5b6000809054906101000a900460ff16600381111561176a57fe5b14156117ad576040805190810160405280600681526020017f524553554c54000000000000000000000000000000000000000000000000000081525090506117ae565b5b90565b6117b9612ab1565b601260009054906101000a900460ff1615156117d457600080fd5b60606040519081016040528060036000015481526020016003600101548152602001600360020154815250905090565b601260029054906101000a900473ffffffffffffffffffffffffffffffffffffffff1673ffffffffffffffffffffffffffffffffffffffff163373ffffffffffffffffffffffffffffffffffffffff1614151561186057600080fd5b60011515601260019054906101000a900460ff16151514151561188257600080fd5b60011515601260009054906101000a900460ff1615151415156118a457600080fd5b600160038111156118b157fe5b6000809054906101000a900460ff1660038111156118cb57fe5b1415156118d757600080fd5b60026000806101000a81548160ff021916908360038111156118f557fe5b0217905550565b6002600381111561190957fe5b6000809054906101000a900460ff16600381111561192357fe5b14151561192f57600080fd5b601354600780018054905014151561194657600080fd5b600060078001600081548110151561195a57fe5b9060005260206000200160009054906101000a900473ffffffffffffffffffffffffffffffffffffffff1690506000600760060160008373ffffffffffffffffffffffffffffffffffffffff1673ffffffffffffffffffffffffffffffffffffffff1681526020019081526020016000206000015490506000600190505b6007800180549050811015611b3957600060078001828154811015156119fa57fe5b9060005260206000200160009054906101000a900473ffffffffffffffffffffffffffffffffffffffff1690508273__ModuloMathLib_________________________63e616559e9091600760060160008573ffffffffffffffffffffffffffffffffffffffff1673ffffffffffffffffffffffffffffffffffffffff168152602001908152602001600020600001546003600001546040518463ffffffff167c010000000000000000000000000000000000000000000000000000000002815260040180848152602001838152602001828152602001935050505060206040518083038186803b158015611aee57600080fd5b505af4158015611b02573d6000803e3d6000fd5b505050506040513d6020811015611b1857600080fd5b810190808051906020019092919050505092505080806001019150506119d8565b50600060076008016001015473__ModuloMathLib_________________________63e616559e90918473__ModuloMathLib_________________________63a9008ad690916003600001546040518363ffffffff167c0100000000000000000000000000000000000000000000000000000000028152600401808381526020018281526020019250505060206040518083038186803b158015611bdb57600080fd5b505af4158015611bef573d6000803e3d6000fd5b505050506040513d6020811015611c0557600080fd5b81019080805190602001909291905050506003600001546040518463ffffffff167c010000000000000000000000000000000000000000000000000000000002815260040180848152602001838152602001828152602001935050505060206040518083038186803b158015611c7a57600080fd5b505af4158015611c8e573d6000803e3d6000fd5b505050506040513d6020811015611ca457600080fd5b81019080805190602001909291905050509050600080905060006003600201549050600060036000015490505b838273__ModuloMathLib_________________________63edbe2fbd909186856040518463ffffffff167c010000000000000000000000000000000000000000000000000000000002815260040180848152602001838152602001828152602001935050505060206040518083038186803b158015611d4f57600080fd5b505af4158015611d63573d6000803e3d6000fd5b505050506040513d6020811015611d7957600080fd5b8101908080519060200190929190505050141515611d9c57600183019250611cd1565b826007600a018190555060036000806101000a81548160ff02191690836003811115611dc457fe5b0217905550505050505050565b6000606060016003811115611de257fe5b6000809054906101000a900460ff166003811115611dfc57fe5b141515611ed0573373ffffffffffffffffffffffffffffffffffffffff167f13dd6fe92e00365cc4b5b06c43c90e02579bac92daf813dcc92257094835f91460006040518082151515158152602001806020018281038252600d8152602001807f566f7465206e6f74206f70656e000000000000000000000000000000000000008152506020019250505060405180910390a260006040805190810160405280600d81526020017f566f7465206e6f74206f70656e0000000000000000000000000000000000000081525091509150612633565b600760030160003373ffffffffffffffffffffffffffffffffffffffff1673ffffffffffffffffffffffffffffffffffffffff16815260200190815260200160002060009054906101000a900460ff1615611ff2573373ffffffffffffffffffffffffffffffffffffffff167f13dd6fe92e00365cc4b5b06c43c90e02579bac92daf813dcc92257094835f9146000604051808215151515815260200180602001828103825260138152602001807f566f74657220616c726561647920766f746564000000000000000000000000008152506020019250505060405180910390a260006040805190810160405280601381526020017f566f74657220616c726561647920766f7465640000000000000000000000000081525091509150612633565b600060019054906101000a900473ffffffffffffffffffffffffffffffffffffffff1673ffffffffffffffffffffffffffffffffffffffff16632817a98f8888888888336040518763ffffffff167c01000000000000000000000000000000000000000000000000000000000281526004018087600260200280828437600081840152601f19601f82011690508083019250505086600260200280828437600081840152601f19601f82011690508083019250505085600260200280828437600081840152601f19601f82011690508083019250505084600260200280828437600081840152601f19601f82011690508083019250505083600260200280828437600081840152601f19601f8201169050808301925050508273ffffffffffffffffffffffffffffffffffffffff1673ffffffffffffffffffffffffffffffffffffffff168152602001965050505050505060206040518083038186803b15801561215c57600080fd5b505afa158015612170573d6000803e3d6000fd5b505050506040513d602081101561218657600080fd5b8101908080519060200190929190505050151561226a573373ffffffffffffffffffffffffffffffffffffffff167f13dd6fe92e00365cc4b5b06c43c90e02579bac92daf813dcc92257094835f9146000604051808215151515815260200180602001828103825260118152602001807f50726f6f66206e6f7420636f72726563740000000000000000000000000000008152506020019250505060405180910390a260006040805190810160405280601181526020017f50726f6f66206e6f7420636f727265637400000000000000000000000000000081525091509150612633565b612272612ad4565b608060405190810160405280886002806020026040519081016040528092919082600260200280828437600081840152601f19601f8201169050808301925050505050508152602001876002806020026040519081016040528092919082600260200280828437600081840152601f19601f8201169050808301925050505050508152602001866002806020026040519081016040528092919082600260200280828437600081840152601f19601f8201169050808301925050505050508152602001856002806020026040519081016040528092919082600260200280828437600081840152601f19601f820116905080830192505050505050815250905061237a612b16565b60408051908101604052808a600060028110151561239457fe5b602002013581526020018a60016002811015156123ad57fe5b602002013581525090506123bf612b30565b6060604051908101604052803373ffffffffffffffffffffffffffffffffffffffff1681526020018381526020018481525090506007600201819080600181540180825580915050906001820390600052602060002090600b02016000909192909190915060008201518160000160006101000a81548173ffffffffffffffffffffffffffffffffffffffff021916908373ffffffffffffffffffffffffffffffffffffffff160217905550602082015181600101600082015181600001556020820151816001015550506040820151816003016000820151816000019060026124aa929190612b75565b506020820151816002019060026124c2929190612b75565b506040820151816004019060026124da929190612b75565b506060820151816006019060026124f2929190612b75565b50505050505060016007600101600082825401925050819055506001600760030160003373ffffffffffffffffffffffffffffffffffffffff1673ffffffffffffffffffffffffffffffffffffffff16815260200190815260200160002060006101000a81548160ff0219169083151502179055503373ffffffffffffffffffffffffffffffffffffffff167f13dd6fe92e00365cc4b5b06c43c90e02579bac92daf813dcc92257094835f9146001604051808215151515815260200180602001828103825260118152602001807f566f7465207761732061636365707465640000000000000000000000000000008152506020019250505060405180910390a260016040805190810160405280601181526020017f566f746520776173206163636570746564000000000000000000000000000000815250945094505050505b9550959350505050565b6000600760020180549050905090565b601260029054906101000a900473ffffffffffffffffffffffffffffffffffffffff1673ffffffffffffffffffffffffffffffffffffffff163373ffffffffffffffffffffffffffffffffffffffff161415156126a957600080fd5b601260009054906101000a900460ff161515156126c557600080fd5b6060604051908101604052808260006003811015156126e057fe5b602002013581526020018260016003811015156126f957fe5b6020020135815260200182600260038110151561271257fe5b60200201358152506003600082015181600001556020820151816001015560408201518160020155905050600260009054906101000a900473ffffffffffffffffffffffffffffffffffffffff1673ffffffffffffffffffffffffffffffffffffffff166380d859116003600001546003600101546003600201546040518463ffffffff167c0100000000000000000000000000000000000000000000000000000000028152600401808481526020018381526020018281526020019350505050600060405180830381600087803b1580156127ed57600080fd5b505af1158015612801573d6000803e3d6000fd5b505050506001601260006101000a81548160ff02191690831515021790555050565b601260029054906101000a900473ffffffffffffffffffffffffffffffffffffffff1673ffffffffffffffffffffffffffffffffffffffff163373ffffffffffffffffffffffffffffffffffffffff1614151561287f57600080fd5b60011515601260019054906101000a900460ff1615151415156128a157600080fd5b60011515601260009054906101000a900460ff1615151415156128c357600080fd5b600060019054906101000a900473ffffffffffffffffffffffffffffffffffffffff1673ffffffffffffffffffffffffffffffffffffffff166360a2da446003600001546003600101546003600201546006600001546040518563ffffffff167c010000000000000000000000000000000000000000000000000000000002815260040180858152602001848152602001838152602001828152602001945050505050600060405180830381600087803b15801561298057600080fd5b505af1158015612994573d6000803e3d6000fd5b50505050600160009054906101000a900473ffffffffffffffffffffffffffffffffffffffff1673ffffffffffffffffffffffffffffffffffffffff166360a2da446003600001546003600101546003600201546006600001546040518563ffffffff167c010000000000000000000000000000000000000000000000000000000002815260040180858152602001848152602001838152602001828152602001945050505050600060405180830381600087803b158015612a5557600080fd5b505af1158015612a69573d6000803e3d6000fd5b50505050565b60a06040519081016040528060008152602001612a8a612bb5565b81525090565b60606040519081016040528060008152602001612aab612bde565b81525090565b606060405190810160405280600390602082028038833980820191505090505090565b61010060405190810160405280612ae9612bf8565b8152602001612af6612bf8565b8152602001612b03612bf8565b8152602001612b10612bf8565b81525090565b604080519081016040528060008152602001600081525090565b61016060405190810160405280600073ffffffffffffffffffffffffffffffffffffffff168152602001612b62612c1a565b8152602001612b6f612c34565b81525090565b8260028101928215612ba4579160200282015b82811115612ba3578251825591602001919060010190612b88565b5b509050612bb19190612c76565b5090565b608060405190810160405280600081526020016000815260200160008152602001600081525090565b604080519081016040528060008152602001600081525090565b6040805190810160405280600290602082028038833980820191505090505090565b604080519081016040528060008152602001600081525090565b61010060405190810160405280612c49612bf8565b8152602001612c56612bf8565b8152602001612c63612bf8565b8152602001612c70612bf8565b81525090565b612c9891905b80821115612c94576000816000905550600101612c7c565b5090565b9056fe5075626c6963204b6579206f66207468652053797374656d206e6f7420796574207365744b65792047656e65726174696f6e2050726f6f66206973206e6f7420636f72726563742ea165627a7a72305820bf91e12d1adffd522f67420ac7cd03bfc73cb710449f73175b1e18e26f7a347b0029608060405234801561001057600080fd5b506080604051908101604052806000815260200160008152602001600081526020016000815250600080820151816000015560208201518160010155604082015181600201556060820151816003015590505061116c806100726000396000f3fe608060405260043610610046576000357c0100000000000000000000000000000000000000000000000000000000900480632817a98f1461004b57806360a2da44146101fa575b600080fd5b34801561005757600080fd5b506101e0600480360361016081101561006f57600080fd5b8101908080604001906002806020026040519081016040528092919082600260200280828437600081840152601f19601f820116905080830192505050505050919291929080604001906002806020026040519081016040528092919082600260200280828437600081840152601f19601f820116905080830192505050505050919291929080604001906002806020026040519081016040528092919082600260200280828437600081840152601f19601f820116905080830192505050505050919291929080604001906002806020026040519081016040528092919082600260200280828437600081840152601f19601f820116905080830192505050505050919291929080604001906002806020026040519081016040528092919082600260200280828437600081840152601f19601f8201169050808301925050505050509192919290803573ffffffffffffffffffffffffffffffffffffffff169060200190929190505050610246565b604051808215151515815260200191505060405180910390f35b6102446004803603608081101561021057600080fd5b8101908080359060200190929190803590602001909291908035906020019092919080359060200190929190505050610482565b005b60006102506110cf565b60a06040519081016040528089815260200188815260200187815260200186815260200185815250905060006102e48260200151600060028110151561029257fe5b6020020151836060015160006002811015156102aa57fe5b6020020151846080015160006002811015156102c257fe5b6020020151856000015160006002811015156102da57fe5b60200201516104af565b90506000610350836020015160016002811015156102fe57fe5b60200201518460800151600160028110151561031657fe5b60200201518560600151600160028110151561032e57fe5b60200201518660000151600060028110151561034657fe5b60200201516106ff565b905060006103bc8460400151600060028110151561036a57fe5b60200201518560600151600060028110151561038257fe5b60200201518660800151600060028110151561039a57fe5b6020020151876000015160016002811015156103b257fe5b602002015161094f565b90506000610428856040015160016002811015156103d657fe5b6020020151866060015160016002811015156103ee57fe5b60200201518760800151600160028110151561040657fe5b60200201518860000151600160028110151561041e57fe5b6020020151610b9f565b9050600061044986602001518760400151886060015189600001518c610ebb565b90508480156104555750835b801561045e5750825b80156104675750815b80156104705750805b96505050505050509695505050505050565b83600080018190555082600060010181905550816000600201819055508060006003018190555050505050565b60008060006002015473__ModuloMathLib_________________________63edbe2fbd90918660008001546040518463ffffffff167c010000000000000000000000000000000000000000000000000000000002815260040180848152602001838152602001828152602001935050505060206040518083038186803b15801561053857600080fd5b505af415801561054c573d6000803e3d6000fd5b505050506040513d602081101561056257600080fd5b8101908080519060200190929190505050905060008673__ModuloMathLib_________________________63e616559e90918673__ModuloMathLib_________________________63edbe2fbd90918b60008001546040518463ffffffff167c010000000000000000000000000000000000000000000000000000000002815260040180848152602001838152602001828152602001935050505060206040518083038186803b15801561061557600080fd5b505af4158015610629573d6000803e3d6000fd5b505050506040513d602081101561063f57600080fd5b810190808051906020019092919050505060008001546040518463ffffffff167c010000000000000000000000000000000000000000000000000000000002815260040180848152602001838152602001828152602001935050505060206040518083038186803b1580156106b357600080fd5b505af41580156106c7573d6000803e3d6000fd5b505050506040513d60208110156106dd57600080fd5b8101908080519060200190929190505050905080821492505050949350505050565b60008060006002015473__ModuloMathLib_________________________63edbe2fbd90918760008001546040518463ffffffff167c010000000000000000000000000000000000000000000000000000000002815260040180848152602001838152602001828152602001935050505060206040518083038186803b15801561078857600080fd5b505af415801561079c573d6000803e3d6000fd5b505050506040513d60208110156107b257600080fd5b8101908080519060200190929190505050905060008673__ModuloMathLib_________________________63e616559e90918673__ModuloMathLib_________________________63edbe2fbd90918a60008001546040518463ffffffff167c010000000000000000000000000000000000000000000000000000000002815260040180848152602001838152602001828152602001935050505060206040518083038186803b15801561086557600080fd5b505af4158015610879573d6000803e3d6000fd5b505050506040513d602081101561088f57600080fd5b810190808051906020019092919050505060008001546040518463ffffffff167c010000000000000000000000000000000000000000000000000000000002815260040180848152602001838152602001828152602001935050505060206040518083038186803b15801561090357600080fd5b505af4158015610917573d6000803e3d6000fd5b505050506040513d602081101561092d57600080fd5b8101908080519060200190929190505050905080821492505050949350505050565b60008060006003015473__ModuloMathLib_________________________63edbe2fbd90918660008001546040518463ffffffff167c010000000000000000000000000000000000000000000000000000000002815260040180848152602001838152602001828152602001935050505060206040518083038186803b1580156109d857600080fd5b505af41580156109ec573d6000803e3d6000fd5b505050506040513d6020811015610a0257600080fd5b8101908080519060200190929190505050905060008673__ModuloMathLib_________________________63e616559e90918673__ModuloMathLib_________________________63edbe2fbd90918b60008001546040518463ffffffff167c010000000000000000000000000000000000000000000000000000000002815260040180848152602001838152602001828152602001935050505060206040518083038186803b158015610ab557600080fd5b505af4158015610ac9573d6000803e3d6000fd5b505050506040513d6020811015610adf57600080fd5b810190808051906020019092919050505060008001546040518463ffffffff167c010000000000000000000000000000000000000000000000000000000002815260040180848152602001838152602001828152602001935050505060206040518083038186803b158015610b5357600080fd5b505af4158015610b67573d6000803e3d6000fd5b505050506040513d6020811015610b7d57600080fd5b8101908080519060200190929190505050905080821492505050949350505050565b60008060006003015473__ModuloMathLib_________________________63edbe2fbd90918660008001546040518463ffffffff167c010000000000000000000000000000000000000000000000000000000002815260040180848152602001838152602001828152602001935050505060206040518083038186803b158015610c2857600080fd5b505af4158015610c3c573d6000803e3d6000fd5b505050506040513d6020811015610c5257600080fd5b8101908080519060200190929190505050905060008373__ModuloMathLib_________________________636378bd6c909160006002015460008001546040518463ffffffff167c010000000000000000000000000000000000000000000000000000000002815260040180848152602001838152602001828152602001935050505060206040518083038186803b158015610ced57600080fd5b505af4158015610d01573d6000803e3d6000fd5b505050506040513d6020811015610d1757600080fd5b8101908080519060200190929190505050905060008173__ModuloMathLib_________________________63edbe2fbd90918960008001546040518463ffffffff167c010000000000000000000000000000000000000000000000000000000002815260040180848152602001838152602001828152602001935050505060206040518083038186803b158015610dad57600080fd5b505af4158015610dc1573d6000803e3d6000fd5b505050506040513d6020811015610dd757600080fd5b8101908080519060200190929190505050905060008873__ModuloMathLib_________________________63e616559e90918460008001546040518463ffffffff167c010000000000000000000000000000000000000000000000000000000002815260040180848152602001838152602001828152602001935050505060206040518083038186803b158015610e6d57600080fd5b505af4158015610e81573d6000803e3d6000fd5b505050506040513d6020811015610e9757600080fd5b81019080805190602001909291905050509050808414945050505050949350505050565b600080846001600281101515610ecd57fe5b602002015173__ModuloMathLib_________________________63a2f0dc8d9091876000600281101515610efd57fe5b60200201516000600101546040518463ffffffff167c010000000000000000000000000000000000000000000000000000000002815260040180848152602001838152602001828152602001935050505060206040518083038186803b158015610f6657600080fd5b505af4158015610f7a573d6000803e3d6000fd5b505050506040513d6020811015610f9057600080fd5b81019080805190602001909291905050509050600083856000600281101515610fb557fe5b6020020151866001600281101515610fc957fe5b60200201518a6000600281101515610fdd57fe5b60200201518a6000600281101515610ff157fe5b60200201518c600160028110151561100557fe5b60200201518c600160028110151561101957fe5b6020020151604051602001808873ffffffffffffffffffffffffffffffffffffffff1673ffffffffffffffffffffffffffffffffffffffff166c0100000000000000000000000002815260140187815260200186815260200185815260200184815260200183815260200182815260200197505050505050505060405160208183030381529060405280519060200120905060006001015481600190048115156110bf57fe5b0682149250505095945050505050565b610140604051908101604052806110e461111e565b81526020016110f161111e565b81526020016110fe61111e565b815260200161110b61111e565b815260200161111861111e565b81525090565b604080519081016040528060029060208202803883398082019150509050509056fea165627a7a723058207686a075180d92c8e9ff40d83b8b7f7a5bdb72119011471c7fda8946ba58bc330029608060405234801561001057600080fd5b506080604051908101604052806000815260200160008152602001600081526020016000815250600080820151816000015560208201518160010155604082015181600201556060820151816003015590505061079c806100726000396000f3fe608060405260043610610046576000357c01000000000000000000000000000000000000000000000000000000009004806360a2da441461004b578063b6b81a2614610097575b600080fd5b6100956004803603608081101561006157600080fd5b8101908080359060200190929190803590602001909291908035906020019092919080359060200190929190505050610147565b005b3480156100a357600080fd5b5061012d60048036036101008110156100bb57600080fd5b81019080803590602001909291908035906020019092919080359060200190929190803590602001909291908035906020019092919080359060200190929190803573ffffffffffffffffffffffffffffffffffffffff16906020019092919080359060200190929190505050610174565b604051808215151515815260200191505060405180910390f35b83600080018190555082600060010181905550816000600201819055508060006003018190555050505050565b600061017e610739565b60c0604051908101604052808b81526020018a815260200189815260200188815260200187815260200186815250905060006101d3826000015183602001518460400151856060015189600060010154610695565b90506000826000015173__ModuloMathLib_________________________63edbe2fbd90918560a0015160008001546040518463ffffffff167c010000000000000000000000000000000000000000000000000000000002815260040180848152602001838152602001828152602001935050505060206040518083038186803b15801561026057600080fd5b505af4158015610274573d6000803e3d6000fd5b505050506040513d602081101561028a57600080fd5b810190808051906020019092919050505090506000836040015173__ModuloMathLib_________________________63e616559e9091866080015173__ModuloMathLib_________________________63edbe2fbd90918860008001546040518463ffffffff167c010000000000000000000000000000000000000000000000000000000002815260040180848152602001838152602001828152602001935050505060206040518083038186803b15801561034557600080fd5b505af4158015610359573d6000803e3d6000fd5b505050506040513d602081101561036f57600080fd5b810190808051906020019092919050505060008001546040518463ffffffff167c010000000000000000000000000000000000000000000000000000000002815260040180848152602001838152602001828152602001935050505060206040518083038186803b1580156103e357600080fd5b505af41580156103f7573d6000803e3d6000fd5b505050506040513d602081101561040d57600080fd5b81019080805190602001909291905050509050600081831490506000806002015473__ModuloMathLib_________________________63edbe2fbd90918860a0015160008001546040518463ffffffff167c010000000000000000000000000000000000000000000000000000000002815260040180848152602001838152602001828152602001935050505060206040518083038186803b1580156104b257600080fd5b505af41580156104c6573d6000803e3d6000fd5b505050506040513d60208110156104dc57600080fd5b810190808051906020019092919050505090506000866060015173__ModuloMathLib_________________________63e616559e90918b73__ModuloMathLib_________________________63edbe2fbd90918b60008001546040518463ffffffff167c010000000000000000000000000000000000000000000000000000000002815260040180848152602001838152602001828152602001935050505060206040518083038186803b15801561059357600080fd5b505af41580156105a7573d6000803e3d6000fd5b505050506040513d60208110156105bd57600080fd5b810190808051906020019092919050505060008001546040518463ffffffff167c010000000000000000000000000000000000000000000000000000000002815260040180848152602001838152602001828152602001935050505060206040518083038186803b15801561063157600080fd5b505af4158015610645573d6000803e3d6000fd5b505050506040513d602081101561065b57600080fd5b810190808051906020019092919050505090506000818314905083801561067f5750805b9850505050505050505098975050505050505050565b6000808388888888604051602001808673ffffffffffffffffffffffffffffffffffffffff1673ffffffffffffffffffffffffffffffffffffffff166c010000000000000000000000000281526014018581526020018481526020018381526020018281526020019550505050505060405160208183030381529060405280519060200120905082816001900481151561072b57fe5b069150509695505050505050565b60c060405190810160405280600081526020016000815260200160008152602001600081526020016000815260200160008152509056fea165627a7a723058204910be4bd450b01953fd8668e5c5dca9e46f5db28535f8e64db617c7c86ed7ab0029608060405234801561001057600080fd5b50606060405190810160405280600081526020016000815260200160008152506000808201518160000155602082015181600101556040820151816002015590505061071d806100616000396000f3fe608060405260043610610046576000357c01000000000000000000000000000000000000000000000000000000009004806380d859111461004b578063b0caa8291461008d575b600080fd5b61008b6004803603606081101561006157600080fd5b81019080803590602001909291908035906020019092919080359060200190929190505050610114565b005b34801561009957600080fd5b506100fa600480360360808110156100b057600080fd5b81019080803590602001909291908035906020019092919080359060200190929190803573ffffffffffffffffffffffffffffffffffffffff169060200190929190505050610136565b604051808215151515815260200191505060405180910390f35b8260008001819055508160006001018190555080600060020181905550505050565b6000806000800154905060008060010154905060008060020154905061015a6106d7565b60408051908101604052808a8152602001898152509050600061018883868a85602001518660000151610401565b9050600061019885898b85610645565b9050600081846000015114905060008573__ModuloMathLib_________________________63edbe2fbd909187602001518b6040518463ffffffff167c010000000000000000000000000000000000000000000000000000000002815260040180848152602001838152602001828152602001935050505060206040518083038186803b15801561022857600080fd5b505af415801561023c573d6000803e3d6000fd5b505050506040513d602081101561025257600080fd5b8101908080519060200190929190505050905060008473__ModuloMathLib_________________________63e616559e90918e73__ModuloMathLib_________________________63edbe2fbd90918b600001518f6040518463ffffffff167c010000000000000000000000000000000000000000000000000000000002815260040180848152602001838152602001828152602001935050505060206040518083038186803b15801561030557600080fd5b505af4158015610319573d6000803e3d6000fd5b505050506040513d602081101561032f57600080fd5b81019080805190602001909291905050508c6040518463ffffffff167c010000000000000000000000000000000000000000000000000000000002815260040180848152602001838152602001828152602001935050505060206040518083038186803b15801561039f57600080fd5b505af41580156103b3573d6000803e3d6000fd5b505050506040513d60208110156103c957600080fd5b81019080805190602001909291905050509050600081831490508380156103ed5750805b9a5050505050505050505050949350505050565b6000808673__ModuloMathLib_________________________63edbe2fbd909186896040518463ffffffff167c010000000000000000000000000000000000000000000000000000000002815260040180848152602001838152602001828152602001935050505060206040518083038186803b15801561048157600080fd5b505af4158015610495573d6000803e3d6000fd5b505050506040513d60208110156104ab57600080fd5b8101908080519060200190929190505050905060008573__ModuloMathLib_________________________63edbe2fbd9091868a6040518463ffffffff167c010000000000000000000000000000000000000000000000000000000002815260040180848152602001838152602001828152602001935050505060206040518083038186803b15801561053d57600080fd5b505af4158015610551573d6000803e3d6000fd5b505050506040513d602081101561056757600080fd5b8101908080519060200190929190505050905060008273__ModuloMathLib_________________________636378bd6c9091848b6040518463ffffffff167c010000000000000000000000000000000000000000000000000000000002815260040180848152602001838152602001828152602001935050505060206040518083038186803b1580156105f957600080fd5b505af415801561060d573d6000803e3d6000fd5b505050506040513d602081101561062357600080fd5b8101908080519060200190929190505050905080935050505095945050505050565b600080848484604051602001808473ffffffffffffffffffffffffffffffffffffffff1673ffffffffffffffffffffffffffffffffffffffff166c0100000000000000000000000002815260140183815260200182815260200193505050506040516020818303038152906040528051906020012090508581600190048115156106cb57fe5b06915050949350505050565b60408051908101604052806000815260200160008152509056fea165627a7a723058203e6c3b60e175afd7b360249565830cfe87852f7f314319313cf6a7e19d903da10029",
  "source": "pragma solidity ^0.5.3;\n\nimport './VoteProofVerifier.sol';\nimport './SumProofVerifier.sol';\nimport './KeyGenProofVerifier.sol';\nimport './ModuloMathLib.sol';\n\ncontract Ballot {\n    // /////////////////////////////////\n    // libraries\n    // /////////////////////////////////\n    using ModuloMathLib for uint256;\n\n    // /////////////////////////////////\n    // structs\n    // /////////////////////////////////\n    enum VotingState {CONFIG, VOTING, TALLY, RESULT}\n\n    struct SystemParameters {\n        uint256 p; // prime\n        uint256 q; // prime factor: p = 2*q+1\n        uint256 g; // generator\n    }\n\n    struct PublicKey {\n        uint256 h;\n    }\n\n    struct PublicKeyShare {\n        uint256 share;\n        KeyShareProof keyShareProof;\n    }\n\n    struct DecryptedShare {\n        uint256 share;\n        DecryptedShareProof decryptedShareProof;\n    }\n\n    struct Election {\n        string votingQuestion;\n        uint256 nrOfVoters;\n        Voter[] voters;\n        mapping(address => bool) hasVoted;\n        mapping(address => PublicKeyShare) pubKeyShareMapping;\n        address[] publicKeyShareWallet;\n        mapping(address => DecryptedShare) decryptedShareMapping;\n        address[] decryptedShareWallet;\n        Cipher sumCipher;\n        uint256 yesVotes;\n    }\n\n    struct Voter {\n        address voterAddress;\n        Cipher cipher;\n        VoteProof voteProof;\n    }\n\n    struct Cipher {\n        uint256 a;\n        uint256 b;\n    }\n\n    struct VoteProof {\n        uint256[2] a;\n        uint256[2] b;\n        uint256[2] c;\n        uint256[2] f;\n    }\n\n    struct DecryptedShareProof {\n        uint256 a1;\n        uint256 b1;\n        uint256 d;\n        uint256 f;\n    }\n\n    struct KeyShareProof {\n        uint256 c;\n        uint256 d;\n    }\n\n    // /////////////////////////////////\n    // events\n    // /////////////////////////////////\n    event VoteStatusEvent(address indexed from, bool success, string reason);\n    event SystemStatusEvent(address indexed from, bool success, string reason);\n\n    // /////////////////////////////////\n    // variables\n    // /////////////////////////////////\n    VotingState private votingState = VotingState.CONFIG;\n\n    VoteProofVerifier private voteVerifier;\n    SumProofVerifier private sumVerifier;\n    KeyGenProofVerifier private keyGenProofVerifier;\n\n    SystemParameters private systemParameters;\n    PublicKey private publicKey;\n    Election private election;\n    bool private IS_PARAMETERS_SET;\n    bool private IS_PUBKEY_SET;\n    address private _owner;\n\n    // The number of PublicKeyShare needed to create the publicKey (# of authorities)\n    uint256 private NR_OF_AUTHORITY_NODES;\n\n    // /////////////////////////////////\n    // constructor\n    // /////////////////////////////////\n    constructor(string memory votingQuestion, uint256 numberOfAuthNodes) public {\n        voteVerifier = new VoteProofVerifier();\n        sumVerifier = new SumProofVerifier();\n        keyGenProofVerifier = new KeyGenProofVerifier();\n\n        IS_PARAMETERS_SET = false;\n        IS_PUBKEY_SET = false;\n\n        _owner = msg.sender;\n\n        // initialize empty Election struct\n        election.nrOfVoters = 0;\n        election.voters.length = 0;\n        election.votingQuestion = votingQuestion;\n        election.yesVotes = 0;\n\n        NR_OF_AUTHORITY_NODES = numberOfAuthNodes;\n    }\n\n    // /////////////////////////////////////////\n    // VOTING AUTHORITY core functions (owner)\n    // /////////////////////////////////////////\n    function setParameters(uint256[3] calldata params) external {\n        require(msg.sender == _owner);\n        require(!IS_PARAMETERS_SET);\n        systemParameters = SystemParameters(params[0], params[1], params[2]);\n        keyGenProofVerifier.initialize(systemParameters.p, systemParameters.q, systemParameters.g);\n        IS_PARAMETERS_SET = true;\n    }\n\n    function generatePublicKey() external {\n        require(msg.sender == _owner);\n        // public key can only be generated once\n        require(!IS_PUBKEY_SET);\n        // every sealer needs to have published it's public key share\n        require(election.publicKeyShareWallet.length == NR_OF_AUTHORITY_NODES);\n\n        address firstSealerAddress = election.publicKeyShareWallet[0];\n        uint256 key = election.pubKeyShareMapping[firstSealerAddress].share;\n\n        for (uint256 i = 1; i < election.publicKeyShareWallet.length; i++) {\n            address addr = election.publicKeyShareWallet[i];\n            key = key.modMul(election.pubKeyShareMapping[addr].share, systemParameters.p);\n        }\n\n        // set the public key\n        publicKey = PublicKey(key);\n\n        IS_PUBKEY_SET = true;\n\n        createVerifiers();\n    }\n\n    function createVerifiers() private {\n        require(msg.sender == _owner);\n        require(IS_PUBKEY_SET == true);\n        require(IS_PARAMETERS_SET == true);\n        voteVerifier.initialize(systemParameters.p, systemParameters.q, systemParameters.g, publicKey.h);\n        sumVerifier.initialize(systemParameters.p, systemParameters.q, systemParameters.g, publicKey.h);\n    }\n\n    // Change into state VOTING\n    function openBallot() public {\n        require(msg.sender == _owner);\n        require(IS_PUBKEY_SET == true);\n        require(IS_PARAMETERS_SET == true);\n        require(votingState == VotingState.CONFIG);\n        \n        votingState = VotingState.VOTING;\n    }\n\n    function closeBallot() public {\n        require(msg.sender == _owner);\n        require(IS_PUBKEY_SET == true);\n        require(IS_PARAMETERS_SET == true);\n        require(votingState == VotingState.VOTING);\n\n        votingState = VotingState.TALLY;\n    }\n\n    // Combine all submitted decrypted shares to find the final tally\n    function combineDecryptedShares() public {\n        require(votingState == VotingState.TALLY);\n        require(election.decryptedShareWallet.length == NR_OF_AUTHORITY_NODES);\n\n        address firstSealerAddress = election.decryptedShareWallet[0];\n        uint256 res = election.decryptedShareMapping[firstSealerAddress].share;\n\n        for (uint256 i = 1; i < election.decryptedShareWallet.length; i++) {\n            address addr = election.decryptedShareWallet[i];\n            res = res.modMul(election.decryptedShareMapping[addr].share, systemParameters.p);\n        }\n\n        uint256 mh = election.sumCipher.b.modMul(res.modInv(systemParameters.p), systemParameters.p);\n\n        // decode message\n        uint256 m = 0;\n        uint256 g = systemParameters.g;\n        uint256 p = systemParameters.p;\n        while ((g.modPow(m, p)) != mh) {\n            m = m + 1;\n        }\n\n        election.yesVotes = m;\n\n        votingState = VotingState.RESULT;\n    }\n\n    // /////////////////////////////////\n    // SEALER core functions\n    // /////////////////////////////////\n\n    // For Public Key Generation\n    function submitPublicKeyShare(uint256 key, uint256 proof_c, uint256 proof_d)\n        external\n        returns (bool, string memory)\n    {\n        require(votingState == VotingState.CONFIG);\n        require(IS_PUBKEY_SET == false);\n\n        bool proofValid = keyGenProofVerifier.verifyProof(proof_c, proof_d, key, msg.sender);\n        if (!proofValid) {\n            emit SystemStatusEvent(msg.sender, false, 'Key Generation Proof is not correct.');\n            return (false, 'Key Generation Proof is not correct.');\n        }\n\n        bool sealerAlreadySubmitted = false;\n\n        for (uint256 i; i < election.publicKeyShareWallet.length; i++) {\n            if (election.publicKeyShareWallet[i] == msg.sender) {\n                sealerAlreadySubmitted = true;\n            }\n        }\n\n        PublicKeyShare memory publicKeyShare = PublicKeyShare(key, KeyShareProof(proof_c, proof_d));\n\n        if (!sealerAlreadySubmitted) {\n            election.publicKeyShareWallet.push(msg.sender);\n        }\n\n        election.pubKeyShareMapping[msg.sender] = publicKeyShare;\n\n        return (true, 'Key Generation Proof is valid.');\n    }\n\n    // For Tallying the Votes\n    function submitDecryptedShare(uint256 share, uint256 a, uint256 b, uint256 a1, uint256 b1, uint256 d, uint256 f)\n        external\n        returns (bool, string memory)\n    {\n        require(votingState == VotingState.TALLY);\n\n        uint256 publicKeyShare = election.pubKeyShareMapping[msg.sender].share;\n        if (!sumVerifier.verifyProof(a, b, a1, b1, d, f, msg.sender, publicKeyShare)) {\n            emit VoteStatusEvent(msg.sender, false, 'Proof not correct');\n            return (false, 'Proof not correct');\n        }\n\n        bool sealerAlreadySubmitted = false;\n\n        for (uint256 i; i < election.decryptedShareWallet.length; i++) {\n            if (election.decryptedShareWallet[i] == msg.sender) {\n                sealerAlreadySubmitted = true;\n            }\n        }\n\n        DecryptedShare memory decryptedShare = DecryptedShare(share, DecryptedShareProof(a1, b1, d, f));\n\n        if (!sealerAlreadySubmitted) {\n            election.decryptedShareWallet.push(msg.sender);\n        }\n\n        election.decryptedShareMapping[msg.sender] = decryptedShare;\n\n        // store the cipher for later decryption\n        election.sumCipher = Cipher(a, b);\n\n        emit VoteStatusEvent(msg.sender, true, 'DecryptedShareProof accepted');\n        return (true, 'Sumproof accepted');\n    }\n\n    // /////////////////////////////////\n    // VOTER core functions\n    // /////////////////////////////////\n    function vote(\n        uint256[2] calldata cipher,\n        uint256[2] calldata a,\n        uint256[2] calldata b,\n        uint256[2] calldata c,\n        uint256[2] calldata f\n    ) external returns (bool, string memory) {\n        if (votingState != VotingState.VOTING) {\n            emit VoteStatusEvent(msg.sender, false, 'Vote not open');\n            return (false, 'Vote not open');\n        }\n\n        if(election.hasVoted[msg.sender]) {\n        \temit VoteStatusEvent(msg.sender, false, \"Voter already voted\");\n        \treturn (false, \"Voter already voted\");\n        }\n\n        if (!voteVerifier.verifyProof(cipher, a, b, c, f, msg.sender)) {\n            emit VoteStatusEvent(msg.sender, false, 'Proof not correct');\n            return (false, 'Proof not correct');\n        }\n\n        VoteProof memory voteProof = VoteProof(a, b, c, f);\n        Cipher memory _cipher = Cipher(cipher[0], cipher[1]);\n        Voter memory voter = Voter(msg.sender, _cipher, voteProof);\n\n        election.voters.push(voter);\n        election.nrOfVoters += 1;\n        election.hasVoted[msg.sender] = true;\n\n        emit VoteStatusEvent(msg.sender, true, 'Vote was accepted');\n        return (true, 'Vote was accepted');\n    }\n\n    // /////////////////////////////////\n    // getters\n    // /////////////////////////////////\n\n    function getVotingQuestion() external view returns (string memory) {\n        return election.votingQuestion;\n    }\n\n    // get system parameters\n    function getParameters() external view returns (uint256[3] memory) {\n        require(IS_PARAMETERS_SET);\n        return [systemParameters.p, systemParameters.q, systemParameters.g];\n    }\n\n    // get the total number of public key shares\n    function getNrOfPublicKeyShares() public view returns (uint256) {\n        return election.publicKeyShareWallet.length;\n    }\n\n    // get combined public key of the system\n    function getPublicKey() public view returns (uint256) {\n        require(IS_PUBKEY_SET, 'Public Key of the System not yet set');\n        return publicKey.h;\n    }\n\n    // get a vote cipher at a specific index\n    function getVote(uint256 idx) public view returns (uint256, uint256) {\n        return (election.voters[idx].cipher.a, election.voters[idx].cipher.b);\n    }\n\n    // get the total number of votes in election.voters\n    function getNumberOfVotes() public view returns (uint256) {\n        return election.voters.length;\n    }\n\n    // get the status of the vote\n    function getBallotStatus() public view returns (string memory) {\n        if(votingState == VotingState.CONFIG) {\n            return \"CONFIG\";\n        }\n\n        if(votingState == VotingState.VOTING) {\n            return \"VOTING\";\n        }\n\n        if(votingState == VotingState.TALLY) {\n            return \"TALLY\";\n        }\n\n        if(votingState == VotingState.RESULT) {\n            return \"RESULT\";\n        }\n    }\n\n    // get the total number of decrypted shares\n    function getNrOfDecryptedShares() public view returns (uint256) {\n        return election.decryptedShareWallet.length;\n    }\n\n    // get a decrypted share at a specific index\n    function getDecryptedShare(uint256 idx) public view returns (uint256) {\n        address addr = election.decryptedShareWallet[idx];\n        return election.decryptedShareMapping[addr].share;\n    }\n\n    // get vote result\n    function getVoteResult() public view returns (uint256) {\n        require(votingState == VotingState.RESULT);\n        return election.yesVotes;\n    }\n}\n",
  "sourcePath": "/home/nik/dev/uni/map/master-project/contracts/contracts/FiniteField/Ballot.sol",
  "compiler": {
    "name": "solc",
    "version": "0.5.3+commit.10d17f24.Emscripten.clang"
  },
  "schemaVersion": "3.0.19",
  "updatedAt": "2019-12-16T15:09:33.527Z",
  "devdoc": {
    "methods": {}
  },
  "userdoc": {
    "methods": {}
  }
}