{
  "contractName": "ModuloMathLib",
  "abi": [
    {
      "constant": true,
      "inputs": [
        {
          "name": "a",
          "type": "uint256"
        },
        {
          "name": "b",
          "type": "uint256"
        },
        {
          "name": "modulus",
          "type": "uint256"
        }
      ],
      "name": "modAdd",
      "outputs": [
        {
          "name": "res",
          "type": "uint256"
        }
      ],
      "payable": false,
      "stateMutability": "view",
      "type": "function"
    },
    {
      "constant": true,
      "inputs": [
        {
          "name": "a",
          "type": "uint256"
        },
        {
          "name": "b",
          "type": "uint256"
        },
        {
          "name": "modulus",
          "type": "uint256"
        }
      ],
      "name": "modSub",
      "outputs": [
        {
          "name": "res",
          "type": "uint256"
        }
      ],
      "payable": false,
      "stateMutability": "view",
      "type": "function"
    },
    {
      "constant": true,
      "inputs": [
        {
          "name": "a",
          "type": "uint256"
        },
        {
          "name": "b",
          "type": "uint256"
        },
        {
          "name": "modulus",
          "type": "uint256"
        }
      ],
      "name": "modMul",
      "outputs": [
        {
          "name": "res",
          "type": "uint256"
        }
      ],
      "payable": false,
      "stateMutability": "view",
      "type": "function"
    },
    {
      "constant": true,
      "inputs": [
        {
          "name": "a",
          "type": "uint256"
        },
        {
          "name": "b",
          "type": "uint256"
        },
        {
          "name": "modulus",
          "type": "uint256"
        }
      ],
      "name": "modDiv",
      "outputs": [
        {
          "name": "res",
          "type": "uint256"
        }
      ],
      "payable": false,
      "stateMutability": "view",
      "type": "function"
    },
    {
      "constant": true,
      "inputs": [
        {
          "name": "a",
          "type": "uint256"
        },
        {
          "name": "b",
          "type": "uint256"
        },
        {
          "name": "modulus",
          "type": "uint256"
        }
      ],
      "name": "modPow",
      "outputs": [
        {
          "name": "res",
          "type": "uint256"
        }
      ],
      "payable": false,
      "stateMutability": "view",
      "type": "function"
    },
    {
      "constant": true,
      "inputs": [
        {
          "name": "a",
          "type": "uint256"
        },
        {
          "name": "p",
          "type": "uint256"
        }
      ],
      "name": "modInv",
      "outputs": [
        {
          "name": "res",
          "type": "uint256"
        }
      ],
      "payable": false,
      "stateMutability": "pure",
      "type": "function"
    }
  ],
  "bytecode": "0x6103e9610030600b82828239805160001a6073146000811461002057610022565bfe5b5030600052607381538281f3fe7300000000000000000000000000000000000000003014608060405260043610610089576000357c0100000000000000000000000000000000000000000000000000000000900480633e7657dd1461008e5780636378bd6c146100e4578063a2f0dc8d1461013a578063a9008ad614610190578063e616559e146101dc578063edbe2fbd14610232575b600080fd5b6100ce600480360360608110156100a457600080fd5b81019080803590602001909291908035906020019092919080359060200190929190505050610288565b6040518082815260200191505060405180910390f35b610124600480360360608110156100fa57600080fd5b810190808035906020019092919080359060200190929190803590602001909291905050506102a1565b6040518082815260200191505060405180910390f35b61017a6004803603606081101561015057600080fd5b810190808035906020019092919080359060200190929190803590602001909291905050506102c0565b6040518082815260200191505060405180910390f35b6101c6600480360360408110156101a657600080fd5b8101908080359060200190929190803590602001909291905050506102d9565b6040518082815260200191505060405180910390f35b61021c600480360360608110156101f257600080fd5b8101908080359060200190929190803590602001909291908035906020019092919050505061038b565b6040518082815260200191505060405180910390f35b6102726004803603606081101561024857600080fd5b810190808035906020019092919080359060200190929190803590602001909291905050506103a4565b6040518082815260200191505060405180910390f35b60008183850381151561029757fe5b0690509392505050565b60006102b7846102b185856102d9565b8461038b565b90509392505050565b6000818385018115156102cf57fe5b0690509392505050565b6000808314806102e857508183145b806102f35750600082145b156102fd57600080fd5b8183111561031457818381151561031057fe5b0692505b600080600190506000849050600086905060005b60008214151561036157818381151561033d57fe5b04905083848202860383848402860380955081965082975083985050505050610328565b600085121561037c5784600003870395505050505050610385565b84955050505050505b92915050565b60008183850281151561039a57fe5b0690509392505050565b60008183850a8115156103b357fe5b069050939250505056fea165627a7a72305820d19fbc77eebd98ff7dc7415f38fd2148d17951760266dff8db71bcb159fd1a3d0029",
  "source": "pragma solidity ^0.5.3;\n\n// Modulo math function used by the contracts in the eVoting system\nlibrary ModuloMathLib {\n    function modAdd(uint256 a, uint256 b, uint256 modulus) public view returns (uint256 res) {\n        return (a + b) % modulus;\n    }\n\n    function modSub(uint256 a, uint256 b, uint256 modulus) public view returns (uint256 res) {\n        return (a - b) % modulus;\n    }\n\n    function modMul(uint256 a, uint256 b, uint256 modulus) public view returns (uint256 res) {\n        return (a * b) % modulus;\n    }\n\n    function modDiv(uint256 a, uint256 b, uint256 modulus) public view returns (uint256 res) {\n        return modMul(a, modInv(b, modulus), modulus);\n    }\n\n    function modPow(uint256 a, uint256 b, uint256 modulus) public view returns (uint256 res) {\n        return (a**b) % modulus;\n    }\n\n    /// @dev Modular inverse of a (mod p) using euclid.\n    /// \"a\" and \"p\" must be co-prime.\n    /// @param a The number.\n    /// @param p The modulus.\n    /// @return x such that ax = 1 (mod p)\n    // inspired by: https://github.com/stonecoldpat/anonymousvoting/blob/master/LocalCrypto.sol\n    function modInv(uint256 a, uint256 p) public pure returns (uint256 res) {\n        if (a == 0 || a == p || p == 0) revert();\n        if (a > p) a = a % p;\n        int256 t1;\n        int256 t2 = 1;\n        uint256 r1 = p;\n        uint256 r2 = a;\n        uint256 q;\n        while (r2 != 0) {\n            q = r1 / r2;\n            (t1, t2, r1, r2) = (t2, t1 - int256(q) * t2, r2, r1 - q * r2);\n        }\n        if (t1 < 0) return (p - uint256(-t1));\n        return uint256(t1);\n    }\n}\n",
  "sourcePath": "/home/alex/University/master-project-evoting/contracts/contracts/FiniteField/ModuloMathLib.sol",
  "compiler": {
    "name": "solc",
    "version": "0.5.3+commit.10d17f24.Emscripten.clang"
  },
  "schemaVersion": "3.0.19",
  "updatedAt": "2020-01-21T09:19:43.127Z",
  "devdoc": {
    "methods": {
      "modInv(uint256,uint256)": {
        "details": "Modular inverse of a (mod p) using euclid. \"a\" and \"p\" must be co-prime.",
        "params": {
          "a": "The number.",
          "p": "The modulus."
        },
        "return": "x such that ax = 1 (mod p)"
      }
    }
  },
  "userdoc": {
    "methods": {}
  }
}